{
  "transactions": [
    {
      "hash": "0xc31cab75be22469ae8d97bbfbc005740ff1869276cae2ca073178f733e4b8d7b",
      "transactionType": "CALL",
      "contractName": null,
      "contractAddress": "0xc6ADeA8722C2DB1EFF810f429C3C09BA00E1F25C",
      "function": "approve(address,uint256)",
      "arguments": [
        "0xE84D9E66A9d97db6428Da274BE28162a94d8B97D",
        "10000000000000000000000"
      ],
      "transaction": {
        "type": "0x00",
        "from": "0x8d76db34ccca356fa805f5a277efff53aac5af88",
        "to": "0xc6adea8722c2db1eff810f429c3c09ba00e1f25c",
        "gas": "0x2e0404",
        "value": "0x0",
        "data": "0x095ea7b3000000000000000000000000e84d9e66a9d97db6428da274be28162a94d8b97d00000000000000000000000000000000000000000000021e19e0c9bab2400000",
        "nonce": "0x3c"
      },
      "additionalContracts": [],
      "isFixedGasLimit": false
    },
    {
      "hash": "0x8b44937f9d693d1d930f1bf20b3cb7178e6ce67e8609951a3bbbbc1a9a6dab46",
      "transactionType": "CALL",
      "contractName": null,
      "contractAddress": "0xE84D9E66A9d97db6428Da274BE28162a94d8B97D",
      "function": "credit(uint256,address)",
      "arguments": [
        "10000000000000000000000",
        "0x312BA46064e1fe5904362BfB0C52c38F20d3Ef44"
      ],
      "transaction": {
        "type": "0x00",
        "from": "0x8d76db34ccca356fa805f5a277efff53aac5af88",
        "to": "0xe84d9e66a9d97db6428da274be28162a94d8b97d",
        "gas": "0x2cc59",
        "value": "0x0",
        "data": "0x9fec19e000000000000000000000000000000000000000000000021e19e0c9bab2400000000000000000000000000000312ba46064e1fe5904362bfb0c52c38f20d3ef44",
        "nonce": "0x3d"
      },
      "additionalContracts": [],
      "isFixedGasLimit": false
    }
  ],
  "receipts": [
    {
      "transactionHash": "0xc31cab75be22469ae8d97bbfbc005740ff1869276cae2ca073178f733e4b8d7b",
      "transactionIndex": "0x4",
      "blockHash": "0x73c12e9ac58e164441d99328d10824cb07bb52d04ac4762d9800ede33e930b08",
      "blockNumber": "0x1ec5c04",
      "from": "0x8d76dB34CcCA356fA805f5A277EFFf53aaC5af88",
      "to": "0xc6ADeA8722C2DB1EFF810f429C3C09BA00E1F25C",
      "cumulativeGasUsed": "0x2fab1c2",
      "gasUsed": "0x1b0d9d",
      "contractAddress": null,
      "logs": [
        {
          "address": "0xc6ADeA8722C2DB1EFF810f429C3C09BA00E1F25C",
          "topics": [
            "0x8c5be1e5ebec7d5bd14f71427d1e84f3dd0314c0f7b2291e5b200ac8c7c3b925",
            "0x0000000000000000000000008d76db34ccca356fa805f5a277efff53aac5af88",
            "0x000000000000000000000000e84d9e66a9d97db6428da274be28162a94d8b97d"
          ],
          "data": "0x00000000000000000000000000000000000000000000021e19e0c9bab2400000",
          "blockHash": "0x73c12e9ac58e164441d99328d10824cb07bb52d04ac4762d9800ede33e930b08",
          "blockNumber": "0x1ec5c04",
          "transactionHash": "0xc31cab75be22469ae8d97bbfbc005740ff1869276cae2ca073178f733e4b8d7b",
          "transactionIndex": "0x4",
          "logIndex": "0x3",
          "removed": false
        }
      ],
      "status": "0x1",
      "logsBloom": "0x00000000000000000000000000000000000000000000000000000000000000000000000000000000000000000000000000000000000000002000000004200000000000000000000000000000000000000000000000000000000000000002000000000000000000000000000000020000000000000000000000000000000000000000000000000000000000000000000000000000000000000000000000000000020040000000000000000000000000000000000000000000000000000000000080000000000000000000000000000000000000000000000000000000000000000010000000000000000000000000000200010000000000000000000000400000",
      "type": "0x0",
      "effectiveGasPrice": "0x5f5e100"
    },
    {
      "transactionHash": "0x8b44937f9d693d1d930f1bf20b3cb7178e6ce67e8609951a3bbbbc1a9a6dab46",
      "transactionIndex": "0x1",
      "blockHash": "0x3962475b07b10c509b056c596c6e0b536e265e9ee29b448c796558b411afbb1b",
      "blockNumber": "0x1ec5c0a",
      "from": "0x8d76dB34CcCA356fA805f5A277EFFf53aaC5af88",
      "to": "0xE84D9E66A9d97db6428Da274BE28162a94d8B97D",
      "cumulativeGasUsed": "0x1c5f71",
      "gasUsed": "0x1c5f71",
      "contractAddress": null,
      "logs": [
        {
          "address": "0xc6ADeA8722C2DB1EFF810f429C3C09BA00E1F25C",
          "topics": [
            "0x8c5be1e5ebec7d5bd14f71427d1e84f3dd0314c0f7b2291e5b200ac8c7c3b925",
            "0x0000000000000000000000008d76db34ccca356fa805f5a277efff53aac5af88",
            "0x000000000000000000000000e84d9e66a9d97db6428da274be28162a94d8b97d"
          ],
          "data": "0x0000000000000000000000000000000000000000000000000000000000000000",
          "blockHash": "0x3962475b07b10c509b056c596c6e0b536e265e9ee29b448c796558b411afbb1b",
          "blockNumber": "0x1ec5c0a",
          "transactionHash": "0x8b44937f9d693d1d930f1bf20b3cb7178e6ce67e8609951a3bbbbc1a9a6dab46",
          "transactionIndex": "0x1",
          "logIndex": "0x0",
          "removed": false
        },
        {
          "address": "0xc6ADeA8722C2DB1EFF810f429C3C09BA00E1F25C",
          "topics": [
            "0xddf252ad1be2c89b69c2b068fc378daa952ba7f163c4a11628f55a4df523b3ef",
            "0x0000000000000000000000008d76db34ccca356fa805f5a277efff53aac5af88",
            "0x000000000000000000000000e84d9e66a9d97db6428da274be28162a94d8b97d"
          ],
          "data": "0x00000000000000000000000000000000000000000000021e19e0c9bab2400000",
          "blockHash": "0x3962475b07b10c509b056c596c6e0b536e265e9ee29b448c796558b411afbb1b",
          "blockNumber": "0x1ec5c0a",
          "transactionHash": "0x8b44937f9d693d1d930f1bf20b3cb7178e6ce67e8609951a3bbbbc1a9a6dab46",
          "transactionIndex": "0x1",
          "logIndex": "0x1",
          "removed": false
        },
        {
          "address": "0xE84D9E66A9d97db6428Da274BE28162a94d8B97D",
          "topics": [
            "0x1bbf55d483639f8103dc4e035af71a4fbdb16c80be740fa3eef81198acefa094"
          ],
          "data": "0x0000000000000000000000008d76db34ccca356fa805f5a277efff53aac5af8800000000000000000000000000000000000000000000021e19e0c9bab2400000",
          "blockHash": "0x3962475b07b10c509b056c596c6e0b536e265e9ee29b448c796558b411afbb1b",
          "blockNumber": "0x1ec5c0a",
          "transactionHash": "0x8b44937f9d693d1d930f1bf20b3cb7178e6ce67e8609951a3bbbbc1a9a6dab46",
          "transactionIndex": "0x1",
          "logIndex": "0x2",
          "removed": false
        }
      ],
      "status": "0x1",
      "logsBloom": "0x00000000000000000000000000000000000000000000000000000000000000002000000000000000000000000000000000000000000000002000000404200000004000000000000000000008000000000000000000000000000000000002000000000000000000000000000000020000000000000000000000000010000008000000000000000000000000000400000000000000000000000000000000000000020040000000000000000000000000000000000000000000000000000000000080000002000000000000000000000000000000000000000000002000000000000010000000000000000000000000000200010000000000000000000000400000",
      "type": "0x0",
      "effectiveGasPrice": "0x5f5e100"
    }
  ],
  "libraries": [],
  "pending": [],
  "returns": {},
  "timestamp": 1712755395,
  "chain": 421614,
  "multi": false,
  "commit": "d26a9b2"
}