{
  "transactions": [
    {
      "hash": "0x0fb24ac76ad7fdfd36e3950f35ceebd56c89cab3695a75315c3d2643cdf0d702",
      "transactionType": "CALL",
      "contractName": null,
      "contractAddress": "0xc6ADeA8722C2DB1EFF810f429C3C09BA00E1F25C",
      "function": "approve(address,uint256)",
      "arguments": [
        "0x15a2Ef9E37aD9163391667455BA0e3da70a58601",
        "100000000000000000000"
      ],
      "transaction": {
        "type": "0x00",
        "from": "0x8d76db34ccca356fa805f5a277efff53aac5af88",
        "to": "0xc6adea8722c2db1eff810f429c3c09ba00e1f25c",
        "gas": "0x23166",
        "value": "0x0",
        "data": "0x095ea7b300000000000000000000000015a2ef9e37ad9163391667455ba0e3da70a586010000000000000000000000000000000000000000000000056bc75e2d63100000",
        "nonce": "0x1f"
      },
      "additionalContracts": [],
      "isFixedGasLimit": false
    },
    {
      "hash": "0xc5c2c326ca86daefb47a5153ac7aedbb6c3078acdf63f4b6caecbf4069106a3a",
      "transactionType": "CALL",
      "contractName": null,
      "contractAddress": "0x15a2Ef9E37aD9163391667455BA0e3da70a58601",
      "function": "credit(uint256,address)",
      "arguments": [
        "1000000000000000000",
        "0x312BA46064e1fe5904362BfB0C52c38F20d3Ef44"
      ],
      "transaction": {
        "type": "0x00",
        "from": "0x8d76db34ccca356fa805f5a277efff53aac5af88",
        "to": "0x15a2ef9e37ad9163391667455ba0e3da70a58601",
        "gas": "0x32fe7",
        "value": "0x0",
        "data": "0x9fec19e00000000000000000000000000000000000000000000000000de0b6b3a7640000000000000000000000000000312ba46064e1fe5904362bfb0c52c38f20d3ef44",
        "nonce": "0x20"
      },
      "additionalContracts": [],
      "isFixedGasLimit": false
    }
  ],
  "receipts": [
    {
      "transactionHash": "0x0fb24ac76ad7fdfd36e3950f35ceebd56c89cab3695a75315c3d2643cdf0d702",
      "transactionIndex": "0x3",
      "blockHash": "0xb01ba46a444b8b81ea9a199dc6a8a14d5e7d8993007a214943bcacd3850347fc",
      "blockNumber": "0x184dc70",
      "from": "0x8d76dB34CcCA356fA805f5A277EFFf53aaC5af88",
      "to": "0xc6ADeA8722C2DB1EFF810f429C3C09BA00E1F25C",
      "cumulativeGasUsed": "0x640d1",
      "gasUsed": "0x16363",
      "contractAddress": null,
      "logs": [
        {
          "address": "0xc6ADeA8722C2DB1EFF810f429C3C09BA00E1F25C",
          "topics": [
            "0x8c5be1e5ebec7d5bd14f71427d1e84f3dd0314c0f7b2291e5b200ac8c7c3b925",
            "0x0000000000000000000000008d76db34ccca356fa805f5a277efff53aac5af88",
            "0x00000000000000000000000015a2ef9e37ad9163391667455ba0e3da70a58601"
          ],
          "data": "0x0000000000000000000000000000000000000000000000056bc75e2d63100000",
          "blockHash": "0xb01ba46a444b8b81ea9a199dc6a8a14d5e7d8993007a214943bcacd3850347fc",
          "blockNumber": "0x184dc70",
          "transactionHash": "0x0fb24ac76ad7fdfd36e3950f35ceebd56c89cab3695a75315c3d2643cdf0d702",
          "transactionIndex": "0x3",
          "logIndex": "0x4",
          "removed": false
        }
      ],
      "status": "0x1",
      "logsBloom": "0x00000000000000000000000000000000000000000000000000000000000000000000000000000000000000000000000000000000000000000000000004200000000000000000000000000000000000000000000000000000000000000000000000000000000000000000000000020010000000000000000000000000000000000000000000000000000000000000000000000000000000000000000000000000020040000000000000000000000000000000000000000000000000000000000080000000000000000000000000000000000000000000000000000000000000008010000000000000000000000000000200000000000000000000000000408000",
      "type": "0x0",
      "effectiveGasPrice": "0x5f5e100"
    },
    {
      "transactionHash": "0xc5c2c326ca86daefb47a5153ac7aedbb6c3078acdf63f4b6caecbf4069106a3a",
      "transactionIndex": "0x1",
      "blockHash": "0xe04c862525114d50a96b6295f1b7263b68d687e766dcdf1a181dffdc4f500934",
      "blockNumber": "0x184dc73",
      "from": "0x8d76dB34CcCA356fA805f5A277EFFf53aaC5af88",
      "to": "0x15a2Ef9E37aD9163391667455BA0e3da70a58601",
      "cumulativeGasUsed": "0x223ee",
      "gasUsed": "0x223ee",
      "contractAddress": null,
      "logs": [
        {
          "address": "0xc6ADeA8722C2DB1EFF810f429C3C09BA00E1F25C",
          "topics": [
            "0x8c5be1e5ebec7d5bd14f71427d1e84f3dd0314c0f7b2291e5b200ac8c7c3b925",
            "0x0000000000000000000000008d76db34ccca356fa805f5a277efff53aac5af88",
            "0x00000000000000000000000015a2ef9e37ad9163391667455ba0e3da70a58601"
          ],
          "data": "0x0000000000000000000000000000000000000000000000055de6a779bbac0000",
          "blockHash": "0xe04c862525114d50a96b6295f1b7263b68d687e766dcdf1a181dffdc4f500934",
          "blockNumber": "0x184dc73",
          "transactionHash": "0xc5c2c326ca86daefb47a5153ac7aedbb6c3078acdf63f4b6caecbf4069106a3a",
          "transactionIndex": "0x1",
          "logIndex": "0x0",
          "removed": false
        },
        {
          "address": "0xc6ADeA8722C2DB1EFF810f429C3C09BA00E1F25C",
          "topics": [
            "0xddf252ad1be2c89b69c2b068fc378daa952ba7f163c4a11628f55a4df523b3ef",
            "0x0000000000000000000000008d76db34ccca356fa805f5a277efff53aac5af88",
            "0x00000000000000000000000015a2ef9e37ad9163391667455ba0e3da70a58601"
          ],
          "data": "0x0000000000000000000000000000000000000000000000000de0b6b3a7640000",
          "blockHash": "0xe04c862525114d50a96b6295f1b7263b68d687e766dcdf1a181dffdc4f500934",
          "blockNumber": "0x184dc73",
          "transactionHash": "0xc5c2c326ca86daefb47a5153ac7aedbb6c3078acdf63f4b6caecbf4069106a3a",
          "transactionIndex": "0x1",
          "logIndex": "0x1",
          "removed": false
        },
        {
          "address": "0x15a2Ef9E37aD9163391667455BA0e3da70a58601",
          "topics": [
            "0x1bbf55d483639f8103dc4e035af71a4fbdb16c80be740fa3eef81198acefa094"
          ],
          "data": "0x0000000000000000000000008d76db34ccca356fa805f5a277efff53aac5af880000000000000000000000000000000000000000000000000de0b6b3a7640000",
          "blockHash": "0xe04c862525114d50a96b6295f1b7263b68d687e766dcdf1a181dffdc4f500934",
          "blockNumber": "0x184dc73",
          "transactionHash": "0xc5c2c326ca86daefb47a5153ac7aedbb6c3078acdf63f4b6caecbf4069106a3a",
          "transactionIndex": "0x1",
          "logIndex": "0x2",
          "removed": false
        }
      ],
      "status": "0x1",
      "logsBloom": "0x00000000000000000000000000000000000000000000000000000000000000002000000000000000000000000000000000000000000000000000000404200000000000000000000000000008000000000000000000000000000000000000000000000000000000000000000000020010000800000000000000000010008000000000000000000000000000000400000000000000000000000000000000000000020040000000000000000000000000000000000000000000000000000000000080000002000000000000000000000000000000000000400000000000000000008010000000000000000000000000000200000000000000000000000000408000",
      "type": "0x0",
      "effectiveGasPrice": "0x5f5e100"
    }
  ],
  "libraries": [],
  "pending": [],
  "returns": {},
  "timestamp": 1711035852,
  "chain": 421614,
  "commit": "1858226"
}