{
  "transactions": [
    {
      "hash": "0xd7c4e88fe04fbca33f3d0e3c927913db826abed7e0da70032359291a290363cf",
      "transactionType": "CALL",
      "contractName": null,
      "contractAddress": "0x2B6C6F362d21327b9bD29E9870bCB15BA5a3f5aa",
      "function": "credit(uint256,address)",
      "arguments": [
        "100",
        "0x312BA46064e1fe5904362BfB0C52c38F20d3Ef44"
      ],
      "transaction": {
        "type": "0x00",
        "from": "0x8d76db34ccca356fa805f5a277efff53aac5af88",
        "to": "0x2b6c6f362d21327b9bd29e9870bcb15ba5a3f5aa",
        "gas": "0x41c3b",
        "value": "0x0",
        "data": "0x9fec19e00000000000000000000000000000000000000000000000000000000000000064000000000000000000000000312ba46064e1fe5904362bfb0c52c38f20d3ef44",
        "nonce": "0x7"
      },
      "additionalContracts": [],
      "isFixedGasLimit": false
    }
  ],
  "receipts": [
    {
      "transactionHash": "0xd7c4e88fe04fbca33f3d0e3c927913db826abed7e0da70032359291a290363cf",
      "transactionIndex": "0x2",
      "blockHash": "0x64e6fb79bd9f56766aad8493a0b282bf1a1a6b1f869fff6cd7b6a7e11e380081",
      "blockNumber": "0x1847c75",
      "from": "0x8d76dB34CcCA356fA805f5A277EFFf53aaC5af88",
      "to": "0x2B6C6F362d21327b9bD29E9870bCB15BA5a3f5aa",
      "cumulativeGasUsed": "0x7449e",
      "gasUsed": "0x283fd",
      "contractAddress": null,
      "logs": [],
      "status": "0x1",
      "logsBloom": "0x00000000000000000000000000000000000000000000000000000000000000000000000000000000000000000000000000000000000000000000000000000000000000000000000000000000000000000000000000000000000000000000000000000000000000000000000000000000000000000000000000000000000000000000000000000000000000000000000000000000000000000000000000000000000000000000000000000000000000000000000000000000000000000000000000000000000000000000000000000000000000000000000000000000000000000000000000000000000000000000000000000000000000000000000000000000",
      "type": "0x0",
      "effectiveGasPrice": "0x5f5e100"
    }
  ],
  "libraries": [],
  "pending": [],
  "returns": {},
  "timestamp": 1711029698,
  "chain": 421614,
  "commit": "4a6e76a"
}