{
  "transactions": [
    {
      "hash": "0xe391a8d864ac4d781553e1ea009dad4644cf0b2c061eea464ceb5929635d8b73",
      "transactionType": "CALL",
      "contractName": null,
      "contractAddress": "0xc6adea8722c2db1eff810f429c3c09ba00e1f25c",
      "function": "approve(address,uint256)",
      "arguments": [
        "0x79cb297c923430cfab2714648941553298444743",
        "115792089237316195423570985008687907853269984665640564039457584007913129639935"
      ],
      "transaction": {
        "from": "0x8d76db34ccca356fa805f5a277efff53aac5af88",
        "to": "0xc6adea8722c2db1eff810f429c3c09ba00e1f25c",
        "gas": "0xec7f",
        "value": "0x0",
        "input": "0x095ea7b300000000000000000000000079cb297c923430cfab2714648941553298444743ffffffffffffffffffffffffffffffffffffffffffffffffffffffffffffffff",
        "nonce": "0x50",
        "chainId": "0x66eee",
        "accessList": null,
        "type": null
      },
      "additionalContracts": [],
      "isFixedGasLimit": false
    }
  ],
  "receipts": [
    {
      "status": "0x1",
      "cumulativeGasUsed": "0xb5ec",
      "logs": [
        {
          "address": "0xc6adea8722c2db1eff810f429c3c09ba00e1f25c",
          "topics": [
            "0x8c5be1e5ebec7d5bd14f71427d1e84f3dd0314c0f7b2291e5b200ac8c7c3b925",
            "0x0000000000000000000000008d76db34ccca356fa805f5a277efff53aac5af88",
            "0x00000000000000000000000079cb297c923430cfab2714648941553298444743"
          ],
          "data": "0xffffffffffffffffffffffffffffffffffffffffffffffffffffffffffffffff",
          "blockHash": "0x4be19d090298478ec5df0b6715ba604122f4e75cfd65c6058fd6b0e54f36a9ee",
          "blockNumber": "0x21a3f56",
          "transactionHash": "0xe391a8d864ac4d781553e1ea009dad4644cf0b2c061eea464ceb5929635d8b73",
          "transactionIndex": "0x1",
          "logIndex": "0x0",
          "removed": false
        }
      ],
      "logsBloom": "0x00000000000000004000000000000000000000000000000000000000000000000000000000000000000000000000000000000000000000000000000004200000000000000000000000000000000000000000000000000000000000000000000000000000000000000000000000020000000000000000000000000000000000000000000000000000000000000000000000000000000000000000000000000000020040000000000000000000000000000000000000000000000000000000000080000000000000000000000000000000000000000000000000000000000000000010800000000000000000000000000200000000000000000100000000400000",
      "type": "0x0",
      "transactionHash": "0xe391a8d864ac4d781553e1ea009dad4644cf0b2c061eea464ceb5929635d8b73",
      "transactionIndex": "0x1",
      "blockHash": "0x4be19d090298478ec5df0b6715ba604122f4e75cfd65c6058fd6b0e54f36a9ee",
      "blockNumber": "0x21a3f56",
      "gasUsed": "0xb5ec",
      "effectiveGasPrice": "0xa0d5b4c0",
      "from": "0x8d76db34ccca356fa805f5a277efff53aac5af88",
      "to": "0xc6adea8722c2db1eff810f429c3c09ba00e1f25c",
      "contractAddress": null,
      "gasUsedForL1": "0x0",
      "l1BlockNumber": "0x5773a6"
    }
  ],
  "libraries": [],
  "pending": [],
  "returns": {},
  "timestamp": 1713524504,
  "chain": 421614,
  "commit": "9f80fd6"
}