{
  "transactions": [
    {
      "hash": "0x5c169041b98ef9c27f0204deb08e7b9a1b6ac78062e9984564a4a98700a43564",
      "transactionType": "CALL",
      "contractName": null,
      "contractAddress": "0x79cb297c923430cfab2714648941553298444743",
      "function": "credit(uint256,address)",
      "arguments": [
        "1000000000000000000",
        "0x312BA46064e1fe5904362BfB0C52c38F20d3Ef44"
      ],
      "transaction": {
        "from": "0x8d76db34ccca356fa805f5a277efff53aac5af88",
        "to": "0x79cb297c923430cfab2714648941553298444743",
        "gas": "0x1bac8",
        "value": "0x0",
        "input": "0x9fec19e00000000000000000000000000000000000000000000000000de0b6b3a7640000000000000000000000000000312ba46064e1fe5904362bfb0c52c38f20d3ef44",
        "nonce": "0x5e",
        "chainId": "0x66eee",
        "accessList": null,
        "type": null
      },
      "additionalContracts": [],
      "isFixedGasLimit": false
    }
  ],
  "receipts": [
    {
      "status": "0x1",
      "cumulativeGasUsed": "0x234a04",
      "logs": [
        {
          "address": "0xc6adea8722c2db1eff810f429c3c09ba00e1f25c",
          "topics": [
            "0x8c5be1e5ebec7d5bd14f71427d1e84f3dd0314c0f7b2291e5b200ac8c7c3b925",
            "0x0000000000000000000000008d76db34ccca356fa805f5a277efff53aac5af88",
            "0x00000000000000000000000079cb297c923430cfab2714648941553298444743"
          ],
          "data": "0x0000000000000000000000000000000000c097ce7bc90715a56ae85c589c0000",
          "blockHash": "0x0b4c338c0ae4ac3a91501f8c1190350244214df59a5a6c3c872dfcb5a1f85d8e",
          "blockNumber": "0x22bd952",
          "transactionHash": "0x5c169041b98ef9c27f0204deb08e7b9a1b6ac78062e9984564a4a98700a43564",
          "transactionIndex": "0x6",
          "logIndex": "0x20",
          "removed": false
        },
        {
          "address": "0xc6adea8722c2db1eff810f429c3c09ba00e1f25c",
          "topics": [
            "0xddf252ad1be2c89b69c2b068fc378daa952ba7f163c4a11628f55a4df523b3ef",
            "0x0000000000000000000000008d76db34ccca356fa805f5a277efff53aac5af88",
            "0x00000000000000000000000079cb297c923430cfab2714648941553298444743"
          ],
          "data": "0x0000000000000000000000000000000000000000000000000de0b6b3a7640000",
          "blockHash": "0x0b4c338c0ae4ac3a91501f8c1190350244214df59a5a6c3c872dfcb5a1f85d8e",
          "blockNumber": "0x22bd952",
          "transactionHash": "0x5c169041b98ef9c27f0204deb08e7b9a1b6ac78062e9984564a4a98700a43564",
          "transactionIndex": "0x6",
          "logIndex": "0x21",
          "removed": false
        },
        {
          "address": "0x79cb297c923430cfab2714648941553298444743",
          "topics": [
            "0x1bbf55d483639f8103dc4e035af71a4fbdb16c80be740fa3eef81198acefa094"
          ],
          "data": "0x0000000000000000000000008d76db34ccca356fa805f5a277efff53aac5af880000000000000000000000000000000000000000000000000de0b6b3a7640000",
          "blockHash": "0x0b4c338c0ae4ac3a91501f8c1190350244214df59a5a6c3c872dfcb5a1f85d8e",
          "blockNumber": "0x22bd952",
          "transactionHash": "0x5c169041b98ef9c27f0204deb08e7b9a1b6ac78062e9984564a4a98700a43564",
          "transactionIndex": "0x6",
          "logIndex": "0x22",
          "removed": false
        }
      ],
      "logsBloom": "0x00000000000000004000000000000000000000000000000000000000000000002000000000000000000000000000000000000000000000000000000404200000000000000000000000000008000000000000000000000000000000000000000000000000000000000000000000020000000000000000000000000010000000100000000000000000000000000400000000000000000000000000000000000000020040000000000000000000000000000000000000000000000000000000000080000002000000000000000001000000000000000000000000000000000000000010800000000000000000000000000200000000000000000100000000400000",
      "type": "0x0",
      "transactionHash": "0x5c169041b98ef9c27f0204deb08e7b9a1b6ac78062e9984564a4a98700a43564",
      "transactionIndex": "0x6",
      "blockHash": "0x0b4c338c0ae4ac3a91501f8c1190350244214df59a5a6c3c872dfcb5a1f85d8e",
      "blockNumber": "0x22bd952",
      "gasUsed": "0x150e4",
      "effectiveGasPrice": "0x4b13f880",
      "from": "0x8d76db34ccca356fa805f5a277efff53aac5af88",
      "to": "0x79cb297c923430cfab2714648941553298444743",
      "contractAddress": null,
      "gasUsedForL1": "0x0",
      "l1BlockNumber": "0x57d025"
    }
  ],
  "libraries": [],
  "pending": [],
  "returns": {},
  "timestamp": 1713811947,
  "chain": 421614,
  "commit": "4f905cc"
}