{
  "transactions": [
    {
      "hash": "0x6613bed2b9a324780e94b8621b560e342e80bdca660ccb227a745e7b8f307a51",
      "transactionType": "CALL",
      "contractName": null,
      "contractAddress": "0xc6adea8722c2db1eff810f429c3c09ba00e1f25c",
      "function": "approve(address,uint256)",
      "arguments": [
        "0x79cb297c923430cfab2714648941553298444743",
        "1000000000000000000000000000000000000"
      ],
      "transaction": {
        "from": "0x8d76db34ccca356fa805f5a277efff53aac5af88",
        "to": "0xc6adea8722c2db1eff810f429c3c09ba00e1f25c",
        "gas": "0xeb38",
        "value": "0x0",
        "input": "0x095ea7b300000000000000000000000079cb297c923430cfab27146489415532984447430000000000000000000000000000000000c097ce7bc90715b34b9f1000000000",
        "nonce": "0x5d",
        "chainId": "0x66eee",
        "accessList": null,
        "type": null
      },
      "additionalContracts": [],
      "isFixedGasLimit": false
    }
  ],
  "receipts": [
    {
      "status": "0x1",
      "cumulativeGasUsed": "0xb4f0",
      "logs": [
        {
          "address": "0xc6adea8722c2db1eff810f429c3c09ba00e1f25c",
          "topics": [
            "0x8c5be1e5ebec7d5bd14f71427d1e84f3dd0314c0f7b2291e5b200ac8c7c3b925",
            "0x0000000000000000000000008d76db34ccca356fa805f5a277efff53aac5af88",
            "0x00000000000000000000000079cb297c923430cfab2714648941553298444743"
          ],
          "data": "0x0000000000000000000000000000000000c097ce7bc90715b34b9f1000000000",
          "blockHash": "0xe1a38e147d11cfa56626b21f73284a386c30b37289f5a28f19ef3953f463205d",
          "blockNumber": "0x22bd7ca",
          "transactionHash": "0x6613bed2b9a324780e94b8621b560e342e80bdca660ccb227a745e7b8f307a51",
          "transactionIndex": "0x1",
          "logIndex": "0x0",
          "removed": false
        }
      ],
      "logsBloom": "0x00000000000000004000000000000000000000000000000000000000000000000000000000000000000000000000000000000000000000000000000004200000000000000000000000000000000000000000000000000000000000000000000000000000000000000000000000020000000000000000000000000000000000000000000000000000000000000000000000000000000000000000000000000000020040000000000000000000000000000000000000000000000000000000000080000000000000000000000000000000000000000000000000000000000000000010800000000000000000000000000200000000000000000100000000400000",
      "type": "0x0",
      "transactionHash": "0x6613bed2b9a324780e94b8621b560e342e80bdca660ccb227a745e7b8f307a51",
      "transactionIndex": "0x1",
      "blockHash": "0xe1a38e147d11cfa56626b21f73284a386c30b37289f5a28f19ef3953f463205d",
      "blockNumber": "0x22bd7ca",
      "gasUsed": "0xb4f0",
      "effectiveGasPrice": "0x4f211c50",
      "from": "0x8d76db34ccca356fa805f5a277efff53aac5af88",
      "to": "0xc6adea8722c2db1eff810f429c3c09ba00e1f25c",
      "contractAddress": null,
      "gasUsedForL1": "0x0",
      "l1BlockNumber": "0x57d01c"
    }
  ],
  "libraries": [],
  "pending": [],
  "returns": {},
  "timestamp": 1713811849,
  "chain": 421614,
  "commit": "4f905cc"
}