{
  "transactions": [
    {
      "hash": "0xa82f838969b04859923b8b0476396e70e40028f853a771f801c3c5ff746e4e63",
      "transactionType": "CALL",
      "contractName": null,
      "contractAddress": "0xc6ADeA8722C2DB1EFF810f429C3C09BA00E1F25C",
      "function": "approve(address,uint256)",
      "arguments": [
        "0x54bE4777F127019B4E3Fb9E31cf8FAB19287d662",
        "10000000000000000000000"
      ],
      "transaction": {
        "type": "0x00",
        "from": "0x8d76db34ccca356fa805f5a277efff53aac5af88",
        "to": "0xc6adea8722c2db1eff810f429c3c09ba00e1f25c",
        "gas": "0xaab64",
        "value": "0x0",
        "data": "0x095ea7b300000000000000000000000054be4777f127019b4e3fb9e31cf8fab19287d66200000000000000000000000000000000000000000000021e19e0c9bab2400000",
        "nonce": "0x29"
      },
      "additionalContracts": [],
      "isFixedGasLimit": false
    },
    {
      "hash": "0x2dfa730c6d1f81220c6233a3f5daeb4bc720691ea0e74bf4463b85264dfdf480",
      "transactionType": "CALL",
      "contractName": null,
      "contractAddress": "0x54bE4777F127019B4E3Fb9E31cf8FAB19287d662",
      "function": "credit(uint256,address)",
      "arguments": [
        "10000000000000000000000",
        "0x312BA46064e1fe5904362BfB0C52c38F20d3Ef44"
      ],
      "transaction": {
        "type": "0x00",
        "from": "0x8d76db34ccca356fa805f5a277efff53aac5af88",
        "to": "0x54be4777f127019b4e3fb9e31cf8fab19287d662",
        "gas": "0x24619",
        "value": "0x0",
        "data": "0x9fec19e000000000000000000000000000000000000000000000021e19e0c9bab2400000000000000000000000000000312ba46064e1fe5904362bfb0c52c38f20d3ef44",
        "nonce": "0x2a"
      },
      "additionalContracts": [],
      "isFixedGasLimit": false
    }
  ],
  "receipts": [
    {
      "transactionHash": "0xa82f838969b04859923b8b0476396e70e40028f853a771f801c3c5ff746e4e63",
      "transactionIndex": "0x2",
      "blockHash": "0x1a04c329a6b0700d0c2940936c4235489efa7b51195dadabfc7660f1cb6b5774",
      "blockNumber": "0x185c5e7",
      "from": "0x8d76dB34CcCA356fA805f5A277EFFf53aaC5af88",
      "to": "0xc6ADeA8722C2DB1EFF810f429C3C09BA00E1F25C",
      "cumulativeGasUsed": "0xbf127",
      "gasUsed": "0x66738",
      "contractAddress": null,
      "logs": [
        {
          "address": "0xc6ADeA8722C2DB1EFF810f429C3C09BA00E1F25C",
          "topics": [
            "0x8c5be1e5ebec7d5bd14f71427d1e84f3dd0314c0f7b2291e5b200ac8c7c3b925",
            "0x0000000000000000000000008d76db34ccca356fa805f5a277efff53aac5af88",
            "0x00000000000000000000000054be4777f127019b4e3fb9e31cf8fab19287d662"
          ],
          "data": "0x00000000000000000000000000000000000000000000021e19e0c9bab2400000",
          "blockHash": "0x1a04c329a6b0700d0c2940936c4235489efa7b51195dadabfc7660f1cb6b5774",
          "blockNumber": "0x185c5e7",
          "transactionHash": "0xa82f838969b04859923b8b0476396e70e40028f853a771f801c3c5ff746e4e63",
          "transactionIndex": "0x2",
          "logIndex": "0x0",
          "removed": false
        }
      ],
      "status": "0x1",
      "logsBloom": "0x00000000000000000000000000000000000000000000000000000000000000000000000000004000000000000000000000000000000000000000000004200000000000000000000000000000000000000000000000100000000000000000000000001000000000000000000000020000000000000000000000000000000000000000000000000000000000000000000000000000000000000000000000000000020040000000000000000000000000000000000000000000000000000000000080000000000000000000000000000000000000000000000000000000000000000010000000000000000000000000000200000000000000000000000000400000",
      "type": "0x0",
      "effectiveGasPrice": "0x5f5e100"
    },
    {
      "transactionHash": "0x2dfa730c6d1f81220c6233a3f5daeb4bc720691ea0e74bf4463b85264dfdf480",
      "transactionIndex": "0x1",
      "blockHash": "0xc6f82cd1f094a291dbb1ca694f1f12a097007f2c11537b9dc002ef98010fd4a4",
      "blockNumber": "0x185c5ea",
      "from": "0x8d76dB34CcCA356fA805f5A277EFFf53aaC5af88",
      "to": "0x54bE4777F127019B4E3Fb9E31cf8FAB19287d662",
      "cumulativeGasUsed": "0x757db",
      "gasUsed": "0x757db",
      "contractAddress": null,
      "logs": [
        {
          "address": "0xc6ADeA8722C2DB1EFF810f429C3C09BA00E1F25C",
          "topics": [
            "0x8c5be1e5ebec7d5bd14f71427d1e84f3dd0314c0f7b2291e5b200ac8c7c3b925",
            "0x0000000000000000000000008d76db34ccca356fa805f5a277efff53aac5af88",
            "0x00000000000000000000000054be4777f127019b4e3fb9e31cf8fab19287d662"
          ],
          "data": "0x0000000000000000000000000000000000000000000000000000000000000000",
          "blockHash": "0xc6f82cd1f094a291dbb1ca694f1f12a097007f2c11537b9dc002ef98010fd4a4",
          "blockNumber": "0x185c5ea",
          "transactionHash": "0x2dfa730c6d1f81220c6233a3f5daeb4bc720691ea0e74bf4463b85264dfdf480",
          "transactionIndex": "0x1",
          "logIndex": "0x0",
          "removed": false
        },
        {
          "address": "0xc6ADeA8722C2DB1EFF810f429C3C09BA00E1F25C",
          "topics": [
            "0xddf252ad1be2c89b69c2b068fc378daa952ba7f163c4a11628f55a4df523b3ef",
            "0x0000000000000000000000008d76db34ccca356fa805f5a277efff53aac5af88",
            "0x00000000000000000000000054be4777f127019b4e3fb9e31cf8fab19287d662"
          ],
          "data": "0x00000000000000000000000000000000000000000000021e19e0c9bab2400000",
          "blockHash": "0xc6f82cd1f094a291dbb1ca694f1f12a097007f2c11537b9dc002ef98010fd4a4",
          "blockNumber": "0x185c5ea",
          "transactionHash": "0x2dfa730c6d1f81220c6233a3f5daeb4bc720691ea0e74bf4463b85264dfdf480",
          "transactionIndex": "0x1",
          "logIndex": "0x1",
          "removed": false
        },
        {
          "address": "0x54bE4777F127019B4E3Fb9E31cf8FAB19287d662",
          "topics": [
            "0x1bbf55d483639f8103dc4e035af71a4fbdb16c80be740fa3eef81198acefa094"
          ],
          "data": "0x0000000000000000000000008d76db34ccca356fa805f5a277efff53aac5af8800000000000000000000000000000000000000000000021e19e0c9bab2400000",
          "blockHash": "0xc6f82cd1f094a291dbb1ca694f1f12a097007f2c11537b9dc002ef98010fd4a4",
          "blockNumber": "0x185c5ea",
          "transactionHash": "0x2dfa730c6d1f81220c6233a3f5daeb4bc720691ea0e74bf4463b85264dfdf480",
          "transactionIndex": "0x1",
          "logIndex": "0x2",
          "removed": false
        }
      ],
      "status": "0x1",
      "logsBloom": "0x00000000000000000000000000000000000000000000000000000000000000002000000000004000000000000000000000000000000000000000000404200000000000000000000004000008000000000000000000100000000000000000000000001000000000000000000000020000000000000000000000000110040000000000000000000000000000000400000000000000000000000000000000000000020040000000000000000000000000000000000000000000000000000000000080000002000000000000000000000000000000000000000000000000000000000010000000000000000000000000000200000000000000000000000000400000",
      "type": "0x0",
      "effectiveGasPrice": "0x5f5e100"
    }
  ],
  "libraries": [],
  "pending": [],
  "returns": {},
  "timestamp": 1711051146,
  "chain": 421614,
  "commit": "0aea9ec"
}