{
  "transactions": [
    {
      "hash": "0x95a4fcfb407f60c5829d5096e95767167c8ed1eeff149af06f3ee0ef7d456770",
      "transactionType": "CALL",
      "contractName": null,
      "contractAddress": "0x2B6C6F362d21327b9bD29E9870bCB15BA5a3f5aa",
      "function": "credit(uint256,address)",
      "arguments": [
        "100",
        "0x312BA46064e1fe5904362BfB0C52c38F20d3Ef44"
      ],
      "transaction": {
        "type": "0x00",
        "from": "0x8d76db34ccca356fa805f5a277efff53aac5af88",
        "to": "0x2b6c6f362d21327b9bd29e9870bcb15ba5a3f5aa",
        "gas": "0x14a9b",
        "value": "0x0",
        "data": "0x9fec19e00000000000000000000000000000000000000000000000000000000000000064000000000000000000000000312ba46064e1fe5904362bfb0c52c38f20d3ef44",
        "nonce": "0xd"
      },
      "additionalContracts": [],
      "isFixedGasLimit": false
    }
  ],
  "receipts": [
    {
      "transactionHash": "0x95a4fcfb407f60c5829d5096e95767167c8ed1eeff149af06f3ee0ef7d456770",
      "transactionIndex": "0x1",
      "blockHash": "0x4036f52f882d676b82f64dacdde649c92d43d290ec46c3490a80ecf673f44a9f",
      "blockNumber": "0x184b042",
      "from": "0x8d76dB34CcCA356fA805f5A277EFFf53aaC5af88",
      "to": "0x2B6C6F362d21327b9bD29E9870bCB15BA5a3f5aa",
      "cumulativeGasUsed": "0xde65",
      "gasUsed": "0xde65",
      "contractAddress": null,
      "logs": [],
      "status": "0x1",
      "logsBloom": "0x00000000000000000000000000000000000000000000000000000000000000000000000000000000000000000000000000000000000000000000000000000000000000000000000000000000000000000000000000000000000000000000000000000000000000000000000000000000000000000000000000000000000000000000000000000000000000000000000000000000000000000000000000000000000000000000000000000000000000000000000000000000000000000000000000000000000000000000000000000000000000000000000000000000000000000000000000000000000000000000000000000000000000000000000000000000",
      "type": "0x0",
      "effectiveGasPrice": "0x5f5e100"
    }
  ],
  "libraries": [],
  "pending": [],
  "returns": {},
  "timestamp": 1711033011,
  "chain": 421614,
  "commit": "1858226"
}