{
  "transactions": [
    {
      "hash": "0x32b89f1074e28d4075962bc925322eacb2f6f9e43f579aa382f3bcbdcabdf21f",
      "transactionType": "CALL",
      "contractName": null,
      "contractAddress": "0xc6ADeA8722C2DB1EFF810f429C3C09BA00E1F25C",
      "function": "approve(address,uint256)",
      "arguments": [
        "0x8487B23e891F2502c8f3337eD7ad30B23EBd254D",
        "10000000000000000000000"
      ],
      "transaction": {
        "type": "0x00",
        "from": "0x8d76db34ccca356fa805f5a277efff53aac5af88",
        "to": "0xc6adea8722c2db1eff810f429c3c09ba00e1f25c",
        "gas": "0x70475",
        "value": "0x0",
        "data": "0x095ea7b30000000000000000000000008487b23e891f2502c8f3337ed7ad30b23ebd254d00000000000000000000000000000000000000000000021e19e0c9bab2400000",
        "nonce": "0x25"
      },
      "additionalContracts": [],
      "isFixedGasLimit": false
    },
    {
      "hash": "0x44967c4c54043d16c0ca8c9e5deb0768db7be9e8dd8428c8212701b7a0b17fe0",
      "transactionType": "CALL",
      "contractName": null,
      "contractAddress": "0x8487B23e891F2502c8f3337eD7ad30B23EBd254D",
      "function": "credit(uint256,address)",
      "arguments": [
        "10000000000000000000000",
        "0x312BA46064e1fe5904362BfB0C52c38F20d3Ef44"
      ],
      "transaction": {
        "type": "0x00",
        "from": "0x8d76db34ccca356fa805f5a277efff53aac5af88",
        "to": "0x8487b23e891f2502c8f3337ed7ad30b23ebd254d",
        "gas": "0x24619",
        "value": "0x0",
        "data": "0x9fec19e000000000000000000000000000000000000000000000021e19e0c9bab2400000000000000000000000000000312ba46064e1fe5904362bfb0c52c38f20d3ef44",
        "nonce": "0x26"
      },
      "additionalContracts": [],
      "isFixedGasLimit": false
    }
  ],
  "receipts": [
    {
      "transactionHash": "0x32b89f1074e28d4075962bc925322eacb2f6f9e43f579aa382f3bcbdcabdf21f",
      "transactionIndex": "0x4",
      "blockHash": "0x0b957107626bf1147ff15ff5f376a38a808e09c5f79a194884400ca3522f5c63",
      "blockNumber": "0x185c10d",
      "from": "0x8d76dB34CcCA356fA805f5A277EFFf53aaC5af88",
      "to": "0xc6ADeA8722C2DB1EFF810f429C3C09BA00E1F25C",
      "cumulativeGasUsed": "0x2f2b59",
      "gasUsed": "0x44503",
      "contractAddress": null,
      "logs": [
        {
          "address": "0xc6ADeA8722C2DB1EFF810f429C3C09BA00E1F25C",
          "topics": [
            "0x8c5be1e5ebec7d5bd14f71427d1e84f3dd0314c0f7b2291e5b200ac8c7c3b925",
            "0x0000000000000000000000008d76db34ccca356fa805f5a277efff53aac5af88",
            "0x0000000000000000000000008487b23e891f2502c8f3337ed7ad30b23ebd254d"
          ],
          "data": "0x00000000000000000000000000000000000000000000021e19e0c9bab2400000",
          "blockHash": "0x0b957107626bf1147ff15ff5f376a38a808e09c5f79a194884400ca3522f5c63",
          "blockNumber": "0x185c10d",
          "transactionHash": "0x32b89f1074e28d4075962bc925322eacb2f6f9e43f579aa382f3bcbdcabdf21f",
          "transactionIndex": "0x4",
          "logIndex": "0x5",
          "removed": false
        }
      ],
      "status": "0x1",
      "logsBloom": "0x00000000000000000000000000000000000000000000000000000000000000000000000000000000000000010000000000000000000000000000000004200000000000000000000000000000000000000000000000000000000000000000000000000000000000000000000000020000000000800000000000000000800000000000000000000000000000000000000000000000000000000000000000000000020040000000000000000000000000000000000000000000000000000000000080000000000000000000000000000000000000000000000000000000000000000010000000000000000000000000000200000000000000000000000000400000",
      "type": "0x0",
      "effectiveGasPrice": "0x5f5e100"
    },
    {
      "transactionHash": "0x44967c4c54043d16c0ca8c9e5deb0768db7be9e8dd8428c8212701b7a0b17fe0",
      "transactionIndex": "0x2",
      "blockHash": "0xe57f42935ed4ed976f4eb088c07cb1dbbac8a86157055095388ec980cc72c970",
      "blockNumber": "0x185c110",
      "from": "0x8d76dB34CcCA356fA805f5A277EFFf53aaC5af88",
      "to": "0x8487B23e891F2502c8f3337eD7ad30B23EBd254D",
      "cumulativeGasUsed": "0x14f3d2",
      "gasUsed": "0x535a6",
      "contractAddress": null,
      "logs": [
        {
          "address": "0xc6ADeA8722C2DB1EFF810f429C3C09BA00E1F25C",
          "topics": [
            "0x8c5be1e5ebec7d5bd14f71427d1e84f3dd0314c0f7b2291e5b200ac8c7c3b925",
            "0x0000000000000000000000008d76db34ccca356fa805f5a277efff53aac5af88",
            "0x0000000000000000000000008487b23e891f2502c8f3337ed7ad30b23ebd254d"
          ],
          "data": "0x0000000000000000000000000000000000000000000000000000000000000000",
          "blockHash": "0xe57f42935ed4ed976f4eb088c07cb1dbbac8a86157055095388ec980cc72c970",
          "blockNumber": "0x185c110",
          "transactionHash": "0x44967c4c54043d16c0ca8c9e5deb0768db7be9e8dd8428c8212701b7a0b17fe0",
          "transactionIndex": "0x2",
          "logIndex": "0xa",
          "removed": false
        },
        {
          "address": "0xc6ADeA8722C2DB1EFF810f429C3C09BA00E1F25C",
          "topics": [
            "0xddf252ad1be2c89b69c2b068fc378daa952ba7f163c4a11628f55a4df523b3ef",
            "0x0000000000000000000000008d76db34ccca356fa805f5a277efff53aac5af88",
            "0x0000000000000000000000008487b23e891f2502c8f3337ed7ad30b23ebd254d"
          ],
          "data": "0x00000000000000000000000000000000000000000000021e19e0c9bab2400000",
          "blockHash": "0xe57f42935ed4ed976f4eb088c07cb1dbbac8a86157055095388ec980cc72c970",
          "blockNumber": "0x185c110",
          "transactionHash": "0x44967c4c54043d16c0ca8c9e5deb0768db7be9e8dd8428c8212701b7a0b17fe0",
          "transactionIndex": "0x2",
          "logIndex": "0xb",
          "removed": false
        },
        {
          "address": "0x8487B23e891F2502c8f3337eD7ad30B23EBd254D",
          "topics": [
            "0x1bbf55d483639f8103dc4e035af71a4fbdb16c80be740fa3eef81198acefa094"
          ],
          "data": "0x0000000000000000000000008d76db34ccca356fa805f5a277efff53aac5af8800000000000000000000000000000000000000000000021e19e0c9bab2400000",
          "blockHash": "0xe57f42935ed4ed976f4eb088c07cb1dbbac8a86157055095388ec980cc72c970",
          "blockNumber": "0x185c110",
          "transactionHash": "0x44967c4c54043d16c0ca8c9e5deb0768db7be9e8dd8428c8212701b7a0b17fe0",
          "transactionIndex": "0x2",
          "logIndex": "0xc",
          "removed": false
        }
      ],
      "status": "0x1",
      "logsBloom": "0x00000000000000000000000000000000000000000000000000000000000000002000000000000000000000010000000000000000000000000000000404200000000000000000000000000008000000000000000000000000000000000000000000000000000000000000000000020000000000800000000000000010800000000000000000000000000000000400000000000000000000000000000000000000020040000000000000000000000000000000000000100000000000000000000080000002000000000000000000000000000000400000000000000000000000000010000000000000000000000010000200000000000000000000000000400000",
      "type": "0x0",
      "effectiveGasPrice": "0x5f5e100"
    }
  ],
  "libraries": [],
  "pending": [],
  "returns": {},
  "timestamp": 1711050823,
  "chain": 421614,
  "commit": "0aea9ec"
}