{
  "transactions": [
    {
      "hash": "0xa1a1cd2095af56ffd883843dd5547398fcee52fc9cc0dcadba8edaae2efad290",
      "transactionType": "CALL",
      "contractName": null,
      "contractAddress": "0x79cb297c923430cfab2714648941553298444743",
      "function": "changeEscrowThreshold(uint256)",
      "arguments": [
        "10000000000"
      ],
      "transaction": {
        "from": "0x8d76db34ccca356fa805f5a277efff53aac5af88",
        "to": "0x79cb297c923430cfab2714648941553298444743",
        "gas": "0xa110",
        "value": "0x0",
        "input": "0x55f6002400000000000000000000000000000000000000000000000000000002540be400",
        "nonce": "0x62",
        "chainId": "0x66eee",
        "accessList": null,
        "type": null
      },
      "additionalContracts": [],
      "isFixedGasLimit": false
    }
  ],
  "receipts": [
    {
      "status": "0x1",
      "cumulativeGasUsed": "0x7b8c",
      "logs": [],
      "logsBloom": "0x00000000000000000000000000000000000000000000000000000000000000000000000000000000000000000000000000000000000000000000000000000000000000000000000000000000000000000000000000000000000000000000000000000000000000000000000000000000000000000000000000000000000000000000000000000000000000000000000000000000000000000000000000000000000000000000000000000000000000000000000000000000000000000000000000000000000000000000000000000000000000000000000000000000000000000000000000000000000000000000000000000000000000000000000000000000",
      "type": "0x2",
      "transactionHash": "0xa1a1cd2095af56ffd883843dd5547398fcee52fc9cc0dcadba8edaae2efad290",
      "transactionIndex": "0x1",
      "blockHash": "0x623228259ef3f6a58f5ae78a0bb3b86d3df7482ad0c0b43fcc4de566608c6a6e",
      "blockNumber": "0x2348d3c",
      "gasUsed": "0x7b8c",
      "effectiveGasPrice": "0xbe7293e0",
      "from": "0x8d76db34ccca356fa805f5a277efff53aac5af88",
      "to": "0x79cb297c923430cfab2714648941553298444743",
      "contractAddress": null,
      "gasUsedForL1": "0x0",
      "l1BlockNumber": "0x57fdcb"
    }
  ],
  "libraries": [],
  "pending": [],
  "returns": {},
  "timestamp": 1713953908,
  "chain": 421614,
  "commit": "1f0e831"
}