{
  "transactions": [
    {
      "hash": "0xd2cb6f638e1db52b55c84acfb40940b00723f717b50aca17deb0ace0b6b8d6d9",
      "transactionType": "CALL",
      "contractName": null,
      "contractAddress": "0xc6adea8722c2db1eff810f429c3c09ba00e1f25c",
      "function": "approve(address,uint256)",
      "arguments": [
        "0x79cb297c923430cfab2714648941553298444743",
        "10000000000000000000000"
      ],
      "transaction": {
        "from": "0x8d76db34ccca356fa805f5a277efff53aac5af88",
        "to": "0xc6adea8722c2db1eff810f429c3c09ba00e1f25c",
        "gas": "0xeb09",
        "value": "0x0",
        "input": "0x095ea7b300000000000000000000000079cb297c923430cfab271464894155329844474300000000000000000000000000000000000000000000021e19e0c9bab2400000",
        "nonce": "0x4e",
        "chainId": "0x66eee",
        "accessList": null,
        "type": null
      },
      "additionalContracts": [],
      "isFixedGasLimit": false
    },
    {
      "hash": "0xe74552746acb7e8de76dd56a55208a0fd4db3da2265393eb31a476fec04bdb5f",
      "transactionType": "CALL",
      "contractName": null,
      "contractAddress": "0x79cb297c923430cfab2714648941553298444743",
      "function": "credit(uint256,address)",
      "arguments": [
        "10000000000000000000000",
        "0x312BA46064e1fe5904362BfB0C52c38F20d3Ef44"
      ],
      "transaction": {
        "from": "0x8d76db34ccca356fa805f5a277efff53aac5af88",
        "to": "0x79cb297c923430cfab2714648941553298444743",
        "gas": "0x2cc59",
        "value": "0x0",
        "input": "0x9fec19e000000000000000000000000000000000000000000000021e19e0c9bab2400000000000000000000000000000312ba46064e1fe5904362bfb0c52c38f20d3ef44",
        "nonce": "0x4f",
        "chainId": "0x66eee",
        "accessList": null,
        "type": null
      },
      "additionalContracts": [],
      "isFixedGasLimit": false
    }
  ],
  "receipts": [
    {
      "status": "0x1",
      "cumulativeGasUsed": "0x66b3e",
      "logs": [
        {
          "address": "0xc6adea8722c2db1eff810f429c3c09ba00e1f25c",
          "topics": [
            "0x8c5be1e5ebec7d5bd14f71427d1e84f3dd0314c0f7b2291e5b200ac8c7c3b925",
            "0x0000000000000000000000008d76db34ccca356fa805f5a277efff53aac5af88",
            "0x00000000000000000000000079cb297c923430cfab2714648941553298444743"
          ],
          "data": "0x00000000000000000000000000000000000000000000021e19e0c9bab2400000",
          "blockHash": "0x26ad01bc83cae4a243adf25fff22597078b523d88414754fa631524dd2064dc8",
          "blockNumber": "0x21a3e3d",
          "transactionHash": "0xd2cb6f638e1db52b55c84acfb40940b00723f717b50aca17deb0ace0b6b8d6d9",
          "transactionIndex": "0x2",
          "logIndex": "0x0",
          "removed": false
        }
      ],
      "logsBloom": "0x00000000000000004000000000000000000000000000000000000000000000000000000000000000000000000000000000000000000000000000000004200000000000000000000000000000000000000000000000000000000000000000000000000000000000000000000000020000000000000000000000000000000000000000000000000000000000000000000000000000000000000000000000000000020040000000000000000000000000000000000000000000000000000000000080000000000000000000000000000000000000000000000000000000000000000010800000000000000000000000000200000000000000000100000000400000",
      "type": "0x0",
      "transactionHash": "0xd2cb6f638e1db52b55c84acfb40940b00723f717b50aca17deb0ace0b6b8d6d9",
      "transactionIndex": "0x2",
      "blockHash": "0x26ad01bc83cae4a243adf25fff22597078b523d88414754fa631524dd2064dc8",
      "blockNumber": "0x21a3e3d",
      "gasUsed": "0xb4cc",
      "effectiveGasPrice": "0x9d288b40",
      "from": "0x8d76db34ccca356fa805f5a277efff53aac5af88",
      "to": "0xc6adea8722c2db1eff810f429c3c09ba00e1f25c",
      "contractAddress": null,
      "gasUsedForL1": "0x0",
      "l1BlockNumber": "0x5773a2"
    },
    {
      "status": "0x1",
      "cumulativeGasUsed": "0x206a0",
      "logs": [
        {
          "address": "0xc6adea8722c2db1eff810f429c3c09ba00e1f25c",
          "topics": [
            "0x8c5be1e5ebec7d5bd14f71427d1e84f3dd0314c0f7b2291e5b200ac8c7c3b925",
            "0x0000000000000000000000008d76db34ccca356fa805f5a277efff53aac5af88",
            "0x00000000000000000000000079cb297c923430cfab2714648941553298444743"
          ],
          "data": "0x0000000000000000000000000000000000000000000000000000000000000000",
          "blockHash": "0x04b767fb7ecba7b0dbb680e1e942364931872c72d0b833284119358f86b16da8",
          "blockNumber": "0x21a3e3f",
          "transactionHash": "0xe74552746acb7e8de76dd56a55208a0fd4db3da2265393eb31a476fec04bdb5f",
          "transactionIndex": "0x1",
          "logIndex": "0x0",
          "removed": false
        },
        {
          "address": "0xc6adea8722c2db1eff810f429c3c09ba00e1f25c",
          "topics": [
            "0xddf252ad1be2c89b69c2b068fc378daa952ba7f163c4a11628f55a4df523b3ef",
            "0x0000000000000000000000008d76db34ccca356fa805f5a277efff53aac5af88",
            "0x00000000000000000000000079cb297c923430cfab2714648941553298444743"
          ],
          "data": "0x00000000000000000000000000000000000000000000021e19e0c9bab2400000",
          "blockHash": "0x04b767fb7ecba7b0dbb680e1e942364931872c72d0b833284119358f86b16da8",
          "blockNumber": "0x21a3e3f",
          "transactionHash": "0xe74552746acb7e8de76dd56a55208a0fd4db3da2265393eb31a476fec04bdb5f",
          "transactionIndex": "0x1",
          "logIndex": "0x1",
          "removed": false
        },
        {
          "address": "0x79cb297c923430cfab2714648941553298444743",
          "topics": [
            "0x1bbf55d483639f8103dc4e035af71a4fbdb16c80be740fa3eef81198acefa094"
          ],
          "data": "0x0000000000000000000000008d76db34ccca356fa805f5a277efff53aac5af8800000000000000000000000000000000000000000000021e19e0c9bab2400000",
          "blockHash": "0x04b767fb7ecba7b0dbb680e1e942364931872c72d0b833284119358f86b16da8",
          "blockNumber": "0x21a3e3f",
          "transactionHash": "0xe74552746acb7e8de76dd56a55208a0fd4db3da2265393eb31a476fec04bdb5f",
          "transactionIndex": "0x1",
          "logIndex": "0x2",
          "removed": false
        }
      ],
      "logsBloom": "0x00000000000000004000000000000000000000000000000000000000000000002000000000000000000000000000000000000000000000000000000404200000000000000000000000000008000000000000000000000000000000000000000000000000000000000000000000020000000000000000000000000010000000100000000000000000000000000400000000000000000000000000000000000000020040000000000000000000000000000000000000000000000000000000000080000002000000000000000001000000000000000000000000000000000000000010800000000000000000000000000200000000000000000100000000400000",
      "type": "0x0",
      "transactionHash": "0xe74552746acb7e8de76dd56a55208a0fd4db3da2265393eb31a476fec04bdb5f",
      "transactionIndex": "0x1",
      "blockHash": "0x04b767fb7ecba7b0dbb680e1e942364931872c72d0b833284119358f86b16da8",
      "blockNumber": "0x21a3e3f",
      "gasUsed": "0x206a0",
      "effectiveGasPrice": "0x9ceae600",
      "from": "0x8d76db34ccca356fa805f5a277efff53aac5af88",
      "to": "0x79cb297c923430cfab2714648941553298444743",
      "contractAddress": null,
      "gasUsedForL1": "0x0",
      "l1BlockNumber": "0x5773a2"
    }
  ],
  "libraries": [],
  "pending": [],
  "returns": {},
  "timestamp": 1713524434,
  "chain": 421614,
  "commit": "9f80fd6"
}