{
  "transactions": [
    {
      "hash": "0xb9d5aae36366c0ae31eaeb4f9da5e759888567fe6653df13bb269b2726b96f70",
      "transactionType": "CALL",
      "contractName": null,
      "contractAddress": "0xc6ADeA8722C2DB1EFF810f429C3C09BA00E1F25C",
      "function": "approve(address,uint256)",
      "arguments": [
        "0x15a2Ef9E37aD9163391667455BA0e3da70a58601",
        "100000000000000000000"
      ],
      "transaction": {
        "type": "0x00",
        "from": "0x8d76db34ccca356fa805f5a277efff53aac5af88",
        "to": "0xc6adea8722c2db1eff810f429c3c09ba00e1f25c",
        "gas": "0x2883c",
        "value": "0x0",
        "data": "0x095ea7b300000000000000000000000015a2ef9e37ad9163391667455ba0e3da70a586010000000000000000000000000000000000000000000000056bc75e2d63100000",
        "nonce": "0x19"
      },
      "additionalContracts": [],
      "isFixedGasLimit": false
    },
    {
      "hash": "0x6901df5d4bb2e576b20b3e2bdac545df3da8c2df6b570545dc2eee21a91ddcd7",
      "transactionType": "CALL",
      "contractName": null,
      "contractAddress": "0x15a2Ef9E37aD9163391667455BA0e3da70a58601",
      "function": "credit(uint256,address)",
      "arguments": [
        "100000000",
        "0x312BA46064e1fe5904362BfB0C52c38F20d3Ef44"
      ],
      "transaction": {
        "type": "0x00",
        "from": "0x8d76db34ccca356fa805f5a277efff53aac5af88",
        "to": "0x15a2ef9e37ad9163391667455ba0e3da70a58601",
        "gas": "0x1c00b",
        "value": "0x0",
        "data": "0x9fec19e00000000000000000000000000000000000000000000000000000000005f5e100000000000000000000000000312ba46064e1fe5904362bfb0c52c38f20d3ef44",
        "nonce": "0x1a"
      },
      "additionalContracts": [],
      "isFixedGasLimit": false
    }
  ],
  "receipts": [
    {
      "transactionHash": "0xb9d5aae36366c0ae31eaeb4f9da5e759888567fe6653df13bb269b2726b96f70",
      "transactionIndex": "0x3",
      "blockHash": "0x59348ac195d33fb2f96ffbf985caff5b0691889ab45dc47588cf70639d398605",
      "blockNumber": "0x184daf2",
      "from": "0x8d76dB34CcCA356fA805f5A277EFFf53aaC5af88",
      "to": "0xc6ADeA8722C2DB1EFF810f429C3C09BA00E1F25C",
      "cumulativeGasUsed": "0x1ed8c3",
      "gasUsed": "0x1a62f",
      "contractAddress": null,
      "logs": [
        {
          "address": "0xc6ADeA8722C2DB1EFF810f429C3C09BA00E1F25C",
          "topics": [
            "0x8c5be1e5ebec7d5bd14f71427d1e84f3dd0314c0f7b2291e5b200ac8c7c3b925",
            "0x0000000000000000000000008d76db34ccca356fa805f5a277efff53aac5af88",
            "0x00000000000000000000000015a2ef9e37ad9163391667455ba0e3da70a58601"
          ],
          "data": "0x0000000000000000000000000000000000000000000000056bc75e2d63100000",
          "blockHash": "0x59348ac195d33fb2f96ffbf985caff5b0691889ab45dc47588cf70639d398605",
          "blockNumber": "0x184daf2",
          "transactionHash": "0xb9d5aae36366c0ae31eaeb4f9da5e759888567fe6653df13bb269b2726b96f70",
          "transactionIndex": "0x3",
          "logIndex": "0x7",
          "removed": false
        }
      ],
      "status": "0x1",
      "logsBloom": "0x00000000000000000000000000000000000000000000000000000000000000000000000000000000000000000000000000000000000000000000000004200000000000000000000000000000000000000000000000000000000000000000000000000000000000000000000000020010000000000000000000000000000000000000000000000000000000000000000000000000000000000000000000000000020040000000000000000000000000000000000000000000000000000000000080000000000000000000000000000000000000000000000000000000000000008010000000000000000000000000000200000000000000000000000000408000",
      "type": "0x0",
      "effectiveGasPrice": "0x5f5e100"
    },
    {
      "transactionHash": "0x6901df5d4bb2e576b20b3e2bdac545df3da8c2df6b570545dc2eee21a91ddcd7",
      "transactionIndex": "0x2",
      "blockHash": "0xafe2a154af227bece8d0b0e2dbc90caa9e1bb8bd42e09a901d91a1038ab06ec9",
      "blockNumber": "0x184daf5",
      "from": "0x8d76dB34CcCA356fA805f5A277EFFf53aaC5af88",
      "to": "0x15a2Ef9E37aD9163391667455BA0e3da70a58601",
      "cumulativeGasUsed": "0x88651",
      "gasUsed": "0x223ca",
      "contractAddress": null,
      "logs": [
        {
          "address": "0xc6ADeA8722C2DB1EFF810f429C3C09BA00E1F25C",
          "topics": [
            "0x8c5be1e5ebec7d5bd14f71427d1e84f3dd0314c0f7b2291e5b200ac8c7c3b925",
            "0x0000000000000000000000008d76db34ccca356fa805f5a277efff53aac5af88",
            "0x00000000000000000000000015a2ef9e37ad9163391667455ba0e3da70a58601"
          ],
          "data": "0x0000000000000000000000000000000000000000000000056bc75e2d5d1a1f00",
          "blockHash": "0xafe2a154af227bece8d0b0e2dbc90caa9e1bb8bd42e09a901d91a1038ab06ec9",
          "blockNumber": "0x184daf5",
          "transactionHash": "0x6901df5d4bb2e576b20b3e2bdac545df3da8c2df6b570545dc2eee21a91ddcd7",
          "transactionIndex": "0x2",
          "logIndex": "0x5",
          "removed": false
        },
        {
          "address": "0xc6ADeA8722C2DB1EFF810f429C3C09BA00E1F25C",
          "topics": [
            "0xddf252ad1be2c89b69c2b068fc378daa952ba7f163c4a11628f55a4df523b3ef",
            "0x0000000000000000000000008d76db34ccca356fa805f5a277efff53aac5af88",
            "0x00000000000000000000000015a2ef9e37ad9163391667455ba0e3da70a58601"
          ],
          "data": "0x0000000000000000000000000000000000000000000000000000000005f5e100",
          "blockHash": "0xafe2a154af227bece8d0b0e2dbc90caa9e1bb8bd42e09a901d91a1038ab06ec9",
          "blockNumber": "0x184daf5",
          "transactionHash": "0x6901df5d4bb2e576b20b3e2bdac545df3da8c2df6b570545dc2eee21a91ddcd7",
          "transactionIndex": "0x2",
          "logIndex": "0x6",
          "removed": false
        },
        {
          "address": "0x15a2Ef9E37aD9163391667455BA0e3da70a58601",
          "topics": [
            "0x1bbf55d483639f8103dc4e035af71a4fbdb16c80be740fa3eef81198acefa094"
          ],
          "data": "0x0000000000000000000000008d76db34ccca356fa805f5a277efff53aac5af880000000000000000000000000000000000000000000000000000000005f5e100",
          "blockHash": "0xafe2a154af227bece8d0b0e2dbc90caa9e1bb8bd42e09a901d91a1038ab06ec9",
          "blockNumber": "0x184daf5",
          "transactionHash": "0x6901df5d4bb2e576b20b3e2bdac545df3da8c2df6b570545dc2eee21a91ddcd7",
          "transactionIndex": "0x2",
          "logIndex": "0x7",
          "removed": false
        }
      ],
      "status": "0x1",
      "logsBloom": "0x00000000000000000000000000000000000000000000000000000000000000002000000000000000000000000000000000000000000000000000000404200000000000000000000000000008000000000000000000000000000000000000000000000000000000000000000000020010000800000000000000000010008000000000000000000000000000000400000000000000000000000000000000000000020040000000000000000000000000000000000000000000000000000000000080000002000000000000000000000000000000000000400000000000000000008010000000000000000000000000000200000000000000000000000000408000",
      "type": "0x0",
      "effectiveGasPrice": "0x5f5e100"
    }
  ],
  "libraries": [],
  "pending": [],
  "returns": {},
  "timestamp": 1711035756,
  "chain": 421614,
  "commit": "1858226"
}