{
  "transactions": [
    {
      "hash": "0xd99f77eb87961026857e6cc1b54aa90175669c48acb06715e51990cf76036d47",
      "transactionType": "CALL",
      "contractName": null,
      "contractAddress": "0xc6ADeA8722C2DB1EFF810f429C3C09BA00E1F25C",
      "function": "approve(address,uint256)",
      "arguments": [
        "0x15a2Ef9E37aD9163391667455BA0e3da70a58601",
        "100000000000000000000"
      ],
      "transaction": {
        "type": "0x00",
        "from": "0x8d76db34ccca356fa805f5a277efff53aac5af88",
        "to": "0xc6adea8722c2db1eff810f429c3c09ba00e1f25c",
        "gas": "0x23166",
        "value": "0x0",
        "data": "0x095ea7b300000000000000000000000015a2ef9e37ad9163391667455ba0e3da70a586010000000000000000000000000000000000000000000000056bc75e2d63100000",
        "nonce": "0x1b"
      },
      "additionalContracts": [],
      "isFixedGasLimit": false
    },
    {
      "hash": "0x4533d840219baf9463b0c92d6d8aa7a510c682025cb5a4b38bfe45c8c16adfca",
      "transactionType": "CALL",
      "contractName": null,
      "contractAddress": "0x15a2Ef9E37aD9163391667455BA0e3da70a58601",
      "function": "credit(uint256,address)",
      "arguments": [
        "100000000",
        "0x312BA46064e1fe5904362BfB0C52c38F20d3Ef44"
      ],
      "transaction": {
        "type": "0x00",
        "from": "0x8d76db34ccca356fa805f5a277efff53aac5af88",
        "to": "0x15a2ef9e37ad9163391667455ba0e3da70a58601",
        "gas": "0x32fb8",
        "value": "0x0",
        "data": "0x9fec19e00000000000000000000000000000000000000000000000000000000005f5e100000000000000000000000000312ba46064e1fe5904362bfb0c52c38f20d3ef44",
        "nonce": "0x1c"
      },
      "additionalContracts": [],
      "isFixedGasLimit": false
    }
  ],
  "receipts": [
    {
      "transactionHash": "0xd99f77eb87961026857e6cc1b54aa90175669c48acb06715e51990cf76036d47",
      "transactionIndex": "0x1",
      "blockHash": "0x3b7443c7ef7b033b595fd858164bece69fe60d52248cfa540930929c7d2629c3",
      "blockNumber": "0x184db9c",
      "from": "0x8d76dB34CcCA356fA805f5A277EFFf53aaC5af88",
      "to": "0xc6ADeA8722C2DB1EFF810f429C3C09BA00E1F25C",
      "cumulativeGasUsed": "0x16363",
      "gasUsed": "0x16363",
      "contractAddress": null,
      "logs": [
        {
          "address": "0xc6ADeA8722C2DB1EFF810f429C3C09BA00E1F25C",
          "topics": [
            "0x8c5be1e5ebec7d5bd14f71427d1e84f3dd0314c0f7b2291e5b200ac8c7c3b925",
            "0x0000000000000000000000008d76db34ccca356fa805f5a277efff53aac5af88",
            "0x00000000000000000000000015a2ef9e37ad9163391667455ba0e3da70a58601"
          ],
          "data": "0x0000000000000000000000000000000000000000000000056bc75e2d63100000",
          "blockHash": "0x3b7443c7ef7b033b595fd858164bece69fe60d52248cfa540930929c7d2629c3",
          "blockNumber": "0x184db9c",
          "transactionHash": "0xd99f77eb87961026857e6cc1b54aa90175669c48acb06715e51990cf76036d47",
          "transactionIndex": "0x1",
          "logIndex": "0x0",
          "removed": false
        }
      ],
      "status": "0x1",
      "logsBloom": "0x00000000000000000000000000000000000000000000000000000000000000000000000000000000000000000000000000000000000000000000000004200000000000000000000000000000000000000000000000000000000000000000000000000000000000000000000000020010000000000000000000000000000000000000000000000000000000000000000000000000000000000000000000000000020040000000000000000000000000000000000000000000000000000000000080000000000000000000000000000000000000000000000000000000000000008010000000000000000000000000000200000000000000000000000000408000",
      "type": "0x0",
      "effectiveGasPrice": "0x5f5e100"
    },
    {
      "transactionHash": "0x4533d840219baf9463b0c92d6d8aa7a510c682025cb5a4b38bfe45c8c16adfca",
      "transactionIndex": "0x2",
      "blockHash": "0x5f4656842ddcd8de60ad9aa0816fbfcf22692b1e032041c49c38e725fdad505d",
      "blockNumber": "0x184db9f",
      "from": "0x8d76dB34CcCA356fA805f5A277EFFf53aaC5af88",
      "to": "0x15a2Ef9E37aD9163391667455BA0e3da70a58601",
      "cumulativeGasUsed": "0x543db",
      "gasUsed": "0x223ca",
      "contractAddress": null,
      "logs": [
        {
          "address": "0xc6ADeA8722C2DB1EFF810f429C3C09BA00E1F25C",
          "topics": [
            "0x8c5be1e5ebec7d5bd14f71427d1e84f3dd0314c0f7b2291e5b200ac8c7c3b925",
            "0x0000000000000000000000008d76db34ccca356fa805f5a277efff53aac5af88",
            "0x00000000000000000000000015a2ef9e37ad9163391667455ba0e3da70a58601"
          ],
          "data": "0x0000000000000000000000000000000000000000000000056bc75e2d5d1a1f00",
          "blockHash": "0x5f4656842ddcd8de60ad9aa0816fbfcf22692b1e032041c49c38e725fdad505d",
          "blockNumber": "0x184db9f",
          "transactionHash": "0x4533d840219baf9463b0c92d6d8aa7a510c682025cb5a4b38bfe45c8c16adfca",
          "transactionIndex": "0x2",
          "logIndex": "0x3",
          "removed": false
        },
        {
          "address": "0xc6ADeA8722C2DB1EFF810f429C3C09BA00E1F25C",
          "topics": [
            "0xddf252ad1be2c89b69c2b068fc378daa952ba7f163c4a11628f55a4df523b3ef",
            "0x0000000000000000000000008d76db34ccca356fa805f5a277efff53aac5af88",
            "0x00000000000000000000000015a2ef9e37ad9163391667455ba0e3da70a58601"
          ],
          "data": "0x0000000000000000000000000000000000000000000000000000000005f5e100",
          "blockHash": "0x5f4656842ddcd8de60ad9aa0816fbfcf22692b1e032041c49c38e725fdad505d",
          "blockNumber": "0x184db9f",
          "transactionHash": "0x4533d840219baf9463b0c92d6d8aa7a510c682025cb5a4b38bfe45c8c16adfca",
          "transactionIndex": "0x2",
          "logIndex": "0x4",
          "removed": false
        },
        {
          "address": "0x15a2Ef9E37aD9163391667455BA0e3da70a58601",
          "topics": [
            "0x1bbf55d483639f8103dc4e035af71a4fbdb16c80be740fa3eef81198acefa094"
          ],
          "data": "0x0000000000000000000000008d76db34ccca356fa805f5a277efff53aac5af880000000000000000000000000000000000000000000000000000000005f5e100",
          "blockHash": "0x5f4656842ddcd8de60ad9aa0816fbfcf22692b1e032041c49c38e725fdad505d",
          "blockNumber": "0x184db9f",
          "transactionHash": "0x4533d840219baf9463b0c92d6d8aa7a510c682025cb5a4b38bfe45c8c16adfca",
          "transactionIndex": "0x2",
          "logIndex": "0x5",
          "removed": false
        }
      ],
      "status": "0x1",
      "logsBloom": "0x00000000000000000000000000000000000000000000000000000000000000002000000000000000000000000000000000000000000000000000000404200000000000000000000000000008000000000000000000000000000000000000000000000000000000000000000000020010000800000000000000000010008000000000000000000000000000000400000000000000000000000000000000000000020040000000000000000000000000000000000000000000000000000000000080000002000000000000000000000000000000000000400000000000000000008010000000000000000000000000000200000000000000000000000000408000",
      "type": "0x0",
      "effectiveGasPrice": "0x5f5e100"
    }
  ],
  "libraries": [],
  "pending": [],
  "returns": {},
  "timestamp": 1711035798,
  "chain": 421614,
  "commit": "1858226"
}