{
  "transactions": [
    {
      "hash": "0xf9ade2b46a93a519c64700f3b6e7a32814e3a3f86bb6f1f184e07b99496c9888",
      "transactionType": "CALL",
      "contractName": null,
      "contractAddress": "0xb0f5c667e9ab3144cf6b2e9b03805a87955bdc07",
      "function": "approve(address,uint256)",
      "arguments": [
        "0xe758D37ee043e250c56127bDe6312e8F31A960cC",
        "115792089237316195423570985008687907853269984665640564039457584007913129639935"
      ],
      "transaction": {
        "from": "0x8d76db34ccca356fa805f5a277efff53aac5af88",
        "to": "0xb0f5c667e9ab3144cf6b2e9b03805a87955bdc07",
        "gas": "0xfb46",
        "value": "0x0",
        "input": "0x095ea7b3000000000000000000000000e758d37ee043e250c56127bde6312e8f31a960ccffffffffffffffffffffffffffffffffffffffffffffffffffffffffffffffff",
        "nonce": "0x44",
        "chainId": "0x33",
        "accessList": null,
        "type": null
      },
      "additionalContracts": [],
      "isFixedGasLimit": false
    }
  ],
  "receipts": [],
  "libraries": [],
  "pending": [],
  "returns": {},
  "timestamp": 1713526024,
  "chain": 51,
  "commit": "9f80fd6"
}