{
  "transactions": [
    {
      "hash": "0xc935166600b5ea1fbc7fb1022cf298fc6cb5322cba23721df030a2bbdfb43128",
      "transactionType": "CALL",
      "contractName": null,
      "contractAddress": "0xfBA6CED88170e86DA9F49902055cF80A62F1AC4a",
      "function": "approve(address,uint256)",
      "arguments": [
        "0xB58e49823f1E539b84Eda034f506E5e30CdDff21",
        "1000000000000000000000000000000000000"
      ],
      "transaction": {
        "type": "0x00",
        "from": "0x8d76db34ccca356fa805f5a277efff53aac5af88",
        "to": "0xfba6ced88170e86da9f49902055cf80a62f1ac4a",
        "gas": "0x9791",
        "value": "0x0",
        "data": "0x095ea7b3000000000000000000000000b58e49823f1e539b84eda034f506e5e30cddff210000000000000000000000000000000000c097ce7bc90715b34b9f1000000000",
        "nonce": "0x6f"
      },
      "additionalContracts": [],
      "isFixedGasLimit": false
    }
  ],
  "receipts": [],
  "libraries": [],
  "pending": [
    "0xc935166600b5ea1fbc7fb1022cf298fc6cb5322cba23721df030a2bbdfb43128"
  ],
  "returns": {},
  "timestamp": 1713812900,
  "chain": 51,
  "multi": false,
  "commit": "4f905cc"
}