{
  "transactions": [
    {
      "hash": "0x146237610ef88662ab8c56426a9e59d27ad2ec90d6f35627ab02b86e8334dc97",
      "transactionType": "CALL",
      "contractName": null,
      "contractAddress": "0xfBA6CED88170e86DA9F49902055cF80A62F1AC4a",
      "function": "approve(address,uint256)",
      "arguments": [
        "0xB58e49823f1E539b84Eda034f506E5e30CdDff21",
        "10000000000000000000000"
      ],
      "transaction": {
        "type": "0x00",
        "from": "0x8d76db34ccca356fa805f5a277efff53aac5af88",
        "to": "0xfba6ced88170e86da9f49902055cf80a62f1ac4a",
        "gas": "0x1090c",
        "value": "0x0",
        "data": "0x095ea7b3000000000000000000000000b58e49823f1e539b84eda034f506e5e30cddff2100000000000000000000000000000000000000000000021e19e0c9bab2400000",
        "nonce": "0x67"
      },
      "additionalContracts": [],
      "isFixedGasLimit": false
    },
    {
      "hash": "0x631c22336f478847b16e3ed4d7836244171cddff138777328eeb3eb32d78292c",
      "transactionType": "CALL",
      "contractName": null,
      "contractAddress": "0xB58e49823f1E539b84Eda034f506E5e30CdDff21",
      "function": "credit(uint256,address)",
      "arguments": [
        "10000000000000000000000",
        "0x312BA46064e1fe5904362BfB0C52c38F20d3Ef44"
      ],
      "transaction": {
        "type": "0x00",
        "from": "0x8d76db34ccca356fa805f5a277efff53aac5af88",
        "to": "0xb58e49823f1e539b84eda034f506e5e30cddff21",
        "gas": "0x20add",
        "value": "0x0",
        "data": "0x9fec19e000000000000000000000000000000000000000000000021e19e0c9bab2400000000000000000000000000000312ba46064e1fe5904362bfb0c52c38f20d3ef44",
        "nonce": "0x68"
      },
      "additionalContracts": [],
      "isFixedGasLimit": false
    }
  ],
  "receipts": [
    {
      "transactionHash": "0x146237610ef88662ab8c56426a9e59d27ad2ec90d6f35627ab02b86e8334dc97",
      "transactionIndex": "0x0",
      "blockHash": "0x348bba6b3d1e4e0ef84439541337998332b5e62edf7ea6108018062e1fe35de1",
      "blockNumber": "0x3b4fb12",
      "from": "0x8d76dB34CcCA356fA805f5A277EFFf53aaC5af88",
      "to": "0xfBA6CED88170e86DA9F49902055cF80A62F1AC4a",
      "cumulativeGasUsed": "0xb387",
      "gasUsed": "0xb387",
      "contractAddress": null,
      "logs": [
        {
          "address": "0xfBA6CED88170e86DA9F49902055cF80A62F1AC4a",
          "topics": [
            "0x8c5be1e5ebec7d5bd14f71427d1e84f3dd0314c0f7b2291e5b200ac8c7c3b925",
            "0x0000000000000000000000008d76db34ccca356fa805f5a277efff53aac5af88",
            "0x000000000000000000000000b58e49823f1e539b84eda034f506e5e30cddff21"
          ],
          "data": "0x00000000000000000000000000000000000000000000021e19e0c9bab2400000",
          "blockHash": "0x348bba6b3d1e4e0ef84439541337998332b5e62edf7ea6108018062e1fe35de1",
          "blockNumber": "0x3b4fb12",
          "transactionHash": "0x146237610ef88662ab8c56426a9e59d27ad2ec90d6f35627ab02b86e8334dc97",
          "transactionIndex": "0x0",
          "logIndex": "0x0",
          "removed": false
        }
      ],
      "status": "0x1",
      "logsBloom": "0x00000000000000000000000000000000000000000000000000000000000000000000000000000000000000000000000000000000000000000004000004208000000000000000000000000000000000000000000000800000000000000000000000000000000100000000000000020000000000004000000000000000000000000000000000000000000000000000000000000000000000000000000000000000020000000000000000000000000000000000000000000000000000000000000000000000000002000000000000000000000000000000000000000000000000000010000000000000000000000000000000000000000000000000000000400000"
    },
    {
      "transactionHash": "0x631c22336f478847b16e3ed4d7836244171cddff138777328eeb3eb32d78292c",
      "transactionIndex": "0x1",
      "blockHash": "0x348bba6b3d1e4e0ef84439541337998332b5e62edf7ea6108018062e1fe35de1",
      "blockNumber": "0x3b4fb12",
      "from": "0x8d76dB34CcCA356fA805f5A277EFFf53aaC5af88",
      "to": "0xB58e49823f1E539b84Eda034f506E5e30CdDff21",
      "cumulativeGasUsed": "0x1ef6f",
      "gasUsed": "0x13be8",
      "contractAddress": null,
      "logs": [
        {
          "address": "0xfBA6CED88170e86DA9F49902055cF80A62F1AC4a",
          "topics": [
            "0xddf252ad1be2c89b69c2b068fc378daa952ba7f163c4a11628f55a4df523b3ef",
            "0x0000000000000000000000008d76db34ccca356fa805f5a277efff53aac5af88",
            "0x000000000000000000000000b58e49823f1e539b84eda034f506e5e30cddff21"
          ],
          "data": "0x00000000000000000000000000000000000000000000021e19e0c9bab2400000",
          "blockHash": "0x348bba6b3d1e4e0ef84439541337998332b5e62edf7ea6108018062e1fe35de1",
          "blockNumber": "0x3b4fb12",
          "transactionHash": "0x631c22336f478847b16e3ed4d7836244171cddff138777328eeb3eb32d78292c",
          "transactionIndex": "0x1",
          "logIndex": "0x1",
          "removed": false
        },
        {
          "address": "0xB58e49823f1E539b84Eda034f506E5e30CdDff21",
          "topics": [
            "0x1bbf55d483639f8103dc4e035af71a4fbdb16c80be740fa3eef81198acefa094"
          ],
          "data": "0x0000000000000000000000008d76db34ccca356fa805f5a277efff53aac5af8800000000000000000000000000000000000000000000021e19e0c9bab2400000",
          "blockHash": "0x348bba6b3d1e4e0ef84439541337998332b5e62edf7ea6108018062e1fe35de1",
          "blockNumber": "0x3b4fb12",
          "transactionHash": "0x631c22336f478847b16e3ed4d7836244171cddff138777328eeb3eb32d78292c",
          "transactionIndex": "0x1",
          "logIndex": "0x2",
          "removed": false
        }
      ],
      "status": "0x1",
      "logsBloom": "0x00000000000000000020000000000000000000000000000000000000040000002000000000000000400000000000000000000000000000000004000404008000000000000000000000000008000000000000000000800000000000000000000000000000000100000000000000020000000000004000000000000010000000000000000000000000000000000400000000000000000000000000000000000000000000000000000000000000000000000000000000000000000000000000000000000002000002000000000000000000000000000000000000000000000000000000000000000000000000000000000000000000000000000000000000400000"
    }
  ],
  "libraries": [],
  "pending": [],
  "returns": {},
  "timestamp": 1713796107,
  "chain": 51,
  "multi": false,
  "commit": "4f905cc"
}