{
  "transactions": [
    {
      "hash": "0xc935166600b5ea1fbc7fb1022cf298fc6cb5322cba23721df030a2bbdfb43128",
      "transactionType": "CALL",
      "contractName": null,
      "contractAddress": "0xfBA6CED88170e86DA9F49902055cF80A62F1AC4a",
      "function": "approve(address,uint256)",
      "arguments": [
        "0xB58e49823f1E539b84Eda034f506E5e30CdDff21",
        "1000000000000000000000000000000000000"
      ],
      "transaction": {
        "type": "0x00",
        "from": "0x8d76db34ccca356fa805f5a277efff53aac5af88",
        "to": "0xfba6ced88170e86da9f49902055cf80a62f1ac4a",
        "gas": "0x9791",
        "value": "0x0",
        "data": "0x095ea7b3000000000000000000000000b58e49823f1e539b84eda034f506e5e30cddff210000000000000000000000000000000000c097ce7bc90715b34b9f1000000000",
        "nonce": "0x6f"
      },
      "additionalContracts": [],
      "isFixedGasLimit": false
    }
  ],
  "receipts": [
    {
      "transactionHash": "0xc935166600b5ea1fbc7fb1022cf298fc6cb5322cba23721df030a2bbdfb43128",
      "transactionIndex": "0x1",
      "blockHash": "0xa2f6e6cde7801c25e1a548cb718ba1c16b3dfed408bc31072389b83a59785be1",
      "blockNumber": "0x3b517f2",
      "from": "0x8d76dB34CcCA356fA805f5A277EFFf53aaC5af88",
      "to": "0xfBA6CED88170e86DA9F49902055cF80A62F1AC4a",
      "cumulativeGasUsed": "0x26f30",
      "gasUsed": "0x6947",
      "contractAddress": null,
      "logs": [
        {
          "address": "0xfBA6CED88170e86DA9F49902055cF80A62F1AC4a",
          "topics": [
            "0x8c5be1e5ebec7d5bd14f71427d1e84f3dd0314c0f7b2291e5b200ac8c7c3b925",
            "0x0000000000000000000000008d76db34ccca356fa805f5a277efff53aac5af88",
            "0x000000000000000000000000b58e49823f1e539b84eda034f506e5e30cddff21"
          ],
          "data": "0x0000000000000000000000000000000000c097ce7bc90715b34b9f1000000000",
          "blockHash": "0xa2f6e6cde7801c25e1a548cb718ba1c16b3dfed408bc31072389b83a59785be1",
          "blockNumber": "0x3b517f2",
          "transactionHash": "0xc935166600b5ea1fbc7fb1022cf298fc6cb5322cba23721df030a2bbdfb43128",
          "transactionIndex": "0x1",
          "logIndex": "0x4",
          "removed": false
        }
      ],
      "status": "0x1",
      "logsBloom": "0x00000000000000000000000000000000000000000000000000000000000000000000000000000000000000000000000000000000000000000004000004208000000000000000000000000000000000000000000000800000000000000000000000000000000100000000000000020000000000004000000000000000000000000000000000000000000000000000000000000000000000000000000000000000020000000000000000000000000000000000000000000000000000000000000000000000000002000000000000000000000000000000000000000000000000000010000000000000000000000000000000000000000000000000000000400000"
    }
  ],
  "libraries": [],
  "pending": [],
  "returns": {},
  "timestamp": 1713812906,
  "chain": 51,
  "multi": false,
  "commit": "4f905cc"
}