{
  "transactions": [
    {
      "hash": "0x383b1c668f65b03adb5b9947ad8456733cdbd667691028f9cbb072c845bfd643",
      "transactionType": "CALL",
      "contractName": null,
      "contractAddress": "0xf48e37FC7a7767d04e39dE8effDD5b47A790e20D",
      "function": "credit(uint256,address)",
      "arguments": [
        "100",
        "0xBff8142DAFDa5E796541f4f22fabc3Ee35bAFD0B"
      ],
      "transaction": {
        "type": "0x00",
        "from": "0x8d76db34ccca356fa805f5a277efff53aac5af88",
        "to": "0xf48e37fc7a7767d04e39de8effdd5b47a790e20d",
        "gas": "0x2d015",
        "value": "0x0",
        "data": "0x9fec19e00000000000000000000000000000000000000000000000000000000000000064000000000000000000000000bff8142dafda5e796541f4f22fabc3ee35bafd0b",
        "nonce": "0x3b"
      },
      "additionalContracts": [],
      "isFixedGasLimit": false
    }
  ],
  "receipts": [
    {
      "transactionHash": "0x383b1c668f65b03adb5b9947ad8456733cdbd667691028f9cbb072c845bfd643",
      "transactionIndex": "0x1",
      "blockHash": "0x94a79ceadec864dfdb5655a5d52d7252dba111eeb8f5a0d1548171143f5b6a7a",
      "blockNumber": "0x39a63c6",
      "from": "0x8d76dB34CcCA356fA805f5A277EFFf53aaC5af88",
      "to": "0xf48e37FC7a7767d04e39dE8effDD5b47A790e20D",
      "cumulativeGasUsed": "0x1d8e4",
      "gasUsed": "0x1d8e4",
      "contractAddress": null,
      "logs": [
        {
          "address": "0xfBA6CED88170e86DA9F49902055cF80A62F1AC4a",
          "topics": [
            "0xddf252ad1be2c89b69c2b068fc378daa952ba7f163c4a11628f55a4df523b3ef",
            "0x0000000000000000000000008d76db34ccca356fa805f5a277efff53aac5af88",
            "0x000000000000000000000000f48e37fc7a7767d04e39de8effdd5b47a790e20d"
          ],
          "data": "0x0000000000000000000000000000000000000000000000000000000000000064",
          "blockHash": "0x94a79ceadec864dfdb5655a5d52d7252dba111eeb8f5a0d1548171143f5b6a7a",
          "blockNumber": "0x39a63c6",
          "transactionHash": "0x383b1c668f65b03adb5b9947ad8456733cdbd667691028f9cbb072c845bfd643",
          "transactionIndex": "0x1",
          "logIndex": "0x1",
          "removed": false
        },
        {
          "address": "0xf48e37FC7a7767d04e39dE8effDD5b47A790e20D",
          "topics": [
            "0x1bbf55d483639f8103dc4e035af71a4fbdb16c80be740fa3eef81198acefa094"
          ],
          "data": "0x0000000000000000000000008d76db34ccca356fa805f5a277efff53aac5af880000000000000000000000000000000000000000000000000000000000000064",
          "blockHash": "0x94a79ceadec864dfdb5655a5d52d7252dba111eeb8f5a0d1548171143f5b6a7a",
          "blockNumber": "0x39a63c6",
          "transactionHash": "0x383b1c668f65b03adb5b9947ad8456733cdbd667691028f9cbb072c845bfd643",
          "transactionIndex": "0x1",
          "logIndex": "0x2",
          "removed": false
        }
      ],
      "status": "0x1",
      "logsBloom": "0x00000000000000000000000000000000000000000000000000000000000000102000000000000000000000000000000000000000000000000000000404000000000000000000000000000008000000000000000000800000000000000000000000000000000000000000000000020000000000004200040000000010000000000000000000000000000000400400000000000000000000000000000000000000000000000000000000000000000000000000000000000000000000000000000000000002000002000000000000000000000000000000000000000000000000000020000040000000000000000000000000000000000000000000000000400000"
    }
  ],
  "libraries": [],
  "pending": [],
  "returns": {},
  "timestamp": 1709556831,
  "chain": 51,
  "multi": false,
  "commit": "8b9e0be"
}