{
  "transactions": [
    {
      "hash": "0xd413dee3460dfb3294fbfaa9c54d5fefa4303893757f049edb03065ad0ccfe18",
      "transactionType": "CALL",
      "contractName": null,
      "contractAddress": "0xe758D37ee043e250c56127bDe6312e8F31A960cC",
      "function": "credit(uint256,address)",
      "arguments": [
        "1000000000000000000",
        "0x312BA46064e1fe5904362BfB0C52c38F20d3Ef44"
      ],
      "transaction": {
        "type": "0x00",
        "from": "0x8d76db34ccca356fa805f5a277efff53aac5af88",
        "to": "0xe758d37ee043e250c56127bde6312e8f31a960cc",
        "gas": "0x22d97",
        "value": "0x0",
        "data": "0x9fec19e00000000000000000000000000000000000000000000000000de0b6b3a7640000000000000000000000000000312ba46064e1fe5904362bfb0c52c38f20d3ef44",
        "nonce": "0x73"
      },
      "additionalContracts": [],
      "isFixedGasLimit": false
    }
  ],
  "receipts": [
    {
      "transactionHash": "0xd413dee3460dfb3294fbfaa9c54d5fefa4303893757f049edb03065ad0ccfe18",
      "transactionIndex": "0x0",
      "blockHash": "0x90b01b28673a10f9d7fb44605651e4f4ec636a96dcd8f4428d45ed9f522b315b",
      "blockNumber": "0x3b51882",
      "from": "0x8d76dB34CcCA356fA805f5A277EFFf53aaC5af88",
      "to": "0xe758D37ee043e250c56127bDe6312e8F31A960cC",
      "cumulativeGasUsed": "0x17c7c",
      "gasUsed": "0x17c7c",
      "contractAddress": null,
      "logs": [
        {
          "address": "0xb0F5c667e9aB3144cF6b2E9B03805a87955bdC07",
          "topics": [
            "0x8c5be1e5ebec7d5bd14f71427d1e84f3dd0314c0f7b2291e5b200ac8c7c3b925",
            "0x0000000000000000000000008d76db34ccca356fa805f5a277efff53aac5af88",
            "0x000000000000000000000000e758d37ee043e250c56127bde6312e8f31a960cc"
          ],
          "data": "0x0000000000000000000000000000000000c097ce7bc90715a56ae85c589c0000",
          "blockHash": "0x90b01b28673a10f9d7fb44605651e4f4ec636a96dcd8f4428d45ed9f522b315b",
          "blockNumber": "0x3b51882",
          "transactionHash": "0xd413dee3460dfb3294fbfaa9c54d5fefa4303893757f049edb03065ad0ccfe18",
          "transactionIndex": "0x0",
          "logIndex": "0x0",
          "removed": false
        },
        {
          "address": "0xb0F5c667e9aB3144cF6b2E9B03805a87955bdC07",
          "topics": [
            "0xddf252ad1be2c89b69c2b068fc378daa952ba7f163c4a11628f55a4df523b3ef",
            "0x0000000000000000000000008d76db34ccca356fa805f5a277efff53aac5af88",
            "0x000000000000000000000000e758d37ee043e250c56127bde6312e8f31a960cc"
          ],
          "data": "0x0000000000000000000000000000000000000000000000000de0b6b3a7640000",
          "blockHash": "0x90b01b28673a10f9d7fb44605651e4f4ec636a96dcd8f4428d45ed9f522b315b",
          "blockNumber": "0x3b51882",
          "transactionHash": "0xd413dee3460dfb3294fbfaa9c54d5fefa4303893757f049edb03065ad0ccfe18",
          "transactionIndex": "0x0",
          "logIndex": "0x1",
          "removed": false
        },
        {
          "address": "0xe758D37ee043e250c56127bDe6312e8F31A960cC",
          "topics": [
            "0x1bbf55d483639f8103dc4e035af71a4fbdb16c80be740fa3eef81198acefa094"
          ],
          "data": "0x0000000000000000000000008d76db34ccca356fa805f5a277efff53aac5af880000000000000000000000000000000000000000000000000de0b6b3a7640000",
          "blockHash": "0x90b01b28673a10f9d7fb44605651e4f4ec636a96dcd8f4428d45ed9f522b315b",
          "blockNumber": "0x3b51882",
          "transactionHash": "0xd413dee3460dfb3294fbfaa9c54d5fefa4303893757f049edb03065ad0ccfe18",
          "transactionIndex": "0x0",
          "logIndex": "0x2",
          "removed": false
        }
      ],
      "status": "0x1",
      "logsBloom": "0x00000000000000000000000000000000000000000000000000000000000000002000000000080000000000000000004000000000000000000000000404200000000000000000000000002008000000000000000000000000000000000000000000400000000800000000000000020000000000000000000000000010000000000000000000000000000000000400000000000000000000000000000000000000020000000200000000000000000000000000000000000000000000000000000000000002000000000000800000000000000000040000000000000000000000000010000000000000000000000000000001000000000000000000000000400000"
    }
  ],
  "libraries": [],
  "pending": [],
  "returns": {},
  "timestamp": 1713813232,
  "chain": 51,
  "multi": false,
  "commit": "4f905cc"
}