{
  "transactions": [
    {
      "hash": "0x0fb3632af81af0a137157841c3a035d637108ffb93cd2a851a8f119b7a153357",
      "transactionType": "CALL",
      "contractName": null,
      "contractAddress": "0xB58e49823f1E539b84Eda034f506E5e30CdDff21",
      "function": "credit(uint256,address)",
      "arguments": [
        "1000000000000000000",
        "0x312BA46064e1fe5904362BfB0C52c38F20d3Ef44"
      ],
      "transaction": {
        "type": "0x00",
        "from": "0x8d76db34ccca356fa805f5a277efff53aac5af88",
        "to": "0xb58e49823f1e539b84eda034f506e5e30cddff21",
        "gas": "0x1c85f",
        "value": "0x0",
        "data": "0x9fec19e00000000000000000000000000000000000000000000000000de0b6b3a7640000000000000000000000000000312ba46064e1fe5904362bfb0c52c38f20d3ef44",
        "nonce": "0x71"
      },
      "additionalContracts": [],
      "isFixedGasLimit": false
    }
  ],
  "receipts": [
    {
      "transactionHash": "0x0fb3632af81af0a137157841c3a035d637108ffb93cd2a851a8f119b7a153357",
      "transactionIndex": "0x0",
      "blockHash": "0xc63dd627b46ad4934fe18dcdb978723b2d7e06203c852dd55bc9ec23a310e9c5",
      "blockNumber": "0x3b51832",
      "from": "0x8d76dB34CcCA356fA805f5A277EFFf53aaC5af88",
      "to": "0xB58e49823f1E539b84Eda034f506E5e30CdDff21",
      "cumulativeGasUsed": "0x13b68",
      "gasUsed": "0x13b68",
      "contractAddress": null,
      "logs": [
        {
          "address": "0xfBA6CED88170e86DA9F49902055cF80A62F1AC4a",
          "topics": [
            "0xddf252ad1be2c89b69c2b068fc378daa952ba7f163c4a11628f55a4df523b3ef",
            "0x0000000000000000000000008d76db34ccca356fa805f5a277efff53aac5af88",
            "0x000000000000000000000000b58e49823f1e539b84eda034f506e5e30cddff21"
          ],
          "data": "0x0000000000000000000000000000000000000000000000000de0b6b3a7640000",
          "blockHash": "0xc63dd627b46ad4934fe18dcdb978723b2d7e06203c852dd55bc9ec23a310e9c5",
          "blockNumber": "0x3b51832",
          "transactionHash": "0x0fb3632af81af0a137157841c3a035d637108ffb93cd2a851a8f119b7a153357",
          "transactionIndex": "0x0",
          "logIndex": "0x0",
          "removed": false
        },
        {
          "address": "0xB58e49823f1E539b84Eda034f506E5e30CdDff21",
          "topics": [
            "0x1bbf55d483639f8103dc4e035af71a4fbdb16c80be740fa3eef81198acefa094"
          ],
          "data": "0x0000000000000000000000008d76db34ccca356fa805f5a277efff53aac5af880000000000000000000000000000000000000000000000000de0b6b3a7640000",
          "blockHash": "0xc63dd627b46ad4934fe18dcdb978723b2d7e06203c852dd55bc9ec23a310e9c5",
          "blockNumber": "0x3b51832",
          "transactionHash": "0x0fb3632af81af0a137157841c3a035d637108ffb93cd2a851a8f119b7a153357",
          "transactionIndex": "0x0",
          "logIndex": "0x1",
          "removed": false
        }
      ],
      "status": "0x1",
      "logsBloom": "0x00000000000000000020000000000000000000000000000000000000040000002000000000000000400000000000000000000000000000000004000404008000000000000000000000000008000000000000000000800000000000000000000000000000000100000000000000020000000000004000000000000010000000000000000000000000000000000400000000000000000000000000000000000000000000000000000000000000000000000000000000000000000000000000000000000002000002000000000000000000000000000000000000000000000000000000000000000000000000000000000000000000000000000000000000400000"
    }
  ],
  "libraries": [],
  "pending": [],
  "returns": {},
  "timestamp": 1713813057,
  "chain": 51,
  "multi": false,
  "commit": "4f905cc"
}