{
  "transactions": [
    {
      "hash": "0x4188eca2c988f14fa8407a281678cc14cb351ae449e7b33bdc44f3731c64aba2",
      "transactionType": "CALL",
      "contractName": null,
      "contractAddress": "0xe0e943e7D5070840d6d0C026a69F07787c5132Cf",
      "function": "credit(uint256,address)",
      "arguments": [
        "100",
        "0x312BA46064e1fe5904362BfB0C52c38F20d3Ef44"
      ],
      "transaction": {
        "type": "0x00",
        "from": "0x8d76db34ccca356fa805f5a277efff53aac5af88",
        "to": "0xe0e943e7d5070840d6d0c026a69f07787c5132cf",
        "gas": "0x18560",
        "value": "0x0",
        "data": "0x9fec19e00000000000000000000000000000000000000000000000000000000000000064000000000000000000000000312ba46064e1fe5904362bfb0c52c38f20d3ef44",
        "nonce": "0x30"
      },
      "additionalContracts": [],
      "isFixedGasLimit": false
    }
  ],
  "receipts": [],
  "libraries": [],
  "pending": [
    "0x4188eca2c988f14fa8407a281678cc14cb351ae449e7b33bdc44f3731c64aba2"
  ],
  "returns": {},
  "timestamp": 1708094244,
  "chain": 51,
  "multi": false,
  "commit": "2c78fd5"
}