{
  "transactions": [
    {
      "hash": "0x4188eca2c988f14fa8407a281678cc14cb351ae449e7b33bdc44f3731c64aba2",
      "transactionType": "CALL",
      "contractName": null,
      "contractAddress": "0xe0e943e7D5070840d6d0C026a69F07787c5132Cf",
      "function": "credit(uint256,address)",
      "arguments": [
        "100",
        "0x312BA46064e1fe5904362BfB0C52c38F20d3Ef44"
      ],
      "transaction": {
        "type": "0x00",
        "from": "0x8d76db34ccca356fa805f5a277efff53aac5af88",
        "to": "0xe0e943e7d5070840d6d0c026a69f07787c5132cf",
        "gas": "0x18560",
        "value": "0x0",
        "data": "0x9fec19e00000000000000000000000000000000000000000000000000000000000000064000000000000000000000000312ba46064e1fe5904362bfb0c52c38f20d3ef44",
        "nonce": "0x30"
      },
      "additionalContracts": [],
      "isFixedGasLimit": false
    }
  ],
  "receipts": [
    {
      "transactionHash": "0x4188eca2c988f14fa8407a281678cc14cb351ae449e7b33bdc44f3731c64aba2",
      "transactionIndex": "0x1",
      "blockHash": "0xbc8cbb1b3680dcbe4fb04d667a1976e2290a34ca515ef239d89a87207dea283e",
      "blockNumber": "0x39422db",
      "from": "0x8d76dB34CcCA356fA805f5A277EFFf53aaC5af88",
      "to": "0xe0e943e7D5070840d6d0C026a69F07787c5132Cf",
      "cumulativeGasUsed": "0x10dcb",
      "gasUsed": "0x10dcb",
      "contractAddress": null,
      "logs": [
        {
          "address": "0xb0F5c667e9aB3144cF6b2E9B03805a87955bdC07",
          "topics": [
            "0xddf252ad1be2c89b69c2b068fc378daa952ba7f163c4a11628f55a4df523b3ef",
            "0x0000000000000000000000008d76db34ccca356fa805f5a277efff53aac5af88",
            "0x000000000000000000000000e0e943e7d5070840d6d0c026a69f07787c5132cf"
          ],
          "data": "0x0000000000000000000000000000000000000000000000000000000000000064",
          "blockHash": "0xbc8cbb1b3680dcbe4fb04d667a1976e2290a34ca515ef239d89a87207dea283e",
          "blockNumber": "0x39422db",
          "transactionHash": "0x4188eca2c988f14fa8407a281678cc14cb351ae449e7b33bdc44f3731c64aba2",
          "transactionIndex": "0x1",
          "logIndex": "0x1",
          "removed": false
        },
        {
          "address": "0x6052DA350b789E8FEF2307Ea0Bc8464568325906",
          "topics": [
            "0x14ab110831c9d210715b0adedbc67b2f0b80c10ad2853488332d1e4fbd85f81d"
          ],
          "data": "0x000000000000000000000000e0e943e7d5070840d6d0c026a69f07787c5132cf0000000000000000000000008d76db34ccca356fa805f5a277efff53aac5af880000000000000000000000000000000000000000000000000000000000000064",
          "blockHash": "0xbc8cbb1b3680dcbe4fb04d667a1976e2290a34ca515ef239d89a87207dea283e",
          "blockNumber": "0x39422db",
          "transactionHash": "0x4188eca2c988f14fa8407a281678cc14cb351ae449e7b33bdc44f3731c64aba2",
          "transactionIndex": "0x1",
          "logIndex": "0x2",
          "removed": false
        }
      ],
      "status": "0x1",
      "logsBloom": "0x00000000000000000000000000000000000000000000000000040000000000000000000000000000000000000000004000000000000000000000080004000000000000000000000000000008000000000000000000000000000000000000000200400000000000000000000000020000000000000000000000000010000000000000000000040000000000000000000000000001800000000000000000000000000000000000000000000000000000000000000000000000100000000200000000000002000000000000800000000000000000000000000000000000000000000000000000000000000000000000000000000000000000000000000000420000"
    }
  ],
  "libraries": [],
  "pending": [],
  "returns": {},
  "timestamp": 1708094250,
  "chain": 51,
  "multi": false,
  "commit": "2c78fd5"
}