{
  "transactions": [
    {
      "hash": "0x782ba3ab5964032a131b1a31e05a0f48d335adc99a818f8065cac52b9dfae696",
      "transactionType": "CALL",
      "contractName": null,
      "contractAddress": "0x4200000000000000000000000000000000000022",
      "function": "approve(address,uint256)",
      "arguments": [
        "0xbF5AD084547a5Ba83822f20AeaaCE87d8CC2E7a1",
        "1000000000000000000000000000000000000"
      ],
      "transaction": {
        "from": "0x8d76db34ccca356fa805f5a277efff53aac5af88",
        "to": "0x4200000000000000000000000000000000000022",
        "gas": "0x11510",
        "value": "0x0",
        "input": "0x095ea7b3000000000000000000000000bf5ad084547a5ba83822f20aeaace87d8cc2e7a10000000000000000000000000000000000c097ce7bc90715b34b9f1000000000",
        "nonce": "0xe",
        "chainId": "0xa0c71fd",
        "accessList": null,
        "type": null
      },
      "additionalContracts": [],
      "isFixedGasLimit": false
    }
  ],
  "receipts": [
    {
      "status": "0x1",
      "cumulativeGasUsed": "0x6aac9",
      "logs": [
        {
          "address": "0x4200000000000000000000000000000000000022",
          "topics": [
            "0x8c5be1e5ebec7d5bd14f71427d1e84f3dd0314c0f7b2291e5b200ac8c7c3b925",
            "0x0000000000000000000000008d76db34ccca356fa805f5a277efff53aac5af88",
            "0x000000000000000000000000bf5ad084547a5ba83822f20aeaace87d8cc2e7a1"
          ],
          "data": "0x0000000000000000000000000000000000c097ce7bc90715b34b9f1000000000",
          "blockHash": "0xec0462759a2836042f5f5ab57b4d7996090f1712e454e2b68afb68fa38005822",
          "blockNumber": "0x459f19",
          "transactionHash": "0x782ba3ab5964032a131b1a31e05a0f48d335adc99a818f8065cac52b9dfae696",
          "transactionIndex": "0x4",
          "logIndex": "0x5",
          "removed": false
        }
      ],
      "logsBloom": "0x00000000000000000000000000000000000000000000000000000000000000000000010000000000000000000000000000000000000000000000000004200000000000000000000040000000000000000000000000000000000000000000000000000000000000000000000000020000000000000000000000000000800000000000000000000000000000000000000000000000000000000000000000000000020000000000000000040000000000000000000000000000000000000000000000000000000040000000000000000000000000000000000000000000000000000010800000000000000000000000000000000000000000000000000000400000",
      "type": "0x0",
      "transactionHash": "0x782ba3ab5964032a131b1a31e05a0f48d335adc99a818f8065cac52b9dfae696",
      "transactionIndex": "0x4",
      "blockHash": "0xec0462759a2836042f5f5ab57b4d7996090f1712e454e2b68afb68fa38005822",
      "blockNumber": "0x459f19",
      "gasUsed": "0xc897",
      "effectiveGasPrice": "0xf4340",
      "from": "0x8d76db34ccca356fa805f5a277efff53aac5af88",
      "to": "0x4200000000000000000000000000000000000022",
      "contractAddress": null,
      "l1Fee": "0x4bf1c5",
      "l1FeeScalar": "0.684",
      "l1GasPrice": "0xc1b",
      "l1GasUsed": "0x92c"
    }
  ],
  "libraries": [],
  "pending": [],
  "returns": {},
  "timestamp": 1713812121,
  "chain": 168587773,
  "commit": "4f905cc"
}