{
  "transactions": [
    {
      "hash": "0x9b78325e49c5d59c3a8138395ccfa76c8e03d60d3882574e9d2132cec7b2e301",
      "transactionType": "CALL",
      "contractName": null,
      "contractAddress": "0xbf5ad084547a5ba83822f20aeaace87d8cc2e7a1",
      "function": "credit(uint256,address)",
      "arguments": [
        "1000000000000000000",
        "0x312BA46064e1fe5904362BfB0C52c38F20d3Ef44"
      ],
      "transaction": {
        "from": "0x8d76db34ccca356fa805f5a277efff53aac5af88",
        "to": "0xbf5ad084547a5ba83822f20aeaace87d8cc2e7a1",
        "gas": "0x35801",
        "value": "0x0",
        "input": "0x9fec19e00000000000000000000000000000000000000000000000000de0b6b3a7640000000000000000000000000000312ba46064e1fe5904362bfb0c52c38f20d3ef44",
        "nonce": "0xf",
        "chainId": "0xa0c71fd",
        "accessList": null,
        "type": null
      },
      "additionalContracts": [],
      "isFixedGasLimit": false
    }
  ],
  "receipts": [
    {
      "status": "0x1",
      "cumulativeGasUsed": "0x78e16",
      "logs": [
        {
          "address": "0x4200000000000000000000000000000000000022",
          "topics": [
            "0x8c5be1e5ebec7d5bd14f71427d1e84f3dd0314c0f7b2291e5b200ac8c7c3b925",
            "0x0000000000000000000000008d76db34ccca356fa805f5a277efff53aac5af88",
            "0x000000000000000000000000bf5ad084547a5ba83822f20aeaace87d8cc2e7a1"
          ],
          "data": "0x0000000000000000000000000000000000c097ce7bc90715a56ae85c589c0000",
          "blockHash": "0xf81c4fcd4ddaa799ab9cfe4d12cf44ab8c3dc791b7d1da489730a1c6d9479459",
          "blockNumber": "0x459f33",
          "transactionHash": "0x9b78325e49c5d59c3a8138395ccfa76c8e03d60d3882574e9d2132cec7b2e301",
          "transactionIndex": "0x3",
          "logIndex": "0x3",
          "removed": false
        },
        {
          "address": "0x4200000000000000000000000000000000000022",
          "topics": [
            "0xddf252ad1be2c89b69c2b068fc378daa952ba7f163c4a11628f55a4df523b3ef",
            "0x0000000000000000000000008d76db34ccca356fa805f5a277efff53aac5af88",
            "0x000000000000000000000000bf5ad084547a5ba83822f20aeaace87d8cc2e7a1"
          ],
          "data": "0x0000000000000000000000000000000000000000000000000de0b6b3a7640000",
          "blockHash": "0xf81c4fcd4ddaa799ab9cfe4d12cf44ab8c3dc791b7d1da489730a1c6d9479459",
          "blockNumber": "0x459f33",
          "transactionHash": "0x9b78325e49c5d59c3a8138395ccfa76c8e03d60d3882574e9d2132cec7b2e301",
          "transactionIndex": "0x3",
          "logIndex": "0x4",
          "removed": false
        },
        {
          "address": "0xbf5ad084547a5ba83822f20aeaace87d8cc2e7a1",
          "topics": [
            "0x1bbf55d483639f8103dc4e035af71a4fbdb16c80be740fa3eef81198acefa094"
          ],
          "data": "0x0000000000000000000000008d76db34ccca356fa805f5a277efff53aac5af880000000000000000000000000000000000000000000000000de0b6b3a7640000",
          "blockHash": "0xf81c4fcd4ddaa799ab9cfe4d12cf44ab8c3dc791b7d1da489730a1c6d9479459",
          "blockNumber": "0x459f33",
          "transactionHash": "0x9b78325e49c5d59c3a8138395ccfa76c8e03d60d3882574e9d2132cec7b2e301",
          "transactionIndex": "0x3",
          "logIndex": "0x5",
          "removed": false
        }
      ],
      "logsBloom": "0x00000000000000000000000000800000000000000000000000000000000000002000010000000000000000000000000000000000000000000000000404280000000000000000000040000008000000000000000000000000000000000000000000000000000000000000000000020000000000000000000000000010800000000000000000000000000000000400000000000000000000000000000000000000020000000000000000040000000000000000000000000000000000000000000000000002000040000000000000000000000000000000000000000000000000000010800000000000000000000000020000000000000000000000000000400000",
      "type": "0x0",
      "transactionHash": "0x9b78325e49c5d59c3a8138395ccfa76c8e03d60d3882574e9d2132cec7b2e301",
      "transactionIndex": "0x3",
      "blockHash": "0xf81c4fcd4ddaa799ab9cfe4d12cf44ab8c3dc791b7d1da489730a1c6d9479459",
      "blockNumber": "0x459f33",
      "gasUsed": "0x26bbc",
      "effectiveGasPrice": "0xf433f",
      "from": "0x8d76db34ccca356fa805f5a277efff53aac5af88",
      "to": "0xbf5ad084547a5ba83822f20aeaace87d8cc2e7a1",
      "contractAddress": null,
      "l1Fee": "0x3ffa09",
      "l1FeeScalar": "0.684",
      "l1GasPrice": "0x990",
      "l1GasUsed": "0x9c8"
    }
  ],
  "libraries": [],
  "pending": [],
  "returns": {},
  "timestamp": 1713812172,
  "chain": 168587773,
  "commit": "4f905cc"
}