{
  "transactions": [
    {
      "hash": null,
      "transactionType": "CALL",
      "contractName": null,
      "contractAddress": "0xc6ADeA8722C2DB1EFF810f429C3C09BA00E1F25C",
      "function": "mint(address,uint256)",
      "arguments": [
        "0x8d76dB34CcCA356fA805f5A277EFFf53aaC5af88",
        "1000000000000000000000000"
      ],
      "transaction": {
        "type": "0x00",
        "from": "0x8d76db34ccca356fa805f5a277efff53aac5af88",
        "to": "0xc6adea8722c2db1eff810f429c3c09ba00e1f25c",
        "gas": "0xace7",
        "value": "0x0",
        "data": "0x40c10f190000000000000000000000008d76db34ccca356fa805f5a277efff53aac5af8800000000000000000000000000000000000000000000d3c21bcecceda1000000",
        "nonce": "0x59"
      },
      "additionalContracts": [],
      "isFixedGasLimit": false
    },
    {
      "hash": null,
      "transactionType": "CALL",
      "contractName": null,
      "contractAddress": "0xc6ADeA8722C2DB1EFF810f429C3C09BA00E1F25C",
      "function": "approve(address,uint256)",
      "arguments": [
        "0x79cb297c923430cfab2714648941553298444743",
        "115792089237316195423570985008687907853269984665640564039457584007913129639935"
      ],
      "transaction": {
        "type": "0x00",
        "from": "0x8d76db34ccca356fa805f5a277efff53aac5af88",
        "to": "0xc6adea8722c2db1eff810f429c3c09ba00e1f25c",
        "gas": "0xec7f",
        "value": "0x0",
        "data": "0x095ea7b300000000000000000000000079cb297c923430cfab2714648941553298444743ffffffffffffffffffffffffffffffffffffffffffffffffffffffffffffffff",
        "nonce": "0x5a"
      },
      "additionalContracts": [],
      "isFixedGasLimit": false
    }
  ],
  "receipts": [],
  "libraries": [],
  "pending": [],
  "returns": {},
  "timestamp": 1713772455,
  "chain": 421614,
  "multi": false,
  "commit": "4f905cc"
}