{
  "transactions": [
    {
      "hash": "0xd50053268e52b7f8b347bff26da54f2f8adba0a114060762e6855459d2d8bcb1",
      "transactionType": "CALL",
      "contractName": null,
      "contractAddress": "0xc6ADeA8722C2DB1EFF810f429C3C09BA00E1F25C",
      "function": "mint(address,uint256)",
      "arguments": [
        "0x8d76dB34CcCA356fA805f5A277EFFf53aaC5af88",
        "1000000000000000000000000"
      ],
      "transaction": {
        "type": "0x00",
        "from": "0x8d76db34ccca356fa805f5a277efff53aac5af88",
        "to": "0xc6adea8722c2db1eff810f429c3c09ba00e1f25c",
        "gas": "0x24d4d",
        "value": "0x0",
        "data": "0x40c10f190000000000000000000000008d76db34ccca356fa805f5a277efff53aac5af8800000000000000000000000000000000000000000000d3c21bcecceda1000000",
        "nonce": "0xe"
      },
      "additionalContracts": [],
      "isFixedGasLimit": false
    },
    {
      "hash": "0xe0af78e697a5c045270576740a9e25c4ba3f66cfdea1bd11994d9b34781ad569",
      "transactionType": "CALL",
      "contractName": null,
      "contractAddress": "0xc6ADeA8722C2DB1EFF810f429C3C09BA00E1F25C",
      "function": "approve(address,uint256)",
      "arguments": [
        "0x662C96c23d61156115F362c1698268F19B845898",
        "1000000000000000000000000"
      ],
      "transaction": {
        "type": "0x00",
        "from": "0x8d76db34ccca356fa805f5a277efff53aac5af88",
        "to": "0xc6adea8722c2db1eff810f429c3c09ba00e1f25c",
        "gas": "0x23489",
        "value": "0x0",
        "data": "0x095ea7b3000000000000000000000000662c96c23d61156115f362c1698268f19b84589800000000000000000000000000000000000000000000d3c21bcecceda1000000",
        "nonce": "0xf"
      },
      "additionalContracts": [],
      "isFixedGasLimit": false
    }
  ],
  "receipts": [
    {
      "transactionHash": "0xd50053268e52b7f8b347bff26da54f2f8adba0a114060762e6855459d2d8bcb1",
      "transactionIndex": "0x2",
      "blockHash": "0xdf97392a2d4a8ba759595b56e15efb2f5d9bd5d459ea9ee21a12d80f0fd074a2",
      "blockNumber": "0x184baed",
      "from": "0x8d76dB34CcCA356fA805f5A277EFFf53aaC5af88",
      "to": "0xc6ADeA8722C2DB1EFF810f429C3C09BA00E1F25C",
      "cumulativeGasUsed": "0x1b4a95",
      "gasUsed": "0x18856",
      "contractAddress": null,
      "logs": [
        {
          "address": "0xc6ADeA8722C2DB1EFF810f429C3C09BA00E1F25C",
          "topics": [
            "0xddf252ad1be2c89b69c2b068fc378daa952ba7f163c4a11628f55a4df523b3ef",
            "0x0000000000000000000000000000000000000000000000000000000000000000",
            "0x0000000000000000000000008d76db34ccca356fa805f5a277efff53aac5af88"
          ],
          "data": "0x00000000000000000000000000000000000000000000d3c21bcecceda1000000",
          "blockHash": "0xdf97392a2d4a8ba759595b56e15efb2f5d9bd5d459ea9ee21a12d80f0fd074a2",
          "blockNumber": "0x184baed",
          "transactionHash": "0xd50053268e52b7f8b347bff26da54f2f8adba0a114060762e6855459d2d8bcb1",
          "transactionIndex": "0x2",
          "logIndex": "0x4",
          "removed": false
        }
      ],
      "status": "0x1",
      "logsBloom": "0x00000000000000000000000000000000000000000000000000000000000000000000000000000000000000000000000000000000000000000000000004000000000000000000000000000008000000000000000000000000000000000000000000000000020000000000000000020800000000000000000000000010000000000000000000000000000000000000000000000000000000000000000000000000000040000000000000000000000000000000000000000000000000000000000080000002000000000000000000000000000000000000000000000000000020000000000000000000000000000000000200000000000000000000000000400000",
      "type": "0x0",
      "effectiveGasPrice": "0x5f5e100"
    },
    {
      "transactionHash": "0xe0af78e697a5c045270576740a9e25c4ba3f66cfdea1bd11994d9b34781ad569",
      "transactionIndex": "0x1",
      "blockHash": "0xbc922f79b48d13bab8f2d3b672c81cd7992ef1c60f34e016a2b91da7dc2f71a8",
      "blockNumber": "0x184baf1",
      "from": "0x8d76dB34CcCA356fA805f5A277EFFf53aaC5af88",
      "to": "0xc6ADeA8722C2DB1EFF810f429C3C09BA00E1F25C",
      "cumulativeGasUsed": "0x17549",
      "gasUsed": "0x17549",
      "contractAddress": null,
      "logs": [
        {
          "address": "0xc6ADeA8722C2DB1EFF810f429C3C09BA00E1F25C",
          "topics": [
            "0x8c5be1e5ebec7d5bd14f71427d1e84f3dd0314c0f7b2291e5b200ac8c7c3b925",
            "0x0000000000000000000000008d76db34ccca356fa805f5a277efff53aac5af88",
            "0x000000000000000000000000662c96c23d61156115f362c1698268f19b845898"
          ],
          "data": "0x00000000000000000000000000000000000000000000d3c21bcecceda1000000",
          "blockHash": "0xbc922f79b48d13bab8f2d3b672c81cd7992ef1c60f34e016a2b91da7dc2f71a8",
          "blockNumber": "0x184baf1",
          "transactionHash": "0xe0af78e697a5c045270576740a9e25c4ba3f66cfdea1bd11994d9b34781ad569",
          "transactionIndex": "0x1",
          "logIndex": "0x0",
          "removed": false
        }
      ],
      "status": "0x1",
      "logsBloom": "0x00000000000000000000000000000000000000000000000000000000000000080000000000000000000000000000000000000000000000000000000004200000000000000000000000000000000000000000000000000000000000000000000000000000000000000000000000020000000010000000000000000000000000000000000000000000000000000000000000000000000000001000000000000000020040000000000000000000000000000000000000000000000000000000000080000000000000000000000000000000000000000000000000000000000000000010000000000000000000000000000200000000000000000000000000400000",
      "type": "0x0",
      "effectiveGasPrice": "0x5f5e100"
    }
  ],
  "libraries": [],
  "pending": [],
  "returns": {},
  "timestamp": 1711033697,
  "chain": 421614,
  "commit": "1858226"
}