{
  "transactions": [
    {
      "hash": "0x498192731409e1238bf75e2009f151dc3110b52c04df04a3a925c6b5ebae05ab",
      "transactionType": "CALL",
      "contractName": null,
      "contractAddress": "0xD4B5f10D61916Bd6E0860144a91Ac658dE8a1437",
      "function": "approve(address,uint256)",
      "arguments": [
        "0x4d57a0743cd79F15B63E509e618B8f9BF193A265",
        "1000000"
      ],
      "transaction": {
        "type": "0x00",
        "from": "0x2dc391fead3cdadb619c900535bf5dc36964441c",
        "to": "0xd4b5f10d61916bd6e0860144a91ac658de8a1437",
        "gas": "0xf990",
        "value": "0x0",
        "data": "0x095ea7b30000000000000000000000004d57a0743cd79f15b63e509e618b8f9bf193a26500000000000000000000000000000000000000000000000000000000000f4240",
        "nonce": "0x96"
      },
      "additionalContracts": [],
      "isFixedGasLimit": false
    },
    {
      "hash": "0x7193e5babc5e1f16b10ced9d193c3a0a83422dd7d09eded16a91b5c28425f974",
      "transactionType": "CALL",
      "contractName": null,
      "contractAddress": "0x4d57a0743cd79F15B63E509e618B8f9BF193A265",
      "function": "depositFunds(uint256)",
      "arguments": [
        "1000000"
      ],
      "transaction": {
        "type": "0x00",
        "from": "0x2dc391fead3cdadb619c900535bf5dc36964441c",
        "to": "0x4d57a0743cd79f15b63e509e618b8f9bf193a265",
        "gas": "0x334e3",
        "value": "0x0",
        "data": "0x3b76594d00000000000000000000000000000000000000000000000000000000000f4240",
        "nonce": "0x97"
      },
      "additionalContracts": [],
      "isFixedGasLimit": false
    }
  ],
  "receipts": [
    {
      "transactionHash": "0x498192731409e1238bf75e2009f151dc3110b52c04df04a3a925c6b5ebae05ab",
      "transactionIndex": "0x4",
      "blockHash": "0x0255259b2f655eecca62cd5529db3ca67e766288d749388d0cc39f740ee7436c",
      "blockNumber": "0x46dd0c0",
      "from": "0x2Dc391FeAd3CdaDB619c900535bF5DC36964441c",
      "to": "0xD4B5f10D61916Bd6E0860144a91Ac658dE8a1437",
      "cumulativeGasUsed": "0x1208ecc",
      "gasUsed": "0xb1f7",
      "contractAddress": null,
      "logs": [
        {
          "address": "0xD4B5f10D61916Bd6E0860144a91Ac658dE8a1437",
          "topics": [
            "0x8c5be1e5ebec7d5bd14f71427d1e84f3dd0314c0f7b2291e5b200ac8c7c3b925",
            "0x0000000000000000000000002dc391fead3cdadb619c900535bf5dc36964441c",
            "0x0000000000000000000000004d57a0743cd79f15b63e509e618b8f9bf193a265"
          ],
          "data": "0x00000000000000000000000000000000000000000000000000000000000f4240",
          "blockHash": "0x0255259b2f655eecca62cd5529db3ca67e766288d749388d0cc39f740ee7436c",
          "blockNumber": "0x46dd0c0",
          "transactionHash": "0x498192731409e1238bf75e2009f151dc3110b52c04df04a3a925c6b5ebae05ab",
          "transactionIndex": "0x4",
          "logIndex": "0x1",
          "removed": false
        }
      ],
      "status": "0x1",
      "logsBloom": "0x00000000400000000000000000000000000000000000000000000000000000000000000000000000000002000000000000000000000000000000000000200000000000000000000000000000000000000000800000000004000000000000000000000000000000000000000000000001000000000000000000000000000000000400000000000000000000000000000000000000000000000100000000000000420000000000000000000000000000000000000000000000000000000000000000000000000000000000000000000000000000000000000000000000000000000010000000000000000000000400000000000000000000000000000000000000"
    },
    {
      "transactionHash": "0x7193e5babc5e1f16b10ced9d193c3a0a83422dd7d09eded16a91b5c28425f974",
      "transactionIndex": "0x5",
      "blockHash": "0x0255259b2f655eecca62cd5529db3ca67e766288d749388d0cc39f740ee7436c",
      "blockNumber": "0x46dd0c0",
      "from": "0x2Dc391FeAd3CdaDB619c900535bF5DC36964441c",
      "to": "0x4d57a0743cd79F15B63E509e618B8f9BF193A265",
      "cumulativeGasUsed": "0x1227a6b",
      "gasUsed": "0x1eb9f",
      "contractAddress": null,
      "logs": [
        {
          "address": "0xD4B5f10D61916Bd6E0860144a91Ac658dE8a1437",
          "topics": [
            "0xddf252ad1be2c89b69c2b068fc378daa952ba7f163c4a11628f55a4df523b3ef",
            "0x0000000000000000000000002dc391fead3cdadb619c900535bf5dc36964441c",
            "0x0000000000000000000000004d57a0743cd79f15b63e509e618b8f9bf193a265"
          ],
          "data": "0x00000000000000000000000000000000000000000000000000000000000f4240",
          "blockHash": "0x0255259b2f655eecca62cd5529db3ca67e766288d749388d0cc39f740ee7436c",
          "blockNumber": "0x46dd0c0",
          "transactionHash": "0x7193e5babc5e1f16b10ced9d193c3a0a83422dd7d09eded16a91b5c28425f974",
          "transactionIndex": "0x5",
          "logIndex": "0x2",
          "removed": false
        },
        {
          "address": "0xD4B5f10D61916Bd6E0860144a91Ac658dE8a1437",
          "topics": [
            "0x8c5be1e5ebec7d5bd14f71427d1e84f3dd0314c0f7b2291e5b200ac8c7c3b925",
            "0x0000000000000000000000002dc391fead3cdadb619c900535bf5dc36964441c",
            "0x0000000000000000000000004d57a0743cd79f15b63e509e618b8f9bf193a265"
          ],
          "data": "0x0000000000000000000000000000000000000000000000000000000000000000",
          "blockHash": "0x0255259b2f655eecca62cd5529db3ca67e766288d749388d0cc39f740ee7436c",
          "blockNumber": "0x46dd0c0",
          "transactionHash": "0x7193e5babc5e1f16b10ced9d193c3a0a83422dd7d09eded16a91b5c28425f974",
          "transactionIndex": "0x5",
          "logIndex": "0x3",
          "removed": false
        },
        {
          "address": "0x4d57a0743cd79F15B63E509e618B8f9BF193A265",
          "topics": [
            "0x543ba50a5eec5e6178218e364b1d0f396157b3c8fa278522c2cb7fd99407d474"
          ],
          "data": "0x0000000000000000000000002dc391fead3cdadb619c900535bf5dc36964441c00000000000000000000000000000000000000000000000000000000000f4240",
          "blockHash": "0x0255259b2f655eecca62cd5529db3ca67e766288d749388d0cc39f740ee7436c",
          "blockNumber": "0x46dd0c0",
          "transactionHash": "0x7193e5babc5e1f16b10ced9d193c3a0a83422dd7d09eded16a91b5c28425f974",
          "transactionIndex": "0x5",
          "logIndex": "0x4",
          "removed": false
        }
      ],
      "status": "0x1",
      "logsBloom": "0x00000000400000000000000000000000000000000000020000000000000000000000000000000800000002000000000000000000000000000000000000200000000000000000000000000008000000000000800000000004000000000000000000004000000000000000000000000001000000000000000000000010000000000400000000000000000000000000000000000000000000000100000000000000420000000000000000000000000000000000000000000000001000000000000000000002000000000000000000000000000000000000000000000000000000000010000000000000000000000400000000000000000000100000000100000000"
    }
  ],
  "libraries": [],
  "pending": [],
  "returns": {},
  "timestamp": 1714650210,
  "chain": 50,
  "multi": false,
  "commit": "63bc345"
}