{
  "transactions": [
    {
      "hash": "0x498192731409e1238bf75e2009f151dc3110b52c04df04a3a925c6b5ebae05ab",
      "transactionType": "CALL",
      "contractName": null,
      "contractAddress": "0xD4B5f10D61916Bd6E0860144a91Ac658dE8a1437",
      "function": "approve(address,uint256)",
      "arguments": [
        "0x4d57a0743cd79F15B63E509e618B8f9BF193A265",
        "1000000"
      ],
      "transaction": {
        "type": "0x00",
        "from": "0x2dc391fead3cdadb619c900535bf5dc36964441c",
        "to": "0xd4b5f10d61916bd6e0860144a91ac658de8a1437",
        "gas": "0xf990",
        "value": "0x0",
        "data": "0x095ea7b30000000000000000000000004d57a0743cd79f15b63e509e618b8f9bf193a26500000000000000000000000000000000000000000000000000000000000f4240",
        "nonce": "0x96"
      },
      "additionalContracts": [],
      "isFixedGasLimit": false
    },
    {
      "hash": "0x7193e5babc5e1f16b10ced9d193c3a0a83422dd7d09eded16a91b5c28425f974",
      "transactionType": "CALL",
      "contractName": null,
      "contractAddress": "0x4d57a0743cd79F15B63E509e618B8f9BF193A265",
      "function": "depositFunds(uint256)",
      "arguments": [
        "1000000"
      ],
      "transaction": {
        "type": "0x00",
        "from": "0x2dc391fead3cdadb619c900535bf5dc36964441c",
        "to": "0x4d57a0743cd79f15b63e509e618b8f9bf193a265",
        "gas": "0x334e3",
        "value": "0x0",
        "data": "0x3b76594d00000000000000000000000000000000000000000000000000000000000f4240",
        "nonce": "0x97"
      },
      "additionalContracts": [],
      "isFixedGasLimit": false
    }
  ],
  "receipts": [],
  "libraries": [],
  "pending": [
    "0x498192731409e1238bf75e2009f151dc3110b52c04df04a3a925c6b5ebae05ab",
    "0x7193e5babc5e1f16b10ced9d193c3a0a83422dd7d09eded16a91b5c28425f974"
  ],
  "returns": {},
  "timestamp": 1714650202,
  "chain": 50,
  "multi": false,
  "commit": "63bc345"
}