{
  "transactions": [
    {
      "hash": "0xe0b0672ecda02eadf790118345bd76ede6e77069dcf20cb47228e657fde7d335",
      "transactionType": "CALL",
      "contractName": null,
      "contractAddress": "0xBf4deaf7920E8BCb79Be176259e6A68cabe976B1",
      "function": "setManager(address,bool)",
      "arguments": [
        "0x5064a7838Bb429A70E58E5759C731C4F1D9229E4",
        "true"
      ],
      "transaction": {
        "type": "0x00",
        "from": "0x341d57cc7a77d38e1bce2570c53160b3b0c1ff78",
        "to": "0xbf4deaf7920e8bcb79be176259e6a68cabe976b1",
        "gas": "0x203c7b",
        "value": "0x0",
        "data": "0xa5e90eee0000000000000000000000005064a7838bb429a70e58e5759c731c4f1d9229e40000000000000000000000000000000000000000000000000000000000000001",
        "nonce": "0x3"
      },
      "additionalContracts": [],
      "isFixedGasLimit": false
    },
    {
      "hash": null,
      "transactionType": "CALL",
      "contractName": null,
      "contractAddress": "0xFd086bC7CD5C481DCC9C85ebE478A1C0b69FCbb9",
      "function": "approve(address,uint256)",
      "arguments": [
        "0xBf4deaf7920E8BCb79Be176259e6A68cabe976B1",
        "115792089237316195423570985008687907853269984665640564039457584007913129639935"
      ],
      "transaction": {
        "type": "0x00",
        "from": "0x5064a7838bb429a70e58e5759c731c4f1d9229e4",
        "to": "0xfd086bc7cd5c481dcc9c85ebe478a1c0b69fcbb9",
        "gas": "0x20be49",
        "value": "0x0",
        "data": "0x095ea7b3000000000000000000000000bf4deaf7920e8bcb79be176259e6a68cabe976b1ffffffffffffffffffffffffffffffffffffffffffffffffffffffffffffffff",
        "nonce": "0x1"
      },
      "additionalContracts": [],
      "isFixedGasLimit": false
    }
  ],
  "receipts": [
    {
      "transactionHash": "0xe0b0672ecda02eadf790118345bd76ede6e77069dcf20cb47228e657fde7d335",
      "transactionIndex": "0x3",
      "blockHash": "0xe540f1fdf587bda96ba43077141709ac1d34f85c85aada4c94f307d8cebc55f9",
      "blockNumber": "0xb38f3a0",
      "from": "0x341D57Cc7a77D38e1Bce2570C53160B3B0C1FF78",
      "to": "0xBf4deaf7920E8BCb79Be176259e6A68cabe976B1",
      "cumulativeGasUsed": "0x2d1d37",
      "gasUsed": "0x12e7a8",
      "contractAddress": null,
      "logs": [],
      "status": "0x1",
      "logsBloom": "0x00000000000000000000000000000000000000000000000000000000000000000000000000000000000000000000000000000000000000000000000000000000000000000000000000000000000000000000000000000000000000000000000000000000000000000000000000000000000000000000000000000000000000000000000000000000000000000000000000000000000000000000000000000000000000000000000000000000000000000000000000000000000000000000000000000000000000000000000000000000000000000000000000000000000000000000000000000000000000000000000000000000000000000000000000000000",
      "type": "0x0",
      "effectiveGasPrice": "0x5f5e100"
    }
  ],
  "libraries": [],
  "pending": [],
  "returns": {},
  "timestamp": 1709889162,
  "chain": 42161,
  "multi": false,
  "commit": "7bb2a47"
}