{
  "transactions": [
    {
      "hash": "0x9a8b9e49cf0dece4ea06dac0967a686edbb367fbc15b00f9d137d8d9fa6e7b9a",
      "transactionType": "CALL",
      "contractName": null,
      "contractAddress": "0xBf4deaf7920E8BCb79Be176259e6A68cabe976B1",
      "function": "setManager(address,bool)",
      "arguments": [
        "0x24Ec7a10797E0981b25b48c0C259600338Cde894",
        "true"
      ],
      "transaction": {
        "type": "0x00",
        "from": "0x341d57cc7a77d38e1bce2570c53160b3b0c1ff78",
        "to": "0xbf4deaf7920e8bcb79be176259e6a68cabe976b1",
        "gas": "0x1de823",
        "value": "0x0",
        "data": "0xa5e90eee00000000000000000000000024ec7a10797e0981b25b48c0c259600338cde8940000000000000000000000000000000000000000000000000000000000000001",
        "nonce": "0x6"
      },
      "additionalContracts": [],
      "isFixedGasLimit": false
    },
    {
      "hash": "0xd45eae072fcd3154ea17dfc413c555d2d20e7616e19ff944c65ffe5a54522f72",
      "transactionType": "CALL",
      "contractName": null,
      "contractAddress": "0xFd086bC7CD5C481DCC9C85ebE478A1C0b69FCbb9",
      "function": "approve(address,uint256)",
      "arguments": [
        "0xBf4deaf7920E8BCb79Be176259e6A68cabe976B1",
        "115792089237316195423570985008687907853269984665640564039457584007913129639935"
      ],
      "transaction": {
        "type": "0x00",
        "from": "0x24ec7a10797e0981b25b48c0c259600338cde894",
        "to": "0xfd086bc7cd5c481dcc9c85ebe478a1c0b69fcbb9",
        "gas": "0x1e1005",
        "value": "0x0",
        "data": "0x095ea7b3000000000000000000000000bf4deaf7920e8bcb79be176259e6a68cabe976b1ffffffffffffffffffffffffffffffffffffffffffffffffffffffffffffffff",
        "nonce": "0x0"
      },
      "additionalContracts": [],
      "isFixedGasLimit": false
    }
  ],
  "receipts": [
    {
      "transactionHash": "0x9a8b9e49cf0dece4ea06dac0967a686edbb367fbc15b00f9d137d8d9fa6e7b9a",
      "transactionIndex": "0x4",
      "blockHash": "0xe4d5f0b3ff4c3d564e8e8dd40d05f48d1b77ad53788f897669b684563373efbd",
      "blockNumber": "0xb390143",
      "from": "0x341D57Cc7a77D38e1Bce2570C53160B3B0C1FF78",
      "to": "0xBf4deaf7920E8BCb79Be176259e6A68cabe976B1",
      "cumulativeGasUsed": "0x41d2d1",
      "gasUsed": "0x11a475",
      "contractAddress": null,
      "logs": [],
      "status": "0x1",
      "logsBloom": "0x00000000000000000000000000000000000000000000000000000000000000000000000000000000000000000000000000000000000000000000000000000000000000000000000000000000000000000000000000000000000000000000000000000000000000000000000000000000000000000000000000000000000000000000000000000000000000000000000000000000000000000000000000000000000000000000000000000000000000000000000000000000000000000000000000000000000000000000000000000000000000000000000000000000000000000000000000000000000000000000000000000000000000000000000000000000",
      "type": "0x0",
      "effectiveGasPrice": "0x5f5e100"
    },
    {
      "transactionHash": "0xd45eae072fcd3154ea17dfc413c555d2d20e7616e19ff944c65ffe5a54522f72",
      "transactionIndex": "0x1",
      "blockHash": "0x4160c33bae4aa8871c41bf82537b680526234bcbb2c44c37eaa3744b351bb815",
      "blockNumber": "0xb39015e",
      "from": "0x24Ec7a10797E0981b25b48c0C259600338Cde894",
      "to": "0xFd086bC7CD5C481DCC9C85ebE478A1C0b69FCbb9",
      "cumulativeGasUsed": "0x11c1c6",
      "gasUsed": "0x11c1c6",
      "contractAddress": null,
      "logs": [
        {
          "address": "0xFd086bC7CD5C481DCC9C85ebE478A1C0b69FCbb9",
          "topics": [
            "0x8c5be1e5ebec7d5bd14f71427d1e84f3dd0314c0f7b2291e5b200ac8c7c3b925",
            "0x00000000000000000000000024ec7a10797e0981b25b48c0c259600338cde894",
            "0x000000000000000000000000bf4deaf7920e8bcb79be176259e6a68cabe976b1"
          ],
          "data": "0xffffffffffffffffffffffffffffffffffffffffffffffffffffffffffffffff",
          "blockHash": "0x4160c33bae4aa8871c41bf82537b680526234bcbb2c44c37eaa3744b351bb815",
          "blockNumber": "0xb39015e",
          "transactionHash": "0xd45eae072fcd3154ea17dfc413c555d2d20e7616e19ff944c65ffe5a54522f72",
          "transactionIndex": "0x1",
          "logIndex": "0x0",
          "removed": false
        }
      ],
      "status": "0x1",
      "logsBloom": "0x00000000000000000000000000000000000000000000000000000000000000000000000000000000000000000000000000000000000000000000000000200000000010000000000000000000000000000200000000000000000000000000000000000000000000000000000000000000000000000000000000000000000000000400000000000000000000000000000000004000000000000000000000000000020000000000000000000000000000000000000000000000000000000000000000008000000000000000004000000000000000000000000000000000000000800010000000000000000000000000000010000000000004000000000000000000",
      "type": "0x0",
      "effectiveGasPrice": "0x5f5e100"
    }
  ],
  "libraries": [],
  "pending": [],
  "returns": {},
  "timestamp": 1709890058,
  "chain": 42161,
  "multi": false,
  "commit": "7bb2a47"
}