{
  "transactions": [
    {
      "hash": "0x2c2420905f33a6ac1b3a12970e682382212ffded3cd6613aab765de9aff05d27",
      "transactionType": "CALL",
      "contractName": null,
      "contractAddress": "0xBf4deaf7920E8BCb79Be176259e6A68cabe976B1",
      "function": "setManager(address,bool)",
      "arguments": [
        "0x6784aEffB297d6557F77c4eF77ad756A2165C0bB",
        "true"
      ],
      "transaction": {
        "type": "0x00",
        "from": "0x341d57cc7a77d38e1bce2570c53160b3b0c1ff78",
        "to": "0xbf4deaf7920e8bcb79be176259e6a68cabe976b1",
        "gas": "0x1d8e36",
        "value": "0x0",
        "data": "0xa5e90eee0000000000000000000000006784aeffb297d6557f77c4ef77ad756a2165c0bb0000000000000000000000000000000000000000000000000000000000000001",
        "nonce": "0x7"
      },
      "additionalContracts": [],
      "isFixedGasLimit": false
    },
    {
      "hash": "0x33e05b881d980e280da8ec7581fa5d13d5110e26bf16c822cf86140acd6a2c14",
      "transactionType": "CALL",
      "contractName": null,
      "contractAddress": "0xFd086bC7CD5C481DCC9C85ebE478A1C0b69FCbb9",
      "function": "approve(address,uint256)",
      "arguments": [
        "0xBf4deaf7920E8BCb79Be176259e6A68cabe976B1",
        "115792089237316195423570985008687907853269984665640564039457584007913129639935"
      ],
      "transaction": {
        "type": "0x00",
        "from": "0x6784aeffb297d6557f77c4ef77ad756a2165c0bb",
        "to": "0xfd086bc7cd5c481dcc9c85ebe478a1c0b69fcbb9",
        "gas": "0x1da95c",
        "value": "0x0",
        "data": "0x095ea7b3000000000000000000000000bf4deaf7920e8bcb79be176259e6a68cabe976b1ffffffffffffffffffffffffffffffffffffffffffffffffffffffffffffffff",
        "nonce": "0x2"
      },
      "additionalContracts": [],
      "isFixedGasLimit": false
    }
  ],
  "receipts": [
    {
      "transactionHash": "0x2c2420905f33a6ac1b3a12970e682382212ffded3cd6613aab765de9aff05d27",
      "transactionIndex": "0x2",
      "blockHash": "0x245864aa836165ad0235ddc764558335ee008b9ed844d578946dc11254573ef3",
      "blockNumber": "0xb390258",
      "from": "0x341D57Cc7a77D38e1Bce2570C53160B3B0C1FF78",
      "to": "0xBf4deaf7920E8BCb79Be176259e6A68cabe976B1",
      "cumulativeGasUsed": "0x378b93",
      "gasUsed": "0x1156b9",
      "contractAddress": null,
      "logs": [],
      "status": "0x1",
      "logsBloom": "0x00000000000000000000000000000000000000000000000000000000000000000000000000000000000000000000000000000000000000000000000000000000000000000000000000000000000000000000000000000000000000000000000000000000000000000000000000000000000000000000000000000000000000000000000000000000000000000000000000000000000000000000000000000000000000000000000000000000000000000000000000000000000000000000000000000000000000000000000000000000000000000000000000000000000000000000000000000000000000000000000000000000000000000000000000000000",
      "type": "0x0",
      "effectiveGasPrice": "0x5f5e100"
    },
    {
      "transactionHash": "0x33e05b881d980e280da8ec7581fa5d13d5110e26bf16c822cf86140acd6a2c14",
      "transactionIndex": "0x2",
      "blockHash": "0xbf76d233e8bb913a67f00dfcd621874b13a6c2a0314a6b88317ccae8ea6ff20b",
      "blockNumber": "0xb39025b",
      "from": "0x6784aEffB297d6557F77c4eF77ad756A2165C0bB",
      "to": "0xFd086bC7CD5C481DCC9C85ebE478A1C0b69FCbb9",
      "cumulativeGasUsed": "0x239acb",
      "gasUsed": "0x11740a",
      "contractAddress": null,
      "logs": [
        {
          "address": "0xFd086bC7CD5C481DCC9C85ebE478A1C0b69FCbb9",
          "topics": [
            "0x8c5be1e5ebec7d5bd14f71427d1e84f3dd0314c0f7b2291e5b200ac8c7c3b925",
            "0x0000000000000000000000006784aeffb297d6557f77c4ef77ad756a2165c0bb",
            "0x000000000000000000000000bf4deaf7920e8bcb79be176259e6a68cabe976b1"
          ],
          "data": "0xffffffffffffffffffffffffffffffffffffffffffffffffffffffffffffffff",
          "blockHash": "0xbf76d233e8bb913a67f00dfcd621874b13a6c2a0314a6b88317ccae8ea6ff20b",
          "blockNumber": "0xb39025b",
          "transactionHash": "0x33e05b881d980e280da8ec7581fa5d13d5110e26bf16c822cf86140acd6a2c14",
          "transactionIndex": "0x2",
          "logIndex": "0x1",
          "removed": false
        }
      ],
      "status": "0x1",
      "logsBloom": "0x00000000000000000000000000000000000000000000000000000000000000000000000000000000000000000000000000000000000000000000000000200000000010000000000000000000000000000200000000000000000080000000000000000000000000000000000000000000000000000000000000000000000000000400000000000000000000000000000000000000000000000000000000000000020000000100000000000000000000000000000000000000000000000000000000008000000000000000000000000000000000000000000000000000000000000010000000000000000000000000000010000000000004000000000000001000",
      "type": "0x0",
      "effectiveGasPrice": "0x5f5e100"
    }
  ],
  "libraries": [],
  "pending": [],
  "returns": {},
  "timestamp": 1709890130,
  "chain": 42161,
  "multi": false,
  "commit": "7bb2a47"
}