{
  "transactions": [
    {
      "hash": "0x91eba9c4e4c12ef8a02686627e7bdd239d6586add669b00142d43802e87c153c",
      "transactionType": "CALL",
      "contractName": null,
      "contractAddress": "0x2839fEefF02cEEe19e2DC988d7A3B8d3C513BF97",
      "function": "deployBankroll(address,uint256,uint256,bytes32)",
      "arguments": [
        "0xc6ADeA8722C2DB1EFF810f429C3C09BA00E1F25C",
        "10000",
        "10000",
        "0x3078300000000000000000000000000000000000000000000000000000000000"
      ],
      "transaction": {
        "type": "0x00",
        "from": "0x4015b6569369af4f17cd2da9e2f5e14a5dd162b4",
        "to": "0x2839feeff02ceee19e2dc988d7a3b8d3c513bf97",
        "gas": "0xb73be",
        "value": "0x0",
        "data": "0x14dd160e000000000000000000000000c6adea8722c2db1eff810f429c3c09ba00e1f25c000000000000000000000000000000000000000000000000000000000000271000000000000000000000000000000000000000000000000000000000000027103078300000000000000000000000000000000000000000000000000000000000",
        "nonce": "0x43"
      },
      "additionalContracts": [
        {
          "transactionType": "CREATE2",
          "address": "0x15a2Ef9E37aD9163391667455BA0e3da70a58601",
          "initCode": "0x3d602d80600a3d3981f3363d3d373d3d3d363d73c2afd1d134db06d941b319555bb956decde5c0405af43d82803e903d91602b57fd5bf3"
        }
      ],
      "isFixedGasLimit": false
    },
    {
      "hash": "0x40993fa732945884ed8ab6e8cc8ada724b879b8117248f4d13c874d73e584999",
      "transactionType": "CALL",
      "contractName": null,
      "contractAddress": "0x0f8E34bcB8eD3C9390348209cF6050A2b58BED5F",
      "function": "addOperator(address)",
      "arguments": [
        "0x312BA46064e1fe5904362BfB0C52c38F20d3Ef44"
      ],
      "transaction": {
        "type": "0x00",
        "from": "0x4015b6569369af4f17cd2da9e2f5e14a5dd162b4",
        "to": "0x0f8e34bcb8ed3c9390348209cf6050a2b58bed5f",
        "gas": "0x255c8",
        "value": "0x0",
        "data": "0x9870d7fe000000000000000000000000312ba46064e1fe5904362bfb0c52c38f20d3ef44",
        "nonce": "0x44"
      },
      "additionalContracts": [],
      "isFixedGasLimit": false
    },
    {
      "hash": "0x22626833bfaef7f0bb4439e408cf9d2b7a8e1bde0d8124cf0ccadcaa2f383ad0",
      "transactionType": "CALL",
      "contractName": null,
      "contractAddress": "0x0f8E34bcB8eD3C9390348209cF6050A2b58BED5F",
      "function": "approveBankroll(address,uint256)",
      "arguments": [
        "0x15a2Ef9E37aD9163391667455BA0e3da70a58601",
        "0"
      ],
      "transaction": {
        "type": "0x00",
        "from": "0x4015b6569369af4f17cd2da9e2f5e14a5dd162b4",
        "to": "0x0f8e34bcb8ed3c9390348209cf6050a2b58bed5f",
        "gas": "0x18d5e",
        "value": "0x0",
        "data": "0x9756e8df00000000000000000000000015a2ef9e37ad9163391667455ba0e3da70a586010000000000000000000000000000000000000000000000000000000000000000",
        "nonce": "0x45"
      },
      "additionalContracts": [],
      "isFixedGasLimit": false
    },
    {
      "hash": "0xd7f2f6c129fa4db79528911f83d431beac093d16c541376ac83f84c7657fe4b1",
      "transactionType": "CALL",
      "contractName": null,
      "contractAddress": "0x0f8E34bcB8eD3C9390348209cF6050A2b58BED5F",
      "function": "setOperatorToBankroll(address,address)",
      "arguments": [
        "0x15a2Ef9E37aD9163391667455BA0e3da70a58601",
        "0x312BA46064e1fe5904362BfB0C52c38F20d3Ef44"
      ],
      "transaction": {
        "type": "0x00",
        "from": "0x4015b6569369af4f17cd2da9e2f5e14a5dd162b4",
        "to": "0x0f8e34bcb8ed3c9390348209cf6050a2b58bed5f",
        "gas": "0x214e2",
        "value": "0x0",
        "data": "0xcb233b0a00000000000000000000000015a2ef9e37ad9163391667455ba0e3da70a58601000000000000000000000000312ba46064e1fe5904362bfb0c52c38f20d3ef44",
        "nonce": "0x46"
      },
      "additionalContracts": [],
      "isFixedGasLimit": false
    }
  ],
  "receipts": [
    {
      "transactionHash": "0x91eba9c4e4c12ef8a02686627e7bdd239d6586add669b00142d43802e87c153c",
      "transactionIndex": "0x2",
      "blockHash": "0x30fbcea3dc50a428da3de13c23b0d4e79e946c049e73fac68b60e0375e8b0ed3",
      "blockNumber": "0x184d707",
      "from": "0x4015B6569369af4F17CD2DA9e2F5e14A5Dd162b4",
      "to": "0x2839fEefF02cEEe19e2DC988d7A3B8d3C513BF97",
      "cumulativeGasUsed": "0x1b61af",
      "gasUsed": "0x85e2e",
      "contractAddress": null,
      "logs": [
        {
          "address": "0x15a2Ef9E37aD9163391667455BA0e3da70a58601",
          "topics": [
            "0x2f8788117e7eff1d82e926ec794901d17c78024a50270940304540a733656f0d",
            "0x0000000000000000000000000000000000000000000000000000000000000000",
            "0x0000000000000000000000001d424382e8e09cc6f8425c9f32d2c695e7698db7",
            "0x0000000000000000000000002839feeff02ceee19e2dc988d7a3b8d3c513bf97"
          ],
          "data": "0x",
          "blockHash": "0x30fbcea3dc50a428da3de13c23b0d4e79e946c049e73fac68b60e0375e8b0ed3",
          "blockNumber": "0x184d707",
          "transactionHash": "0x91eba9c4e4c12ef8a02686627e7bdd239d6586add669b00142d43802e87c153c",
          "transactionIndex": "0x2",
          "logIndex": "0x3",
          "removed": false
        },
        {
          "address": "0x15a2Ef9E37aD9163391667455BA0e3da70a58601",
          "topics": [
            "0x2f8788117e7eff1d82e926ec794901d17c78024a50270940304540a733656f0d",
            "0xdf8b4c520ffe197c5343c6f5aec59570151ef9a492f2c624fd45ddde6135ec42",
            "0x0000000000000000000000007dacfe87dcd15fc646c8b4c3fc409bc842eb64f5",
            "0x0000000000000000000000002839feeff02ceee19e2dc988d7a3b8d3c513bf97"
          ],
          "data": "0x",
          "blockHash": "0x30fbcea3dc50a428da3de13c23b0d4e79e946c049e73fac68b60e0375e8b0ed3",
          "blockNumber": "0x184d707",
          "transactionHash": "0x91eba9c4e4c12ef8a02686627e7bdd239d6586add669b00142d43802e87c153c",
          "transactionIndex": "0x2",
          "logIndex": "0x4",
          "removed": false
        },
        {
          "address": "0x15a2Ef9E37aD9163391667455BA0e3da70a58601",
          "topics": [
            "0x2f8788117e7eff1d82e926ec794901d17c78024a50270940304540a733656f0d",
            "0xdf8b4c520ffe197c5343c6f5aec59570151ef9a492f2c624fd45ddde6135ec42",
            "0x0000000000000000000000008d76db34ccca356fa805f5a277efff53aac5af88",
            "0x0000000000000000000000002839feeff02ceee19e2dc988d7a3b8d3c513bf97"
          ],
          "data": "0x",
          "blockHash": "0x30fbcea3dc50a428da3de13c23b0d4e79e946c049e73fac68b60e0375e8b0ed3",
          "blockNumber": "0x184d707",
          "transactionHash": "0x91eba9c4e4c12ef8a02686627e7bdd239d6586add669b00142d43802e87c153c",
          "transactionIndex": "0x2",
          "logIndex": "0x5",
          "removed": false
        },
        {
          "address": "0x15a2Ef9E37aD9163391667455BA0e3da70a58601",
          "topics": [
            "0x2f8788117e7eff1d82e926ec794901d17c78024a50270940304540a733656f0d",
            "0x48a7db58bc0d0016705458e918f4ea84477e4f4c43c6d240db04e4db985c2082",
            "0x0000000000000000000000000f8e34bcb8ed3c9390348209cf6050a2b58bed5f",
            "0x0000000000000000000000002839feeff02ceee19e2dc988d7a3b8d3c513bf97"
          ],
          "data": "0x",
          "blockHash": "0x30fbcea3dc50a428da3de13c23b0d4e79e946c049e73fac68b60e0375e8b0ed3",
          "blockNumber": "0x184d707",
          "transactionHash": "0x91eba9c4e4c12ef8a02686627e7bdd239d6586add669b00142d43802e87c153c",
          "transactionIndex": "0x2",
          "logIndex": "0x6",
          "removed": false
        },
        {
          "address": "0x15a2Ef9E37aD9163391667455BA0e3da70a58601",
          "topics": [
            "0x7f26b83ff96e1f2b6a682f133852f6798a09c465da95921460cefb3847402498"
          ],
          "data": "0x0000000000000000000000000000000000000000000000000000000000000001",
          "blockHash": "0x30fbcea3dc50a428da3de13c23b0d4e79e946c049e73fac68b60e0375e8b0ed3",
          "blockNumber": "0x184d707",
          "transactionHash": "0x91eba9c4e4c12ef8a02686627e7bdd239d6586add669b00142d43802e87c153c",
          "transactionIndex": "0x2",
          "logIndex": "0x7",
          "removed": false
        }
      ],
      "status": "0x1",
      "logsBloom": "0x00004004000000004000000000000000000000000000000000000000000000200000000000000000000000000000000000000000000080000000000004000000000000000000000000000000000000000800100000000000000000000000000000000000020000000000008000020800000800000000000000000000008000000001040000000000000000000008000000000000000080000000000000010000000000000000000000000000100400000000000000000400001000000000000000000000000000000004000000040000000000000000400100000000000020002000000000400000000000000000000000080000000000000000000020400000",
      "type": "0x0",
      "effectiveGasPrice": "0x5f5e100"
    },
    {
      "transactionHash": "0x40993fa732945884ed8ab6e8cc8ada724b879b8117248f4d13c874d73e584999",
      "transactionIndex": "0x2",
      "blockHash": "0x06190da3e720b04df908342820b5d1754adcfa402ecdfaa297d95861c8414e47",
      "blockNumber": "0x184d70a",
      "from": "0x4015B6569369af4F17CD2DA9e2F5e14A5Dd162b4",
      "to": "0x0f8E34bcB8eD3C9390348209cF6050A2b58BED5F",
      "cumulativeGasUsed": "0x147d8e",
      "gasUsed": "0x18451",
      "contractAddress": null,
      "logs": [],
      "status": "0x1",
      "logsBloom": "0x00000000000000000000000000000000000000000000000000000000000000000000000000000000000000000000000000000000000000000000000000000000000000000000000000000000000000000000000000000000000000000000000000000000000000000000000000000000000000000000000000000000000000000000000000000000000000000000000000000000000000000000000000000000000000000000000000000000000000000000000000000000000000000000000000000000000000000000000000000000000000000000000000000000000000000000000000000000000000000000000000000000000000000000000000000000",
      "type": "0x0",
      "effectiveGasPrice": "0x5f5e100"
    },
    {
      "transactionHash": "0x22626833bfaef7f0bb4439e408cf9d2b7a8e1bde0d8124cf0ccadcaa2f383ad0",
      "transactionIndex": "0x1",
      "blockHash": "0x2ec9935a7f2322cd5eb5a1f8a330d43746593689b1dba3a10f960f9fc30740ec",
      "blockNumber": "0x184d70d",
      "from": "0x4015B6569369af4F17CD2DA9e2F5e14A5Dd162b4",
      "to": "0x0f8E34bcB8eD3C9390348209cF6050A2b58BED5F",
      "cumulativeGasUsed": "0x2111f",
      "gasUsed": "0x2111f",
      "contractAddress": null,
      "logs": [],
      "status": "0x1",
      "logsBloom": "0x00000000000000000000000000000000000000000000000000000000000000000000000000000000000000000000000000000000000000000000000000000000000000000000000000000000000000000000000000000000000000000000000000000000000000000000000000000000000000000000000000000000000000000000000000000000000000000000000000000000000000000000000000000000000000000000000000000000000000000000000000000000000000000000000000000000000000000000000000000000000000000000000000000000000000000000000000000000000000000000000000000000000000000000000000000000",
      "type": "0x0",
      "effectiveGasPrice": "0x5f5e100"
    },
    {
      "transactionHash": "0xd7f2f6c129fa4db79528911f83d431beac093d16c541376ac83f84c7657fe4b1",
      "transactionIndex": "0x1",
      "blockHash": "0xe5222c8594298a37c30af428480ee093b64d4185fb79f5b4b89686132e4db87f",
      "blockNumber": "0x184d710",
      "from": "0x4015B6569369af4F17CD2DA9e2F5e14A5Dd162b4",
      "to": "0x0f8E34bcB8eD3C9390348209cF6050A2b58BED5F",
      "cumulativeGasUsed": "0x2733c",
      "gasUsed": "0x2733c",
      "contractAddress": null,
      "logs": [],
      "status": "0x1",
      "logsBloom": "0x00000000000000000000000000000000000000000000000000000000000000000000000000000000000000000000000000000000000000000000000000000000000000000000000000000000000000000000000000000000000000000000000000000000000000000000000000000000000000000000000000000000000000000000000000000000000000000000000000000000000000000000000000000000000000000000000000000000000000000000000000000000000000000000000000000000000000000000000000000000000000000000000000000000000000000000000000000000000000000000000000000000000000000000000000000000",
      "type": "0x0",
      "effectiveGasPrice": "0x5f5e100"
    }
  ],
  "libraries": [],
  "pending": [],
  "returns": {},
  "timestamp": 1711035503,
  "chain": 421614,
  "commit": "1858226"
}