{
  "transactions": [
    {
      "hash": "0x201ae4de5cc7503a7deabae63424217837fe3eb2795bb8ff8d7194ccbf695a9f",
      "transactionType": "CALL",
      "contractName": null,
      "contractAddress": "0x91e01407d5d17eb2462e1e082d07b43b88577e5c",
      "function": "deployBankroll(address,uint256,uint256,bytes32)",
      "arguments": [
        "0xc6ADeA8722C2DB1EFF810f429C3C09BA00E1F25C",
        "8000",
        "1000000000",
        "0x3078310000000000000000000000000000000000000000000000000000000000"
      ],
      "transaction": {
        "from": "0x802a1f49be649823f41017cbe814e08a98db5a6d",
        "to": "0x91e01407d5d17eb2462e1e082d07b43b88577e5c",
        "gas": "0x98e73",
        "value": "0x0",
        "input": "0x14dd160e000000000000000000000000c6adea8722c2db1eff810f429c3c09ba00e1f25c0000000000000000000000000000000000000000000000000000000000001f40000000000000000000000000000000000000000000000000000000003b9aca003078310000000000000000000000000000000000000000000000000000000000",
        "nonce": "0xe",
        "chainId": "0x66eee",
        "accessList": null,
        "type": null
      },
      "additionalContracts": [
        {
          "transactionType": "CREATE2",
          "address": "0xa0e7b78c2990d5e0ce185a5ba565388639a33e7b",
          "initCode": "0x3d602d80600a3d3981f3363d3d373d3d3d363d73ef4ae4fc48b01a7816ae13a92217bd085c8409b45af43d82803e903d91602b57fd5bf3"
        }
      ],
      "isFixedGasLimit": false
    },
    {
      "hash": "0xe57b2e8d0e2fa724646cecfa8911e34b81a5d8cd5c433a98d57855bb93356c60",
      "transactionType": "CALL",
      "contractName": null,
      "contractAddress": "0xecda7dfa3032b00daa294fded3a1f1348759a9ca",
      "function": "addOperator(address)",
      "arguments": [
        "0xaD0e95D949cf8ae7D9FaCe4454e1a27Bc811D8f1"
      ],
      "transaction": {
        "from": "0x802a1f49be649823f41017cbe814e08a98db5a6d",
        "to": "0xecda7dfa3032b00daa294fded3a1f1348759a9ca",
        "gas": "0x11f6a",
        "value": "0x0",
        "input": "0x9870d7fe000000000000000000000000ad0e95d949cf8ae7d9face4454e1a27bc811d8f1",
        "nonce": "0xf",
        "chainId": "0x66eee",
        "accessList": null,
        "type": null
      },
      "additionalContracts": [],
      "isFixedGasLimit": false
    },
    {
      "hash": "0x7eec281e0d1c2a9e1e3587a58c20d666ec55424dd867036a7f0d69764e02767f",
      "transactionType": "CALL",
      "contractName": null,
      "contractAddress": "0xecda7dfa3032b00daa294fded3a1f1348759a9ca",
      "function": "approveBankroll(address,uint256)",
      "arguments": [
        "0xa0e7B78C2990d5E0Ce185A5Ba565388639a33e7B",
        "650"
      ],
      "transaction": {
        "from": "0x802a1f49be649823f41017cbe814e08a98db5a6d",
        "to": "0xecda7dfa3032b00daa294fded3a1f1348759a9ca",
        "gas": "0x1a7ce",
        "value": "0x0",
        "input": "0x9756e8df000000000000000000000000a0e7b78c2990d5e0ce185a5ba565388639a33e7b000000000000000000000000000000000000000000000000000000000000028a",
        "nonce": "0x10",
        "chainId": "0x66eee",
        "accessList": null,
        "type": null
      },
      "additionalContracts": [],
      "isFixedGasLimit": false
    },
    {
      "hash": "0x216310cf41cd8c137a8b0babba005a161cc928e9bef0c8b827679639e8fe1a38",
      "transactionType": "CALL",
      "contractName": null,
      "contractAddress": "0xecda7dfa3032b00daa294fded3a1f1348759a9ca",
      "function": "setOperatorToBankroll(address,address)",
      "arguments": [
        "0xa0e7B78C2990d5E0Ce185A5Ba565388639a33e7B",
        "0xaD0e95D949cf8ae7D9FaCe4454e1a27Bc811D8f1"
      ],
      "transaction": {
        "from": "0x802a1f49be649823f41017cbe814e08a98db5a6d",
        "to": "0xecda7dfa3032b00daa294fded3a1f1348759a9ca",
        "gas": "0x25d08",
        "value": "0x0",
        "input": "0xcb233b0a000000000000000000000000a0e7b78c2990d5e0ce185a5ba565388639a33e7b000000000000000000000000ad0e95d949cf8ae7d9face4454e1a27bc811d8f1",
        "nonce": "0x11",
        "chainId": "0x66eee",
        "accessList": null,
        "type": null
      },
      "additionalContracts": [],
      "isFixedGasLimit": false
    },
    {
      "hash": "0x469a8119b4e0321c380a64f66c7a16617257ce216411d609daf555052a274bfe",
      "transactionType": "CALL",
      "contractName": null,
      "contractAddress": "0xa0e7b78c2990d5e0ce185a5ba565388639a33e7b",
      "function": "maxContractsApprove()",
      "arguments": [],
      "transaction": {
        "from": "0x632a7cf953c3127606aadccd832e9d480b81f7c0",
        "to": "0xa0e7b78c2990d5e0ce185a5ba565388639a33e7b",
        "gas": "0x6af7",
        "value": "0x0",
        "input": "0xcbb3b225",
        "nonce": "0x0",
        "chainId": "0x66eee",
        "accessList": null,
        "type": null
      },
      "additionalContracts": [],
      "isFixedGasLimit": false
    }
  ],
  "receipts": [
    {
      "status": "0x1",
      "cumulativeGasUsed": "0x132135",
      "logs": [
        {
          "address": "0xa0e7b78c2990d5e0ce185a5ba565388639a33e7b",
          "topics": [
            "0x2f8788117e7eff1d82e926ec794901d17c78024a50270940304540a733656f0d",
            "0x0000000000000000000000000000000000000000000000000000000000000000",
            "0x0000000000000000000000001d424382e8e09cc6f8425c9f32d2c695e7698db7",
            "0x00000000000000000000000091e01407d5d17eb2462e1e082d07b43b88577e5c"
          ],
          "data": "0x",
          "blockHash": "0x089dd0d461c8a344e89bbc1a7984d3c54939277cdee9b12d5bb8fc03eea70a42",
          "blockNumber": "0x22f2bee",
          "transactionHash": "0x201ae4de5cc7503a7deabae63424217837fe3eb2795bb8ff8d7194ccbf695a9f",
          "transactionIndex": "0x4",
          "logIndex": "0x15",
          "removed": false
        },
        {
          "address": "0xa0e7b78c2990d5e0ce185a5ba565388639a33e7b",
          "topics": [
            "0x2f8788117e7eff1d82e926ec794901d17c78024a50270940304540a733656f0d",
            "0xdf8b4c520ffe197c5343c6f5aec59570151ef9a492f2c624fd45ddde6135ec42",
            "0x0000000000000000000000001a9d4f05a06e79ee941008526c84aaca91bfef29",
            "0x00000000000000000000000091e01407d5d17eb2462e1e082d07b43b88577e5c"
          ],
          "data": "0x",
          "blockHash": "0x089dd0d461c8a344e89bbc1a7984d3c54939277cdee9b12d5bb8fc03eea70a42",
          "blockNumber": "0x22f2bee",
          "transactionHash": "0x201ae4de5cc7503a7deabae63424217837fe3eb2795bb8ff8d7194ccbf695a9f",
          "transactionIndex": "0x4",
          "logIndex": "0x16",
          "removed": false
        },
        {
          "address": "0xa0e7b78c2990d5e0ce185a5ba565388639a33e7b",
          "topics": [
            "0x2f8788117e7eff1d82e926ec794901d17c78024a50270940304540a733656f0d",
            "0xdf8b4c520ffe197c5343c6f5aec59570151ef9a492f2c624fd45ddde6135ec42",
            "0x000000000000000000000000632a7cf953c3127606aadccd832e9d480b81f7c0",
            "0x00000000000000000000000091e01407d5d17eb2462e1e082d07b43b88577e5c"
          ],
          "data": "0x",
          "blockHash": "0x089dd0d461c8a344e89bbc1a7984d3c54939277cdee9b12d5bb8fc03eea70a42",
          "blockNumber": "0x22f2bee",
          "transactionHash": "0x201ae4de5cc7503a7deabae63424217837fe3eb2795bb8ff8d7194ccbf695a9f",
          "transactionIndex": "0x4",
          "logIndex": "0x17",
          "removed": false
        },
        {
          "address": "0xa0e7b78c2990d5e0ce185a5ba565388639a33e7b",
          "topics": [
            "0x2f8788117e7eff1d82e926ec794901d17c78024a50270940304540a733656f0d",
            "0x48a7db58bc0d0016705458e918f4ea84477e4f4c43c6d240db04e4db985c2082",
            "0x000000000000000000000000ecda7dfa3032b00daa294fded3a1f1348759a9ca",
            "0x00000000000000000000000091e01407d5d17eb2462e1e082d07b43b88577e5c"
          ],
          "data": "0x",
          "blockHash": "0x089dd0d461c8a344e89bbc1a7984d3c54939277cdee9b12d5bb8fc03eea70a42",
          "blockNumber": "0x22f2bee",
          "transactionHash": "0x201ae4de5cc7503a7deabae63424217837fe3eb2795bb8ff8d7194ccbf695a9f",
          "transactionIndex": "0x4",
          "logIndex": "0x18",
          "removed": false
        },
        {
          "address": "0xa0e7b78c2990d5e0ce185a5ba565388639a33e7b",
          "topics": [
            "0x7f26b83ff96e1f2b6a682f133852f6798a09c465da95921460cefb3847402498"
          ],
          "data": "0x0000000000000000000000000000000000000000000000000000000000000001",
          "blockHash": "0x089dd0d461c8a344e89bbc1a7984d3c54939277cdee9b12d5bb8fc03eea70a42",
          "blockNumber": "0x22f2bee",
          "transactionHash": "0x201ae4de5cc7503a7deabae63424217837fe3eb2795bb8ff8d7194ccbf695a9f",
          "transactionIndex": "0x4",
          "logIndex": "0x19",
          "removed": false
        }
      ],
      "logsBloom": "0x00004004000002000000000000000000000000000000000000000000000000200000000020020000000000800000000000000000000080000000000000000000000200000000000000000820000000000000000000000000000000000000000000000000020000000000008000000800000000000000000000000000000100000000040000000000000000000000000000000000000080000000000000000000000000000000000000000000100400000040000000000400001000000000000000000000000000000004000000040000000000000000000120000000000020102000400000000100000000000000000000400000000000000000010000000000",
      "type": "0x2",
      "transactionHash": "0x201ae4de5cc7503a7deabae63424217837fe3eb2795bb8ff8d7194ccbf695a9f",
      "transactionIndex": "0x4",
      "blockHash": "0x089dd0d461c8a344e89bbc1a7984d3c54939277cdee9b12d5bb8fc03eea70a42",
      "blockNumber": "0x22f2bee",
      "gasUsed": "0x73e67",
      "effectiveGasPrice": "0x30c42180",
      "from": "0x802a1f49be649823f41017cbe814e08a98db5a6d",
      "to": "0x91e01407d5d17eb2462e1e082d07b43b88577e5c",
      "contractAddress": null,
      "gasUsedForL1": "0x0",
      "l1BlockNumber": "0x57e1c8"
    },
    {
      "status": "0x1",
      "cumulativeGasUsed": "0x23efb4",
      "logs": [],
      "logsBloom": "0x00000000000000000000000000000000000000000000000000000000000000000000000000000000000000000000000000000000000000000000000000000000000000000000000000000000000000000000000000000000000000000000000000000000000000000000000000000000000000000000000000000000000000000000000000000000000000000000000000000000000000000000000000000000000000000000000000000000000000000000000000000000000000000000000000000000000000000000000000000000000000000000000000000000000000000000000000000000000000000000000000000000000000000000000000000000",
      "type": "0x2",
      "transactionHash": "0xe57b2e8d0e2fa724646cecfa8911e34b81a5d8cd5c433a98d57855bb93356c60",
      "transactionIndex": "0x8",
      "blockHash": "0x230723fec9f0dc41589328c8f3a02adf086f3d3e860f291d2273b5e1cf9877c1",
      "blockNumber": "0x22f2bf0",
      "gasUsed": "0xdb87",
      "effectiveGasPrice": "0x30ea9540",
      "from": "0x802a1f49be649823f41017cbe814e08a98db5a6d",
      "to": "0xecda7dfa3032b00daa294fded3a1f1348759a9ca",
      "contractAddress": null,
      "gasUsedForL1": "0x0",
      "l1BlockNumber": "0x57e1c8"
    },
    {
      "status": "0x1",
      "cumulativeGasUsed": "0x48f7f9",
      "logs": [],
      "logsBloom": "0x00000000000000000000000000000000000000000000000000000000000000000000000000000000000000000000000000000000000000000000000000000000000000000000000000000000000000000000000000000000000000000000000000000000000000000000000000000000000000000000000000000000000000000000000000000000000000000000000000000000000000000000000000000000000000000000000000000000000000000000000000000000000000000000000000000000000000000000000000000000000000000000000000000000000000000000000000000000000000000000000000000000000000000000000000000000",
      "type": "0x2",
      "transactionHash": "0x7eec281e0d1c2a9e1e3587a58c20d666ec55424dd867036a7f0d69764e02767f",
      "transactionIndex": "0x6",
      "blockHash": "0x2caf6d1ec5fc7a9f4e410b8a5a0c67b5aef35ce3613401d52bc73182f92f6278",
      "blockNumber": "0x22f2bf2",
      "gasUsed": "0x132d4",
      "effectiveGasPrice": "0x30abb780",
      "from": "0x802a1f49be649823f41017cbe814e08a98db5a6d",
      "to": "0xecda7dfa3032b00daa294fded3a1f1348759a9ca",
      "contractAddress": null,
      "gasUsedForL1": "0x0",
      "l1BlockNumber": "0x57e1c8"
    },
    {
      "status": "0x1",
      "cumulativeGasUsed": "0x71ffe",
      "logs": [],
      "logsBloom": "0x00000000000000000000000000000000000000000000000000000000000000000000000000000000000000000000000000000000000000000000000000000000000000000000000000000000000000000000000000000000000000000000000000000000000000000000000000000000000000000000000000000000000000000000000000000000000000000000000000000000000000000000000000000000000000000000000000000000000000000000000000000000000000000000000000000000000000000000000000000000000000000000000000000000000000000000000000000000000000000000000000000000000000000000000000000000",
      "type": "0x2",
      "transactionHash": "0x216310cf41cd8c137a8b0babba005a161cc928e9bef0c8b827679639e8fe1a38",
      "transactionIndex": "0x5",
      "blockHash": "0x95e5686bcc4247e10e88ec79d1c3a487dcb7fe37336901518dae02b5a812039a",
      "blockNumber": "0x22f2bf4",
      "gasUsed": "0x19db3",
      "effectiveGasPrice": "0x30fa4cb0",
      "from": "0x802a1f49be649823f41017cbe814e08a98db5a6d",
      "to": "0xecda7dfa3032b00daa294fded3a1f1348759a9ca",
      "contractAddress": null,
      "gasUsedForL1": "0x0",
      "l1BlockNumber": "0x57e1c8"
    },
    {
      "status": "0x1",
      "cumulativeGasUsed": "0x154b1",
      "logs": [
        {
          "address": "0xc6adea8722c2db1eff810f429c3c09ba00e1f25c",
          "topics": [
            "0x8c5be1e5ebec7d5bd14f71427d1e84f3dd0314c0f7b2291e5b200ac8c7c3b925",
            "0x000000000000000000000000a0e7b78c2990d5e0ce185a5ba565388639a33e7b",
            "0x000000000000000000000000ecda7dfa3032b00daa294fded3a1f1348759a9ca"
          ],
          "data": "0xffffffffffffffffffffffffffffffffffffffffffffffffffffffffffffffff",
          "blockHash": "0xbbd99cbcf444010aa48c3fcbc0e16a980ee925af0e106bef9fe7d3df307fe4d6",
          "blockNumber": "0x22f2bf8",
          "transactionHash": "0x469a8119b4e0321c380a64f66c7a16617257ce216411d609daf555052a274bfe",
          "transactionIndex": "0x1",
          "logIndex": "0x0",
          "removed": false
        },
        {
          "address": "0xc6adea8722c2db1eff810f429c3c09ba00e1f25c",
          "topics": [
            "0x8c5be1e5ebec7d5bd14f71427d1e84f3dd0314c0f7b2291e5b200ac8c7c3b925",
            "0x000000000000000000000000a0e7b78c2990d5e0ce185a5ba565388639a33e7b",
            "0x0000000000000000000000001a9d4f05a06e79ee941008526c84aaca91bfef29"
          ],
          "data": "0xffffffffffffffffffffffffffffffffffffffffffffffffffffffffffffffff",
          "blockHash": "0xbbd99cbcf444010aa48c3fcbc0e16a980ee925af0e106bef9fe7d3df307fe4d6",
          "blockNumber": "0x22f2bf8",
          "transactionHash": "0x469a8119b4e0321c380a64f66c7a16617257ce216411d609daf555052a274bfe",
          "transactionIndex": "0x1",
          "logIndex": "0x1",
          "removed": false
        }
      ],
      "logsBloom": "0x00000000000000000000000000000000000000000000000000200000000000000000000020020000000000000000000000000000000000000000000000200000000000000000000000000820000000000000000000000000000000000000000000000000000000000000000000000000000000000020000000000000000000000000000000000000000000000000000000000000000000000000000000000000020040000000000000000000000000000000000000000000000000000000000080000000000000000000000000000000000000000000000000000000000000000010000000020100000000000000000200000000000000000000010000000000",
      "type": "0x2",
      "transactionHash": "0x469a8119b4e0321c380a64f66c7a16617257ce216411d609daf555052a274bfe",
      "transactionIndex": "0x1",
      "blockHash": "0xbbd99cbcf444010aa48c3fcbc0e16a980ee925af0e106bef9fe7d3df307fe4d6",
      "blockNumber": "0x22f2bf8",
      "gasUsed": "0x154b1",
      "effectiveGasPrice": "0x30f48050",
      "from": "0x632a7cf953c3127606aadccd832e9d480b81f7c0",
      "to": "0xa0e7b78c2990d5e0ce185a5ba565388639a33e7b",
      "contractAddress": null,
      "gasUsedForL1": "0x0",
      "l1BlockNumber": "0x57e1c8"
    }
  ],
  "libraries": [],
  "pending": [],
  "returns": {},
  "timestamp": 1713866181,
  "chain": 421614,
  "commit": "4f905cc"
}