{
  "transactions": [
    {
      "hash": "0x2dc198d8d29f75ce58d79c26c70cf1a4077a01fb6fab6160ff50a879af40a958",
      "transactionType": "CALL",
      "contractName": null,
      "contractAddress": "0x2839fEefF02cEEe19e2DC988d7A3B8d3C513BF97",
      "function": "deployBankroll(address,uint256,uint256,bytes32)",
      "arguments": [
        "0xc6ADeA8722C2DB1EFF810f429C3C09BA00E1F25C",
        "10000",
        "10000",
        "0x3078310000000000000000000000000000000000000000000000000000000000"
      ],
      "transaction": {
        "type": "0x00",
        "from": "0x4015b6569369af4f17cd2da9e2f5e14a5dd162b4",
        "to": "0x2839feeff02ceee19e2dc988d7a3b8d3c513bf97",
        "gas": "0x10aa94",
        "value": "0x0",
        "data": "0x14dd160e000000000000000000000000c6adea8722c2db1eff810f429c3c09ba00e1f25c000000000000000000000000000000000000000000000000000000000000271000000000000000000000000000000000000000000000000000000000000027103078310000000000000000000000000000000000000000000000000000000000",
        "nonce": "0x47"
      },
      "additionalContracts": [
        {
          "transactionType": "CREATE2",
          "address": "0x8B7B88B9F0B507035a31E45D9612002fC59a8fAA",
          "initCode": "0x3d602d80600a3d3981f3363d3d373d3d3d363d73c2afd1d134db06d941b319555bb956decde5c0405af43d82803e903d91602b57fd5bf3"
        }
      ],
      "isFixedGasLimit": false
    },
    {
      "hash": "0xed2ad5aaa20112b891449fbd1d9696cc6e70a6c2999f6472c236b2bdee09de9e",
      "transactionType": "CALL",
      "contractName": null,
      "contractAddress": "0x0f8E34bcB8eD3C9390348209cF6050A2b58BED5F",
      "function": "addOperator(address)",
      "arguments": [
        "0x312BA46064e1fe5904362BfB0C52c38F20d3Ef44"
      ],
      "transaction": {
        "type": "0x00",
        "from": "0x4015b6569369af4f17cd2da9e2f5e14a5dd162b4",
        "to": "0x0f8e34bcb8ed3c9390348209cf6050a2b58bed5f",
        "gas": "0x5cde3",
        "value": "0x0",
        "data": "0x9870d7fe000000000000000000000000312ba46064e1fe5904362bfb0c52c38f20d3ef44",
        "nonce": "0x48"
      },
      "additionalContracts": [],
      "isFixedGasLimit": false
    },
    {
      "hash": "0xe8b69e75fd51c5140bcec855a1a1ec89d4df6714bd68a17bbe1020c0a51d7f6c",
      "transactionType": "CALL",
      "contractName": null,
      "contractAddress": "0x0f8E34bcB8eD3C9390348209cF6050A2b58BED5F",
      "function": "approveBankroll(address,uint256)",
      "arguments": [
        "0x8B7B88B9F0B507035a31E45D9612002fC59a8fAA",
        "650"
      ],
      "transaction": {
        "type": "0x00",
        "from": "0x4015b6569369af4f17cd2da9e2f5e14a5dd162b4",
        "to": "0x0f8e34bcb8ed3c9390348209cf6050a2b58bed5f",
        "gas": "0x1f8cd",
        "value": "0x0",
        "data": "0x9756e8df0000000000000000000000008b7b88b9f0b507035a31e45d9612002fc59a8faa000000000000000000000000000000000000000000000000000000000000028a",
        "nonce": "0x49"
      },
      "additionalContracts": [],
      "isFixedGasLimit": false
    },
    {
      "hash": "0x5aa039ab34edff36688cc6f8e78353ab5009b63269fd37db4260d74178ba3c8f",
      "transactionType": "CALL",
      "contractName": null,
      "contractAddress": "0x0f8E34bcB8eD3C9390348209cF6050A2b58BED5F",
      "function": "setOperatorToBankroll(address,address)",
      "arguments": [
        "0x8B7B88B9F0B507035a31E45D9612002fC59a8fAA",
        "0x312BA46064e1fe5904362BfB0C52c38F20d3Ef44"
      ],
      "transaction": {
        "type": "0x00",
        "from": "0x4015b6569369af4f17cd2da9e2f5e14a5dd162b4",
        "to": "0x0f8e34bcb8ed3c9390348209cf6050a2b58bed5f",
        "gas": "0x2342a",
        "value": "0x0",
        "data": "0xcb233b0a0000000000000000000000008b7b88b9f0b507035a31e45d9612002fc59a8faa000000000000000000000000312ba46064e1fe5904362bfb0c52c38f20d3ef44",
        "nonce": "0x4a"
      },
      "additionalContracts": [],
      "isFixedGasLimit": false
    }
  ],
  "receipts": [
    {
      "transactionHash": "0x2dc198d8d29f75ce58d79c26c70cf1a4077a01fb6fab6160ff50a879af40a958",
      "transactionIndex": "0x1",
      "blockHash": "0xae2a09f6f59d244ead3b3dcc859584206fe0d0a1fb5bab0a97e2c7496d08180b",
      "blockNumber": "0x185b885",
      "from": "0x4015B6569369af4F17CD2DA9e2F5e14A5Dd162b4",
      "to": "0x2839fEefF02cEEe19e2DC988d7A3B8d3C513BF97",
      "cumulativeGasUsed": "0xb7163",
      "gasUsed": "0xb7163",
      "contractAddress": null,
      "logs": [
        {
          "address": "0x8B7B88B9F0B507035a31E45D9612002fC59a8fAA",
          "topics": [
            "0x2f8788117e7eff1d82e926ec794901d17c78024a50270940304540a733656f0d",
            "0x0000000000000000000000000000000000000000000000000000000000000000",
            "0x0000000000000000000000001d424382e8e09cc6f8425c9f32d2c695e7698db7",
            "0x0000000000000000000000002839feeff02ceee19e2dc988d7a3b8d3c513bf97"
          ],
          "data": "0x",
          "blockHash": "0xae2a09f6f59d244ead3b3dcc859584206fe0d0a1fb5bab0a97e2c7496d08180b",
          "blockNumber": "0x185b885",
          "transactionHash": "0x2dc198d8d29f75ce58d79c26c70cf1a4077a01fb6fab6160ff50a879af40a958",
          "transactionIndex": "0x1",
          "logIndex": "0x0",
          "removed": false
        },
        {
          "address": "0x8B7B88B9F0B507035a31E45D9612002fC59a8fAA",
          "topics": [
            "0x2f8788117e7eff1d82e926ec794901d17c78024a50270940304540a733656f0d",
            "0xdf8b4c520ffe197c5343c6f5aec59570151ef9a492f2c624fd45ddde6135ec42",
            "0x0000000000000000000000007dacfe87dcd15fc646c8b4c3fc409bc842eb64f5",
            "0x0000000000000000000000002839feeff02ceee19e2dc988d7a3b8d3c513bf97"
          ],
          "data": "0x",
          "blockHash": "0xae2a09f6f59d244ead3b3dcc859584206fe0d0a1fb5bab0a97e2c7496d08180b",
          "blockNumber": "0x185b885",
          "transactionHash": "0x2dc198d8d29f75ce58d79c26c70cf1a4077a01fb6fab6160ff50a879af40a958",
          "transactionIndex": "0x1",
          "logIndex": "0x1",
          "removed": false
        },
        {
          "address": "0x8B7B88B9F0B507035a31E45D9612002fC59a8fAA",
          "topics": [
            "0x2f8788117e7eff1d82e926ec794901d17c78024a50270940304540a733656f0d",
            "0xdf8b4c520ffe197c5343c6f5aec59570151ef9a492f2c624fd45ddde6135ec42",
            "0x0000000000000000000000008d76db34ccca356fa805f5a277efff53aac5af88",
            "0x0000000000000000000000002839feeff02ceee19e2dc988d7a3b8d3c513bf97"
          ],
          "data": "0x",
          "blockHash": "0xae2a09f6f59d244ead3b3dcc859584206fe0d0a1fb5bab0a97e2c7496d08180b",
          "blockNumber": "0x185b885",
          "transactionHash": "0x2dc198d8d29f75ce58d79c26c70cf1a4077a01fb6fab6160ff50a879af40a958",
          "transactionIndex": "0x1",
          "logIndex": "0x2",
          "removed": false
        },
        {
          "address": "0x8B7B88B9F0B507035a31E45D9612002fC59a8fAA",
          "topics": [
            "0x2f8788117e7eff1d82e926ec794901d17c78024a50270940304540a733656f0d",
            "0x48a7db58bc0d0016705458e918f4ea84477e4f4c43c6d240db04e4db985c2082",
            "0x0000000000000000000000000f8e34bcb8ed3c9390348209cf6050a2b58bed5f",
            "0x0000000000000000000000002839feeff02ceee19e2dc988d7a3b8d3c513bf97"
          ],
          "data": "0x",
          "blockHash": "0xae2a09f6f59d244ead3b3dcc859584206fe0d0a1fb5bab0a97e2c7496d08180b",
          "blockNumber": "0x185b885",
          "transactionHash": "0x2dc198d8d29f75ce58d79c26c70cf1a4077a01fb6fab6160ff50a879af40a958",
          "transactionIndex": "0x1",
          "logIndex": "0x3",
          "removed": false
        },
        {
          "address": "0x8B7B88B9F0B507035a31E45D9612002fC59a8fAA",
          "topics": [
            "0x7f26b83ff96e1f2b6a682f133852f6798a09c465da95921460cefb3847402498"
          ],
          "data": "0x0000000000000000000000000000000000000000000000000000000000000001",
          "blockHash": "0xae2a09f6f59d244ead3b3dcc859584206fe0d0a1fb5bab0a97e2c7496d08180b",
          "blockNumber": "0x185b885",
          "transactionHash": "0x2dc198d8d29f75ce58d79c26c70cf1a4077a01fb6fab6160ff50a879af40a958",
          "transactionIndex": "0x1",
          "logIndex": "0x4",
          "removed": false
        }
      ],
      "status": "0x1",
      "logsBloom": "0x00004004000000004000000000000000000000000000000000000000000000200000000000000000000000000000000000000000000080000000000004000000000000000000000000000000000000001800100000000000000000000000000000000000020000000000008000020800000000000000000000000000000000000001040000008000000000000008000000000000000080000000000000010000000000000000000000000000100400000000000000000400001000000000000000000000000000000004000000040000000000000000000100000000000020002000000000400000000000000000000000080000000000000000000020400001",
      "type": "0x0",
      "effectiveGasPrice": "0x5f5e100"
    },
    {
      "transactionHash": "0xed2ad5aaa20112b891449fbd1d9696cc6e70a6c2999f6472c236b2bdee09de9e",
      "transactionIndex": "0x2",
      "blockHash": "0xae724a4a50aef260841c8decb85bc5362b1dde9e5e6dd29f30e8bbd1a9becf68",
      "blockNumber": "0x185b887",
      "from": "0x4015B6569369af4F17CD2DA9e2F5e14A5Dd162b4",
      "to": "0x0f8E34bcB8eD3C9390348209cF6050A2b58BED5F",
      "cumulativeGasUsed": "0x208465",
      "gasUsed": "0x35e4c",
      "contractAddress": null,
      "logs": [],
      "status": "0x1",
      "logsBloom": "0x00000000000000000000000000000000000000000000000000000000000000000000000000000000000000000000000000000000000000000000000000000000000000000000000000000000000000000000000000000000000000000000000000000000000000000000000000000000000000000000000000000000000000000000000000000000000000000000000000000000000000000000000000000000000000000000000000000000000000000000000000000000000000000000000000000000000000000000000000000000000000000000000000000000000000000000000000000000000000000000000000000000000000000000000000000000",
      "type": "0x0",
      "effectiveGasPrice": "0x5f5e100"
    },
    {
      "transactionHash": "0xe8b69e75fd51c5140bcec855a1a1ec89d4df6714bd68a17bbe1020c0a51d7f6c",
      "transactionIndex": "0x2",
      "blockHash": "0x99a5de32a91ccd7efa85e4e12cb03666b7f236623b9fc30cee46b9db30100ac5",
      "blockNumber": "0x185b88a",
      "from": "0x4015B6569369af4F17CD2DA9e2F5e14A5Dd162b4",
      "to": "0x0f8E34bcB8eD3C9390348209cF6050A2b58BED5F",
      "cumulativeGasUsed": "0xc2199",
      "gasUsed": "0x5042f",
      "contractAddress": null,
      "logs": [],
      "status": "0x1",
      "logsBloom": "0x00000000000000000000000000000000000000000000000000000000000000000000000000000000000000000000000000000000000000000000000000000000000000000000000000000000000000000000000000000000000000000000000000000000000000000000000000000000000000000000000000000000000000000000000000000000000000000000000000000000000000000000000000000000000000000000000000000000000000000000000000000000000000000000000000000000000000000000000000000000000000000000000000000000000000000000000000000000000000000000000000000000000000000000000000000000",
      "type": "0x0",
      "effectiveGasPrice": "0x5f5e100"
    },
    {
      "transactionHash": "0x5aa039ab34edff36688cc6f8e78353ab5009b63269fd37db4260d74178ba3c8f",
      "transactionIndex": "0x5",
      "blockHash": "0xa0072bf6d770e587696df339e467b7c78e43ae3ad5843c82bc6bbf7726542e4d",
      "blockNumber": "0x185b88d",
      "from": "0x4015B6569369af4F17CD2DA9e2F5e14A5Dd162b4",
      "to": "0x0f8E34bcB8eD3C9390348209cF6050A2b58BED5F",
      "cumulativeGasUsed": "0x24965d",
      "gasUsed": "0x51878",
      "contractAddress": null,
      "logs": [],
      "status": "0x1",
      "logsBloom": "0x00000000000000000000000000000000000000000000000000000000000000000000000000000000000000000000000000000000000000000000000000000000000000000000000000000000000000000000000000000000000000000000000000000000000000000000000000000000000000000000000000000000000000000000000000000000000000000000000000000000000000000000000000000000000000000000000000000000000000000000000000000000000000000000000000000000000000000000000000000000000000000000000000000000000000000000000000000000000000000000000000000000000000000000000000000000",
      "type": "0x0",
      "effectiveGasPrice": "0x5f5e100"
    }
  ],
  "libraries": [],
  "pending": [],
  "returns": {},
  "timestamp": 1711050266,
  "chain": 421614,
  "commit": "0aea9ec"
}