{
  "transactions": [
    {
      "hash": "0xe61ea57c31a0f73b9a4d9c7d9a13a758d78f15217b00ec8f3f3133d05ddb4e0b",
      "transactionType": "CALL",
      "contractName": null,
      "contractAddress": "0xEA990A45aE714C93762d2aB760042A5664D2f49E",
      "function": "deployBankroll(address,uint256,uint256,bytes32)",
      "arguments": [
        "0xc6ADeA8722C2DB1EFF810f429C3C09BA00E1F25C",
        "10000",
        "10000",
        "0x3078300000000000000000000000000000000000000000000000000000000000"
      ],
      "transaction": {
        "type": "0x00",
        "from": "0x4015b6569369af4f17cd2da9e2f5e14a5dd162b4",
        "to": "0xea990a45ae714c93762d2ab760042a5664d2f49e",
        "gas": "0xb06a1",
        "value": "0x0",
        "data": "0x14dd160e000000000000000000000000c6adea8722c2db1eff810f429c3c09ba00e1f25c000000000000000000000000000000000000000000000000000000000000271000000000000000000000000000000000000000000000000000000000000027103078300000000000000000000000000000000000000000000000000000000000",
        "nonce": "0x2f"
      },
      "additionalContracts": [
        {
          "transactionType": "CREATE2",
          "address": "0x662C96c23d61156115F362c1698268F19B845898",
          "initCode": "0x3d602d80600a3d3981f3363d3d373d3d3d363d7305fb034b05d42abd5deeead5c528e42cf465629a5af43d82803e903d91602b57fd5bf3"
        }
      ],
      "isFixedGasLimit": false
    },
    {
      "hash": "0x8122da8eb977a1e79372930e52fa917fde6ca1c278f27a8def1e83d644e3077f",
      "transactionType": "CALL",
      "contractName": null,
      "contractAddress": "0x038aB83c4E3C7BBFeEbaEfD27E8974785FC8FCF7",
      "function": "addOperator(address)",
      "arguments": [
        "0x312BA46064e1fe5904362BfB0C52c38F20d3Ef44"
      ],
      "transaction": {
        "type": "0x00",
        "from": "0x4015b6569369af4f17cd2da9e2f5e14a5dd162b4",
        "to": "0x038ab83c4e3c7bbfeebaefd27e8974785fc8fcf7",
        "gas": "0x20f2a",
        "value": "0x0",
        "data": "0x9870d7fe000000000000000000000000312ba46064e1fe5904362bfb0c52c38f20d3ef44",
        "nonce": "0x30"
      },
      "additionalContracts": [],
      "isFixedGasLimit": false
    },
    {
      "hash": "0x9d507211eb17b2e7487cc4ca85143b9619ee8599a92ad45a5ede9f082652c3d5",
      "transactionType": "CALL",
      "contractName": null,
      "contractAddress": "0x038aB83c4E3C7BBFeEbaEfD27E8974785FC8FCF7",
      "function": "approveBankroll(address,uint256)",
      "arguments": [
        "0x662C96c23d61156115F362c1698268F19B845898",
        "0"
      ],
      "transaction": {
        "type": "0x00",
        "from": "0x4015b6569369af4f17cd2da9e2f5e14a5dd162b4",
        "to": "0x038ab83c4e3c7bbfeebaefd27e8974785fc8fcf7",
        "gas": "0x18d5e",
        "value": "0x0",
        "data": "0x9756e8df000000000000000000000000662c96c23d61156115f362c1698268f19b8458980000000000000000000000000000000000000000000000000000000000000000",
        "nonce": "0x31"
      },
      "additionalContracts": [],
      "isFixedGasLimit": false
    },
    {
      "hash": "0x893647bf359eea1b4570fb1fc2ee55b84b43506aa7bb1548bd2fd44aa7156dd3",
      "transactionType": "CALL",
      "contractName": null,
      "contractAddress": "0x038aB83c4E3C7BBFeEbaEfD27E8974785FC8FCF7",
      "function": "setOperatorToBankroll(address,address)",
      "arguments": [
        "0x662C96c23d61156115F362c1698268F19B845898",
        "0x312BA46064e1fe5904362BfB0C52c38F20d3Ef44"
      ],
      "transaction": {
        "type": "0x00",
        "from": "0x4015b6569369af4f17cd2da9e2f5e14a5dd162b4",
        "to": "0x038ab83c4e3c7bbfeebaefd27e8974785fc8fcf7",
        "gas": "0x214e2",
        "value": "0x0",
        "data": "0xcb233b0a000000000000000000000000662c96c23d61156115f362c1698268f19b845898000000000000000000000000312ba46064e1fe5904362bfb0c52c38f20d3ef44",
        "nonce": "0x32"
      },
      "additionalContracts": [],
      "isFixedGasLimit": false
    }
  ],
  "receipts": [
    {
      "transactionHash": "0xe61ea57c31a0f73b9a4d9c7d9a13a758d78f15217b00ec8f3f3133d05ddb4e0b",
      "transactionIndex": "0x1",
      "blockHash": "0xb2c764e06b98431bece3b1262d51c055b4ae2003d7a096215de28f36b79511e4",
      "blockNumber": "0x184b905",
      "from": "0x4015B6569369af4F17CD2DA9e2F5e14A5Dd162b4",
      "to": "0xEA990A45aE714C93762d2aB760042A5664D2f49E",
      "cumulativeGasUsed": "0x81bb3",
      "gasUsed": "0x81bb3",
      "contractAddress": null,
      "logs": [
        {
          "address": "0x662C96c23d61156115F362c1698268F19B845898",
          "topics": [
            "0x2f8788117e7eff1d82e926ec794901d17c78024a50270940304540a733656f0d",
            "0x0000000000000000000000000000000000000000000000000000000000000000",
            "0x0000000000000000000000008d76db34ccca356fa805f5a277efff53aac5af88",
            "0x000000000000000000000000ea990a45ae714c93762d2ab760042a5664d2f49e"
          ],
          "data": "0x",
          "blockHash": "0xb2c764e06b98431bece3b1262d51c055b4ae2003d7a096215de28f36b79511e4",
          "blockNumber": "0x184b905",
          "transactionHash": "0xe61ea57c31a0f73b9a4d9c7d9a13a758d78f15217b00ec8f3f3133d05ddb4e0b",
          "transactionIndex": "0x1",
          "logIndex": "0x0",
          "removed": false
        },
        {
          "address": "0x662C96c23d61156115F362c1698268F19B845898",
          "topics": [
            "0x2f8788117e7eff1d82e926ec794901d17c78024a50270940304540a733656f0d",
            "0xdf8b4c520ffe197c5343c6f5aec59570151ef9a492f2c624fd45ddde6135ec42",
            "0x000000000000000000000000eafd5b5c8d56ca3b898ebe48bc976283f0909f37",
            "0x000000000000000000000000ea990a45ae714c93762d2ab760042a5664d2f49e"
          ],
          "data": "0x",
          "blockHash": "0xb2c764e06b98431bece3b1262d51c055b4ae2003d7a096215de28f36b79511e4",
          "blockNumber": "0x184b905",
          "transactionHash": "0xe61ea57c31a0f73b9a4d9c7d9a13a758d78f15217b00ec8f3f3133d05ddb4e0b",
          "transactionIndex": "0x1",
          "logIndex": "0x1",
          "removed": false
        },
        {
          "address": "0x662C96c23d61156115F362c1698268F19B845898",
          "topics": [
            "0x2f8788117e7eff1d82e926ec794901d17c78024a50270940304540a733656f0d",
            "0xdf8b4c520ffe197c5343c6f5aec59570151ef9a492f2c624fd45ddde6135ec42",
            "0x0000000000000000000000001d424382e8e09cc6f8425c9f32d2c695e7698db7",
            "0x000000000000000000000000ea990a45ae714c93762d2ab760042a5664d2f49e"
          ],
          "data": "0x",
          "blockHash": "0xb2c764e06b98431bece3b1262d51c055b4ae2003d7a096215de28f36b79511e4",
          "blockNumber": "0x184b905",
          "transactionHash": "0xe61ea57c31a0f73b9a4d9c7d9a13a758d78f15217b00ec8f3f3133d05ddb4e0b",
          "transactionIndex": "0x1",
          "logIndex": "0x2",
          "removed": false
        },
        {
          "address": "0x662C96c23d61156115F362c1698268F19B845898",
          "topics": [
            "0x2f8788117e7eff1d82e926ec794901d17c78024a50270940304540a733656f0d",
            "0x48a7db58bc0d0016705458e918f4ea84477e4f4c43c6d240db04e4db985c2082",
            "0x000000000000000000000000038ab83c4e3c7bbfeebaefd27e8974785fc8fcf7",
            "0x000000000000000000000000ea990a45ae714c93762d2ab760042a5664d2f49e"
          ],
          "data": "0x",
          "blockHash": "0xb2c764e06b98431bece3b1262d51c055b4ae2003d7a096215de28f36b79511e4",
          "blockNumber": "0x184b905",
          "transactionHash": "0xe61ea57c31a0f73b9a4d9c7d9a13a758d78f15217b00ec8f3f3133d05ddb4e0b",
          "transactionIndex": "0x1",
          "logIndex": "0x3",
          "removed": false
        },
        {
          "address": "0x662C96c23d61156115F362c1698268F19B845898",
          "topics": [
            "0x7f26b83ff96e1f2b6a682f133852f6798a09c465da95921460cefb3847402498"
          ],
          "data": "0x0000000000000000000000000000000000000000000000000000000000000001",
          "blockHash": "0xb2c764e06b98431bece3b1262d51c055b4ae2003d7a096215de28f36b79511e4",
          "blockNumber": "0x184b905",
          "transactionHash": "0xe61ea57c31a0f73b9a4d9c7d9a13a758d78f15217b00ec8f3f3133d05ddb4e0b",
          "transactionIndex": "0x1",
          "logIndex": "0x4",
          "removed": false
        }
      ],
      "status": "0x1",
      "logsBloom": "0x00004004000000000000000000000000000000000000000000000000000100200000000000000000000000000000000008000100000080000000000004000000000000000000000000000008000004000000000000000000000000000000000000000000020000000000008000020800000000000800000000000000000000000000040000000000000000000000000000000000000080000000000000000000000040010000000000000000100400040000000000000400001000000000002000000000000000000004000000040000000000000000000100000000040020002000000000000000000000000000000000000000000000000000000000400020",
      "type": "0x0",
      "effectiveGasPrice": "0x5f5e100"
    },
    {
      "transactionHash": "0x8122da8eb977a1e79372930e52fa917fde6ca1c278f27a8def1e83d644e3077f",
      "transactionIndex": "0x1",
      "blockHash": "0xc650731529f16b6d8c998fe893e3efac840a3e15b6ecda5f68479ce66cfbc83c",
      "blockNumber": "0x184b908",
      "from": "0x4015B6569369af4F17CD2DA9e2F5e14A5Dd162b4",
      "to": "0x038aB83c4E3C7BBFeEbaEfD27E8974785FC8FCF7",
      "cumulativeGasUsed": "0x15c7b",
      "gasUsed": "0x15c7b",
      "contractAddress": null,
      "logs": [],
      "status": "0x1",
      "logsBloom": "0x00000000000000000000000000000000000000000000000000000000000000000000000000000000000000000000000000000000000000000000000000000000000000000000000000000000000000000000000000000000000000000000000000000000000000000000000000000000000000000000000000000000000000000000000000000000000000000000000000000000000000000000000000000000000000000000000000000000000000000000000000000000000000000000000000000000000000000000000000000000000000000000000000000000000000000000000000000000000000000000000000000000000000000000000000000000",
      "type": "0x0",
      "effectiveGasPrice": "0x5f5e100"
    },
    {
      "transactionHash": "0x9d507211eb17b2e7487cc4ca85143b9619ee8599a92ad45a5ede9f082652c3d5",
      "transactionIndex": "0x1",
      "blockHash": "0x731bc57e84b7fa6e14c8294999677575a88332c5f4fa63504dea1ef7baee9b92",
      "blockNumber": "0x184b90b",
      "from": "0x4015B6569369af4F17CD2DA9e2F5e14A5Dd162b4",
      "to": "0x038aB83c4E3C7BBFeEbaEfD27E8974785FC8FCF7",
      "cumulativeGasUsed": "0x1e039",
      "gasUsed": "0x1e039",
      "contractAddress": null,
      "logs": [],
      "status": "0x1",
      "logsBloom": "0x00000000000000000000000000000000000000000000000000000000000000000000000000000000000000000000000000000000000000000000000000000000000000000000000000000000000000000000000000000000000000000000000000000000000000000000000000000000000000000000000000000000000000000000000000000000000000000000000000000000000000000000000000000000000000000000000000000000000000000000000000000000000000000000000000000000000000000000000000000000000000000000000000000000000000000000000000000000000000000000000000000000000000000000000000000000",
      "type": "0x0",
      "effectiveGasPrice": "0x5f5e100"
    },
    {
      "transactionHash": "0x893647bf359eea1b4570fb1fc2ee55b84b43506aa7bb1548bd2fd44aa7156dd3",
      "transactionIndex": "0x2",
      "blockHash": "0xc45a3ffea197b5899ce5f85cfc1e0843b7f6675d9a9b1ced9cc343f3c532ce93",
      "blockNumber": "0x184b90e",
      "from": "0x4015B6569369af4F17CD2DA9e2F5e14A5Dd162b4",
      "to": "0x038aB83c4E3C7BBFeEbaEfD27E8974785FC8FCF7",
      "cumulativeGasUsed": "0x8c0e3",
      "gasUsed": "0x24256",
      "contractAddress": null,
      "logs": [],
      "status": "0x1",
      "logsBloom": "0x00000000000000000000000000000000000000000000000000000000000000000000000000000000000000000000000000000000000000000000000000000000000000000000000000000000000000000000000000000000000000000000000000000000000000000000000000000000000000000000000000000000000000000000000000000000000000000000000000000000000000000000000000000000000000000000000000000000000000000000000000000000000000000000000000000000000000000000000000000000000000000000000000000000000000000000000000000000000000000000000000000000000000000000000000000000",
      "type": "0x0",
      "effectiveGasPrice": "0x5f5e100"
    }
  ],
  "libraries": [],
  "pending": [],
  "returns": {},
  "timestamp": 1711033576,
  "chain": 421614,
  "commit": "1858226"
}