{
  "transactions": [
    {
      "hash": "0x9dbfa278832854203946fb205b6d0f0da8b706d5c8db63ebc0d07d928bfb6c2f",
      "transactionType": "CALL",
      "contractName": null,
      "contractAddress": "0xB0b68540fa39fa10bc9795a257b9B7a427F6f392",
      "function": "deployBankroll(address,uint256,uint256,bytes32)",
      "arguments": [
        "0xc6ADeA8722C2DB1EFF810f429C3C09BA00E1F25C",
        "8000",
        "5000",
        "0x3078300000000000000000000000000000000000000000000000000000000000"
      ],
      "transaction": {
        "type": "0x00",
        "from": "0x4015b6569369af4f17cd2da9e2f5e14a5dd162b4",
        "to": "0xb0b68540fa39fa10bc9795a257b9b7a427f6f392",
        "gas": "0x46f964",
        "value": "0x0",
        "data": "0x14dd160e000000000000000000000000c6adea8722c2db1eff810f429c3c09ba00e1f25c0000000000000000000000000000000000000000000000000000000000001f4000000000000000000000000000000000000000000000000000000000000013883078300000000000000000000000000000000000000000000000000000000000",
        "nonce": "0x83"
      },
      "additionalContracts": [
        {
          "transactionType": "CREATE2",
          "address": "0xE84D9E66A9d97db6428Da274BE28162a94d8B97D",
          "initCode": "0x3d602d80600a3d3981f3363d3d373d3d3d363d73b551e0ac64c08eba50158fd6c1fc4442445cae3b5af43d82803e903d91602b57fd5bf3"
        }
      ],
      "isFixedGasLimit": false
    },
    {
      "hash": "0x717e77a9cdc7e40236680590d225c9ea037ce60466b7c614c81376515bae2252",
      "transactionType": "CALL",
      "contractName": null,
      "contractAddress": "0xdf627d8E71a164Cfd5943Ee8eBCAF243714f5efc",
      "function": "addOperator(address)",
      "arguments": [
        "0x312BA46064e1fe5904362BfB0C52c38F20d3Ef44"
      ],
      "transaction": {
        "type": "0x00",
        "from": "0x4015b6569369af4f17cd2da9e2f5e14a5dd162b4",
        "to": "0xdf627d8e71a164cfd5943ee8ebcaf243714f5efc",
        "gas": "0x286c9c",
        "value": "0x0",
        "data": "0x9870d7fe000000000000000000000000312ba46064e1fe5904362bfb0c52c38f20d3ef44",
        "nonce": "0x84"
      },
      "additionalContracts": [],
      "isFixedGasLimit": false
    },
    {
      "hash": "0x1c3866203540165d185051d988688e5c7690f40d0419fb119cb4217ec63c2a79",
      "transactionType": "CALL",
      "contractName": null,
      "contractAddress": "0xdf627d8E71a164Cfd5943Ee8eBCAF243714f5efc",
      "function": "approveBankroll(address,uint256)",
      "arguments": [
        "0xE84D9E66A9d97db6428Da274BE28162a94d8B97D",
        "650"
      ],
      "transaction": {
        "type": "0x00",
        "from": "0x4015b6569369af4f17cd2da9e2f5e14a5dd162b4",
        "to": "0xdf627d8e71a164cfd5943ee8ebcaf243714f5efc",
        "gas": "0x1a7ce",
        "value": "0x0",
        "data": "0x9756e8df000000000000000000000000e84d9e66a9d97db6428da274be28162a94d8b97d000000000000000000000000000000000000000000000000000000000000028a",
        "nonce": "0x85"
      },
      "additionalContracts": [],
      "isFixedGasLimit": false
    },
    {
      "hash": "0xd335392e3b12d0b5f9cc9af0b63bb7ec2fd532f2ef97ea181a79cb4e36f6c6cb",
      "transactionType": "CALL",
      "contractName": null,
      "contractAddress": "0xdf627d8E71a164Cfd5943Ee8eBCAF243714f5efc",
      "function": "setOperatorToBankroll(address,address)",
      "arguments": [
        "0xE84D9E66A9d97db6428Da274BE28162a94d8B97D",
        "0x312BA46064e1fe5904362BfB0C52c38F20d3Ef44"
      ],
      "transaction": {
        "type": "0x00",
        "from": "0x4015b6569369af4f17cd2da9e2f5e14a5dd162b4",
        "to": "0xdf627d8e71a164cfd5943ee8ebcaf243714f5efc",
        "gas": "0x25d08",
        "value": "0x0",
        "data": "0xcb233b0a000000000000000000000000e84d9e66a9d97db6428da274be28162a94d8b97d000000000000000000000000312ba46064e1fe5904362bfb0c52c38f20d3ef44",
        "nonce": "0x86"
      },
      "additionalContracts": [],
      "isFixedGasLimit": false
    },
    {
      "hash": "0xff0599be52cd06a475ce2d66de93259c45b202def3cd8f0d65f8fe75c6e80651",
      "transactionType": "CALL",
      "contractName": null,
      "contractAddress": "0xE84D9E66A9d97db6428Da274BE28162a94d8B97D",
      "function": "maxContractsApprove()",
      "arguments": [],
      "transaction": {
        "type": "0x00",
        "from": "0x8d76db34ccca356fa805f5a277efff53aac5af88",
        "to": "0xe84d9e66a9d97db6428da274be28162a94d8b97d",
        "gas": "0x20a785",
        "value": "0x0",
        "data": "0xcbb3b225",
        "nonce": "0x3b"
      },
      "additionalContracts": [],
      "isFixedGasLimit": false
    }
  ],
  "receipts": [
    {
      "transactionHash": "0x9dbfa278832854203946fb205b6d0f0da8b706d5c8db63ebc0d07d928bfb6c2f",
      "transactionIndex": "0x3",
      "blockHash": "0xa62cd0a3b3bac3ca7bfb3d669e5c756f0fbb549fe80f9a0e0a9b88ae2e467ed8",
      "blockNumber": "0x1ec54dc",
      "from": "0x4015B6569369af4F17CD2DA9e2F5e14A5Dd162b4",
      "to": "0xB0b68540fa39fa10bc9795a257b9B7a427F6f392",
      "cumulativeGasUsed": "0x9e3c63",
      "gasUsed": "0x2ceb7d",
      "contractAddress": null,
      "logs": [
        {
          "address": "0xE84D9E66A9d97db6428Da274BE28162a94d8B97D",
          "topics": [
            "0x2f8788117e7eff1d82e926ec794901d17c78024a50270940304540a733656f0d",
            "0x0000000000000000000000000000000000000000000000000000000000000000",
            "0x0000000000000000000000001d424382e8e09cc6f8425c9f32d2c695e7698db7",
            "0x000000000000000000000000b0b68540fa39fa10bc9795a257b9b7a427f6f392"
          ],
          "data": "0x",
          "blockHash": "0xa62cd0a3b3bac3ca7bfb3d669e5c756f0fbb549fe80f9a0e0a9b88ae2e467ed8",
          "blockNumber": "0x1ec54dc",
          "transactionHash": "0x9dbfa278832854203946fb205b6d0f0da8b706d5c8db63ebc0d07d928bfb6c2f",
          "transactionIndex": "0x3",
          "logIndex": "0x8",
          "removed": false
        },
        {
          "address": "0xE84D9E66A9d97db6428Da274BE28162a94d8B97D",
          "topics": [
            "0x2f8788117e7eff1d82e926ec794901d17c78024a50270940304540a733656f0d",
            "0xdf8b4c520ffe197c5343c6f5aec59570151ef9a492f2c624fd45ddde6135ec42",
            "0x0000000000000000000000009aa4f3dff09f9c0e5e8e5058e4bdb56336338c65",
            "0x000000000000000000000000b0b68540fa39fa10bc9795a257b9b7a427f6f392"
          ],
          "data": "0x",
          "blockHash": "0xa62cd0a3b3bac3ca7bfb3d669e5c756f0fbb549fe80f9a0e0a9b88ae2e467ed8",
          "blockNumber": "0x1ec54dc",
          "transactionHash": "0x9dbfa278832854203946fb205b6d0f0da8b706d5c8db63ebc0d07d928bfb6c2f",
          "transactionIndex": "0x3",
          "logIndex": "0x9",
          "removed": false
        },
        {
          "address": "0xE84D9E66A9d97db6428Da274BE28162a94d8B97D",
          "topics": [
            "0x2f8788117e7eff1d82e926ec794901d17c78024a50270940304540a733656f0d",
            "0xdf8b4c520ffe197c5343c6f5aec59570151ef9a492f2c624fd45ddde6135ec42",
            "0x0000000000000000000000008d76db34ccca356fa805f5a277efff53aac5af88",
            "0x000000000000000000000000b0b68540fa39fa10bc9795a257b9b7a427f6f392"
          ],
          "data": "0x",
          "blockHash": "0xa62cd0a3b3bac3ca7bfb3d669e5c756f0fbb549fe80f9a0e0a9b88ae2e467ed8",
          "blockNumber": "0x1ec54dc",
          "transactionHash": "0x9dbfa278832854203946fb205b6d0f0da8b706d5c8db63ebc0d07d928bfb6c2f",
          "transactionIndex": "0x3",
          "logIndex": "0xa",
          "removed": false
        },
        {
          "address": "0xE84D9E66A9d97db6428Da274BE28162a94d8B97D",
          "topics": [
            "0x2f8788117e7eff1d82e926ec794901d17c78024a50270940304540a733656f0d",
            "0x48a7db58bc0d0016705458e918f4ea84477e4f4c43c6d240db04e4db985c2082",
            "0x000000000000000000000000df627d8e71a164cfd5943ee8ebcaf243714f5efc",
            "0x000000000000000000000000b0b68540fa39fa10bc9795a257b9b7a427f6f392"
          ],
          "data": "0x",
          "blockHash": "0xa62cd0a3b3bac3ca7bfb3d669e5c756f0fbb549fe80f9a0e0a9b88ae2e467ed8",
          "blockNumber": "0x1ec54dc",
          "transactionHash": "0x9dbfa278832854203946fb205b6d0f0da8b706d5c8db63ebc0d07d928bfb6c2f",
          "transactionIndex": "0x3",
          "logIndex": "0xb",
          "removed": false
        },
        {
          "address": "0xE84D9E66A9d97db6428Da274BE28162a94d8B97D",
          "topics": [
            "0x7f26b83ff96e1f2b6a682f133852f6798a09c465da95921460cefb3847402498"
          ],
          "data": "0x0000000000000000000000000000000000000000000000000000000000000001",
          "blockHash": "0xa62cd0a3b3bac3ca7bfb3d669e5c756f0fbb549fe80f9a0e0a9b88ae2e467ed8",
          "blockNumber": "0x1ec54dc",
          "transactionHash": "0x9dbfa278832854203946fb205b6d0f0da8b706d5c8db63ebc0d07d928bfb6c2f",
          "transactionIndex": "0x3",
          "logIndex": "0xc",
          "removed": false
        }
      ],
      "status": "0x1",
      "logsBloom": "0x00004004000000000000000000000000000000000000000000000000100000200000040000000000000000000000000000000000000080000000000004000000004000000000000000000000000000000000000000000000000000000000000000000000020000000000008000020800000040000000000000000000000008000000040000000000000000000000000000000000000080000000000000000000000000000010000010000000108400000000000000000400001000000000000000000000000000000004000000040000000000000000000100002000000020002400004000000000000000000000000000000000010000000000000000400000",
      "type": "0x0",
      "effectiveGasPrice": "0x5f5e100"
    },
    {
      "transactionHash": "0x717e77a9cdc7e40236680590d225c9ea037ce60466b7c614c81376515bae2252",
      "transactionIndex": "0x1",
      "blockHash": "0x83e62b0d62a4c098c35c1e2f1a2f37f33c55b3168c02c9d7d56bfdffa0143fad",
      "blockNumber": "0x1ec54df",
      "from": "0x4015B6569369af4F17CD2DA9e2F5e14A5Dd162b4",
      "to": "0xdf627d8E71a164Cfd5943Ee8eBCAF243714f5efc",
      "cumulativeGasUsed": "0x172e47",
      "gasUsed": "0x172e47",
      "contractAddress": null,
      "logs": [],
      "status": "0x1",
      "logsBloom": "0x00000000000000000000000000000000000000000000000000000000000000000000000000000000000000000000000000000000000000000000000000000000000000000000000000000000000000000000000000000000000000000000000000000000000000000000000000000000000000000000000000000000000000000000000000000000000000000000000000000000000000000000000000000000000000000000000000000000000000000000000000000000000000000000000000000000000000000000000000000000000000000000000000000000000000000000000000000000000000000000000000000000000000000000000000000000",
      "type": "0x0",
      "effectiveGasPrice": "0x5f5e100"
    },
    {
      "transactionHash": "0x1c3866203540165d185051d988688e5c7690f40d0419fb119cb4217ec63c2a79",
      "transactionIndex": "0x5",
      "blockHash": "0x8abcff18fe5ff71436f1811b2f26f576562f0f9e6173f96906e05e1011dd72a7",
      "blockNumber": "0x1ec54e2",
      "from": "0x4015B6569369af4F17CD2DA9e2F5e14A5Dd162b4",
      "to": "0xdf627d8E71a164Cfd5943Ee8eBCAF243714f5efc",
      "cumulativeGasUsed": "0xeb5578",
      "gasUsed": "0x1c9145",
      "contractAddress": null,
      "logs": [],
      "status": "0x1",
      "logsBloom": "0x00000000000000000000000000000000000000000000000000000000000000000000000000000000000000000000000000000000000000000000000000000000000000000000000000000000000000000000000000000000000000000000000000000000000000000000000000000000000000000000000000000000000000000000000000000000000000000000000000000000000000000000000000000000000000000000000000000000000000000000000000000000000000000000000000000000000000000000000000000000000000000000000000000000000000000000000000000000000000000000000000000000000000000000000000000000",
      "type": "0x0",
      "effectiveGasPrice": "0x5f5e100"
    },
    {
      "transactionHash": "0xd335392e3b12d0b5f9cc9af0b63bb7ec2fd532f2ef97ea181a79cb4e36f6c6cb",
      "transactionIndex": "0x1",
      "blockHash": "0x2b18179f282890ca5d9ac1eb9963e1e93d9d1f99c3341dee89ff7ce3d29fd246",
      "blockNumber": "0x1ec54e6",
      "from": "0x4015B6569369af4F17CD2DA9e2F5e14A5Dd162b4",
      "to": "0xdf627d8E71a164Cfd5943Ee8eBCAF243714f5efc",
      "cumulativeGasUsed": "0x1cfc24",
      "gasUsed": "0x1cfc24",
      "contractAddress": null,
      "logs": [],
      "status": "0x1",
      "logsBloom": "0x00000000000000000000000000000000000000000000000000000000000000000000000000000000000000000000000000000000000000000000000000000000000000000000000000000000000000000000000000000000000000000000000000000000000000000000000000000000000000000000000000000000000000000000000000000000000000000000000000000000000000000000000000000000000000000000000000000000000000000000000000000000000000000000000000000000000000000000000000000000000000000000000000000000000000000000000000000000000000000000000000000000000000000000000000000000",
      "type": "0x0",
      "effectiveGasPrice": "0x5f5e100"
    },
    {
      "transactionHash": "0xff0599be52cd06a475ce2d66de93259c45b202def3cd8f0d65f8fe75c6e80651",
      "transactionIndex": "0x2",
      "blockHash": "0x510294c95d9e9b208482bdae7c3d24ef3356bdcaba99263e7cfafa9765a59a88",
      "blockNumber": "0x1ec54e9",
      "from": "0x8d76dB34CcCA356fA805f5A277EFFf53aaC5af88",
      "to": "0xE84D9E66A9d97db6428Da274BE28162a94d8B97D",
      "cumulativeGasUsed": "0x409a0e",
      "gasUsed": "0x129bc0",
      "contractAddress": null,
      "logs": [
        {
          "address": "0xc6ADeA8722C2DB1EFF810f429C3C09BA00E1F25C",
          "topics": [
            "0x8c5be1e5ebec7d5bd14f71427d1e84f3dd0314c0f7b2291e5b200ac8c7c3b925",
            "0x000000000000000000000000e84d9e66a9d97db6428da274be28162a94d8b97d",
            "0x000000000000000000000000df627d8e71a164cfd5943ee8ebcaf243714f5efc"
          ],
          "data": "0xffffffffffffffffffffffffffffffffffffffffffffffffffffffffffffffff",
          "blockHash": "0x510294c95d9e9b208482bdae7c3d24ef3356bdcaba99263e7cfafa9765a59a88",
          "blockNumber": "0x1ec54e9",
          "transactionHash": "0xff0599be52cd06a475ce2d66de93259c45b202def3cd8f0d65f8fe75c6e80651",
          "transactionIndex": "0x2",
          "logIndex": "0x1",
          "removed": false
        },
        {
          "address": "0xc6ADeA8722C2DB1EFF810f429C3C09BA00E1F25C",
          "topics": [
            "0x8c5be1e5ebec7d5bd14f71427d1e84f3dd0314c0f7b2291e5b200ac8c7c3b925",
            "0x000000000000000000000000e84d9e66a9d97db6428da274be28162a94d8b97d",
            "0x0000000000000000000000009aa4f3dff09f9c0e5e8e5058e4bdb56336338c65"
          ],
          "data": "0xffffffffffffffffffffffffffffffffffffffffffffffffffffffffffffffff",
          "blockHash": "0x510294c95d9e9b208482bdae7c3d24ef3356bdcaba99263e7cfafa9765a59a88",
          "blockNumber": "0x1ec54e9",
          "transactionHash": "0xff0599be52cd06a475ce2d66de93259c45b202def3cd8f0d65f8fe75c6e80651",
          "transactionIndex": "0x2",
          "logIndex": "0x2",
          "removed": false
        }
      ],
      "status": "0x1",
      "logsBloom": "0x00000000000000000000000000000000000000000000000000000000100000000000040000000000000000000000000000000000000000002000000000200000000000000000000000000000000000000000000000000000000000000002000000000000000000000000000000000000000040000000000000000000000000000000000000000000000000000000000000000000000000000000000000000000020040000000000000000000008000000000000000000000000000000000000080000000000000000000000000000000000000000000000000000000000000000410000000000000000000000000000200010000010000000000000000000000",
      "type": "0x0",
      "effectiveGasPrice": "0x5f5e100"
    }
  ],
  "libraries": [],
  "pending": [],
  "returns": {},
  "timestamp": 1712754930,
  "chain": 421614,
  "multi": false,
  "commit": "d26a9b2"
}