{
  "transactions": [
    {
      "hash": "0x4b948dc4882132c4ea6e59409905aee419a756471a44a3203daca4a674e53029",
      "transactionType": "CALL",
      "contractName": null,
      "contractAddress": "0xED16f52959b21CC138DEeA8889Fba13841BFba75",
      "function": "deployBankroll(address,uint256,uint256,bytes32)",
      "arguments": [
        "0xc6ADeA8722C2DB1EFF810f429C3C09BA00E1F25C",
        "8000",
        "5000",
        "0x3078310000000000000000000000000000000000000000000000000000000000"
      ],
      "transaction": {
        "type": "0x00",
        "from": "0x4015b6569369af4f17cd2da9e2f5e14a5dd162b4",
        "to": "0xed16f52959b21cc138deea8889fba13841bfba75",
        "gas": "0xd13d7",
        "value": "0x0",
        "data": "0x14dd160e000000000000000000000000c6adea8722c2db1eff810f429c3c09ba00e1f25c0000000000000000000000000000000000000000000000000000000000001f4000000000000000000000000000000000000000000000000000000000000013883078310000000000000000000000000000000000000000000000000000000000",
        "nonce": "0x6f"
      },
      "additionalContracts": [
        {
          "transactionType": "CREATE2",
          "address": "0xf8563aB450eC1D1c19F02f6026A83E1F241E9704",
          "initCode": "0x3d602d80600a3d3981f3363d3d373d3d3d363d734fa81d1ee764f5e6e33735b43bbfc179275317175af43d82803e903d91602b57fd5bf3"
        }
      ],
      "isFixedGasLimit": false
    },
    {
      "hash": "0xb0e9c310a15cb2caba4c928cb435eda210569aecf6a7565e53ff1f6703a5c797",
      "transactionType": "CALL",
      "contractName": null,
      "contractAddress": "0xa99F38851444a3728f7F7D702169AFD4e87a6C3C",
      "function": "addOperator(address)",
      "arguments": [
        "0x312BA46064e1fe5904362BfB0C52c38F20d3Ef44"
      ],
      "transaction": {
        "type": "0x00",
        "from": "0x4015b6569369af4f17cd2da9e2f5e14a5dd162b4",
        "to": "0xa99f38851444a3728f7f7d702169afd4e87a6c3c",
        "gas": "0x36310",
        "value": "0x0",
        "data": "0x9870d7fe000000000000000000000000312ba46064e1fe5904362bfb0c52c38f20d3ef44",
        "nonce": "0x70"
      },
      "additionalContracts": [],
      "isFixedGasLimit": false
    },
    {
      "hash": "0xf755b748ab3cdd7efd3edd79a8eb00978f673063379f6736c6310c1260cb9354",
      "transactionType": "CALL",
      "contractName": null,
      "contractAddress": "0xa99F38851444a3728f7F7D702169AFD4e87a6C3C",
      "function": "approveBankroll(address,uint256)",
      "arguments": [
        "0xf8563aB450eC1D1c19F02f6026A83E1F241E9704",
        "650"
      ],
      "transaction": {
        "type": "0x00",
        "from": "0x4015b6569369af4f17cd2da9e2f5e14a5dd162b4",
        "to": "0xa99f38851444a3728f7f7d702169afd4e87a6c3c",
        "gas": "0x1f8de",
        "value": "0x0",
        "data": "0x9756e8df000000000000000000000000f8563ab450ec1d1c19f02f6026a83e1f241e9704000000000000000000000000000000000000000000000000000000000000028a",
        "nonce": "0x71"
      },
      "additionalContracts": [],
      "isFixedGasLimit": false
    },
    {
      "hash": "0x517607b13b9418d55ad2f920a30db855197b8c373ff8967dd8864691a839f6e5",
      "transactionType": "CALL",
      "contractName": null,
      "contractAddress": "0xa99F38851444a3728f7F7D702169AFD4e87a6C3C",
      "function": "setOperatorToBankroll(address,address)",
      "arguments": [
        "0xf8563aB450eC1D1c19F02f6026A83E1F241E9704",
        "0x312BA46064e1fe5904362BfB0C52c38F20d3Ef44"
      ],
      "transaction": {
        "type": "0x00",
        "from": "0x4015b6569369af4f17cd2da9e2f5e14a5dd162b4",
        "to": "0xa99f38851444a3728f7f7d702169afd4e87a6c3c",
        "gas": "0x214e2",
        "value": "0x0",
        "data": "0xcb233b0a000000000000000000000000f8563ab450ec1d1c19f02f6026a83e1f241e9704000000000000000000000000312ba46064e1fe5904362bfb0c52c38f20d3ef44",
        "nonce": "0x72"
      },
      "additionalContracts": [],
      "isFixedGasLimit": false
    }
  ],
  "receipts": [
    {
      "transactionHash": "0x4b948dc4882132c4ea6e59409905aee419a756471a44a3203daca4a674e53029",
      "transactionIndex": "0x1",
      "blockHash": "0x5849e2f10f0fe66a3d84d5cf85bea6d994bc3685bc7a3437934fec52c20244b7",
      "blockNumber": "0x188984e",
      "from": "0x4015B6569369af4F17CD2DA9e2F5e14A5Dd162b4",
      "to": "0xED16f52959b21CC138DEeA8889Fba13841BFba75",
      "cumulativeGasUsed": "0x95bb5",
      "gasUsed": "0x95bb5",
      "contractAddress": null,
      "logs": [
        {
          "address": "0xf8563aB450eC1D1c19F02f6026A83E1F241E9704",
          "topics": [
            "0x2f8788117e7eff1d82e926ec794901d17c78024a50270940304540a733656f0d",
            "0x0000000000000000000000000000000000000000000000000000000000000000",
            "0x0000000000000000000000001d424382e8e09cc6f8425c9f32d2c695e7698db7",
            "0x000000000000000000000000ed16f52959b21cc138deea8889fba13841bfba75"
          ],
          "data": "0x",
          "blockHash": "0x5849e2f10f0fe66a3d84d5cf85bea6d994bc3685bc7a3437934fec52c20244b7",
          "blockNumber": "0x188984e",
          "transactionHash": "0x4b948dc4882132c4ea6e59409905aee419a756471a44a3203daca4a674e53029",
          "transactionIndex": "0x1",
          "logIndex": "0x0",
          "removed": false
        },
        {
          "address": "0xf8563aB450eC1D1c19F02f6026A83E1F241E9704",
          "topics": [
            "0x2f8788117e7eff1d82e926ec794901d17c78024a50270940304540a733656f0d",
            "0xdf8b4c520ffe197c5343c6f5aec59570151ef9a492f2c624fd45ddde6135ec42",
            "0x000000000000000000000000a66271c90e344c6be44c3ece3856ed9976136ff5",
            "0x000000000000000000000000ed16f52959b21cc138deea8889fba13841bfba75"
          ],
          "data": "0x",
          "blockHash": "0x5849e2f10f0fe66a3d84d5cf85bea6d994bc3685bc7a3437934fec52c20244b7",
          "blockNumber": "0x188984e",
          "transactionHash": "0x4b948dc4882132c4ea6e59409905aee419a756471a44a3203daca4a674e53029",
          "transactionIndex": "0x1",
          "logIndex": "0x1",
          "removed": false
        },
        {
          "address": "0xf8563aB450eC1D1c19F02f6026A83E1F241E9704",
          "topics": [
            "0x2f8788117e7eff1d82e926ec794901d17c78024a50270940304540a733656f0d",
            "0xdf8b4c520ffe197c5343c6f5aec59570151ef9a492f2c624fd45ddde6135ec42",
            "0x0000000000000000000000008d76db34ccca356fa805f5a277efff53aac5af88",
            "0x000000000000000000000000ed16f52959b21cc138deea8889fba13841bfba75"
          ],
          "data": "0x",
          "blockHash": "0x5849e2f10f0fe66a3d84d5cf85bea6d994bc3685bc7a3437934fec52c20244b7",
          "blockNumber": "0x188984e",
          "transactionHash": "0x4b948dc4882132c4ea6e59409905aee419a756471a44a3203daca4a674e53029",
          "transactionIndex": "0x1",
          "logIndex": "0x2",
          "removed": false
        },
        {
          "address": "0xf8563aB450eC1D1c19F02f6026A83E1F241E9704",
          "topics": [
            "0x2f8788117e7eff1d82e926ec794901d17c78024a50270940304540a733656f0d",
            "0x48a7db58bc0d0016705458e918f4ea84477e4f4c43c6d240db04e4db985c2082",
            "0x000000000000000000000000a99f38851444a3728f7f7d702169afd4e87a6c3c",
            "0x000000000000000000000000ed16f52959b21cc138deea8889fba13841bfba75"
          ],
          "data": "0x",
          "blockHash": "0x5849e2f10f0fe66a3d84d5cf85bea6d994bc3685bc7a3437934fec52c20244b7",
          "blockNumber": "0x188984e",
          "transactionHash": "0x4b948dc4882132c4ea6e59409905aee419a756471a44a3203daca4a674e53029",
          "transactionIndex": "0x1",
          "logIndex": "0x3",
          "removed": false
        },
        {
          "address": "0xf8563aB450eC1D1c19F02f6026A83E1F241E9704",
          "topics": [
            "0x7f26b83ff96e1f2b6a682f133852f6798a09c465da95921460cefb3847402498"
          ],
          "data": "0x0000000000000000000000000000000000000000000000000000000000000001",
          "blockHash": "0x5849e2f10f0fe66a3d84d5cf85bea6d994bc3685bc7a3437934fec52c20244b7",
          "blockNumber": "0x188984e",
          "transactionHash": "0x4b948dc4882132c4ea6e59409905aee419a756471a44a3203daca4a674e53029",
          "transactionIndex": "0x1",
          "logIndex": "0x4",
          "removed": false
        }
      ],
      "status": "0x1",
      "logsBloom": "0x00004004000000000000000000000000004020000000000000000000000000200000000000000000000200000000000000008000000080000000000004000000000000000000000000000000000000000000000000000000000000000000000000000000020000004000008080021800000000000000000000000000000000000000040000000000010000000010000000000000000080000000000000000000000000000000000000000000100400000000000000000400011000000000000000000000000000000024000000040000000000000000000100000000000020002000000000000000000000000000000000000000000000000000000000400000",
      "type": "0x0",
      "effectiveGasPrice": "0x5f5e100"
    },
    {
      "transactionHash": "0xb0e9c310a15cb2caba4c928cb435eda210569aecf6a7565e53ff1f6703a5c797",
      "transactionIndex": "0x2",
      "blockHash": "0x27ac92a86d9687a090ced6593dbe16b2f4a7b8e374ac634723b03686cfad1268",
      "blockNumber": "0x1889851",
      "from": "0x4015B6569369af4F17CD2DA9e2F5e14A5Dd162b4",
      "to": "0xa99F38851444a3728f7F7D702169AFD4e87a6C3C",
      "cumulativeGasUsed": "0x65237",
      "gasUsed": "0x21c38",
      "contractAddress": null,
      "logs": [],
      "status": "0x1",
      "logsBloom": "0x00000000000000000000000000000000000000000000000000000000000000000000000000000000000000000000000000000000000000000000000000000000000000000000000000000000000000000000000000000000000000000000000000000000000000000000000000000000000000000000000000000000000000000000000000000000000000000000000000000000000000000000000000000000000000000000000000000000000000000000000000000000000000000000000000000000000000000000000000000000000000000000000000000000000000000000000000000000000000000000000000000000000000000000000000000000",
      "type": "0x0",
      "effectiveGasPrice": "0x5f5e100"
    },
    {
      "transactionHash": "0xf755b748ab3cdd7efd3edd79a8eb00978f673063379f6736c6310c1260cb9354",
      "transactionIndex": "0x1",
      "blockHash": "0x81973197b8ab892b03b69bbf238985325058dc1406243e7a1e7658b5645bbd22",
      "blockNumber": "0x1889854",
      "from": "0x4015B6569369af4F17CD2DA9e2F5e14A5Dd162b4",
      "to": "0xa99F38851444a3728f7F7D702169AFD4e87a6C3C",
      "cumulativeGasUsed": "0x3196d",
      "gasUsed": "0x3196d",
      "contractAddress": null,
      "logs": [],
      "status": "0x1",
      "logsBloom": "0x00000000000000000000000000000000000000000000000000000000000000000000000000000000000000000000000000000000000000000000000000000000000000000000000000000000000000000000000000000000000000000000000000000000000000000000000000000000000000000000000000000000000000000000000000000000000000000000000000000000000000000000000000000000000000000000000000000000000000000000000000000000000000000000000000000000000000000000000000000000000000000000000000000000000000000000000000000000000000000000000000000000000000000000000000000000",
      "type": "0x0",
      "effectiveGasPrice": "0x5f5e100"
    },
    {
      "transactionHash": "0x517607b13b9418d55ad2f920a30db855197b8c373ff8967dd8864691a839f6e5",
      "transactionIndex": "0x4",
      "blockHash": "0xd0f9ce1c259a967bab250717ac4cb8f7b61f2bb81916dd02d21a321a0b1b9948",
      "blockNumber": "0x1889857",
      "from": "0x4015B6569369af4F17CD2DA9e2F5e14A5Dd162b4",
      "to": "0xa99F38851444a3728f7F7D702169AFD4e87a6C3C",
      "cumulativeGasUsed": "0xe64f5",
      "gasUsed": "0x32db6",
      "contractAddress": null,
      "logs": [],
      "status": "0x1",
      "logsBloom": "0x00000000000000000000000000000000000000000000000000000000000000000000000000000000000000000000000000000000000000000000000000000000000000000000000000000000000000000000000000000000000000000000000000000000000000000000000000000000000000000000000000000000000000000000000000000000000000000000000000000000000000000000000000000000000000000000000000000000000000000000000000000000000000000000000000000000000000000000000000000000000000000000000000000000000000000000000000000000000000000000000000000000000000000000000000000000",
      "type": "0x0",
      "effectiveGasPrice": "0x5f5e100"
    }
  ],
  "libraries": [],
  "pending": [],
  "returns": {},
  "timestamp": 1711101545,
  "chain": 421614,
  "commit": "c0e78ed"
}