{
  "transactions": [
    {
      "hash": "0x9544f595c00fca8b6d0b7641d0567455d74f19aaffcbff6bcdf7f6ed17317863",
      "transactionType": "CALL",
      "contractName": null,
      "contractAddress": "0x71a5cd9c9909dbf2c20445e7168875712094e76b",
      "function": "deployBankroll(address,uint256,uint256,bytes32)",
      "arguments": [
        "0xc6ADeA8722C2DB1EFF810f429C3C09BA00E1F25C",
        "8000",
        "5000",
        "0x3078300000000000000000000000000000000000000000000000000000000000"
      ],
      "transaction": {
        "from": "0x4015b6569369af4f17cd2da9e2f5e14a5dd162b4",
        "to": "0x71a5cd9c9909dbf2c20445e7168875712094e76b",
        "gas": "0xa3ed2",
        "value": "0x0",
        "input": "0x14dd160e000000000000000000000000c6adea8722c2db1eff810f429c3c09ba00e1f25c0000000000000000000000000000000000000000000000000000000000001f4000000000000000000000000000000000000000000000000000000000000013883078300000000000000000000000000000000000000000000000000000000000",
        "nonce": "0xa4",
        "chainId": "0x66eee",
        "accessList": null,
        "type": null
      },
      "additionalContracts": [
        {
          "transactionType": "CREATE2",
          "address": "0x79cb297c923430cfab2714648941553298444743",
          "initCode": "0x3d602d80600a3d3981f3363d3d373d3d3d363d73682582ed7d10db0f2210f9b14d33e4106117223c5af43d82803e903d91602b57fd5bf3"
        }
      ],
      "isFixedGasLimit": false
    },
    {
      "hash": "0x04d96176478401646af86700ff6b8c9ccbf4070ac51b6141e4cc1f1681fd5d12",
      "transactionType": "CALL",
      "contractName": null,
      "contractAddress": "0xd2fb0a58d2e25b4d7d8fa3f9aef8ad7119414141",
      "function": "addOperator(address)",
      "arguments": [
        "0x312BA46064e1fe5904362BfB0C52c38F20d3Ef44"
      ],
      "transaction": {
        "from": "0x4015b6569369af4f17cd2da9e2f5e14a5dd162b4",
        "to": "0xd2fb0a58d2e25b4d7d8fa3f9aef8ad7119414141",
        "gas": "0x11f6a",
        "value": "0x0",
        "input": "0x9870d7fe000000000000000000000000312ba46064e1fe5904362bfb0c52c38f20d3ef44",
        "nonce": "0xa5",
        "chainId": "0x66eee",
        "accessList": null,
        "type": null
      },
      "additionalContracts": [],
      "isFixedGasLimit": false
    },
    {
      "hash": "0xf2d6e7d62b6fc3226c3e7b491440f00848442d2d119dc3fae51a494619cec092",
      "transactionType": "CALL",
      "contractName": null,
      "contractAddress": "0xd2fb0a58d2e25b4d7d8fa3f9aef8ad7119414141",
      "function": "approveBankroll(address,uint256)",
      "arguments": [
        "0x79cb297c923430cfab2714648941553298444743",
        "650"
      ],
      "transaction": {
        "from": "0x4015b6569369af4f17cd2da9e2f5e14a5dd162b4",
        "to": "0xd2fb0a58d2e25b4d7d8fa3f9aef8ad7119414141",
        "gas": "0x1a7ce",
        "value": "0x0",
        "input": "0x9756e8df00000000000000000000000079cb297c923430cfab2714648941553298444743000000000000000000000000000000000000000000000000000000000000028a",
        "nonce": "0xa6",
        "chainId": "0x66eee",
        "accessList": null,
        "type": null
      },
      "additionalContracts": [],
      "isFixedGasLimit": false
    },
    {
      "hash": "0x37e18a99eef47cb78bf9eab6af82b3767ce3805bee06682aa462ef9b1e1f7bb8",
      "transactionType": "CALL",
      "contractName": null,
      "contractAddress": "0xd2fb0a58d2e25b4d7d8fa3f9aef8ad7119414141",
      "function": "setOperatorToBankroll(address,address)",
      "arguments": [
        "0x79cb297c923430cfab2714648941553298444743",
        "0x312BA46064e1fe5904362BfB0C52c38F20d3Ef44"
      ],
      "transaction": {
        "from": "0x4015b6569369af4f17cd2da9e2f5e14a5dd162b4",
        "to": "0xd2fb0a58d2e25b4d7d8fa3f9aef8ad7119414141",
        "gas": "0x25d08",
        "value": "0x0",
        "input": "0xcb233b0a00000000000000000000000079cb297c923430cfab2714648941553298444743000000000000000000000000312ba46064e1fe5904362bfb0c52c38f20d3ef44",
        "nonce": "0xa7",
        "chainId": "0x66eee",
        "accessList": null,
        "type": null
      },
      "additionalContracts": [],
      "isFixedGasLimit": false
    },
    {
      "hash": "0xaacfb9fee422d16b647dd2d8b32c3262e739e19a830ad0b74a9b3b3173b5db58",
      "transactionType": "CALL",
      "contractName": null,
      "contractAddress": "0x79cb297c923430cfab2714648941553298444743",
      "function": "maxContractsApprove()",
      "arguments": [],
      "transaction": {
        "from": "0x8d76db34ccca356fa805f5a277efff53aac5af88",
        "to": "0x79cb297c923430cfab2714648941553298444743",
        "gas": "0x6af7",
        "value": "0x0",
        "input": "0xcbb3b225",
        "nonce": "0x4d",
        "chainId": "0x66eee",
        "accessList": null,
        "type": null
      },
      "additionalContracts": [],
      "isFixedGasLimit": false
    }
  ],
  "receipts": [
    {
      "status": "0x1",
      "cumulativeGasUsed": "0xdf007",
      "logs": [
        {
          "address": "0x79cb297c923430cfab2714648941553298444743",
          "topics": [
            "0x2f8788117e7eff1d82e926ec794901d17c78024a50270940304540a733656f0d",
            "0x0000000000000000000000000000000000000000000000000000000000000000",
            "0x0000000000000000000000001d424382e8e09cc6f8425c9f32d2c695e7698db7",
            "0x00000000000000000000000071a5cd9c9909dbf2c20445e7168875712094e76b"
          ],
          "data": "0x",
          "blockHash": "0x8c9a4dd623567423e2393f82815b7528676dbb82809010a4919344a922c46ed5",
          "blockNumber": "0x20efbbe",
          "transactionHash": "0x9544f595c00fca8b6d0b7641d0567455d74f19aaffcbff6bcdf7f6ed17317863",
          "transactionIndex": "0x2",
          "logIndex": "0x6",
          "removed": false
        },
        {
          "address": "0x79cb297c923430cfab2714648941553298444743",
          "topics": [
            "0x2f8788117e7eff1d82e926ec794901d17c78024a50270940304540a733656f0d",
            "0xdf8b4c520ffe197c5343c6f5aec59570151ef9a492f2c624fd45ddde6135ec42",
            "0x000000000000000000000000616659a5aedcf3c291b0c5f57d83db48d8333393",
            "0x00000000000000000000000071a5cd9c9909dbf2c20445e7168875712094e76b"
          ],
          "data": "0x",
          "blockHash": "0x8c9a4dd623567423e2393f82815b7528676dbb82809010a4919344a922c46ed5",
          "blockNumber": "0x20efbbe",
          "transactionHash": "0x9544f595c00fca8b6d0b7641d0567455d74f19aaffcbff6bcdf7f6ed17317863",
          "transactionIndex": "0x2",
          "logIndex": "0x7",
          "removed": false
        },
        {
          "address": "0x79cb297c923430cfab2714648941553298444743",
          "topics": [
            "0x2f8788117e7eff1d82e926ec794901d17c78024a50270940304540a733656f0d",
            "0xdf8b4c520ffe197c5343c6f5aec59570151ef9a492f2c624fd45ddde6135ec42",
            "0x0000000000000000000000008d76db34ccca356fa805f5a277efff53aac5af88",
            "0x00000000000000000000000071a5cd9c9909dbf2c20445e7168875712094e76b"
          ],
          "data": "0x",
          "blockHash": "0x8c9a4dd623567423e2393f82815b7528676dbb82809010a4919344a922c46ed5",
          "blockNumber": "0x20efbbe",
          "transactionHash": "0x9544f595c00fca8b6d0b7641d0567455d74f19aaffcbff6bcdf7f6ed17317863",
          "transactionIndex": "0x2",
          "logIndex": "0x8",
          "removed": false
        },
        {
          "address": "0x79cb297c923430cfab2714648941553298444743",
          "topics": [
            "0x2f8788117e7eff1d82e926ec794901d17c78024a50270940304540a733656f0d",
            "0x48a7db58bc0d0016705458e918f4ea84477e4f4c43c6d240db04e4db985c2082",
            "0x000000000000000000000000d2fb0a58d2e25b4d7d8fa3f9aef8ad7119414141",
            "0x00000000000000000000000071a5cd9c9909dbf2c20445e7168875712094e76b"
          ],
          "data": "0x",
          "blockHash": "0x8c9a4dd623567423e2393f82815b7528676dbb82809010a4919344a922c46ed5",
          "blockNumber": "0x20efbbe",
          "transactionHash": "0x9544f595c00fca8b6d0b7641d0567455d74f19aaffcbff6bcdf7f6ed17317863",
          "transactionIndex": "0x2",
          "logIndex": "0x9",
          "removed": false
        },
        {
          "address": "0x79cb297c923430cfab2714648941553298444743",
          "topics": [
            "0x7f26b83ff96e1f2b6a682f133852f6798a09c465da95921460cefb3847402498"
          ],
          "data": "0x0000000000000000000000000000000000000000000000000000000000000001",
          "blockHash": "0x8c9a4dd623567423e2393f82815b7528676dbb82809010a4919344a922c46ed5",
          "blockNumber": "0x20efbbe",
          "transactionHash": "0x9544f595c00fca8b6d0b7641d0567455d74f19aaffcbff6bcdf7f6ed17317863",
          "transactionIndex": "0x2",
          "logIndex": "0xa",
          "removed": false
        }
      ],
      "logsBloom": "0x00004004000000004000000000000000000000000000000000001000000000200000000000000000000200000000000000000000000080000000000004000000000000000000000000000000000000000000000000000000000000000000000000000000020000000000008000020800000000000000000000000000000000100000040002000000000000000000000000000000000080000000000000000004000000000000000000000000100400000000000000000400001000000000000000000000000000000004000001040000000000000000000100000000080020002000000020000000000000000200000000000000000000008000000000400000",
      "type": "0x0",
      "transactionHash": "0x9544f595c00fca8b6d0b7641d0567455d74f19aaffcbff6bcdf7f6ed17317863",
      "transactionIndex": "0x2",
      "blockHash": "0x8c9a4dd623567423e2393f82815b7528676dbb82809010a4919344a922c46ed5",
      "blockNumber": "0x20efbbe",
      "gasUsed": "0x7c3f3",
      "effectiveGasPrice": "0x77cf630",
      "from": "0x4015b6569369af4f17cd2da9e2f5e14a5dd162b4",
      "to": "0x71a5cd9c9909dbf2c20445e7168875712094e76b",
      "contractAddress": null,
      "gasUsedForL1": "0x0",
      "l1BlockNumber": "0x5739ed"
    },
    {
      "status": "0x1",
      "cumulativeGasUsed": "0xdb87",
      "logs": [],
      "logsBloom": "0x00000000000000000000000000000000000000000000000000000000000000000000000000000000000000000000000000000000000000000000000000000000000000000000000000000000000000000000000000000000000000000000000000000000000000000000000000000000000000000000000000000000000000000000000000000000000000000000000000000000000000000000000000000000000000000000000000000000000000000000000000000000000000000000000000000000000000000000000000000000000000000000000000000000000000000000000000000000000000000000000000000000000000000000000000000000",
      "type": "0x0",
      "transactionHash": "0x04d96176478401646af86700ff6b8c9ccbf4070ac51b6141e4cc1f1681fd5d12",
      "transactionIndex": "0x1",
      "blockHash": "0x1771e704f91b52565eae2c9e820a9b89f026e49370f126567665519536cb412f",
      "blockNumber": "0x20efbc1",
      "gasUsed": "0xdb87",
      "effectiveGasPrice": "0x77e7cd0",
      "from": "0x4015b6569369af4f17cd2da9e2f5e14a5dd162b4",
      "to": "0xd2fb0a58d2e25b4d7d8fa3f9aef8ad7119414141",
      "contractAddress": null,
      "gasUsedForL1": "0x0",
      "l1BlockNumber": "0x5739ed"
    },
    {
      "status": "0x1",
      "cumulativeGasUsed": "0x132d4",
      "logs": [],
      "logsBloom": "0x00000000000000000000000000000000000000000000000000000000000000000000000000000000000000000000000000000000000000000000000000000000000000000000000000000000000000000000000000000000000000000000000000000000000000000000000000000000000000000000000000000000000000000000000000000000000000000000000000000000000000000000000000000000000000000000000000000000000000000000000000000000000000000000000000000000000000000000000000000000000000000000000000000000000000000000000000000000000000000000000000000000000000000000000000000000",
      "type": "0x0",
      "transactionHash": "0xf2d6e7d62b6fc3226c3e7b491440f00848442d2d119dc3fae51a494619cec092",
      "transactionIndex": "0x1",
      "blockHash": "0x4666592b364cd59ab37253edb7998fa42f3acc379a9bcc170f9b5644028ac996",
      "blockNumber": "0x20efbc4",
      "gasUsed": "0x132d4",
      "effectiveGasPrice": "0x77443a0",
      "from": "0x4015b6569369af4f17cd2da9e2f5e14a5dd162b4",
      "to": "0xd2fb0a58d2e25b4d7d8fa3f9aef8ad7119414141",
      "contractAddress": null,
      "gasUsedForL1": "0x0",
      "l1BlockNumber": "0x5739ed"
    },
    {
      "status": "0x1",
      "cumulativeGasUsed": "0xe0203",
      "logs": [],
      "logsBloom": "0x00000000000000000000000000000000000000000000000000000000000000000000000000000000000000000000000000000000000000000000000000000000000000000000000000000000000000000000000000000000000000000000000000000000000000000000000000000000000000000000000000000000000000000000000000000000000000000000000000000000000000000000000000000000000000000000000000000000000000000000000000000000000000000000000000000000000000000000000000000000000000000000000000000000000000000000000000000000000000000000000000000000000000000000000000000000",
      "type": "0x0",
      "transactionHash": "0x37e18a99eef47cb78bf9eab6af82b3767ce3805bee06682aa462ef9b1e1f7bb8",
      "transactionIndex": "0x3",
      "blockHash": "0x0b2715df0138238ab7069a0e83f9052dfd713be72d051b249f2a8f4ed4842724",
      "blockNumber": "0x20efbc6",
      "gasUsed": "0x19db3",
      "effectiveGasPrice": "0x77b6f90",
      "from": "0x4015b6569369af4f17cd2da9e2f5e14a5dd162b4",
      "to": "0xd2fb0a58d2e25b4d7d8fa3f9aef8ad7119414141",
      "contractAddress": null,
      "gasUsedForL1": "0x0",
      "l1BlockNumber": "0x5739ed"
    },
    {
      "status": "0x1",
      "cumulativeGasUsed": "0x154b1",
      "logs": [
        {
          "address": "0xc6adea8722c2db1eff810f429c3c09ba00e1f25c",
          "topics": [
            "0x8c5be1e5ebec7d5bd14f71427d1e84f3dd0314c0f7b2291e5b200ac8c7c3b925",
            "0x00000000000000000000000079cb297c923430cfab2714648941553298444743",
            "0x000000000000000000000000d2fb0a58d2e25b4d7d8fa3f9aef8ad7119414141"
          ],
          "data": "0xffffffffffffffffffffffffffffffffffffffffffffffffffffffffffffffff",
          "blockHash": "0x24b17cb633b0c13cc2b9d979cf1e617101fb1a613cb64b4752427bf38baa2fa6",
          "blockNumber": "0x20efbc9",
          "transactionHash": "0xaacfb9fee422d16b647dd2d8b32c3262e739e19a830ad0b74a9b3b3173b5db58",
          "transactionIndex": "0x1",
          "logIndex": "0x0",
          "removed": false
        },
        {
          "address": "0xc6adea8722c2db1eff810f429c3c09ba00e1f25c",
          "topics": [
            "0x8c5be1e5ebec7d5bd14f71427d1e84f3dd0314c0f7b2291e5b200ac8c7c3b925",
            "0x00000000000000000000000079cb297c923430cfab2714648941553298444743",
            "0x000000000000000000000000616659a5aedcf3c291b0c5f57d83db48d8333393"
          ],
          "data": "0xffffffffffffffffffffffffffffffffffffffffffffffffffffffffffffffff",
          "blockHash": "0x24b17cb633b0c13cc2b9d979cf1e617101fb1a613cb64b4752427bf38baa2fa6",
          "blockNumber": "0x20efbc9",
          "transactionHash": "0xaacfb9fee422d16b647dd2d8b32c3262e739e19a830ad0b74a9b3b3173b5db58",
          "transactionIndex": "0x1",
          "logIndex": "0x1",
          "removed": false
        }
      ],
      "logsBloom": "0x00000000000000004000000000000000000000000000000000001000000000000000000000000000000200000000000000000000000000000000000000200000000000000000000000000000000000000000000000000000000000000000000000000000000000000000000000000000000000000000000000000000000000000000000002000000000000000000000000000000000000000000000000000000020040000000000000000000000000000000000000000000000000000000000080000000000000000000000000000000000000000000000000000000080000000010800020000000000000000000000200000000000000000100000000000000",
      "type": "0x0",
      "transactionHash": "0xaacfb9fee422d16b647dd2d8b32c3262e739e19a830ad0b74a9b3b3173b5db58",
      "transactionIndex": "0x1",
      "blockHash": "0x24b17cb633b0c13cc2b9d979cf1e617101fb1a613cb64b4752427bf38baa2fa6",
      "blockNumber": "0x20efbc9",
      "gasUsed": "0x154b1",
      "effectiveGasPrice": "0x771d2a0",
      "from": "0x8d76db34ccca356fa805f5a277efff53aac5af88",
      "to": "0x79cb297c923430cfab2714648941553298444743",
      "contractAddress": null,
      "gasUsedForL1": "0x0",
      "l1BlockNumber": "0x5739ef"
    }
  ],
  "libraries": [],
  "pending": [],
  "returns": {},
  "timestamp": 1713340156,
  "chain": 421614,
  "commit": "8da793f"
}