{
  "transactions": [
    {
      "hash": "0xd94b3bd312d6fb708c9b94144733ce6a977941ca7e1c43f11d81e38038c73e21",
      "transactionType": "CALL",
      "contractName": null,
      "contractAddress": "0x91e01407d5d17eb2462e1e082d07b43b88577e5c",
      "function": "deployBankroll(address,uint256,uint256,bytes32)",
      "arguments": [
        "0xc6ADeA8722C2DB1EFF810f429C3C09BA00E1F25C",
        "8000",
        "1000000000",
        "0x3078300000000000000000000000000000000000000000000000000000000000"
      ],
      "transaction": {
        "from": "0x802a1f49be649823f41017cbe814e08a98db5a6d",
        "to": "0x91e01407d5d17eb2462e1e082d07b43b88577e5c",
        "gas": "0xa3ee1",
        "value": "0x0",
        "input": "0x14dd160e000000000000000000000000c6adea8722c2db1eff810f429c3c09ba00e1f25c0000000000000000000000000000000000000000000000000000000000001f40000000000000000000000000000000000000000000000000000000003b9aca003078300000000000000000000000000000000000000000000000000000000000",
        "nonce": "0xd",
        "chainId": "0x66eee",
        "accessList": null,
        "type": null
      },
      "additionalContracts": [
        {
          "transactionType": "CREATE2",
          "address": "0xdaa3599ab57a8fb67dcb48edf49a2c0087a28963",
          "initCode": "0x3d602d80600a3d3981f3363d3d373d3d3d363d73ef4ae4fc48b01a7816ae13a92217bd085c8409b45af43d82803e903d91602b57fd5bf3"
        }
      ],
      "isFixedGasLimit": false
    },
    {
      "hash": null,
      "transactionType": "CALL",
      "contractName": null,
      "contractAddress": "0xecda7dfa3032b00daa294fded3a1f1348759a9ca",
      "function": "addOperator(address)",
      "arguments": [
        "0xaD0e95D949cf8ae7D9FaCe4454e1a27Bc811D8f1"
      ],
      "transaction": {
        "from": "0x802a1f49be649823f41017cbe814e08a98db5a6d",
        "to": "0xecda7dfa3032b00daa294fded3a1f1348759a9ca",
        "gas": "0x11f6a",
        "value": "0x0",
        "input": "0x9870d7fe000000000000000000000000ad0e95d949cf8ae7d9face4454e1a27bc811d8f1",
        "nonce": "0xe",
        "chainId": "0x66eee",
        "accessList": null,
        "type": null
      },
      "additionalContracts": [],
      "isFixedGasLimit": false
    },
    {
      "hash": null,
      "transactionType": "CALL",
      "contractName": null,
      "contractAddress": "0xecda7dfa3032b00daa294fded3a1f1348759a9ca",
      "function": "approveBankroll(address,uint256)",
      "arguments": [
        "0xDAA3599aB57A8FB67dCb48edf49a2C0087A28963",
        "650"
      ],
      "transaction": {
        "from": "0x802a1f49be649823f41017cbe814e08a98db5a6d",
        "to": "0xecda7dfa3032b00daa294fded3a1f1348759a9ca",
        "gas": "0x1a7bd",
        "value": "0x0",
        "input": "0x9756e8df000000000000000000000000daa3599ab57a8fb67dcb48edf49a2c0087a28963000000000000000000000000000000000000000000000000000000000000028a",
        "nonce": "0xf",
        "chainId": "0x66eee",
        "accessList": null,
        "type": null
      },
      "additionalContracts": [],
      "isFixedGasLimit": false
    },
    {
      "hash": null,
      "transactionType": "CALL",
      "contractName": null,
      "contractAddress": "0xecda7dfa3032b00daa294fded3a1f1348759a9ca",
      "function": "setOperatorToBankroll(address,address)",
      "arguments": [
        "0xDAA3599aB57A8FB67dCb48edf49a2C0087A28963",
        "0xaD0e95D949cf8ae7D9FaCe4454e1a27Bc811D8f1"
      ],
      "transaction": {
        "from": "0x802a1f49be649823f41017cbe814e08a98db5a6d",
        "to": "0xecda7dfa3032b00daa294fded3a1f1348759a9ca",
        "gas": "0x23b5a",
        "value": "0x0",
        "input": "0xcb233b0a000000000000000000000000daa3599ab57a8fb67dcb48edf49a2c0087a28963000000000000000000000000ad0e95d949cf8ae7d9face4454e1a27bc811d8f1",
        "nonce": "0x10",
        "chainId": "0x66eee",
        "accessList": null,
        "type": null
      },
      "additionalContracts": [],
      "isFixedGasLimit": false
    },
    {
      "hash": null,
      "transactionType": "CALL",
      "contractName": null,
      "contractAddress": "0xdaa3599ab57a8fb67dcb48edf49a2c0087a28963",
      "function": "maxContractsApprove()",
      "arguments": [],
      "transaction": {
        "from": "0x632a7cf953c3127606aadccd832e9d480b81f7c0",
        "to": "0xdaa3599ab57a8fb67dcb48edf49a2c0087a28963",
        "gas": "0x6af7",
        "value": "0x0",
        "input": "0xcbb3b225",
        "nonce": "0x0",
        "chainId": "0x66eee",
        "accessList": null,
        "type": null
      },
      "additionalContracts": [],
      "isFixedGasLimit": false
    }
  ],
  "receipts": [
    {
      "status": "0x1",
      "cumulativeGasUsed": "0xe8b75",
      "logs": [
        {
          "address": "0xdaa3599ab57a8fb67dcb48edf49a2c0087a28963",
          "topics": [
            "0x2f8788117e7eff1d82e926ec794901d17c78024a50270940304540a733656f0d",
            "0x0000000000000000000000000000000000000000000000000000000000000000",
            "0x0000000000000000000000001d424382e8e09cc6f8425c9f32d2c695e7698db7",
            "0x00000000000000000000000091e01407d5d17eb2462e1e082d07b43b88577e5c"
          ],
          "data": "0x",
          "blockHash": "0xe4eb335c14906c7f6040891d6cbb7bb120556483fb3874df1a7e498ca0bf1414",
          "blockNumber": "0x22f2ab9",
          "transactionHash": "0xd94b3bd312d6fb708c9b94144733ce6a977941ca7e1c43f11d81e38038c73e21",
          "transactionIndex": "0x3",
          "logIndex": "0x7",
          "removed": false
        },
        {
          "address": "0xdaa3599ab57a8fb67dcb48edf49a2c0087a28963",
          "topics": [
            "0x2f8788117e7eff1d82e926ec794901d17c78024a50270940304540a733656f0d",
            "0xdf8b4c520ffe197c5343c6f5aec59570151ef9a492f2c624fd45ddde6135ec42",
            "0x0000000000000000000000001a9d4f05a06e79ee941008526c84aaca91bfef29",
            "0x00000000000000000000000091e01407d5d17eb2462e1e082d07b43b88577e5c"
          ],
          "data": "0x",
          "blockHash": "0xe4eb335c14906c7f6040891d6cbb7bb120556483fb3874df1a7e498ca0bf1414",
          "blockNumber": "0x22f2ab9",
          "transactionHash": "0xd94b3bd312d6fb708c9b94144733ce6a977941ca7e1c43f11d81e38038c73e21",
          "transactionIndex": "0x3",
          "logIndex": "0x8",
          "removed": false
        },
        {
          "address": "0xdaa3599ab57a8fb67dcb48edf49a2c0087a28963",
          "topics": [
            "0x2f8788117e7eff1d82e926ec794901d17c78024a50270940304540a733656f0d",
            "0xdf8b4c520ffe197c5343c6f5aec59570151ef9a492f2c624fd45ddde6135ec42",
            "0x000000000000000000000000632a7cf953c3127606aadccd832e9d480b81f7c0",
            "0x00000000000000000000000091e01407d5d17eb2462e1e082d07b43b88577e5c"
          ],
          "data": "0x",
          "blockHash": "0xe4eb335c14906c7f6040891d6cbb7bb120556483fb3874df1a7e498ca0bf1414",
          "blockNumber": "0x22f2ab9",
          "transactionHash": "0xd94b3bd312d6fb708c9b94144733ce6a977941ca7e1c43f11d81e38038c73e21",
          "transactionIndex": "0x3",
          "logIndex": "0x9",
          "removed": false
        },
        {
          "address": "0xdaa3599ab57a8fb67dcb48edf49a2c0087a28963",
          "topics": [
            "0x2f8788117e7eff1d82e926ec794901d17c78024a50270940304540a733656f0d",
            "0x48a7db58bc0d0016705458e918f4ea84477e4f4c43c6d240db04e4db985c2082",
            "0x000000000000000000000000ecda7dfa3032b00daa294fded3a1f1348759a9ca",
            "0x00000000000000000000000091e01407d5d17eb2462e1e082d07b43b88577e5c"
          ],
          "data": "0x",
          "blockHash": "0xe4eb335c14906c7f6040891d6cbb7bb120556483fb3874df1a7e498ca0bf1414",
          "blockNumber": "0x22f2ab9",
          "transactionHash": "0xd94b3bd312d6fb708c9b94144733ce6a977941ca7e1c43f11d81e38038c73e21",
          "transactionIndex": "0x3",
          "logIndex": "0xa",
          "removed": false
        },
        {
          "address": "0xdaa3599ab57a8fb67dcb48edf49a2c0087a28963",
          "topics": [
            "0x7f26b83ff96e1f2b6a682f133852f6798a09c465da95921460cefb3847402498"
          ],
          "data": "0x0000000000000000000000000000000000000000000000000000000000000001",
          "blockHash": "0xe4eb335c14906c7f6040891d6cbb7bb120556483fb3874df1a7e498ca0bf1414",
          "blockNumber": "0x22f2ab9",
          "transactionHash": "0xd94b3bd312d6fb708c9b94144733ce6a977941ca7e1c43f11d81e38038c73e21",
          "transactionIndex": "0x3",
          "logIndex": "0xb",
          "removed": false
        }
      ],
      "logsBloom": "0x00004004000000000000000000000000000000000000000000000000000020200000000020020000000000000000000000000000000080000000000000000000000000000000000000000820000000400000000000000000000000000000000000000000020000000000008000000800000000000000000000000000000100000000040000000000000000000000000000000000000080000000000000000000000000000000000000000000100400000040000000000400001000000000000010000000000000000004000000040000000000000000000120000000000020102000400000000100000000000000000000400000000000000000010000000000",
      "type": "0x2",
      "transactionHash": "0xd94b3bd312d6fb708c9b94144733ce6a977941ca7e1c43f11d81e38038c73e21",
      "transactionIndex": "0x3",
      "blockHash": "0xe4eb335c14906c7f6040891d6cbb7bb120556483fb3874df1a7e498ca0bf1414",
      "blockNumber": "0x22f2ab9",
      "gasUsed": "0x7c3ff",
      "effectiveGasPrice": "0x32e10e10",
      "from": "0x802a1f49be649823f41017cbe814e08a98db5a6d",
      "to": "0x91e01407d5d17eb2462e1e082d07b43b88577e5c",
      "contractAddress": null,
      "gasUsedForL1": "0x0",
      "l1BlockNumber": "0x57e1c2"
    }
  ],
  "libraries": [],
  "pending": [],
  "returns": {},
  "timestamp": 1713866111,
  "chain": 421614,
  "commit": "4f905cc"
}