{
  "transactions": [
    {
      "hash": "0xf9812ea4ff71f6fcf4bbc021ab291c5a5d8ee3d0304129aeacb78d5c7523caeb",
      "transactionType": "CALL",
      "contractName": null,
      "contractAddress": "0x6cc4f47601619620A3FC69bc0Dba2a2B1eC6A4ab",
      "function": "deployBankroll(address,uint256,uint256,bytes32)",
      "arguments": [
        "0xc6ADeA8722C2DB1EFF810f429C3C09BA00E1F25C",
        "10000",
        "10000",
        "0x3078310000000000000000000000000000000000000000000000000000000000"
      ],
      "transaction": {
        "type": "0x00",
        "from": "0x4015b6569369af4f17cd2da9e2f5e14a5dd162b4",
        "to": "0x6cc4f47601619620a3fc69bc0dba2a2b1ec6a4ab",
        "gas": "0x115b01",
        "value": "0x0",
        "data": "0x14dd160e000000000000000000000000c6adea8722c2db1eff810f429c3c09ba00e1f25c000000000000000000000000000000000000000000000000000000000000271000000000000000000000000000000000000000000000000000000000000027103078310000000000000000000000000000000000000000000000000000000000",
        "nonce": "0x54"
      },
      "additionalContracts": [
        {
          "transactionType": "CREATE2",
          "address": "0x8487B23e891F2502c8f3337eD7ad30B23EBd254D",
          "initCode": "0x3d602d80600a3d3981f3363d3d373d3d3d363d73d0f2a5faf981773ff6f912e762e831fb936d9e715af43d82803e903d91602b57fd5bf3"
        }
      ],
      "isFixedGasLimit": false
    },
    {
      "hash": "0x5bfec72484d806d246b20e5f4ba89796f307fb24e81cfda0c56ad62c0265245a",
      "transactionType": "CALL",
      "contractName": null,
      "contractAddress": "0xfc4e97657823CAF0689ee6506fEc4B24063f7da6",
      "function": "addOperator(address)",
      "arguments": [
        "0x312BA46064e1fe5904362BfB0C52c38F20d3Ef44"
      ],
      "transaction": {
        "type": "0x00",
        "from": "0x4015b6569369af4f17cd2da9e2f5e14a5dd162b4",
        "to": "0xfc4e97657823caf0689ee6506fec4b24063f7da6",
        "gas": "0x627d0",
        "value": "0x0",
        "data": "0x9870d7fe000000000000000000000000312ba46064e1fe5904362bfb0c52c38f20d3ef44",
        "nonce": "0x55"
      },
      "additionalContracts": [],
      "isFixedGasLimit": false
    },
    {
      "hash": "0x955450745eea081f9021081729c730c7f1e9913798a564aad0e8f6042a33ad6c",
      "transactionType": "CALL",
      "contractName": null,
      "contractAddress": "0xfc4e97657823CAF0689ee6506fEc4B24063f7da6",
      "function": "approveBankroll(address,uint256)",
      "arguments": [
        "0x8487B23e891F2502c8f3337eD7ad30B23EBd254D",
        "650"
      ],
      "transaction": {
        "type": "0x00",
        "from": "0x4015b6569369af4f17cd2da9e2f5e14a5dd162b4",
        "to": "0xfc4e97657823caf0689ee6506fec4b24063f7da6",
        "gas": "0x1f8de",
        "value": "0x0",
        "data": "0x9756e8df0000000000000000000000008487b23e891f2502c8f3337ed7ad30b23ebd254d000000000000000000000000000000000000000000000000000000000000028a",
        "nonce": "0x56"
      },
      "additionalContracts": [],
      "isFixedGasLimit": false
    },
    {
      "hash": "0x67ba513ca790d12597c0f429cd5b195608b6d8b3677358fabbe248522e2ad81f",
      "transactionType": "CALL",
      "contractName": null,
      "contractAddress": "0xfc4e97657823CAF0689ee6506fEc4B24063f7da6",
      "function": "setOperatorToBankroll(address,address)",
      "arguments": [
        "0x8487B23e891F2502c8f3337eD7ad30B23EBd254D",
        "0x312BA46064e1fe5904362BfB0C52c38F20d3Ef44"
      ],
      "transaction": {
        "type": "0x00",
        "from": "0x4015b6569369af4f17cd2da9e2f5e14a5dd162b4",
        "to": "0xfc4e97657823caf0689ee6506fec4b24063f7da6",
        "gas": "0x214e2",
        "value": "0x0",
        "data": "0xcb233b0a0000000000000000000000008487b23e891f2502c8f3337ed7ad30b23ebd254d000000000000000000000000312ba46064e1fe5904362bfb0c52c38f20d3ef44",
        "nonce": "0x57"
      },
      "additionalContracts": [],
      "isFixedGasLimit": false
    }
  ],
  "receipts": [
    {
      "transactionHash": "0xf9812ea4ff71f6fcf4bbc021ab291c5a5d8ee3d0304129aeacb78d5c7523caeb",
      "transactionIndex": "0x2",
      "blockHash": "0x517af72ee55d6edca22623904f3d4982b93b37bdf4aeadb82a526b9c0b2f76cd",
      "blockNumber": "0x185bdbd",
      "from": "0x4015B6569369af4F17CD2DA9e2F5e14A5Dd162b4",
      "to": "0x6cc4f47601619620A3FC69bc0Dba2a2B1eC6A4ab",
      "cumulativeGasUsed": "0x130f3c",
      "gasUsed": "0xbf6fb",
      "contractAddress": null,
      "logs": [
        {
          "address": "0x8487B23e891F2502c8f3337eD7ad30B23EBd254D",
          "topics": [
            "0x2f8788117e7eff1d82e926ec794901d17c78024a50270940304540a733656f0d",
            "0x0000000000000000000000000000000000000000000000000000000000000000",
            "0x0000000000000000000000001d424382e8e09cc6f8425c9f32d2c695e7698db7",
            "0x0000000000000000000000006cc4f47601619620a3fc69bc0dba2a2b1ec6a4ab"
          ],
          "data": "0x",
          "blockHash": "0x517af72ee55d6edca22623904f3d4982b93b37bdf4aeadb82a526b9c0b2f76cd",
          "blockNumber": "0x185bdbd",
          "transactionHash": "0xf9812ea4ff71f6fcf4bbc021ab291c5a5d8ee3d0304129aeacb78d5c7523caeb",
          "transactionIndex": "0x2",
          "logIndex": "0x3",
          "removed": false
        },
        {
          "address": "0x8487B23e891F2502c8f3337eD7ad30B23EBd254D",
          "topics": [
            "0x2f8788117e7eff1d82e926ec794901d17c78024a50270940304540a733656f0d",
            "0xdf8b4c520ffe197c5343c6f5aec59570151ef9a492f2c624fd45ddde6135ec42",
            "0x000000000000000000000000b3f9ba9877206f7c47f5a37b9e23c373d0dc6746",
            "0x0000000000000000000000006cc4f47601619620a3fc69bc0dba2a2b1ec6a4ab"
          ],
          "data": "0x",
          "blockHash": "0x517af72ee55d6edca22623904f3d4982b93b37bdf4aeadb82a526b9c0b2f76cd",
          "blockNumber": "0x185bdbd",
          "transactionHash": "0xf9812ea4ff71f6fcf4bbc021ab291c5a5d8ee3d0304129aeacb78d5c7523caeb",
          "transactionIndex": "0x2",
          "logIndex": "0x4",
          "removed": false
        },
        {
          "address": "0x8487B23e891F2502c8f3337eD7ad30B23EBd254D",
          "topics": [
            "0x2f8788117e7eff1d82e926ec794901d17c78024a50270940304540a733656f0d",
            "0xdf8b4c520ffe197c5343c6f5aec59570151ef9a492f2c624fd45ddde6135ec42",
            "0x0000000000000000000000008d76db34ccca356fa805f5a277efff53aac5af88",
            "0x0000000000000000000000006cc4f47601619620a3fc69bc0dba2a2b1ec6a4ab"
          ],
          "data": "0x",
          "blockHash": "0x517af72ee55d6edca22623904f3d4982b93b37bdf4aeadb82a526b9c0b2f76cd",
          "blockNumber": "0x185bdbd",
          "transactionHash": "0xf9812ea4ff71f6fcf4bbc021ab291c5a5d8ee3d0304129aeacb78d5c7523caeb",
          "transactionIndex": "0x2",
          "logIndex": "0x5",
          "removed": false
        },
        {
          "address": "0x8487B23e891F2502c8f3337eD7ad30B23EBd254D",
          "topics": [
            "0x2f8788117e7eff1d82e926ec794901d17c78024a50270940304540a733656f0d",
            "0x48a7db58bc0d0016705458e918f4ea84477e4f4c43c6d240db04e4db985c2082",
            "0x000000000000000000000000fc4e97657823caf0689ee6506fec4b24063f7da6",
            "0x0000000000000000000000006cc4f47601619620a3fc69bc0dba2a2b1ec6a4ab"
          ],
          "data": "0x",
          "blockHash": "0x517af72ee55d6edca22623904f3d4982b93b37bdf4aeadb82a526b9c0b2f76cd",
          "blockNumber": "0x185bdbd",
          "transactionHash": "0xf9812ea4ff71f6fcf4bbc021ab291c5a5d8ee3d0304129aeacb78d5c7523caeb",
          "transactionIndex": "0x2",
          "logIndex": "0x6",
          "removed": false
        },
        {
          "address": "0x8487B23e891F2502c8f3337eD7ad30B23EBd254D",
          "topics": [
            "0x7f26b83ff96e1f2b6a682f133852f6798a09c465da95921460cefb3847402498"
          ],
          "data": "0x0000000000000000000000000000000000000000000000000000000000000001",
          "blockHash": "0x517af72ee55d6edca22623904f3d4982b93b37bdf4aeadb82a526b9c0b2f76cd",
          "blockNumber": "0x185bdbd",
          "transactionHash": "0xf9812ea4ff71f6fcf4bbc021ab291c5a5d8ee3d0304129aeacb78d5c7523caeb",
          "transactionIndex": "0x2",
          "logIndex": "0x7",
          "removed": false
        }
      ],
      "status": "0x1",
      "logsBloom": "0x00004004000000001000000000000000000000020000000000000000002000200000002000000000000000000000000000000000000080000000000004000000000000000000000000000000000000400000000000000000000000000000004000000000020000000000008000021800000000000000000000000000000000000000040000000000000000000000000000000000000080000000001000000000000000000000000000000000100400000000000000100400001000000000000000000000000000000004000000040000000000400000000100000000000020002040000000000000000000000010000000000000000000000000000000400000",
      "type": "0x0",
      "effectiveGasPrice": "0x5f5e100"
    },
    {
      "transactionHash": "0x5bfec72484d806d246b20e5f4ba89796f307fb24e81cfda0c56ad62c0265245a",
      "transactionIndex": "0x1",
      "blockHash": "0x9fc54738a1e470b3c34580f25489c28c77d9a7d122380cfddcfe1d47e6afd3be",
      "blockNumber": "0x185bdc0",
      "from": "0x4015B6569369af4F17CD2DA9e2F5e14A5Dd162b4",
      "to": "0xfc4e97657823CAF0689ee6506fEc4B24063f7da6",
      "cumulativeGasUsed": "0x3ac08",
      "gasUsed": "0x3ac08",
      "contractAddress": null,
      "logs": [],
      "status": "0x1",
      "logsBloom": "0x00000000000000000000000000000000000000000000000000000000000000000000000000000000000000000000000000000000000000000000000000000000000000000000000000000000000000000000000000000000000000000000000000000000000000000000000000000000000000000000000000000000000000000000000000000000000000000000000000000000000000000000000000000000000000000000000000000000000000000000000000000000000000000000000000000000000000000000000000000000000000000000000000000000000000000000000000000000000000000000000000000000000000000000000000000000",
      "type": "0x0",
      "effectiveGasPrice": "0x5f5e100"
    },
    {
      "transactionHash": "0x955450745eea081f9021081729c730c7f1e9913798a564aad0e8f6042a33ad6c",
      "transactionIndex": "0x1",
      "blockHash": "0x2582a2ed303b382e6d2f09de5fd632b9d2ea883273e45ba139f2d0463cd2139f",
      "blockNumber": "0x185bdc3",
      "from": "0x4015B6569369af4F17CD2DA9e2F5e14A5Dd162b4",
      "to": "0xfc4e97657823CAF0689ee6506fEc4B24063f7da6",
      "cumulativeGasUsed": "0x5043b",
      "gasUsed": "0x5043b",
      "contractAddress": null,
      "logs": [],
      "status": "0x1",
      "logsBloom": "0x00000000000000000000000000000000000000000000000000000000000000000000000000000000000000000000000000000000000000000000000000000000000000000000000000000000000000000000000000000000000000000000000000000000000000000000000000000000000000000000000000000000000000000000000000000000000000000000000000000000000000000000000000000000000000000000000000000000000000000000000000000000000000000000000000000000000000000000000000000000000000000000000000000000000000000000000000000000000000000000000000000000000000000000000000000000",
      "type": "0x0",
      "effectiveGasPrice": "0x5f5e100"
    },
    {
      "transactionHash": "0x67ba513ca790d12597c0f429cd5b195608b6d8b3677358fabbe248522e2ad81f",
      "transactionIndex": "0x1",
      "blockHash": "0x1861bb1ddd02c36e90ca8cc3851de06a52d5e55e378cd9893e925c7d84df2163",
      "blockNumber": "0x185bdc6",
      "from": "0x4015B6569369af4F17CD2DA9e2F5e14A5Dd162b4",
      "to": "0xfc4e97657823CAF0689ee6506fEc4B24063f7da6",
      "cumulativeGasUsed": "0x51884",
      "gasUsed": "0x51884",
      "contractAddress": null,
      "logs": [],
      "status": "0x1",
      "logsBloom": "0x00000000000000000000000000000000000000000000000000000000000000000000000000000000000000000000000000000000000000000000000000000000000000000000000000000000000000000000000000000000000000000000000000000000000000000000000000000000000000000000000000000000000000000000000000000000000000000000000000000000000000000000000000000000000000000000000000000000000000000000000000000000000000000000000000000000000000000000000000000000000000000000000000000000000000000000000000000000000000000000000000000000000000000000000000000000",
      "type": "0x0",
      "effectiveGasPrice": "0x5f5e100"
    }
  ],
  "libraries": [],
  "pending": [],
  "returns": {},
  "timestamp": 1711050608,
  "chain": 421614,
  "commit": "0aea9ec"
}