{
  "transactions": [
    {
      "hash": "0x4c0ac205a2c73bc1434f0009941b1fed2cc50e476821e917ae4a55e1412944d8",
      "transactionType": "CALL",
      "contractName": null,
      "contractAddress": "0xED16f52959b21CC138DEeA8889Fba13841BFba75",
      "function": "deployBankroll(address,uint256,uint256,bytes32)",
      "arguments": [
        "0xc6ADeA8722C2DB1EFF810f429C3C09BA00E1F25C",
        "8000",
        "5000",
        "0x3078300000000000000000000000000000000000000000000000000000000000"
      ],
      "transaction": {
        "type": "0x00",
        "from": "0x4015b6569369af4f17cd2da9e2f5e14a5dd162b4",
        "to": "0xed16f52959b21cc138deea8889fba13841bfba75",
        "gas": "0xbecf8",
        "value": "0x0",
        "data": "0x14dd160e000000000000000000000000c6adea8722c2db1eff810f429c3c09ba00e1f25c0000000000000000000000000000000000000000000000000000000000001f4000000000000000000000000000000000000000000000000000000000000013883078300000000000000000000000000000000000000000000000000000000000",
        "nonce": "0x73"
      },
      "additionalContracts": [
        {
          "transactionType": "CREATE2",
          "address": "0x242f2d72f6B9F534B6182d911e719b7be7a81861",
          "initCode": "0x3d602d80600a3d3981f3363d3d373d3d3d363d734fa81d1ee764f5e6e33735b43bbfc179275317175af43d82803e903d91602b57fd5bf3"
        }
      ],
      "isFixedGasLimit": false
    },
    {
      "hash": "0x5bdb19bc48a8cfae5245819eebda9a1fe1e4addeeefb068d6cb0daefb68b0f6b",
      "transactionType": "CALL",
      "contractName": null,
      "contractAddress": "0xa99F38851444a3728f7F7D702169AFD4e87a6C3C",
      "function": "addOperator(address)",
      "arguments": [
        "0x312BA46064e1fe5904362BfB0C52c38F20d3Ef44"
      ],
      "transaction": {
        "type": "0x00",
        "from": "0x4015b6569369af4f17cd2da9e2f5e14a5dd162b4",
        "to": "0xa99f38851444a3728f7f7d702169afd4e87a6c3c",
        "gas": "0x2bc7c",
        "value": "0x0",
        "data": "0x9870d7fe000000000000000000000000312ba46064e1fe5904362bfb0c52c38f20d3ef44",
        "nonce": "0x74"
      },
      "additionalContracts": [],
      "isFixedGasLimit": false
    },
    {
      "hash": "0x60e3533de3c9144ed165fe345b490a1dad2074b15e7823538f143a4bfb41f5a8",
      "transactionType": "CALL",
      "contractName": null,
      "contractAddress": "0xa99F38851444a3728f7F7D702169AFD4e87a6C3C",
      "function": "approveBankroll(address,uint256)",
      "arguments": [
        "0x242f2d72f6B9F534B6182d911e719b7be7a81861",
        "650"
      ],
      "transaction": {
        "type": "0x00",
        "from": "0x4015b6569369af4f17cd2da9e2f5e14a5dd162b4",
        "to": "0xa99f38851444a3728f7f7d702169afd4e87a6c3c",
        "gas": "0x1f8de",
        "value": "0x0",
        "data": "0x9756e8df000000000000000000000000242f2d72f6b9f534b6182d911e719b7be7a81861000000000000000000000000000000000000000000000000000000000000028a",
        "nonce": "0x75"
      },
      "additionalContracts": [],
      "isFixedGasLimit": false
    },
    {
      "hash": "0xdd3e0aee50720bc32285ffdb82da56786b3b65560b8cb2ae49cacf2820c16dfe",
      "transactionType": "CALL",
      "contractName": null,
      "contractAddress": "0xa99F38851444a3728f7F7D702169AFD4e87a6C3C",
      "function": "setOperatorToBankroll(address,address)",
      "arguments": [
        "0x242f2d72f6B9F534B6182d911e719b7be7a81861",
        "0x312BA46064e1fe5904362BfB0C52c38F20d3Ef44"
      ],
      "transaction": {
        "type": "0x00",
        "from": "0x4015b6569369af4f17cd2da9e2f5e14a5dd162b4",
        "to": "0xa99f38851444a3728f7f7d702169afd4e87a6c3c",
        "gas": "0x214e2",
        "value": "0x0",
        "data": "0xcb233b0a000000000000000000000000242f2d72f6b9f534b6182d911e719b7be7a81861000000000000000000000000312ba46064e1fe5904362bfb0c52c38f20d3ef44",
        "nonce": "0x76"
      },
      "additionalContracts": [],
      "isFixedGasLimit": false
    },
    {
      "hash": "0x432a8b5367101dc52bf5ab33ad6f714e50986b2ae1c0a18dc8cd5d0903b12ead",
      "transactionType": "CALL",
      "contractName": null,
      "contractAddress": "0x242f2d72f6B9F534B6182d911e719b7be7a81861",
      "function": "maxContractsApprove()",
      "arguments": [],
      "transaction": {
        "type": "0x00",
        "from": "0x8d76db34ccca356fa805f5a277efff53aac5af88",
        "to": "0x242f2d72f6b9f534b6182d911e719b7be7a81861",
        "gas": "0x226f0",
        "value": "0x0",
        "data": "0xcbb3b225",
        "nonce": "0x2f"
      },
      "additionalContracts": [],
      "isFixedGasLimit": false
    }
  ],
  "receipts": [
    {
      "transactionHash": "0x4c0ac205a2c73bc1434f0009941b1fed2cc50e476821e917ae4a55e1412944d8",
      "transactionIndex": "0x3",
      "blockHash": "0xc9e02d4e4d31138efeb1afca48a2cbd7c6d857cfb26323663ae4c555832711e9",
      "blockNumber": "0x188a32b",
      "from": "0x4015B6569369af4F17CD2DA9e2F5e14A5Dd162b4",
      "to": "0xED16f52959b21CC138DEeA8889Fba13841BFba75",
      "cumulativeGasUsed": "0x10b2cf",
      "gasUsed": "0x87f34",
      "contractAddress": null,
      "logs": [
        {
          "address": "0x242f2d72f6B9F534B6182d911e719b7be7a81861",
          "topics": [
            "0x2f8788117e7eff1d82e926ec794901d17c78024a50270940304540a733656f0d",
            "0x0000000000000000000000000000000000000000000000000000000000000000",
            "0x0000000000000000000000001d424382e8e09cc6f8425c9f32d2c695e7698db7",
            "0x000000000000000000000000ed16f52959b21cc138deea8889fba13841bfba75"
          ],
          "data": "0x",
          "blockHash": "0xc9e02d4e4d31138efeb1afca48a2cbd7c6d857cfb26323663ae4c555832711e9",
          "blockNumber": "0x188a32b",
          "transactionHash": "0x4c0ac205a2c73bc1434f0009941b1fed2cc50e476821e917ae4a55e1412944d8",
          "transactionIndex": "0x3",
          "logIndex": "0x6",
          "removed": false
        },
        {
          "address": "0x242f2d72f6B9F534B6182d911e719b7be7a81861",
          "topics": [
            "0x2f8788117e7eff1d82e926ec794901d17c78024a50270940304540a733656f0d",
            "0xdf8b4c520ffe197c5343c6f5aec59570151ef9a492f2c624fd45ddde6135ec42",
            "0x000000000000000000000000a66271c90e344c6be44c3ece3856ed9976136ff5",
            "0x000000000000000000000000ed16f52959b21cc138deea8889fba13841bfba75"
          ],
          "data": "0x",
          "blockHash": "0xc9e02d4e4d31138efeb1afca48a2cbd7c6d857cfb26323663ae4c555832711e9",
          "blockNumber": "0x188a32b",
          "transactionHash": "0x4c0ac205a2c73bc1434f0009941b1fed2cc50e476821e917ae4a55e1412944d8",
          "transactionIndex": "0x3",
          "logIndex": "0x7",
          "removed": false
        },
        {
          "address": "0x242f2d72f6B9F534B6182d911e719b7be7a81861",
          "topics": [
            "0x2f8788117e7eff1d82e926ec794901d17c78024a50270940304540a733656f0d",
            "0xdf8b4c520ffe197c5343c6f5aec59570151ef9a492f2c624fd45ddde6135ec42",
            "0x0000000000000000000000008d76db34ccca356fa805f5a277efff53aac5af88",
            "0x000000000000000000000000ed16f52959b21cc138deea8889fba13841bfba75"
          ],
          "data": "0x",
          "blockHash": "0xc9e02d4e4d31138efeb1afca48a2cbd7c6d857cfb26323663ae4c555832711e9",
          "blockNumber": "0x188a32b",
          "transactionHash": "0x4c0ac205a2c73bc1434f0009941b1fed2cc50e476821e917ae4a55e1412944d8",
          "transactionIndex": "0x3",
          "logIndex": "0x8",
          "removed": false
        },
        {
          "address": "0x242f2d72f6B9F534B6182d911e719b7be7a81861",
          "topics": [
            "0x2f8788117e7eff1d82e926ec794901d17c78024a50270940304540a733656f0d",
            "0x48a7db58bc0d0016705458e918f4ea84477e4f4c43c6d240db04e4db985c2082",
            "0x000000000000000000000000a99f38851444a3728f7f7d702169afd4e87a6c3c",
            "0x000000000000000000000000ed16f52959b21cc138deea8889fba13841bfba75"
          ],
          "data": "0x",
          "blockHash": "0xc9e02d4e4d31138efeb1afca48a2cbd7c6d857cfb26323663ae4c555832711e9",
          "blockNumber": "0x188a32b",
          "transactionHash": "0x4c0ac205a2c73bc1434f0009941b1fed2cc50e476821e917ae4a55e1412944d8",
          "transactionIndex": "0x3",
          "logIndex": "0x9",
          "removed": false
        },
        {
          "address": "0x242f2d72f6B9F534B6182d911e719b7be7a81861",
          "topics": [
            "0x7f26b83ff96e1f2b6a682f133852f6798a09c465da95921460cefb3847402498"
          ],
          "data": "0x0000000000000000000000000000000000000000000000000000000000000001",
          "blockHash": "0xc9e02d4e4d31138efeb1afca48a2cbd7c6d857cfb26323663ae4c555832711e9",
          "blockNumber": "0x188a32b",
          "transactionHash": "0x4c0ac205a2c73bc1434f0009941b1fed2cc50e476821e917ae4a55e1412944d8",
          "transactionIndex": "0x3",
          "logIndex": "0xa",
          "removed": false
        }
      ],
      "status": "0x1",
      "logsBloom": "0x0000400400000000000000000000000000002000000100000000000000000020000000000000000000020000000000000000800000008000000000000400000000000008000000000000000000000000000000000000000000000000000000000000000002000000000000a080020800000000000000000000000000000000000000040000000000010000000010000000000000000080000000000000000000000000000000000000000000100400000000000000000400011000000000000000000000000000000024000000040000000000000000000100000000000020002000000000000000000000000000000000000000000000000000000000400000",
      "type": "0x0",
      "effectiveGasPrice": "0x5f5e100"
    },
    {
      "transactionHash": "0x5bdb19bc48a8cfae5245819eebda9a1fe1e4addeeefb068d6cb0daefb68b0f6b",
      "transactionIndex": "0x2",
      "blockHash": "0x5748b3f52886b2294ab1789974ea87a4ad83f0ae062d3e54876db64fa46f3bde",
      "blockNumber": "0x188a32e",
      "from": "0x4015B6569369af4F17CD2DA9e2F5e14A5Dd162b4",
      "to": "0xa99F38851444a3728f7F7D702169AFD4e87a6C3C",
      "cumulativeGasUsed": "0x58a82",
      "gasUsed": "0x1a33e",
      "contractAddress": null,
      "logs": [],
      "status": "0x1",
      "logsBloom": "0x00000000000000000000000000000000000000000000000000000000000000000000000000000000000000000000000000000000000000000000000000000000000000000000000000000000000000000000000000000000000000000000000000000000000000000000000000000000000000000000000000000000000000000000000000000000000000000000000000000000000000000000000000000000000000000000000000000000000000000000000000000000000000000000000000000000000000000000000000000000000000000000000000000000000000000000000000000000000000000000000000000000000000000000000000000000",
      "type": "0x0",
      "effectiveGasPrice": "0x5f5e100"
    },
    {
      "transactionHash": "0x60e3533de3c9144ed165fe345b490a1dad2074b15e7823538f143a4bfb41f5a8",
      "transactionIndex": "0x1",
      "blockHash": "0x1d5dae15f7dcd48d2b014ac48f2ef7e33353a0a7b9bacbd8b243a7d6032674d6",
      "blockNumber": "0x188a331",
      "from": "0x4015B6569369af4F17CD2DA9e2F5e14A5Dd162b4",
      "to": "0xa99F38851444a3728f7F7D702169AFD4e87a6C3C",
      "cumulativeGasUsed": "0x2e458",
      "gasUsed": "0x2e458",
      "contractAddress": null,
      "logs": [],
      "status": "0x1",
      "logsBloom": "0x00000000000000000000000000000000000000000000000000000000000000000000000000000000000000000000000000000000000000000000000000000000000000000000000000000000000000000000000000000000000000000000000000000000000000000000000000000000000000000000000000000000000000000000000000000000000000000000000000000000000000000000000000000000000000000000000000000000000000000000000000000000000000000000000000000000000000000000000000000000000000000000000000000000000000000000000000000000000000000000000000000000000000000000000000000000",
      "type": "0x0",
      "effectiveGasPrice": "0x5f5e100"
    },
    {
      "transactionHash": "0xdd3e0aee50720bc32285ffdb82da56786b3b65560b8cb2ae49cacf2820c16dfe",
      "transactionIndex": "0x1",
      "blockHash": "0xaa5bca8516f7d4d784450d2b57431a1faa9c80d62bae26a7e977a6529cc6cd58",
      "blockNumber": "0x188a335",
      "from": "0x4015B6569369af4F17CD2DA9e2F5e14A5Dd162b4",
      "to": "0xa99F38851444a3728f7F7D702169AFD4e87a6C3C",
      "cumulativeGasUsed": "0x2f8a1",
      "gasUsed": "0x2f8a1",
      "contractAddress": null,
      "logs": [],
      "status": "0x1",
      "logsBloom": "0x00000000000000000000000000000000000000000000000000000000000000000000000000000000000000000000000000000000000000000000000000000000000000000000000000000000000000000000000000000000000000000000000000000000000000000000000000000000000000000000000000000000000000000000000000000000000000000000000000000000000000000000000000000000000000000000000000000000000000000000000000000000000000000000000000000000000000000000000000000000000000000000000000000000000000000000000000000000000000000000000000000000000000000000000000000000",
      "type": "0x0",
      "effectiveGasPrice": "0x5f5e100"
    },
    {
      "transactionHash": "0x432a8b5367101dc52bf5ab33ad6f714e50986b2ae1c0a18dc8cd5d0903b12ead",
      "transactionIndex": "0x1",
      "blockHash": "0x21715474d990857bf0b8b6402a9633b4e2d03ab611ec5e324fd89c2bc579d39f",
      "blockNumber": "0x188a337",
      "from": "0x8d76dB34CcCA356fA805f5A277EFFf53aaC5af88",
      "to": "0x242f2d72f6B9F534B6182d911e719b7be7a81861",
      "cumulativeGasUsed": "0x242a5",
      "gasUsed": "0x242a5",
      "contractAddress": null,
      "logs": [
        {
          "address": "0xc6ADeA8722C2DB1EFF810f429C3C09BA00E1F25C",
          "topics": [
            "0x8c5be1e5ebec7d5bd14f71427d1e84f3dd0314c0f7b2291e5b200ac8c7c3b925",
            "0x000000000000000000000000242f2d72f6b9f534b6182d911e719b7be7a81861",
            "0x000000000000000000000000a99f38851444a3728f7f7d702169afd4e87a6c3c"
          ],
          "data": "0xffffffffffffffffffffffffffffffffffffffffffffffffffffffffffffffff",
          "blockHash": "0x21715474d990857bf0b8b6402a9633b4e2d03ab611ec5e324fd89c2bc579d39f",
          "blockNumber": "0x188a337",
          "transactionHash": "0x432a8b5367101dc52bf5ab33ad6f714e50986b2ae1c0a18dc8cd5d0903b12ead",
          "transactionIndex": "0x1",
          "logIndex": "0x0",
          "removed": false
        },
        {
          "address": "0xc6ADeA8722C2DB1EFF810f429C3C09BA00E1F25C",
          "topics": [
            "0x8c5be1e5ebec7d5bd14f71427d1e84f3dd0314c0f7b2291e5b200ac8c7c3b925",
            "0x000000000000000000000000242f2d72f6b9f534b6182d911e719b7be7a81861",
            "0x000000000000000000000000a66271c90e344c6be44c3ece3856ed9976136ff5"
          ],
          "data": "0xffffffffffffffffffffffffffffffffffffffffffffffffffffffffffffffff",
          "blockHash": "0x21715474d990857bf0b8b6402a9633b4e2d03ab611ec5e324fd89c2bc579d39f",
          "blockNumber": "0x188a337",
          "transactionHash": "0x432a8b5367101dc52bf5ab33ad6f714e50986b2ae1c0a18dc8cd5d0903b12ead",
          "transactionIndex": "0x1",
          "logIndex": "0x1",
          "removed": false
        }
      ],
      "status": "0x1",
      "logsBloom": "0x00000000000000000000000000000000000020000000000000000000000000000000000000000000000200000000000000000000000000000000000000220000000000000000000000000000010000000000000000000000000000000000000100000000000000000000000080000000000000000000000000000000000000000000000000000000000000000010000000000000000000000000000000000000020040000000000000000000000000000000000000000000000000000000000080000000000000000020000000040000000000000000000000000000000000000010000000000000000000000000000200000000000000000000000000000000",
      "type": "0x0",
      "effectiveGasPrice": "0x5f5e100"
    }
  ],
  "libraries": [],
  "pending": [],
  "returns": {},
  "timestamp": 1711102263,
  "chain": 421614,
  "commit": "c0e78ed"
}