{
  "transactions": [
    {
      "hash": "0x21d9647cb7b3f953219f8506edeb3d236e1a42a3d74334fa9a4ad1824767a048",
      "transactionType": "CALL",
      "contractName": null,
      "contractAddress": "0x8c2fb590c91e252391ae9796641a956b9bc519dd",
      "function": "deployBankroll(address,uint256,uint256,bytes32)",
      "arguments": [
        "0xc6ADeA8722C2DB1EFF810f429C3C09BA00E1F25C",
        "8000",
        "5000",
        "0x3078300000000000000000000000000000000000000000000000000000000000"
      ],
      "transaction": {
        "from": "0x4015b6569369af4f17cd2da9e2f5e14a5dd162b4",
        "to": "0x8c2fb590c91e252391ae9796641a956b9bc519dd",
        "gas": "0xa3ed2",
        "value": "0x0",
        "input": "0x14dd160e000000000000000000000000c6adea8722c2db1eff810f429c3c09ba00e1f25c0000000000000000000000000000000000000000000000000000000000001f4000000000000000000000000000000000000000000000000000000000000013883078300000000000000000000000000000000000000000000000000000000000",
        "nonce": "0x93",
        "chainId": "0x66eee",
        "accessList": null,
        "type": null
      },
      "additionalContracts": [
        {
          "transactionType": "CREATE2",
          "address": "0x0555034417990a6f8e57a0b8f5c656e0d6ceef2a",
          "initCode": "0x3d602d80600a3d3981f3363d3d373d3d3d363d73c1d21b91176bb7a248bc36eada8d789d2714b4a35af43d82803e903d91602b57fd5bf3"
        }
      ],
      "isFixedGasLimit": false
    },
    {
      "hash": "0xdedc3faf1c5aa8a896414b8c3a6ec28e7f9aa36950b7bec6ebf7d931f646bc90",
      "transactionType": "CALL",
      "contractName": null,
      "contractAddress": "0xccd4bd4baa8059f2e70b97b43354b0519a1a39a0",
      "function": "addOperator(address)",
      "arguments": [
        "0x312BA46064e1fe5904362BfB0C52c38F20d3Ef44"
      ],
      "transaction": {
        "from": "0x4015b6569369af4f17cd2da9e2f5e14a5dd162b4",
        "to": "0xccd4bd4baa8059f2e70b97b43354b0519a1a39a0",
        "gas": "0x11f6a",
        "value": "0x0",
        "input": "0x9870d7fe000000000000000000000000312ba46064e1fe5904362bfb0c52c38f20d3ef44",
        "nonce": "0x94",
        "chainId": "0x66eee",
        "accessList": null,
        "type": null
      },
      "additionalContracts": [],
      "isFixedGasLimit": false
    },
    {
      "hash": "0x5f23618dee8045147a1f3e4e5fa8f6e8a8af9671adee255ec954c4124157faf1",
      "transactionType": "CALL",
      "contractName": null,
      "contractAddress": "0xccd4bd4baa8059f2e70b97b43354b0519a1a39a0",
      "function": "approveBankroll(address,uint256)",
      "arguments": [
        "0x0555034417990A6F8E57A0B8f5C656e0d6ceef2a",
        "650"
      ],
      "transaction": {
        "from": "0x4015b6569369af4f17cd2da9e2f5e14a5dd162b4",
        "to": "0xccd4bd4baa8059f2e70b97b43354b0519a1a39a0",
        "gas": "0x1a7ce",
        "value": "0x0",
        "input": "0x9756e8df0000000000000000000000000555034417990a6f8e57a0b8f5c656e0d6ceef2a000000000000000000000000000000000000000000000000000000000000028a",
        "nonce": "0x95",
        "chainId": "0x66eee",
        "accessList": null,
        "type": null
      },
      "additionalContracts": [],
      "isFixedGasLimit": false
    },
    {
      "hash": "0x7f4757d2feeecf1e633522908aa16441c08b47417bf15932c851466ecfabf73c",
      "transactionType": "CALL",
      "contractName": null,
      "contractAddress": "0xccd4bd4baa8059f2e70b97b43354b0519a1a39a0",
      "function": "setOperatorToBankroll(address,address)",
      "arguments": [
        "0x0555034417990A6F8E57A0B8f5C656e0d6ceef2a",
        "0x312BA46064e1fe5904362BfB0C52c38F20d3Ef44"
      ],
      "transaction": {
        "from": "0x4015b6569369af4f17cd2da9e2f5e14a5dd162b4",
        "to": "0xccd4bd4baa8059f2e70b97b43354b0519a1a39a0",
        "gas": "0x25d08",
        "value": "0x0",
        "input": "0xcb233b0a0000000000000000000000000555034417990a6f8e57a0b8f5c656e0d6ceef2a000000000000000000000000312ba46064e1fe5904362bfb0c52c38f20d3ef44",
        "nonce": "0x96",
        "chainId": "0x66eee",
        "accessList": null,
        "type": null
      },
      "additionalContracts": [],
      "isFixedGasLimit": false
    },
    {
      "hash": "0xe7943aea9d2e5024749b91ef5dc851c66bd9c06eb762d1d3e61908e2b31a6acd",
      "transactionType": "CALL",
      "contractName": null,
      "contractAddress": "0x0555034417990a6f8e57a0b8f5c656e0d6ceef2a",
      "function": "maxContractsApprove()",
      "arguments": [],
      "transaction": {
        "from": "0x8d76db34ccca356fa805f5a277efff53aac5af88",
        "to": "0x0555034417990a6f8e57a0b8f5c656e0d6ceef2a",
        "gas": "0x6af7",
        "value": "0x0",
        "input": "0xcbb3b225",
        "nonce": "0x49",
        "chainId": "0x66eee",
        "accessList": null,
        "type": null
      },
      "additionalContracts": [],
      "isFixedGasLimit": false
    }
  ],
  "receipts": [
    {
      "status": "0x1",
      "cumulativeGasUsed": "0x7c3f3",
      "logs": [
        {
          "address": "0x0555034417990a6f8e57a0b8f5c656e0d6ceef2a",
          "topics": [
            "0x2f8788117e7eff1d82e926ec794901d17c78024a50270940304540a733656f0d",
            "0x0000000000000000000000000000000000000000000000000000000000000000",
            "0x0000000000000000000000001d424382e8e09cc6f8425c9f32d2c695e7698db7",
            "0x0000000000000000000000008c2fb590c91e252391ae9796641a956b9bc519dd"
          ],
          "data": "0x",
          "blockHash": "0xf542514c108c12673a488470fdb6b038bb739785abf98e0060750e8be08d2f79",
          "blockNumber": "0x2058a8b",
          "transactionHash": "0x21d9647cb7b3f953219f8506edeb3d236e1a42a3d74334fa9a4ad1824767a048",
          "transactionIndex": "0x1",
          "logIndex": "0x0",
          "removed": false
        },
        {
          "address": "0x0555034417990a6f8e57a0b8f5c656e0d6ceef2a",
          "topics": [
            "0x2f8788117e7eff1d82e926ec794901d17c78024a50270940304540a733656f0d",
            "0xdf8b4c520ffe197c5343c6f5aec59570151ef9a492f2c624fd45ddde6135ec42",
            "0x000000000000000000000000ebeaca3067eded4718c648b848c68642ea780061",
            "0x0000000000000000000000008c2fb590c91e252391ae9796641a956b9bc519dd"
          ],
          "data": "0x",
          "blockHash": "0xf542514c108c12673a488470fdb6b038bb739785abf98e0060750e8be08d2f79",
          "blockNumber": "0x2058a8b",
          "transactionHash": "0x21d9647cb7b3f953219f8506edeb3d236e1a42a3d74334fa9a4ad1824767a048",
          "transactionIndex": "0x1",
          "logIndex": "0x1",
          "removed": false
        },
        {
          "address": "0x0555034417990a6f8e57a0b8f5c656e0d6ceef2a",
          "topics": [
            "0x2f8788117e7eff1d82e926ec794901d17c78024a50270940304540a733656f0d",
            "0xdf8b4c520ffe197c5343c6f5aec59570151ef9a492f2c624fd45ddde6135ec42",
            "0x0000000000000000000000008d76db34ccca356fa805f5a277efff53aac5af88",
            "0x0000000000000000000000008c2fb590c91e252391ae9796641a956b9bc519dd"
          ],
          "data": "0x",
          "blockHash": "0xf542514c108c12673a488470fdb6b038bb739785abf98e0060750e8be08d2f79",
          "blockNumber": "0x2058a8b",
          "transactionHash": "0x21d9647cb7b3f953219f8506edeb3d236e1a42a3d74334fa9a4ad1824767a048",
          "transactionIndex": "0x1",
          "logIndex": "0x2",
          "removed": false
        },
        {
          "address": "0x0555034417990a6f8e57a0b8f5c656e0d6ceef2a",
          "topics": [
            "0x2f8788117e7eff1d82e926ec794901d17c78024a50270940304540a733656f0d",
            "0x48a7db58bc0d0016705458e918f4ea84477e4f4c43c6d240db04e4db985c2082",
            "0x000000000000000000000000ccd4bd4baa8059f2e70b97b43354b0519a1a39a0",
            "0x0000000000000000000000008c2fb590c91e252391ae9796641a956b9bc519dd"
          ],
          "data": "0x",
          "blockHash": "0xf542514c108c12673a488470fdb6b038bb739785abf98e0060750e8be08d2f79",
          "blockNumber": "0x2058a8b",
          "transactionHash": "0x21d9647cb7b3f953219f8506edeb3d236e1a42a3d74334fa9a4ad1824767a048",
          "transactionIndex": "0x1",
          "logIndex": "0x3",
          "removed": false
        },
        {
          "address": "0x0555034417990a6f8e57a0b8f5c656e0d6ceef2a",
          "topics": [
            "0x7f26b83ff96e1f2b6a682f133852f6798a09c465da95921460cefb3847402498"
          ],
          "data": "0x0000000000000000000000000000000000000000000000000000000000000001",
          "blockHash": "0xf542514c108c12673a488470fdb6b038bb739785abf98e0060750e8be08d2f79",
          "blockNumber": "0x2058a8b",
          "transactionHash": "0x21d9647cb7b3f953219f8506edeb3d236e1a42a3d74334fa9a4ad1824767a048",
          "transactionIndex": "0x1",
          "logIndex": "0x4",
          "removed": false
        }
      ],
      "logsBloom": "0x00004004000000000000000000000000800800000000000000000010000000200000000000000000000000000000008000000000000080000010080004000000000000000000000000000000000000000000000000000000000000000000000000000000020000000000008000020800000000000000000000000000000000000000040000000000000000000800000000000000000080000000008000000000000000000000000000000000100400000000000000000400001000000000000000000000000000000004000000040000000000000000000120000000000020002000000000100000000004000000000000000000000000000000000000400000",
      "type": "0x0",
      "transactionHash": "0x21d9647cb7b3f953219f8506edeb3d236e1a42a3d74334fa9a4ad1824767a048",
      "transactionIndex": "0x1",
      "blockHash": "0xf542514c108c12673a488470fdb6b038bb739785abf98e0060750e8be08d2f79",
      "blockNumber": "0x2058a8b",
      "gasUsed": "0x7c3f3",
      "effectiveGasPrice": "0x47eb6850",
      "from": "0x4015b6569369af4f17cd2da9e2f5e14a5dd162b4",
      "to": "0x8c2fb590c91e252391ae9796641a956b9bc519dd",
      "contractAddress": null,
      "gasUsedForL1": "0x0",
      "l1BlockNumber": "0x57077b"
    },
    {
      "status": "0x1",
      "cumulativeGasUsed": "0x1f095a",
      "logs": [],
      "logsBloom": "0x00000000000000000000000000000000000000000000000000000000000000000000000000000000000000000000000000000000000000000000000000000000000000000000000000000000000000000000000000000000000000000000000000000000000000000000000000000000000000000000000000000000000000000000000000000000000000000000000000000000000000000000000000000000000000000000000000000000000000000000000000000000000000000000000000000000000000000000000000000000000000000000000000000000000000000000000000000000000000000000000000000000000000000000000000000000",
      "type": "0x0",
      "transactionHash": "0xdedc3faf1c5aa8a896414b8c3a6ec28e7f9aa36950b7bec6ebf7d931f646bc90",
      "transactionIndex": "0x3",
      "blockHash": "0x47df34a28def2320b0ec588c435e01562ac5fff5c7a45a1c13186015b4a16bdd",
      "blockNumber": "0x2058a8d",
      "gasUsed": "0xdb87",
      "effectiveGasPrice": "0x47958020",
      "from": "0x4015b6569369af4f17cd2da9e2f5e14a5dd162b4",
      "to": "0xccd4bd4baa8059f2e70b97b43354b0519a1a39a0",
      "contractAddress": null,
      "gasUsedForL1": "0x0",
      "l1BlockNumber": "0x57077b"
    },
    {
      "status": "0x1",
      "cumulativeGasUsed": "0x2b2174",
      "logs": [],
      "logsBloom": "0x00000000000000000000000000000000000000000000000000000000000000000000000000000000000000000000000000000000000000000000000000000000000000000000000000000000000000000000000000000000000000000000000000000000000000000000000000000000000000000000000000000000000000000000000000000000000000000000000000000000000000000000000000000000000000000000000000000000000000000000000000000000000000000000000000000000000000000000000000000000000000000000000000000000000000000000000000000000000000000000000000000000000000000000000000000000",
      "type": "0x0",
      "transactionHash": "0x5f23618dee8045147a1f3e4e5fa8f6e8a8af9671adee255ec954c4124157faf1",
      "transactionIndex": "0x5",
      "blockHash": "0x327e3683c855f3dbddc3633794b6f166e5f16d9038a2d1734c036c97903cc16b",
      "blockNumber": "0x2058a8f",
      "gasUsed": "0x132d4",
      "effectiveGasPrice": "0x47c4f490",
      "from": "0x4015b6569369af4f17cd2da9e2f5e14a5dd162b4",
      "to": "0xccd4bd4baa8059f2e70b97b43354b0519a1a39a0",
      "contractAddress": null,
      "gasUsedForL1": "0x0",
      "l1BlockNumber": "0x57077b"
    },
    {
      "status": "0x1",
      "cumulativeGasUsed": "0xa337a",
      "logs": [],
      "logsBloom": "0x00000000000000000000000000000000000000000000000000000000000000000000000000000000000000000000000000000000000000000000000000000000000000000000000000000000000000000000000000000000000000000000000000000000000000000000000000000000000000000000000000000000000000000000000000000000000000000000000000000000000000000000000000000000000000000000000000000000000000000000000000000000000000000000000000000000000000000000000000000000000000000000000000000000000000000000000000000000000000000000000000000000000000000000000000000000",
      "type": "0x0",
      "transactionHash": "0x7f4757d2feeecf1e633522908aa16441c08b47417bf15932c851466ecfabf73c",
      "transactionIndex": "0x2",
      "blockHash": "0xea7c6e1ac3fa99eb2b2eefe28f001832125fba5119a301275228545821b3b3f2",
      "blockNumber": "0x2058a91",
      "gasUsed": "0x19db3",
      "effectiveGasPrice": "0x4799c5e0",
      "from": "0x4015b6569369af4f17cd2da9e2f5e14a5dd162b4",
      "to": "0xccd4bd4baa8059f2e70b97b43354b0519a1a39a0",
      "contractAddress": null,
      "gasUsedForL1": "0x0",
      "l1BlockNumber": "0x57077b"
    },
    {
      "status": "0x1",
      "cumulativeGasUsed": "0x154b1",
      "logs": [
        {
          "address": "0xc6adea8722c2db1eff810f429c3c09ba00e1f25c",
          "topics": [
            "0x8c5be1e5ebec7d5bd14f71427d1e84f3dd0314c0f7b2291e5b200ac8c7c3b925",
            "0x0000000000000000000000000555034417990a6f8e57a0b8f5c656e0d6ceef2a",
            "0x000000000000000000000000ccd4bd4baa8059f2e70b97b43354b0519a1a39a0"
          ],
          "data": "0xffffffffffffffffffffffffffffffffffffffffffffffffffffffffffffffff",
          "blockHash": "0xe9ec9d60f5a183d12fbdbc1c91c9004d7551ba15e095bfaacfebe8689a1b7877",
          "blockNumber": "0x2058a94",
          "transactionHash": "0xe7943aea9d2e5024749b91ef5dc851c66bd9c06eb762d1d3e61908e2b31a6acd",
          "transactionIndex": "0x1",
          "logIndex": "0x0",
          "removed": false
        },
        {
          "address": "0xc6adea8722c2db1eff810f429c3c09ba00e1f25c",
          "topics": [
            "0x8c5be1e5ebec7d5bd14f71427d1e84f3dd0314c0f7b2291e5b200ac8c7c3b925",
            "0x0000000000000000000000000555034417990a6f8e57a0b8f5c656e0d6ceef2a",
            "0x000000000000000000000000ebeaca3067eded4718c648b848c68642ea780061"
          ],
          "data": "0xffffffffffffffffffffffffffffffffffffffffffffffffffffffffffffffff",
          "blockHash": "0xe9ec9d60f5a183d12fbdbc1c91c9004d7551ba15e095bfaacfebe8689a1b7877",
          "blockNumber": "0x2058a94",
          "transactionHash": "0xe7943aea9d2e5024749b91ef5dc851c66bd9c06eb762d1d3e61908e2b31a6acd",
          "transactionIndex": "0x1",
          "logIndex": "0x1",
          "removed": false
        }
      ],
      "logsBloom": "0x00000000000000000000000000000000000000000000000000000000000000000000000000000000000000000000008000000000000000000000080000200000000000000000000000000000000000020000000000000000000000000000000000000800000000000000000040000000000000000000000000000000000000000000000000000000000000000000000000000000000000000000000000000000020040000000000000000000000000000000000000000000000000000000000080000000000000000000000000040000000000000000000020000000000000000010000000100000000004000000000200000000000000000000000000000000",
      "type": "0x0",
      "transactionHash": "0xe7943aea9d2e5024749b91ef5dc851c66bd9c06eb762d1d3e61908e2b31a6acd",
      "transactionIndex": "0x1",
      "blockHash": "0xe9ec9d60f5a183d12fbdbc1c91c9004d7551ba15e095bfaacfebe8689a1b7877",
      "blockNumber": "0x2058a94",
      "gasUsed": "0x154b1",
      "effectiveGasPrice": "0x47fc3130",
      "from": "0x8d76db34ccca356fa805f5a277efff53aac5af88",
      "to": "0x0555034417990a6f8e57a0b8f5c656e0d6ceef2a",
      "contractAddress": null,
      "gasUsedForL1": "0x0",
      "l1BlockNumber": "0x57077b"
    }
  ],
  "libraries": [],
  "pending": [],
  "returns": {},
  "timestamp": 1713184952,
  "chain": 421614,
  "commit": "94125ce"
}