{
  "transactions": [
    {
      "hash": "0x0d644c80aa8501ea21c6fa63c6479f9b28bccde533f5174c40d35cd26c7d5f09",
      "transactionType": "CALL",
      "contractName": null,
      "contractAddress": "0x09a40dbb12cA3E06e92F75b21FdBd4994728947D",
      "function": "deployBankroll(address,uint256,uint256,bytes32)",
      "arguments": [
        "0xc6ADeA8722C2DB1EFF810f429C3C09BA00E1F25C",
        "10000",
        "10000",
        "0x3078310000000000000000000000000000000000000000000000000000000000"
      ],
      "transaction": {
        "type": "0x00",
        "from": "0x4015b6569369af4f17cd2da9e2f5e14a5dd162b4",
        "to": "0x09a40dbb12ca3e06e92f75b21fdbd4994728947d",
        "gas": "0x160f46",
        "value": "0x0",
        "data": "0x14dd160e000000000000000000000000c6adea8722c2db1eff810f429c3c09ba00e1f25c000000000000000000000000000000000000000000000000000000000000271000000000000000000000000000000000000000000000000000000000000027103078310000000000000000000000000000000000000000000000000000000000",
        "nonce": "0x61"
      },
      "additionalContracts": [
        {
          "transactionType": "CREATE2",
          "address": "0x54bE4777F127019B4E3Fb9E31cf8FAB19287d662",
          "initCode": "0x3d602d80600a3d3981f3363d3d373d3d3d363d73a37ec425f96d9531dd597ec8932df8c484b8eaf25af43d82803e903d91602b57fd5bf3"
        }
      ],
      "isFixedGasLimit": false
    },
    {
      "hash": "0xc6ad2171a42bc624a437ec33522c55ce0d032cd66ea375041e35c269129ca4e1",
      "transactionType": "CALL",
      "contractName": null,
      "contractAddress": "0x343f864EAf4A27706ffD29c6CCf990b2934F1E00",
      "function": "addOperator(address)",
      "arguments": [
        "0x312BA46064e1fe5904362BfB0C52c38F20d3Ef44"
      ],
      "transaction": {
        "type": "0x00",
        "from": "0x4015b6569369af4f17cd2da9e2f5e14a5dd162b4",
        "to": "0x343f864eaf4a27706ffd29c6ccf990b2934f1e00",
        "gas": "0x9332d",
        "value": "0x0",
        "data": "0x9870d7fe000000000000000000000000312ba46064e1fe5904362bfb0c52c38f20d3ef44",
        "nonce": "0x62"
      },
      "additionalContracts": [],
      "isFixedGasLimit": false
    },
    {
      "hash": "0x20adaf3ef453a8b0cc990f42ae14bed88ee05dd8c6bb4502c1d0b7980c79761d",
      "transactionType": "CALL",
      "contractName": null,
      "contractAddress": "0x343f864EAf4A27706ffD29c6CCf990b2934F1E00",
      "function": "approveBankroll(address,uint256)",
      "arguments": [
        "0x54bE4777F127019B4E3Fb9E31cf8FAB19287d662",
        "650"
      ],
      "transaction": {
        "type": "0x00",
        "from": "0x4015b6569369af4f17cd2da9e2f5e14a5dd162b4",
        "to": "0x343f864eaf4a27706ffd29c6ccf990b2934f1e00",
        "gas": "0x1f8de",
        "value": "0x0",
        "data": "0x9756e8df00000000000000000000000054be4777f127019b4e3fb9e31cf8fab19287d662000000000000000000000000000000000000000000000000000000000000028a",
        "nonce": "0x63"
      },
      "additionalContracts": [],
      "isFixedGasLimit": false
    },
    {
      "hash": "0x9f88117de35ed2a516a78a3e89a6e9b72a5f16c5d23b04eb49e463b87a2a1b03",
      "transactionType": "CALL",
      "contractName": null,
      "contractAddress": "0x343f864EAf4A27706ffD29c6CCf990b2934F1E00",
      "function": "setOperatorToBankroll(address,address)",
      "arguments": [
        "0x54bE4777F127019B4E3Fb9E31cf8FAB19287d662",
        "0x312BA46064e1fe5904362BfB0C52c38F20d3Ef44"
      ],
      "transaction": {
        "type": "0x00",
        "from": "0x4015b6569369af4f17cd2da9e2f5e14a5dd162b4",
        "to": "0x343f864eaf4a27706ffd29c6ccf990b2934f1e00",
        "gas": "0x214e2",
        "value": "0x0",
        "data": "0xcb233b0a00000000000000000000000054be4777f127019b4e3fb9e31cf8fab19287d662000000000000000000000000312ba46064e1fe5904362bfb0c52c38f20d3ef44",
        "nonce": "0x64"
      },
      "additionalContracts": [],
      "isFixedGasLimit": false
    }
  ],
  "receipts": [
    {
      "transactionHash": "0x0d644c80aa8501ea21c6fa63c6479f9b28bccde533f5174c40d35cd26c7d5f09",
      "transactionIndex": "0x1",
      "blockHash": "0xbfca9c4d0619c48563256c010bbf9b0564b55d6f2bdbe757f3df1298eacd5e35",
      "blockNumber": "0x185c525",
      "from": "0x4015B6569369af4F17CD2DA9e2F5e14A5Dd162b4",
      "to": "0x09a40dbb12cA3E06e92F75b21FdBd4994728947D",
      "cumulativeGasUsed": "0xed4bc",
      "gasUsed": "0xed4bc",
      "contractAddress": null,
      "logs": [
        {
          "address": "0x54bE4777F127019B4E3Fb9E31cf8FAB19287d662",
          "topics": [
            "0x2f8788117e7eff1d82e926ec794901d17c78024a50270940304540a733656f0d",
            "0x0000000000000000000000000000000000000000000000000000000000000000",
            "0x0000000000000000000000001d424382e8e09cc6f8425c9f32d2c695e7698db7",
            "0x00000000000000000000000009a40dbb12ca3e06e92f75b21fdbd4994728947d"
          ],
          "data": "0x",
          "blockHash": "0xbfca9c4d0619c48563256c010bbf9b0564b55d6f2bdbe757f3df1298eacd5e35",
          "blockNumber": "0x185c525",
          "transactionHash": "0x0d644c80aa8501ea21c6fa63c6479f9b28bccde533f5174c40d35cd26c7d5f09",
          "transactionIndex": "0x1",
          "logIndex": "0x0",
          "removed": false
        },
        {
          "address": "0x54bE4777F127019B4E3Fb9E31cf8FAB19287d662",
          "topics": [
            "0x2f8788117e7eff1d82e926ec794901d17c78024a50270940304540a733656f0d",
            "0xdf8b4c520ffe197c5343c6f5aec59570151ef9a492f2c624fd45ddde6135ec42",
            "0x0000000000000000000000005a44ad2bedb5f4ce6041706acacff8755d7a96d8",
            "0x00000000000000000000000009a40dbb12ca3e06e92f75b21fdbd4994728947d"
          ],
          "data": "0x",
          "blockHash": "0xbfca9c4d0619c48563256c010bbf9b0564b55d6f2bdbe757f3df1298eacd5e35",
          "blockNumber": "0x185c525",
          "transactionHash": "0x0d644c80aa8501ea21c6fa63c6479f9b28bccde533f5174c40d35cd26c7d5f09",
          "transactionIndex": "0x1",
          "logIndex": "0x1",
          "removed": false
        },
        {
          "address": "0x54bE4777F127019B4E3Fb9E31cf8FAB19287d662",
          "topics": [
            "0x2f8788117e7eff1d82e926ec794901d17c78024a50270940304540a733656f0d",
            "0xdf8b4c520ffe197c5343c6f5aec59570151ef9a492f2c624fd45ddde6135ec42",
            "0x0000000000000000000000008d76db34ccca356fa805f5a277efff53aac5af88",
            "0x00000000000000000000000009a40dbb12ca3e06e92f75b21fdbd4994728947d"
          ],
          "data": "0x",
          "blockHash": "0xbfca9c4d0619c48563256c010bbf9b0564b55d6f2bdbe757f3df1298eacd5e35",
          "blockNumber": "0x185c525",
          "transactionHash": "0x0d644c80aa8501ea21c6fa63c6479f9b28bccde533f5174c40d35cd26c7d5f09",
          "transactionIndex": "0x1",
          "logIndex": "0x2",
          "removed": false
        },
        {
          "address": "0x54bE4777F127019B4E3Fb9E31cf8FAB19287d662",
          "topics": [
            "0x2f8788117e7eff1d82e926ec794901d17c78024a50270940304540a733656f0d",
            "0x48a7db58bc0d0016705458e918f4ea84477e4f4c43c6d240db04e4db985c2082",
            "0x000000000000000000000000343f864eaf4a27706ffd29c6ccf990b2934f1e00",
            "0x00000000000000000000000009a40dbb12ca3e06e92f75b21fdbd4994728947d"
          ],
          "data": "0x",
          "blockHash": "0xbfca9c4d0619c48563256c010bbf9b0564b55d6f2bdbe757f3df1298eacd5e35",
          "blockNumber": "0x185c525",
          "transactionHash": "0x0d644c80aa8501ea21c6fa63c6479f9b28bccde533f5174c40d35cd26c7d5f09",
          "transactionIndex": "0x1",
          "logIndex": "0x3",
          "removed": false
        },
        {
          "address": "0x54bE4777F127019B4E3Fb9E31cf8FAB19287d662",
          "topics": [
            "0x7f26b83ff96e1f2b6a682f133852f6798a09c465da95921460cefb3847402498"
          ],
          "data": "0x0000000000000000000000000000000000000000000000000000000000000001",
          "blockHash": "0xbfca9c4d0619c48563256c010bbf9b0564b55d6f2bdbe757f3df1298eacd5e35",
          "blockNumber": "0x185c525",
          "transactionHash": "0x0d644c80aa8501ea21c6fa63c6479f9b28bccde533f5174c40d35cd26c7d5f09",
          "transactionIndex": "0x1",
          "logIndex": "0x4",
          "removed": false
        }
      ],
      "status": "0x1",
      "logsBloom": "0x000040040000000000000000000000000000100000000000000000000000002000000000000000000000000000000000000000000800800000000000040000000000000000000000040000000000000000000800000000000000000002000000000000000200000000000080400a0800000000000000000000000100040000000000040000000000000000000000000000000000000080000000000000000000000000000000000000000000100600000000000000000400001000000000000000008000000000000004000000040000000000000000000100000000000020002000000000000000000000000000000000000000000000040000000000400000",
      "type": "0x0",
      "effectiveGasPrice": "0x5f5e100"
    },
    {
      "transactionHash": "0xc6ad2171a42bc624a437ec33522c55ce0d032cd66ea375041e35c269129ca4e1",
      "transactionIndex": "0x1",
      "blockHash": "0x8b18118a626e8769b2ef571a1e66ae074c59913c42fb5da074a37154cf41011b",
      "blockNumber": "0x185c527",
      "from": "0x4015B6569369af4F17CD2DA9e2F5e14A5Dd162b4",
      "to": "0x343f864EAf4A27706ffD29c6CCf990b2934F1E00",
      "cumulativeGasUsed": "0x563ae",
      "gasUsed": "0x563ae",
      "contractAddress": null,
      "logs": [],
      "status": "0x1",
      "logsBloom": "0x00000000000000000000000000000000000000000000000000000000000000000000000000000000000000000000000000000000000000000000000000000000000000000000000000000000000000000000000000000000000000000000000000000000000000000000000000000000000000000000000000000000000000000000000000000000000000000000000000000000000000000000000000000000000000000000000000000000000000000000000000000000000000000000000000000000000000000000000000000000000000000000000000000000000000000000000000000000000000000000000000000000000000000000000000000000",
      "type": "0x0",
      "effectiveGasPrice": "0x5f5e100"
    },
    {
      "transactionHash": "0x20adaf3ef453a8b0cc990f42ae14bed88ee05dd8c6bb4502c1d0b7980c79761d",
      "transactionIndex": "0x2",
      "blockHash": "0xefe1d0379fcedc5dab68d0399929a49c4794b00a7f5b1d3e861f02139e93d0fe",
      "blockNumber": "0x185c52a",
      "from": "0x4015B6569369af4F17CD2DA9e2F5e14A5Dd162b4",
      "to": "0x343f864EAf4A27706ffD29c6CCf990b2934F1E00",
      "cumulativeGasUsed": "0x13c4d8",
      "gasUsed": "0x71ff0",
      "contractAddress": null,
      "logs": [],
      "status": "0x1",
      "logsBloom": "0x00000000000000000000000000000000000000000000000000000000000000000000000000000000000000000000000000000000000000000000000000000000000000000000000000000000000000000000000000000000000000000000000000000000000000000000000000000000000000000000000000000000000000000000000000000000000000000000000000000000000000000000000000000000000000000000000000000000000000000000000000000000000000000000000000000000000000000000000000000000000000000000000000000000000000000000000000000000000000000000000000000000000000000000000000000000",
      "type": "0x0",
      "effectiveGasPrice": "0x5f5e100"
    },
    {
      "transactionHash": "0x9f88117de35ed2a516a78a3e89a6e9b72a5f16c5d23b04eb49e463b87a2a1b03",
      "transactionIndex": "0x1",
      "blockHash": "0xfab08dbe8a267379b48bfea1485eaabdfd553d814804f52abebb2a2b1924b1ae",
      "blockNumber": "0x185c52d",
      "from": "0x4015B6569369af4F17CD2DA9e2F5e14A5Dd162b4",
      "to": "0x343f864EAf4A27706ffD29c6CCf990b2934F1E00",
      "cumulativeGasUsed": "0x73439",
      "gasUsed": "0x73439",
      "contractAddress": null,
      "logs": [],
      "status": "0x1",
      "logsBloom": "0x00000000000000000000000000000000000000000000000000000000000000000000000000000000000000000000000000000000000000000000000000000000000000000000000000000000000000000000000000000000000000000000000000000000000000000000000000000000000000000000000000000000000000000000000000000000000000000000000000000000000000000000000000000000000000000000000000000000000000000000000000000000000000000000000000000000000000000000000000000000000000000000000000000000000000000000000000000000000000000000000000000000000000000000000000000000",
      "type": "0x0",
      "effectiveGasPrice": "0x5f5e100"
    }
  ],
  "libraries": [],
  "pending": [],
  "returns": {},
  "timestamp": 1711051097,
  "chain": 421614,
  "commit": "0aea9ec"
}