{
  "transactions": [
    {
      "hash": "0x266aaf984c9a382bc91b2afbd17f4e77b06efd71faa19b93bef971863808ee78",
      "transactionType": "CALL",
      "contractName": null,
      "contractAddress": "0xbeed2A87dd796991cAdea33E1dF17Ee7c37e9dA9",
      "function": "deployBankroll(address,uint256,uint256,bytes32)",
      "arguments": [
        "0xc6ADeA8722C2DB1EFF810f429C3C09BA00E1F25C",
        "10000",
        "10000",
        "0x3078300000000000000000000000000000000000000000000000000000000000"
      ],
      "transaction": {
        "type": "0x00",
        "from": "0x4015b6569369af4f17cd2da9e2f5e14a5dd162b4",
        "to": "0xbeed2a87dd796991cadea33e1df17ee7c37e9da9",
        "gas": "0x4bed8",
        "value": "0x0",
        "data": "0x14dd160e000000000000000000000000c6adea8722c2db1eff810f429c3c09ba00e1f25c000000000000000000000000000000000000000000000000000000000000271000000000000000000000000000000000000000000000000000000000000027103078300000000000000000000000000000000000000000000000000000000000",
        "nonce": "0x23"
      },
      "additionalContracts": [
        {
          "transactionType": "CREATE2",
          "address": "0x2B6C6F362d21327b9bD29E9870bCB15BA5a3f5aa",
          "initCode": "0x3d602d80600a3d3981f3363d3d373d3d3d363d735f0d8a3e8e5990cfb23795645e6849b83fc607265af43d82803e903d91602b57fd5bf3"
        }
      ],
      "isFixedGasLimit": false
    },
    {
      "hash": "0xb60a70c0ac4a28cc729b4397b3e4cad26302446cd9d9fdd3abf244ea38b9ae02",
      "transactionType": "CALL",
      "contractName": null,
      "contractAddress": "0xE6e10A8a573f68A24A53DEbCFe6546821a04E6f9",
      "function": "addOperator(address)",
      "arguments": [
        "0x312BA46064e1fe5904362BfB0C52c38F20d3Ef44"
      ],
      "transaction": {
        "type": "0x00",
        "from": "0x4015b6569369af4f17cd2da9e2f5e14a5dd162b4",
        "to": "0xe6e10a8a573f68a24a53debcfe6546821a04e6f9",
        "gas": "0x1ec62",
        "value": "0x0",
        "data": "0x9870d7fe000000000000000000000000312ba46064e1fe5904362bfb0c52c38f20d3ef44",
        "nonce": "0x24"
      },
      "additionalContracts": [],
      "isFixedGasLimit": false
    },
    {
      "hash": "0x4a1d5d3e33d1d90d86bbf8882010b82b9aee71f82c38360a7fc88d40f0b75ec2",
      "transactionType": "CALL",
      "contractName": null,
      "contractAddress": "0xE6e10A8a573f68A24A53DEbCFe6546821a04E6f9",
      "function": "approveBankroll(address,uint256)",
      "arguments": [
        "0x2B6C6F362d21327b9bD29E9870bCB15BA5a3f5aa",
        "0"
      ],
      "transaction": {
        "type": "0x00",
        "from": "0x4015b6569369af4f17cd2da9e2f5e14a5dd162b4",
        "to": "0xe6e10a8a573f68a24a53debcfe6546821a04e6f9",
        "gas": "0x18d5e",
        "value": "0x0",
        "data": "0x9756e8df0000000000000000000000002b6c6f362d21327b9bd29e9870bcb15ba5a3f5aa0000000000000000000000000000000000000000000000000000000000000000",
        "nonce": "0x25"
      },
      "additionalContracts": [],
      "isFixedGasLimit": false
    },
    {
      "hash": "0xad288fd1b224bae1dda5d3c82060a19f4c0049189c3aadc2d54acf5de390ce3d",
      "transactionType": "CALL",
      "contractName": null,
      "contractAddress": "0xE6e10A8a573f68A24A53DEbCFe6546821a04E6f9",
      "function": "setOperatorToBankroll(address,address)",
      "arguments": [
        "0x2B6C6F362d21327b9bD29E9870bCB15BA5a3f5aa",
        "0x312BA46064e1fe5904362BfB0C52c38F20d3Ef44"
      ],
      "transaction": {
        "type": "0x00",
        "from": "0x4015b6569369af4f17cd2da9e2f5e14a5dd162b4",
        "to": "0xe6e10a8a573f68a24a53debcfe6546821a04e6f9",
        "gas": "0x214e2",
        "value": "0x0",
        "data": "0xcb233b0a0000000000000000000000002b6c6f362d21327b9bd29e9870bcb15ba5a3f5aa000000000000000000000000312ba46064e1fe5904362bfb0c52c38f20d3ef44",
        "nonce": "0x26"
      },
      "additionalContracts": [],
      "isFixedGasLimit": false
    }
  ],
  "receipts": [
    {
      "transactionHash": "0x266aaf984c9a382bc91b2afbd17f4e77b06efd71faa19b93bef971863808ee78",
      "transactionIndex": "0x2",
      "blockHash": "0xb76efef65179b2a745c96715e9f94034d3ec454a51b54a6c79d9d539af0859c7",
      "blockNumber": "0x1845f6f",
      "from": "0x4015B6569369af4F17CD2DA9e2F5e14A5Dd162b4",
      "to": "0xbeed2A87dd796991cAdea33E1dF17Ee7c37e9dA9",
      "cumulativeGasUsed": "0x61e05",
      "gasUsed": "0x36237",
      "contractAddress": null,
      "logs": [],
      "status": "0x1",
      "logsBloom": "0x00000000000000000000000000000000000000000000000000000000000000000000000000000000000000000000000000000000000000000000000000000000000000000000000000000000000000000000000000000000000000000000000000000000000000000000000000000000000000000000000000000000000000000000000000000000000000000000000000000000000000000000000000000000000000000000000000000000000000000000000000000000000000000000000000000000000000000000000000000000000000000000000000000000000000000000000000000000000000000000000000000000000000000000000000000000",
      "type": "0x0",
      "effectiveGasPrice": "0x5f5e100"
    },
    {
      "transactionHash": "0xb60a70c0ac4a28cc729b4397b3e4cad26302446cd9d9fdd3abf244ea38b9ae02",
      "transactionIndex": "0x3",
      "blockHash": "0xd230651c717ddd239a6e8b5a01b15286229476fa1adaedcf902f5b09c7e6bff1",
      "blockNumber": "0x1845f72",
      "from": "0x4015B6569369af4F17CD2DA9e2F5e14A5Dd162b4",
      "to": "0xE6e10A8a573f68A24A53DEbCFe6546821a04E6f9",
      "cumulativeGasUsed": "0xe0f35",
      "gasUsed": "0x148dd",
      "contractAddress": null,
      "logs": [],
      "status": "0x1",
      "logsBloom": "0x00000000000000000000000000000000000000000000000000000000000000000000000000000000000000000000000000000000000000000000000000000000000000000000000000000000000000000000000000000000000000000000000000000000000000000000000000000000000000000000000000000000000000000000000000000000000000000000000000000000000000000000000000000000000000000000000000000000000000000000000000000000000000000000000000000000000000000000000000000000000000000000000000000000000000000000000000000000000000000000000000000000000000000000000000000000",
      "type": "0x0",
      "effectiveGasPrice": "0x5f5e100"
    },
    {
      "transactionHash": "0x4a1d5d3e33d1d90d86bbf8882010b82b9aee71f82c38360a7fc88d40f0b75ec2",
      "transactionIndex": "0x4",
      "blockHash": "0x8731b518cd303e4f75e283d45b158769c5f9c82c31eb99486e102d3d98c9ae10",
      "blockNumber": "0x1845f75",
      "from": "0x4015B6569369af4F17CD2DA9e2F5e14A5Dd162b4",
      "to": "0xE6e10A8a573f68A24A53DEbCFe6546821a04E6f9",
      "cumulativeGasUsed": "0x1e0fc6",
      "gasUsed": "0x1c824",
      "contractAddress": null,
      "logs": [],
      "status": "0x1",
      "logsBloom": "0x00000000000000000000000000000000000000000000000000000000000000000000000000000000000000000000000000000000000000000000000000000000000000000000000000000000000000000000000000000000000000000000000000000000000000000000000000000000000000000000000000000000000000000000000000000000000000000000000000000000000000000000000000000000000000000000000000000000000000000000000000000000000000000000000000000000000000000000000000000000000000000000000000000000000000000000000000000000000000000000000000000000000000000000000000000000",
      "type": "0x0",
      "effectiveGasPrice": "0x5f5e100"
    },
    {
      "transactionHash": "0xad288fd1b224bae1dda5d3c82060a19f4c0049189c3aadc2d54acf5de390ce3d",
      "transactionIndex": "0x2",
      "blockHash": "0x0b68eb5dedc6edd2375efe7d81f3041773aa23a64715ebe55b88ed9d92d57893",
      "blockNumber": "0x1845f79",
      "from": "0x4015B6569369af4F17CD2DA9e2F5e14A5Dd162b4",
      "to": "0xE6e10A8a573f68A24A53DEbCFe6546821a04E6f9",
      "cumulativeGasUsed": "0x4088f",
      "gasUsed": "0x22a41",
      "contractAddress": null,
      "logs": [],
      "status": "0x1",
      "logsBloom": "0x00000000000000000000000000000000000000000000000000000000000000000000000000000000000000000000000000000000000000000000000000000000000000000000000000000000000000000000000000000000000000000000000000000000000000000000000000000000000000000000000000000000000000000000000000000000000000000000000000000000000000000000000000000000000000000000000000000000000000000000000000000000000000000000000000000000000000000000000000000000000000000000000000000000000000000000000000000000000000000000000000000000000000000000000000000000",
      "type": "0x0",
      "effectiveGasPrice": "0x5f5e100"
    }
  ],
  "libraries": [],
  "pending": [],
  "returns": {},
  "timestamp": 1711027840,
  "chain": 421614,
  "commit": "543ec4e"
}