{
  "transactions": [
    {
      "hash": "0x8b340e4ddcda45655439ad5f25d33717484c52d051773d9c61a08773196d72e9",
      "transactionType": "CALL",
      "contractName": null,
      "contractAddress": "0x51d77cb2d8a76350d3bb01d01d3e2bdfe9df42cc",
      "function": "deployBankroll(address,uint256,uint256,bytes32)",
      "arguments": [
        "0x4300000000000000000000000000000000000003",
        "8000",
        "1000000000",
        "0x3078300000000000000000000000000000000000000000000000000000000000"
      ],
      "transaction": {
        "from": "0x4015b6569369af4f17cd2da9e2f5e14a5dd162b4",
        "to": "0x51d77cb2d8a76350d3bb01d01d3e2bdfe9df42cc",
        "gas": "0xab8ca",
        "value": "0x0",
        "input": "0x14dd160e00000000000000000000000043000000000000000000000000000000000000030000000000000000000000000000000000000000000000000000000000001f40000000000000000000000000000000000000000000000000000000003b9aca003078300000000000000000000000000000000000000000000000000000000000",
        "nonce": "0x27",
        "chainId": "0x13e31"
      },
      "additionalContracts": [
        {
          "transactionType": "CREATE2",
          "address": "0x95487803c405f7fe30c97b77d190f1cfc9646e3c",
          "initCode": "0x3d602d80600a3d3981f3363d3d373d3d3d363d73da2614e4a44c06f21533d848c5c9445f42641ab25af43d82803e903d91602b57fd5bf3"
        }
      ],
      "isFixedGasLimit": false
    },
    {
      "hash": "0x32fb04c4211c0fddd640a21f1123b17bd9a852ffd3c34fd6f0e5961900c6998e",
      "transactionType": "CALL",
      "contractName": null,
      "contractAddress": "0xb762da363862a319e0a4ab93c3d9dbbc1a3be401",
      "function": "addOperator(address)",
      "arguments": [
        "0x3440E7FC8c60418963373F3664830Ed6791BD4C0"
      ],
      "transaction": {
        "from": "0x4015b6569369af4f17cd2da9e2f5e14a5dd162b4",
        "to": "0xb762da363862a319e0a4ab93c3d9dbbc1a3be401",
        "gas": "0x12f38",
        "value": "0x0",
        "input": "0x9870d7fe0000000000000000000000003440e7fc8c60418963373f3664830ed6791bd4c0",
        "nonce": "0x28",
        "chainId": "0x13e31"
      },
      "additionalContracts": [],
      "isFixedGasLimit": false
    },
    {
      "hash": "0x7ad5d69f681db5b2f3007689fbeed36f8cccee6d9d2620881d88e84df061f56b",
      "transactionType": "CALL",
      "contractName": null,
      "contractAddress": "0xb762da363862a319e0a4ab93c3d9dbbc1a3be401",
      "function": "approveBankroll(address,uint256)",
      "arguments": [
        "0x95487803c405F7fe30c97b77D190f1CFC9646e3C",
        "650"
      ],
      "transaction": {
        "from": "0x4015b6569369af4f17cd2da9e2f5e14a5dd162b4",
        "to": "0xb762da363862a319e0a4ab93c3d9dbbc1a3be401",
        "gas": "0x1a7ce",
        "value": "0x0",
        "input": "0x9756e8df00000000000000000000000095487803c405f7fe30c97b77d190f1cfc9646e3c000000000000000000000000000000000000000000000000000000000000028a",
        "nonce": "0x29",
        "chainId": "0x13e31"
      },
      "additionalContracts": [],
      "isFixedGasLimit": false
    },
    {
      "hash": "0x5c589dbda35709dee7986eaf083012f7a2a80d101759614cd29c37ea624d398e",
      "transactionType": "CALL",
      "contractName": null,
      "contractAddress": "0xb762da363862a319e0a4ab93c3d9dbbc1a3be401",
      "function": "setOperatorToBankroll(address,address)",
      "arguments": [
        "0x95487803c405F7fe30c97b77D190f1CFC9646e3C",
        "0x3440E7FC8c60418963373F3664830Ed6791BD4C0"
      ],
      "transaction": {
        "from": "0x4015b6569369af4f17cd2da9e2f5e14a5dd162b4",
        "to": "0xb762da363862a319e0a4ab93c3d9dbbc1a3be401",
        "gas": "0x25d08",
        "value": "0x0",
        "input": "0xcb233b0a00000000000000000000000095487803c405f7fe30c97b77d190f1cfc9646e3c0000000000000000000000003440e7fc8c60418963373f3664830ed6791bd4c0",
        "nonce": "0x2a",
        "chainId": "0x13e31"
      },
      "additionalContracts": [],
      "isFixedGasLimit": false
    }
  ],
  "receipts": [
    {
      "status": "0x1",
      "cumulativeGasUsed": "0xf4da3",
      "logs": [
        {
          "address": "0x95487803c405f7fe30c97b77d190f1cfc9646e3c",
          "topics": [
            "0x2f8788117e7eff1d82e926ec794901d17c78024a50270940304540a733656f0d",
            "0x0000000000000000000000000000000000000000000000000000000000000000",
            "0x000000000000000000000000021f02bfd602f3f7b0c250ff8d707121a81bd282",
            "0x00000000000000000000000051d77cb2d8a76350d3bb01d01d3e2bdfe9df42cc"
          ],
          "data": "0x",
          "blockHash": "0x4e4debb62b2b527ec4767af2f14e1f7740bd57141a91cb50858ffae04a55ee87",
          "blockNumber": "0x288d7d",
          "transactionHash": "0x8b340e4ddcda45655439ad5f25d33717484c52d051773d9c61a08773196d72e9",
          "transactionIndex": "0x4",
          "logIndex": "0x5",
          "removed": false
        },
        {
          "address": "0x95487803c405f7fe30c97b77d190f1cfc9646e3c",
          "topics": [
            "0x2f8788117e7eff1d82e926ec794901d17c78024a50270940304540a733656f0d",
            "0xdf8b4c520ffe197c5343c6f5aec59570151ef9a492f2c624fd45ddde6135ec42",
            "0x0000000000000000000000005f0d8a3e8e5990cfb23795645e6849b83fc60726",
            "0x00000000000000000000000051d77cb2d8a76350d3bb01d01d3e2bdfe9df42cc"
          ],
          "data": "0x",
          "blockHash": "0x4e4debb62b2b527ec4767af2f14e1f7740bd57141a91cb50858ffae04a55ee87",
          "blockNumber": "0x288d7d",
          "transactionHash": "0x8b340e4ddcda45655439ad5f25d33717484c52d051773d9c61a08773196d72e9",
          "transactionIndex": "0x4",
          "logIndex": "0x6",
          "removed": false
        },
        {
          "address": "0x95487803c405f7fe30c97b77d190f1cfc9646e3c",
          "topics": [
            "0x2f8788117e7eff1d82e926ec794901d17c78024a50270940304540a733656f0d",
            "0xdf8b4c520ffe197c5343c6f5aec59570151ef9a492f2c624fd45ddde6135ec42",
            "0x0000000000000000000000002a60d6b74e4097114c2450aecdeb450b2943b3e6",
            "0x00000000000000000000000051d77cb2d8a76350d3bb01d01d3e2bdfe9df42cc"
          ],
          "data": "0x",
          "blockHash": "0x4e4debb62b2b527ec4767af2f14e1f7740bd57141a91cb50858ffae04a55ee87",
          "blockNumber": "0x288d7d",
          "transactionHash": "0x8b340e4ddcda45655439ad5f25d33717484c52d051773d9c61a08773196d72e9",
          "transactionIndex": "0x4",
          "logIndex": "0x7",
          "removed": false
        },
        {
          "address": "0x95487803c405f7fe30c97b77d190f1cfc9646e3c",
          "topics": [
            "0x2f8788117e7eff1d82e926ec794901d17c78024a50270940304540a733656f0d",
            "0x48a7db58bc0d0016705458e918f4ea84477e4f4c43c6d240db04e4db985c2082",
            "0x000000000000000000000000b762da363862a319e0a4ab93c3d9dbbc1a3be401",
            "0x00000000000000000000000051d77cb2d8a76350d3bb01d01d3e2bdfe9df42cc"
          ],
          "data": "0x",
          "blockHash": "0x4e4debb62b2b527ec4767af2f14e1f7740bd57141a91cb50858ffae04a55ee87",
          "blockNumber": "0x288d7d",
          "transactionHash": "0x8b340e4ddcda45655439ad5f25d33717484c52d051773d9c61a08773196d72e9",
          "transactionIndex": "0x4",
          "logIndex": "0x8",
          "removed": false
        },
        {
          "address": "0x95487803c405f7fe30c97b77d190f1cfc9646e3c",
          "topics": [
            "0x7f26b83ff96e1f2b6a682f133852f6798a09c465da95921460cefb3847402498"
          ],
          "data": "0x0000000000000000000000000000000000000000000000000000000000000001",
          "blockHash": "0x4e4debb62b2b527ec4767af2f14e1f7740bd57141a91cb50858ffae04a55ee87",
          "blockNumber": "0x288d7d",
          "transactionHash": "0x8b340e4ddcda45655439ad5f25d33717484c52d051773d9c61a08773196d72e9",
          "transactionIndex": "0x4",
          "logIndex": "0x9",
          "removed": false
        }
      ],
      "logsBloom": "0x00000004000000000000000000000000000000000000000000000000000000210000000000000000000000000000000042000000000000000000000000000000000000000000000000000000000000000000800000000000000000000000000000000000020000000400008000000800020000020000000000000000000000000008440200000000000000000000000000010000000080000000000000000000000001000000000000000002100400000000000800000400001000000000000000000000000000000400000200140000000000000000000100000000000020002000000000080000000000000000000000000000000000000000000000000000",
      "type": "0x0",
      "transactionHash": "0x8b340e4ddcda45655439ad5f25d33717484c52d051773d9c61a08773196d72e9",
      "transactionIndex": "0x4",
      "blockHash": "0x4e4debb62b2b527ec4767af2f14e1f7740bd57141a91cb50858ffae04a55ee87",
      "blockNumber": "0x288d7d",
      "gasUsed": "0x7c333",
      "effectiveGasPrice": "0xf4376",
      "from": "0x4015b6569369af4f17cd2da9e2f5e14a5dd162b4",
      "to": "0x51d77cb2d8a76350d3bb01d01d3e2bdfe9df42cc",
      "contractAddress": null,
      "l1Fee": "0xc9855e2fbe3",
      "l1FeeScalar": "0.684",
      "l1GasPrice": "0x1d6a89edc",
      "l1GasUsed": "0xa04"
    },
    {
      "status": "0x1",
      "cumulativeGasUsed": "0x722fe",
      "logs": [],
      "logsBloom": "0x00000000000000000000000000000000000000000000000000000000000000000000000000000000000000000000000000000000000000000000000000000000000000000000000000000000000000000000000000000000000000000000000000000000000000000000000000000000000000000000000000000000000000000000000000000000000000000000000000000000000000000000000000000000000000000000000000000000000000000000000000000000000000000000000000000000000000000000000000000000000000000000000000000000000000000000000000000000000000000000000000000000000000000000000000000000",
      "type": "0x0",
      "transactionHash": "0x32fb04c4211c0fddd640a21f1123b17bd9a852ffd3c34fd6f0e5961900c6998e",
      "transactionIndex": "0x2",
      "blockHash": "0x4f7c6cc9e1f235e0734e2a914b7cccc1d85b7b3915e64b56ec79a76f3ec55a47",
      "blockNumber": "0x288d81",
      "gasUsed": "0xdb87",
      "effectiveGasPrice": "0xf4376",
      "from": "0x4015b6569369af4f17cd2da9e2f5e14a5dd162b4",
      "to": "0xb762da363862a319e0a4ab93c3d9dbbc1a3be401",
      "contractAddress": null,
      "l1Fee": "0xb0dc2046929",
      "l1FeeScalar": "0.684",
      "l1GasPrice": "0x1cfb32f6d",
      "l1GasUsed": "0x8ec"
    },
    {
      "status": "0x1",
      "cumulativeGasUsed": "0xd28a9",
      "logs": [],
      "logsBloom": "0x00000000000000000000000000000000000000000000000000000000000000000000000000000000000000000000000000000000000000000000000000000000000000000000000000000000000000000000000000000000000000000000000000000000000000000000000000000000000000000000000000000000000000000000000000000000000000000000000000000000000000000000000000000000000000000000000000000000000000000000000000000000000000000000000000000000000000000000000000000000000000000000000000000000000000000000000000000000000000000000000000000000000000000000000000000000",
      "type": "0x0",
      "transactionHash": "0x7ad5d69f681db5b2f3007689fbeed36f8cccee6d9d2620881d88e84df061f56b",
      "transactionIndex": "0x5",
      "blockHash": "0xc551c1369087457b0610c6243397f09922f2df9fd31b958395d5580f1d153179",
      "blockNumber": "0x288d85",
      "gasUsed": "0x132d4",
      "effectiveGasPrice": "0xf4376",
      "from": "0x4015b6569369af4f17cd2da9e2f5e14a5dd162b4",
      "to": "0xb762da363862a319e0a4ab93c3d9dbbc1a3be401",
      "contractAddress": null,
      "l1Fee": "0xbdde6b47ba8",
      "l1FeeScalar": "0.684",
      "l1GasPrice": "0x1cfb32f6d",
      "l1GasUsed": "0x994"
    },
    {
      "status": "0x1",
      "cumulativeGasUsed": "0x209bda",
      "logs": [],
      "logsBloom": "0x00000000000000000000000000000000000000000000000000000000000000000000000000000000000000000000000000000000000000000000000000000000000000000000000000000000000000000000000000000000000000000000000000000000000000000000000000000000000000000000000000000000000000000000000000000000000000000000000000000000000000000000000000000000000000000000000000000000000000000000000000000000000000000000000000000000000000000000000000000000000000000000000000000000000000000000000000000000000000000000000000000000000000000000000000000000",
      "type": "0x0",
      "transactionHash": "0x5c589dbda35709dee7986eaf083012f7a2a80d101759614cd29c37ea624d398e",
      "transactionIndex": "0x9",
      "blockHash": "0x06161f1b6c1193701254fe6a7fad1cbd826cc67deaea6d4c1ad9d27f8350e0de",
      "blockNumber": "0x288d88",
      "gasUsed": "0x19db3",
      "effectiveGasPrice": "0xf4376",
      "from": "0x4015b6569369af4f17cd2da9e2f5e14a5dd162b4",
      "to": "0xb762da363862a319e0a4ab93c3d9dbbc1a3be401",
      "contractAddress": null,
      "l1Fee": "0xcd7848ba7ca",
      "l1FeeScalar": "0.684",
      "l1GasPrice": "0x1cd2ce7e0",
      "l1GasUsed": "0xa6c"
    }
  ],
  "libraries": [],
  "pending": [],
  "returns": {},
  "timestamp": 1714125165,
  "chain": 81457,
  "commit": "bbe1316"
}