{
  "transactions": [
    {
      "hash": "0x94de3ad7855f1e6b798f460d596ab3e7087a2a83f05280b713a4f7c6482219c8",
      "transactionType": "CALL",
      "contractName": null,
      "contractAddress": "0x1a3808184847DCCc2e8DE3Ae3024808F8a4f2896",
      "function": "setManager(address,bool)",
      "arguments": [
        "0x24Ec7a10797E0981b25b48c0C259600338Cde894",
        "true"
      ],
      "transaction": {
        "type": "0x00",
        "from": "0x341d57cc7a77d38e1bce2570c53160b3b0c1ff78",
        "to": "0x1a3808184847dccc2e8de3ae3024808f8a4f2896",
        "gas": "0xfa4d",
        "value": "0x0",
        "data": "0xa5e90eee00000000000000000000000024ec7a10797e0981b25b48c0c259600338cde8940000000000000000000000000000000000000000000000000000000000000001",
        "nonce": "0xa"
      },
      "additionalContracts": [],
      "isFixedGasLimit": false
    },
    {
      "hash": "0x11f71932a83f144c543fce762e55d4356f6823ad5a7bc20ffa710f8ace543ebe",
      "transactionType": "CALL",
      "contractName": null,
      "contractAddress": "0x4300000000000000000000000000000000000003",
      "function": "approve(address,uint256)",
      "arguments": [
        "0x1a3808184847DCCc2e8DE3Ae3024808F8a4f2896",
        "115792089237316195423570985008687907853269984665640564039457584007913129639935"
      ],
      "transaction": {
        "type": "0x00",
        "from": "0x24ec7a10797e0981b25b48c0c259600338cde894",
        "to": "0x4300000000000000000000000000000000000003",
        "gas": "0x11672",
        "value": "0x0",
        "data": "0x095ea7b30000000000000000000000001a3808184847dccc2e8de3ae3024808f8a4f2896ffffffffffffffffffffffffffffffffffffffffffffffffffffffffffffffff",
        "nonce": "0x0"
      },
      "additionalContracts": [],
      "isFixedGasLimit": false
    }
  ],
  "receipts": [
    {
      "transactionHash": "0x94de3ad7855f1e6b798f460d596ab3e7087a2a83f05280b713a4f7c6482219c8",
      "transactionIndex": "0x4",
      "blockHash": "0x53a4f7275ea081f8d97007d90f1749d8a9ec4ad83f956f277f143efaa62ffd07",
      "blockNumber": "0x84050",
      "from": "0x341D57Cc7a77D38e1Bce2570C53160B3B0C1FF78",
      "to": "0x1a3808184847DCCc2e8DE3Ae3024808F8a4f2896",
      "cumulativeGasUsed": "0xc7b21",
      "gasUsed": "0xb537",
      "contractAddress": null,
      "logs": [],
      "status": "0x1",
      "logsBloom": "0x00000000000000000000000000000000000000000000000000000000000000000000000000000000000000000000000000000000000000000000000000000000000000000000000000000000000000000000000000000000000000000000000000000000000000000000000000000000000000000000000000000000000000000000000000000000000000000000000000000000000000000000000000000000000000000000000000000000000000000000000000000000000000000000000000000000000000000000000000000000000000000000000000000000000000000000000000000000000000000000000000000000000000000000000000000000",
      "type": "0x0",
      "effectiveGasPrice": "0xf43f9"
    },
    {
      "transactionHash": "0x11f71932a83f144c543fce762e55d4356f6823ad5a7bc20ffa710f8ace543ebe",
      "transactionIndex": "0x3",
      "blockHash": "0x3c2296407674134c773f54a6a0c79e5a7e44d67171ca258b5b535f12a9becf79",
      "blockNumber": "0x84054",
      "from": "0x24Ec7a10797E0981b25b48c0C259600338Cde894",
      "to": "0x4300000000000000000000000000000000000003",
      "cumulativeGasUsed": "0x267e1",
      "gasUsed": "0xc998",
      "contractAddress": null,
      "logs": [
        {
          "address": "0x4300000000000000000000000000000000000003",
          "topics": [
            "0x8c5be1e5ebec7d5bd14f71427d1e84f3dd0314c0f7b2291e5b200ac8c7c3b925",
            "0x00000000000000000000000024ec7a10797e0981b25b48c0c259600338cde894",
            "0x0000000000000000000000001a3808184847dccc2e8de3ae3024808f8a4f2896"
          ],
          "data": "0xffffffffffffffffffffffffffffffffffffffffffffffffffffffffffffffff",
          "blockHash": "0x3c2296407674134c773f54a6a0c79e5a7e44d67171ca258b5b535f12a9becf79",
          "blockNumber": "0x84054",
          "transactionHash": "0x11f71932a83f144c543fce762e55d4356f6823ad5a7bc20ffa710f8ace543ebe",
          "transactionIndex": "0x3",
          "logIndex": "0x0",
          "removed": false
        }
      ],
      "status": "0x1",
      "logsBloom": "0x00000000000000000000000000000000000000000000000000000000000000000000000000000000000000000000000000000000000000000000000000200000000000000000000000000000000000000000000000008000000000000000000000000000000000000000000000000000001000000000000000000000000000000000000000000000000000000000000000004000000000000000000000000000020000000000000000000000000000000000000000000000000000000000000000000000000000000000004000000000000000000000000002000000000000a00010000004000000000000000000000000000000000000000000000000008000",
      "type": "0x0",
      "effectiveGasPrice": "0xf43f9"
    }
  ],
  "libraries": [],
  "pending": [],
  "returns": {},
  "timestamp": 1709891332,
  "chain": 81457,
  "multi": false,
  "commit": "7bb2a47"
}