{
  "transactions": [
    {
      "hash": "0x25623fa7b9bb40eb3447a030db2b61f93c633a3b98f8e6b5d6174d0621d699e5",
      "transactionType": "CALL",
      "contractName": null,
      "contractAddress": "0x1a3808184847DCCc2e8DE3Ae3024808F8a4f2896",
      "function": "setManager(address,bool)",
      "arguments": [
        "0xcf38a956bBc30A4e47688E0ed0c290033AB17e73",
        "true"
      ],
      "transaction": {
        "type": "0x00",
        "from": "0x341d57cc7a77d38e1bce2570c53160b3b0c1ff78",
        "to": "0x1a3808184847dccc2e8de3ae3024808f8a4f2896",
        "gas": "0xfa4d",
        "value": "0x0",
        "data": "0xa5e90eee000000000000000000000000cf38a956bbc30a4e47688e0ed0c290033ab17e730000000000000000000000000000000000000000000000000000000000000001",
        "nonce": "0x7"
      },
      "additionalContracts": [],
      "isFixedGasLimit": false
    },
    {
      "hash": "0xb0a7659e2945380419f196c97e65dc1e4286f8d501bdea7ca1bfb7e08e14d291",
      "transactionType": "CALL",
      "contractName": null,
      "contractAddress": "0x4300000000000000000000000000000000000003",
      "function": "approve(address,uint256)",
      "arguments": [
        "0x1a3808184847DCCc2e8DE3Ae3024808F8a4f2896",
        "115792089237316195423570985008687907853269984665640564039457584007913129639935"
      ],
      "transaction": {
        "type": "0x00",
        "from": "0xcf38a956bbc30a4e47688e0ed0c290033ab17e73",
        "to": "0x4300000000000000000000000000000000000003",
        "gas": "0x11672",
        "value": "0x0",
        "data": "0x095ea7b30000000000000000000000001a3808184847dccc2e8de3ae3024808f8a4f2896ffffffffffffffffffffffffffffffffffffffffffffffffffffffffffffffff",
        "nonce": "0x0"
      },
      "additionalContracts": [],
      "isFixedGasLimit": false
    }
  ],
  "receipts": [
    {
      "transactionHash": "0x25623fa7b9bb40eb3447a030db2b61f93c633a3b98f8e6b5d6174d0621d699e5",
      "transactionIndex": "0x6",
      "blockHash": "0x1425de6071524f6395835dfb946465b9b88ab2e1330ccfb26d60e581d9f69852",
      "blockNumber": "0x83f58",
      "from": "0x341D57Cc7a77D38e1Bce2570C53160B3B0C1FF78",
      "to": "0x1a3808184847DCCc2e8DE3Ae3024808F8a4f2896",
      "cumulativeGasUsed": "0x15e0de",
      "gasUsed": "0xb537",
      "contractAddress": null,
      "logs": [],
      "status": "0x1",
      "logsBloom": "0x00000000000000000000000000000000000000000000000000000000000000000000000000000000000000000000000000000000000000000000000000000000000000000000000000000000000000000000000000000000000000000000000000000000000000000000000000000000000000000000000000000000000000000000000000000000000000000000000000000000000000000000000000000000000000000000000000000000000000000000000000000000000000000000000000000000000000000000000000000000000000000000000000000000000000000000000000000000000000000000000000000000000000000000000000000000",
      "type": "0x0",
      "effectiveGasPrice": "0xf43ec"
    },
    {
      "transactionHash": "0xb0a7659e2945380419f196c97e65dc1e4286f8d501bdea7ca1bfb7e08e14d291",
      "transactionIndex": "0x4",
      "blockHash": "0x7e7fe43913b1f9794c804d2ef86edd0c42f6bd58949d175a218762b7da58c4e8",
      "blockNumber": "0x83f5c",
      "from": "0xcf38a956bBc30A4e47688E0ed0c290033AB17e73",
      "to": "0x4300000000000000000000000000000000000003",
      "cumulativeGasUsed": "0x666d8",
      "gasUsed": "0xc998",
      "contractAddress": null,
      "logs": [
        {
          "address": "0x4300000000000000000000000000000000000003",
          "topics": [
            "0x8c5be1e5ebec7d5bd14f71427d1e84f3dd0314c0f7b2291e5b200ac8c7c3b925",
            "0x000000000000000000000000cf38a956bbc30a4e47688e0ed0c290033ab17e73",
            "0x0000000000000000000000001a3808184847dccc2e8de3ae3024808f8a4f2896"
          ],
          "data": "0xffffffffffffffffffffffffffffffffffffffffffffffffffffffffffffffff",
          "blockHash": "0x7e7fe43913b1f9794c804d2ef86edd0c42f6bd58949d175a218762b7da58c4e8",
          "blockNumber": "0x83f5c",
          "transactionHash": "0xb0a7659e2945380419f196c97e65dc1e4286f8d501bdea7ca1bfb7e08e14d291",
          "transactionIndex": "0x4",
          "logIndex": "0x2",
          "removed": false
        }
      ],
      "status": "0x1",
      "logsBloom": "0x00000000000000000000000000000000000000000000000000000000000000000000000000000000000000000008000000000000000000000000000000200000000000000000000000000000000000000000000000008000000000000000000000000000000000000004000000000000001000000000000000000000000000000000000000000000000000000000000000000000000000000000000000000000020000000000000000000000000000000000000000000000000000000000000000000000000000000000000000000000000000000000000002000000000000200010000004000000000000800000000000000000000000000000000000008000",
      "type": "0x0",
      "effectiveGasPrice": "0xf43ec"
    }
  ],
  "libraries": [],
  "pending": [],
  "returns": {},
  "timestamp": 1709890835,
  "chain": 81457,
  "multi": false,
  "commit": "7bb2a47"
}