{
  "transactions": [
    {
      "hash": "0x9f72d6ae91106f8f26fad5bab3e5cd5206971245c976f6373c228dcf4dc5e228",
      "transactionType": "CALL",
      "contractName": null,
      "contractAddress": "0x1a3808184847DCCc2e8DE3Ae3024808F8a4f2896",
      "function": "setManager(address,bool)",
      "arguments": [
        "0x5064a7838Bb429A70E58E5759C731C4F1D9229E4",
        "true"
      ],
      "transaction": {
        "type": "0x00",
        "from": "0x341d57cc7a77d38e1bce2570c53160b3b0c1ff78",
        "to": "0x1a3808184847dccc2e8de3ae3024808f8a4f2896",
        "gas": "0x9756",
        "value": "0x0",
        "data": "0xa5e90eee0000000000000000000000005064a7838bb429a70e58e5759c731c4f1d9229e40000000000000000000000000000000000000000000000000000000000000001",
        "nonce": "0x8"
      },
      "additionalContracts": [],
      "isFixedGasLimit": false
    },
    {
      "hash": "0xe7b82ff23879376514a83424c32b665947dc891c833ffd4d4e570054ac524a2a",
      "transactionType": "CALL",
      "contractName": null,
      "contractAddress": "0x4300000000000000000000000000000000000003",
      "function": "approve(address,uint256)",
      "arguments": [
        "0x1a3808184847DCCc2e8DE3Ae3024808F8a4f2896",
        "115792089237316195423570985008687907853269984665640564039457584007913129639935"
      ],
      "transaction": {
        "type": "0x00",
        "from": "0x5064a7838bb429a70e58e5759c731c4f1d9229e4",
        "to": "0x4300000000000000000000000000000000000003",
        "gas": "0x11672",
        "value": "0x0",
        "data": "0x095ea7b30000000000000000000000001a3808184847dccc2e8de3ae3024808f8a4f2896ffffffffffffffffffffffffffffffffffffffffffffffffffffffffffffffff",
        "nonce": "0x0"
      },
      "additionalContracts": [],
      "isFixedGasLimit": false
    }
  ],
  "receipts": [
    {
      "transactionHash": "0x9f72d6ae91106f8f26fad5bab3e5cd5206971245c976f6373c228dcf4dc5e228",
      "transactionIndex": "0xa",
      "blockHash": "0x5ac362d2aceb7a092fe925fb3f28c783e0e20f5bac2e472af9f143e9613472c6",
      "blockNumber": "0x83f9d",
      "from": "0x341D57Cc7a77D38e1Bce2570C53160B3B0C1FF78",
      "to": "0x1a3808184847DCCc2e8DE3Ae3024808F8a4f2896",
      "cumulativeGasUsed": "0x1152b5",
      "gasUsed": "0x677b",
      "contractAddress": null,
      "logs": [],
      "status": "0x1",
      "logsBloom": "0x00000000000000000000000000000000000000000000000000000000000000000000000000000000000000000000000000000000000000000000000000000000000000000000000000000000000000000000000000000000000000000000000000000000000000000000000000000000000000000000000000000000000000000000000000000000000000000000000000000000000000000000000000000000000000000000000000000000000000000000000000000000000000000000000000000000000000000000000000000000000000000000000000000000000000000000000000000000000000000000000000000000000000000000000000000000",
      "type": "0x0",
      "effectiveGasPrice": "0xf43ed"
    },
    {
      "transactionHash": "0xe7b82ff23879376514a83424c32b665947dc891c833ffd4d4e570054ac524a2a",
      "transactionIndex": "0x5",
      "blockHash": "0xa0bd5e3a88d93a4564807f08cb7f2692a8d611cbb6316fce70c842179c7e8ce8",
      "blockNumber": "0x83fa1",
      "from": "0x5064a7838Bb429A70E58E5759C731C4F1D9229E4",
      "to": "0x4300000000000000000000000000000000000003",
      "cumulativeGasUsed": "0x8cf5e",
      "gasUsed": "0xc998",
      "contractAddress": null,
      "logs": [
        {
          "address": "0x4300000000000000000000000000000000000003",
          "topics": [
            "0x8c5be1e5ebec7d5bd14f71427d1e84f3dd0314c0f7b2291e5b200ac8c7c3b925",
            "0x0000000000000000000000005064a7838bb429a70e58e5759c731c4f1d9229e4",
            "0x0000000000000000000000001a3808184847dccc2e8de3ae3024808f8a4f2896"
          ],
          "data": "0xffffffffffffffffffffffffffffffffffffffffffffffffffffffffffffffff",
          "blockHash": "0xa0bd5e3a88d93a4564807f08cb7f2692a8d611cbb6316fce70c842179c7e8ce8",
          "blockNumber": "0x83fa1",
          "transactionHash": "0xe7b82ff23879376514a83424c32b665947dc891c833ffd4d4e570054ac524a2a",
          "transactionIndex": "0x5",
          "logIndex": "0x8",
          "removed": false
        }
      ],
      "status": "0x1",
      "logsBloom": "0x00000000000000000000000000000000000004000000001000000000000000000000000000000000000000000000000000000000000000000000000000200000000000000000000000000000000000000000000000008000000000000000000000000000000000000000000000000000001000000000000000000000000000000000000000000000080000000000000000000000000000000000000000000000020000000000000000000000000000000000000000000000000000000000000000000000000000000000000000000000000000000000000002000000000000200010000004000000000000000000000000000000000000000000000000008000",
      "type": "0x0",
      "effectiveGasPrice": "0xf43ed"
    }
  ],
  "libraries": [],
  "pending": [],
  "returns": {},
  "timestamp": 1709890973,
  "chain": 81457,
  "multi": false,
  "commit": "7bb2a47"
}