{
  "transactions": [
    {
      "hash": "0x36884869c3135dd8b8ced85e4a05dca74bdd5572f548cab32bf6f352db53de82",
      "transactionType": "CALL",
      "contractName": null,
      "contractAddress": "0x1a3808184847DCCc2e8DE3Ae3024808F8a4f2896",
      "function": "setManager(address,bool)",
      "arguments": [
        "0x5064a7838Bb429A70E58E5759C731C4F1D9229E4",
        "true"
      ],
      "transaction": {
        "type": "0x00",
        "from": "0x341d57cc7a77d38e1bce2570c53160b3b0c1ff78",
        "to": "0x1a3808184847dccc2e8de3ae3024808f8a4f2896",
        "gas": "0x9756",
        "value": "0x0",
        "data": "0xa5e90eee0000000000000000000000005064a7838bb429a70e58e5759c731c4f1d9229e40000000000000000000000000000000000000000000000000000000000000001",
        "nonce": "0x9"
      },
      "additionalContracts": [],
      "isFixedGasLimit": false
    },
    {
      "hash": "0x80329b26cf4ba10475d23424800c950fdbd88c2f2d4e4617505534152763e716",
      "transactionType": "CALL",
      "contractName": null,
      "contractAddress": "0x4300000000000000000000000000000000000003",
      "function": "approve(address,uint256)",
      "arguments": [
        "0x1a3808184847DCCc2e8DE3Ae3024808F8a4f2896",
        "115792089237316195423570985008687907853269984665640564039457584007913129639935"
      ],
      "transaction": {
        "type": "0x00",
        "from": "0x5064a7838bb429a70e58e5759c731c4f1d9229e4",
        "to": "0x4300000000000000000000000000000000000003",
        "gas": "0xab13",
        "value": "0x0",
        "data": "0x095ea7b30000000000000000000000001a3808184847dccc2e8de3ae3024808f8a4f2896ffffffffffffffffffffffffffffffffffffffffffffffffffffffffffffffff",
        "nonce": "0x1"
      },
      "additionalContracts": [],
      "isFixedGasLimit": false
    }
  ],
  "receipts": [
    {
      "transactionHash": "0x36884869c3135dd8b8ced85e4a05dca74bdd5572f548cab32bf6f352db53de82",
      "transactionIndex": "0x8",
      "blockHash": "0x17ba7585d3a4a0d4c4c7ee46e5e92731b5939de179551ed719a541fcb5027559",
      "blockNumber": "0x8402b",
      "from": "0x341D57Cc7a77D38e1Bce2570C53160B3B0C1FF78",
      "to": "0x1a3808184847DCCc2e8DE3Ae3024808F8a4f2896",
      "cumulativeGasUsed": "0xe8440",
      "gasUsed": "0x677b",
      "contractAddress": null,
      "logs": [],
      "status": "0x1",
      "logsBloom": "0x00000000000000000000000000000000000000000000000000000000000000000000000000000000000000000000000000000000000000000000000000000000000000000000000000000000000000000000000000000000000000000000000000000000000000000000000000000000000000000000000000000000000000000000000000000000000000000000000000000000000000000000000000000000000000000000000000000000000000000000000000000000000000000000000000000000000000000000000000000000000000000000000000000000000000000000000000000000000000000000000000000000000000000000000000000000",
      "type": "0x0",
      "effectiveGasPrice": "0xf43fa"
    },
    {
      "transactionHash": "0x80329b26cf4ba10475d23424800c950fdbd88c2f2d4e4617505534152763e716",
      "transactionIndex": "0x2",
      "blockHash": "0x4dfc5560f646c54b019f17ad4d3ba610e5fd43d6704bfa481229314ea36629b5",
      "blockNumber": "0x8402e",
      "from": "0x5064a7838Bb429A70E58E5759C731C4F1D9229E4",
      "to": "0x4300000000000000000000000000000000000003",
      "cumulativeGasUsed": "0x18545",
      "gasUsed": "0x7bdc",
      "contractAddress": null,
      "logs": [
        {
          "address": "0x4300000000000000000000000000000000000003",
          "topics": [
            "0x8c5be1e5ebec7d5bd14f71427d1e84f3dd0314c0f7b2291e5b200ac8c7c3b925",
            "0x0000000000000000000000005064a7838bb429a70e58e5759c731c4f1d9229e4",
            "0x0000000000000000000000001a3808184847dccc2e8de3ae3024808f8a4f2896"
          ],
          "data": "0xffffffffffffffffffffffffffffffffffffffffffffffffffffffffffffffff",
          "blockHash": "0x4dfc5560f646c54b019f17ad4d3ba610e5fd43d6704bfa481229314ea36629b5",
          "blockNumber": "0x8402e",
          "transactionHash": "0x80329b26cf4ba10475d23424800c950fdbd88c2f2d4e4617505534152763e716",
          "transactionIndex": "0x2",
          "logIndex": "0x0",
          "removed": false
        }
      ],
      "status": "0x1",
      "logsBloom": "0x00000000000000000000000000000000000004000000001000000000000000000000000000000000000000000000000000000000000000000000000000200000000000000000000000000000000000000000000000008000000000000000000000000000000000000000000000000000001000000000000000000000000000000000000000000000080000000000000000000000000000000000000000000000020000000000000000000000000000000000000000000000000000000000000000000000000000000000000000000000000000000000000002000000000000200010000004000000000000000000000000000000000000000000000000008000",
      "type": "0x0",
      "effectiveGasPrice": "0xf43fa"
    }
  ],
  "libraries": [],
  "pending": [],
  "returns": {},
  "timestamp": 1709891256,
  "chain": 81457,
  "multi": false,
  "commit": "7bb2a47"
}