{
  "transactions": [
    {
      "hash": "0x1d341ecbaec1466764442ced63177a9be0abfa424fe68d888136eb71a1af1de9",
      "transactionType": "CALL",
      "contractName": null,
      "contractAddress": "0xa66271c90e344c6be44C3ECe3856Ed9976136fF5",
      "function": "revertFunds(bytes)",
      "arguments": [
        "0x000000000000000000000000242f2d72f6b9f534b6182d911e719b7be7a81861000000000000000000000000312ba46064e1fe5904362bfb0c52c38f20d3ef44000000000000000000000000def28f7d7f3700e30f403b6350fb54a358469874000000000000000000000000c6adea8722c2db1eff810f429c3c09ba00e1f25c0000000000000000000000000000000000000000000000000000000065fd609e"
      ],
      "transaction": {
        "type": "0x00",
        "from": "0x8d76db34ccca356fa805f5a277efff53aac5af88",
        "to": "0xa66271c90e344c6be44c3ece3856ed9976136ff5",
        "gas": "0x8776c",
        "value": "0x0",
        "data": "0xeba5fb15000000000000000000000000000000000000000000000000000000000000002000000000000000000000000000000000000000000000000000000000000000a0000000000000000000000000242f2d72f6b9f534b6182d911e719b7be7a81861000000000000000000000000312ba46064e1fe5904362bfb0c52c38f20d3ef44000000000000000000000000def28f7d7f3700e30f403b6350fb54a358469874000000000000000000000000c6adea8722c2db1eff810f429c3c09ba00e1f25c0000000000000000000000000000000000000000000000000000000065fd609e",
        "nonce": "0x3a"
      },
      "additionalContracts": [],
      "isFixedGasLimit": false
    }
  ],
  "receipts": [
    {
      "transactionHash": "0x1d341ecbaec1466764442ced63177a9be0abfa424fe68d888136eb71a1af1de9",
      "transactionIndex": "0x1",
      "blockHash": "0x543e9dfc0251b81a73aab508df214b9dae4c8f73fd7696100af33ddc8e85a3fb",
      "blockNumber": "0x18904b1",
      "from": "0x8d76dB34CcCA356fA805f5A277EFFf53aaC5af88",
      "to": "0xa66271c90e344c6be44C3ECe3856Ed9976136fF5",
      "cumulativeGasUsed": "0x5340d",
      "gasUsed": "0x5340d",
      "contractAddress": null,
      "logs": [
        {
          "address": "0xc6ADeA8722C2DB1EFF810f429C3C09BA00E1F25C",
          "topics": [
            "0x8c5be1e5ebec7d5bd14f71427d1e84f3dd0314c0f7b2291e5b200ac8c7c3b925",
            "0x000000000000000000000000a66271c90e344c6be44c3ece3856ed9976136ff5",
            "0x000000000000000000000000242f2d72f6b9f534b6182d911e719b7be7a81861"
          ],
          "data": "0x0000000000000000000000000000000000000000000000340aad21b3b7000000",
          "blockHash": "0x543e9dfc0251b81a73aab508df214b9dae4c8f73fd7696100af33ddc8e85a3fb",
          "blockNumber": "0x18904b1",
          "transactionHash": "0x1d341ecbaec1466764442ced63177a9be0abfa424fe68d888136eb71a1af1de9",
          "transactionIndex": "0x1",
          "logIndex": "0x0",
          "removed": false
        },
        {
          "address": "0xc6ADeA8722C2DB1EFF810f429C3C09BA00E1F25C",
          "topics": [
            "0x8c5be1e5ebec7d5bd14f71427d1e84f3dd0314c0f7b2291e5b200ac8c7c3b925",
            "0x000000000000000000000000a66271c90e344c6be44c3ece3856ed9976136ff5",
            "0x000000000000000000000000242f2d72f6b9f534b6182d911e719b7be7a81861"
          ],
          "data": "0x0000000000000000000000000000000000000000000000000000000000000000",
          "blockHash": "0x543e9dfc0251b81a73aab508df214b9dae4c8f73fd7696100af33ddc8e85a3fb",
          "blockNumber": "0x18904b1",
          "transactionHash": "0x1d341ecbaec1466764442ced63177a9be0abfa424fe68d888136eb71a1af1de9",
          "transactionIndex": "0x1",
          "logIndex": "0x1",
          "removed": false
        },
        {
          "address": "0xc6ADeA8722C2DB1EFF810f429C3C09BA00E1F25C",
          "topics": [
            "0xddf252ad1be2c89b69c2b068fc378daa952ba7f163c4a11628f55a4df523b3ef",
            "0x000000000000000000000000a66271c90e344c6be44c3ece3856ed9976136ff5",
            "0x000000000000000000000000242f2d72f6b9f534b6182d911e719b7be7a81861"
          ],
          "data": "0x0000000000000000000000000000000000000000000000340aad21b3b7000000",
          "blockHash": "0x543e9dfc0251b81a73aab508df214b9dae4c8f73fd7696100af33ddc8e85a3fb",
          "blockNumber": "0x18904b1",
          "transactionHash": "0x1d341ecbaec1466764442ced63177a9be0abfa424fe68d888136eb71a1af1de9",
          "transactionIndex": "0x1",
          "logIndex": "0x2",
          "removed": false
        },
        {
          "address": "0x242f2d72f6B9F534B6182d911e719b7be7a81861",
          "topics": [
            "0x1bbf55d483639f8103dc4e035af71a4fbdb16c80be740fa3eef81198acefa094"
          ],
          "data": "0x000000000000000000000000a66271c90e344c6be44c3ece3856ed9976136ff50000000000000000000000000000000000000000000000340aad21b3b7000000",
          "blockHash": "0x543e9dfc0251b81a73aab508df214b9dae4c8f73fd7696100af33ddc8e85a3fb",
          "blockNumber": "0x18904b1",
          "transactionHash": "0x1d341ecbaec1466764442ced63177a9be0abfa424fe68d888136eb71a1af1de9",
          "transactionIndex": "0x1",
          "logIndex": "0x3",
          "removed": false
        },
        {
          "address": "0xa66271c90e344c6be44C3ECe3856Ed9976136fF5",
          "topics": [
            "0x41f7a1aeb01238358c2574adff43ae006c2c1ff3a8aca9011b7da2e574849b55"
          ],
          "data": "0x000000000000000000000000242f2d72f6b9f534b6182d911e719b7be7a8186100000000000000000000000000000000000000000000000000000000000000600000000000000000000000000000000000000000000000340aad21b3b700000000000000000000000000000000000000000000000000000000000000000000a0000000000000000000000000242f2d72f6b9f534b6182d911e719b7be7a81861000000000000000000000000312ba46064e1fe5904362bfb0c52c38f20d3ef44000000000000000000000000def28f7d7f3700e30f403b6350fb54a358469874000000000000000000000000c6adea8722c2db1eff810f429c3c09ba00e1f25c0000000000000000000000000000000000000000000000000000000065fd609e",
          "blockHash": "0x543e9dfc0251b81a73aab508df214b9dae4c8f73fd7696100af33ddc8e85a3fb",
          "blockNumber": "0x18904b1",
          "transactionHash": "0x1d341ecbaec1466764442ced63177a9be0abfa424fe68d888136eb71a1af1de9",
          "transactionIndex": "0x1",
          "logIndex": "0x4",
          "removed": false
        }
      ],
      "status": "0x1",
      "logsBloom": "0x00000000000001000000000000000000000020000001000000000000000000002000000000000000000200000100000000000000000000100000000400220000000000080000000000000008010000000000000000000000000000000000000100000000000000000000002080000000000000000000000000000010000000000000000000000000000000000400000000000000000000000000000000000000020040000000000000000000000001000020000000000000000000000000000080000002000000000000000000000000000000000000000000000000000000000010000000000000000000000000000200000000000000000000000000080000",
      "type": "0x0",
      "effectiveGasPrice": "0x5f5e100"
    }
  ],
  "libraries": [],
  "pending": [],
  "returns": {},
  "timestamp": 1711108621,
  "chain": 421614,
  "commit": "477c44e"
}