{
  "transactions": [
    {
      "hash": "0x61f809b3ac075532b7c3b06f59eb89e07bde7442c4ddf2cc0730de63df22d2f7",
      "transactionType": "CALL",
      "contractName": null,
      "contractAddress": "0xa0e7b78c2990d5e0ce185a5ba565388639a33e7b",
      "function": "changeEscrowThreshold(uint256)",
      "arguments": [
        "10000000000000000000000"
      ],
      "transaction": {
        "from": "0x632a7cf953c3127606aadccd832e9d480b81f7c0",
        "to": "0xa0e7b78c2990d5e0ce185a5ba565388639a33e7b",
        "gas": "0xaead",
        "value": "0x0",
        "input": "0x55f6002400000000000000000000000000000000000000000000021e19e0c9bab2400000",
        "nonce": "0x1",
        "chainId": "0x66eee",
        "accessList": null,
        "type": null
      },
      "additionalContracts": [],
      "isFixedGasLimit": false
    }
  ],
  "receipts": [
    {
      "status": "0x1",
      "cumulativeGasUsed": "0x1e03ea",
      "logs": [],
      "logsBloom": "0x00000000000000000000000000000000000000000000000000000000000000000000000000000000000000000000000000000000000000000000000000000000000000000000000000000000000000000000000000000000000000000000000000000000000000000000000000000000000000000000000000000000000000000000000000000000000000000000000000000000000000000000000000000000000000000000000000000000000000000000000000000000000000000000000000000000000000000000000000000000000000000000000000000000000000000000000000000000000000000000000000000000000000000000000000000000",
      "type": "0x2",
      "transactionHash": "0x61f809b3ac075532b7c3b06f59eb89e07bde7442c4ddf2cc0730de63df22d2f7",
      "transactionIndex": "0x4",
      "blockHash": "0x58daea6f5912dcc5fc1e3b8011846c358f21494471f9330bb03c71085694be7a",
      "blockNumber": "0x2398330",
      "gasUsed": "0x827c",
      "effectiveGasPrice": "0x6abe5ae0",
      "from": "0x632a7cf953c3127606aadccd832e9d480b81f7c0",
      "to": "0xa0e7b78c2990d5e0ce185a5ba565388639a33e7b",
      "contractAddress": null,
      "gasUsedForL1": "0x6c0",
      "l1BlockNumber": "0x5817fb"
    }
  ],
  "libraries": [],
  "pending": [],
  "returns": {},
  "timestamp": 1714034787,
  "chain": 421614,
  "commit": "1f0e831"
}