{
  "transactions": [
    {
      "hash": "0xe2302befebc9c9f8759af1e9f552eabdc49ba93addd054955c3241058f9ef2f4",
      "transactionType": "CALL",
      "contractName": null,
      "contractAddress": "0xe662a6b3d093e53c6910f05e2122e8f4c92864f1",
      "function": "changeEscrowThreshold(uint256)",
      "arguments": [
        "10000000000000000000000"
      ],
      "transaction": {
        "from": "0x632a7cf953c3127606aadccd832e9d480b81f7c0",
        "to": "0xe662a6b3d093e53c6910f05e2122e8f4c92864f1",
        "gas": "0xaae7",
        "value": "0x0",
        "input": "0x55f6002400000000000000000000000000000000000000000000021e19e0c9bab2400000",
        "nonce": "0x1",
        "chainId": "0xa0c71fd",
        "accessList": null,
        "type": null
      },
      "additionalContracts": [],
      "isFixedGasLimit": false
    }
  ],
  "receipts": [
    {
      "status": "0x1",
      "cumulativeGasUsed": "0x1273e",
      "logs": [],
      "logsBloom": "0x00000000000000000000000000000000000000000000000000000000000000000000000000000000000000000000000000000000000000000000000000000000000000000000000000000000000000000000000000000000000000000000000000000000000000000000000000000000000000000000000000000000000000000000000000000000000000000000000000000000000000000000000000000000000000000000000000000000000000000000000000000000000000000000000000000000000000000000000000000000000000000000000000000000000000000000000000000000000000000000000000000000000000000000000000000000",
      "type": "0x2",
      "transactionHash": "0xe2302befebc9c9f8759af1e9f552eabdc49ba93addd054955c3241058f9ef2f4",
      "transactionIndex": "0x1",
      "blockHash": "0x601e9ace9193c4f77ce915c92541c1804d0df553b2ff7bacc4c6857d74b7f361",
      "blockNumber": "0x475228",
      "gasUsed": "0x7bbc",
      "effectiveGasPrice": "0xf4340",
      "from": "0x632a7cf953c3127606aadccd832e9d480b81f7c0",
      "to": "0xe662a6b3d093e53c6910f05e2122e8f4c92864f1",
      "contractAddress": null,
      "l1Fee": "0x2e5516c8879",
      "l1GasPrice": "0x8735f101",
      "l1GasUsed": "0x804"
    }
  ],
  "libraries": [],
  "pending": [],
  "returns": {},
  "timestamp": 1714034871,
  "chain": 168587773,
  "commit": "1f0e831"
}