{
  "transactions": [
    {
      "hash": "0x7e50dbf8e174fc4ff8edcb6b2e42003790b9e4a96aa8a162b98b2d8af1486f84",
      "transactionType": "CALL",
      "contractName": null,
      "contractAddress": "0x836fb23d69c0fa1f195d1fdb25742e30ded5a328",
      "function": "grantRole(bytes32,address)",
      "arguments": [
        "0x1effbbff9c66c5e59634f24fe842750c60d18891155c32dd155fc2d661a4c86d",
        "0x3745f639898b064B0278574267Be7D7acDcd6C44"
      ],
      "transaction": {
        "from": "0x4015b6569369af4f17cd2da9e2f5e14a5dd162b4",
        "to": "0x836fb23d69c0fa1f195d1fdb25742e30ded5a328",
        "gas": "0xcfa5",
        "value": "0x0",
        "input": "0x2f2ff15d1effbbff9c66c5e59634f24fe842750c60d18891155c32dd155fc2d661a4c86d0000000000000000000000003745f639898b064b0278574267be7d7acdcd6c44",
        "nonce": "0x69",
        "chainId": "0x32"
      },
      "additionalContracts": [],
      "isFixedGasLimit": false
    },
    {
      "hash": "0x48711180e5c5aa469ae4e4e8b5e1ef599e4dd23b66aa04cad9b9fcd577410c97",
      "transactionType": "CALL",
      "contractName": null,
      "contractAddress": "0x5a44ad2bedb5f4ce6041706acacff8755d7a96d8",
      "function": "grantRole(bytes32,address)",
      "arguments": [
        "0x1effbbff9c66c5e59634f24fe842750c60d18891155c32dd155fc2d661a4c86d",
        "0x3745f639898b064B0278574267Be7D7acDcd6C44"
      ],
      "transaction": {
        "from": "0x4015b6569369af4f17cd2da9e2f5e14a5dd162b4",
        "to": "0x5a44ad2bedb5f4ce6041706acacff8755d7a96d8",
        "gas": "0x14eb1",
        "value": "0x0",
        "input": "0x2f2ff15d1effbbff9c66c5e59634f24fe842750c60d18891155c32dd155fc2d661a4c86d0000000000000000000000003745f639898b064b0278574267be7d7acdcd6c44",
        "nonce": "0x6a",
        "chainId": "0x32"
      },
      "additionalContracts": [],
      "isFixedGasLimit": false
    },
    {
      "hash": "0x8c9e4fdd1cd36020d486862bf4b55cb2df3b6ba61698f19f637b1d387acc61af",
      "transactionType": "CALL",
      "contractName": null,
      "contractAddress": "0xa37ec425f96d9531dd597ec8932df8c484b8eaf2",
      "function": "grantRole(bytes32,address)",
      "arguments": [
        "0x1effbbff9c66c5e59634f24fe842750c60d18891155c32dd155fc2d661a4c86d",
        "0x3745f639898b064B0278574267Be7D7acDcd6C44"
      ],
      "transaction": {
        "from": "0x4015b6569369af4f17cd2da9e2f5e14a5dd162b4",
        "to": "0xa37ec425f96d9531dd597ec8932df8c484b8eaf2",
        "gas": "0x14eb1",
        "value": "0x0",
        "input": "0x2f2ff15d1effbbff9c66c5e59634f24fe842750c60d18891155c32dd155fc2d661a4c86d0000000000000000000000003745f639898b064b0278574267be7d7acdcd6c44",
        "nonce": "0x6b",
        "chainId": "0x32"
      },
      "additionalContracts": [],
      "isFixedGasLimit": false
    },
    {
      "hash": "0x748ddcbe80399b6d25d224836bdd8af1789da85d0e3069aa3fd3e1dbc4c94d65",
      "transactionType": "CALL",
      "contractName": null,
      "contractAddress": "0x5a44ad2bedb5f4ce6041706acacff8755d7a96d8",
      "function": "grantRole(bytes32,address)",
      "arguments": [
        "0xdf8b4c520ffe197c5343c6f5aec59570151ef9a492f2c624fd45ddde6135ec42",
        "0x3745f639898b064B0278574267Be7D7acDcd6C44"
      ],
      "transaction": {
        "from": "0x4015b6569369af4f17cd2da9e2f5e14a5dd162b4",
        "to": "0x5a44ad2bedb5f4ce6041706acacff8755d7a96d8",
        "gas": "0x14eb1",
        "value": "0x0",
        "input": "0x2f2ff15ddf8b4c520ffe197c5343c6f5aec59570151ef9a492f2c624fd45ddde6135ec420000000000000000000000003745f639898b064b0278574267be7d7acdcd6c44",
        "nonce": "0x6c",
        "chainId": "0x32"
      },
      "additionalContracts": [],
      "isFixedGasLimit": false
    },
    {
      "hash": "0x44aec8366d34ec8f81a16d2921c45acefea645214fc633a7259279ee2d7c1f30",
      "transactionType": "CALL",
      "contractName": null,
      "contractAddress": "0xa37ec425f96d9531dd597ec8932df8c484b8eaf2",
      "function": "grantRole(bytes32,address)",
      "arguments": [
        "0xdf8b4c520ffe197c5343c6f5aec59570151ef9a492f2c624fd45ddde6135ec42",
        "0x3745f639898b064B0278574267Be7D7acDcd6C44"
      ],
      "transaction": {
        "from": "0x4015b6569369af4f17cd2da9e2f5e14a5dd162b4",
        "to": "0xa37ec425f96d9531dd597ec8932df8c484b8eaf2",
        "gas": "0x14eb1",
        "value": "0x0",
        "input": "0x2f2ff15ddf8b4c520ffe197c5343c6f5aec59570151ef9a492f2c624fd45ddde6135ec420000000000000000000000003745f639898b064b0278574267be7d7acdcd6c44",
        "nonce": "0x6d",
        "chainId": "0x32"
      },
      "additionalContracts": [],
      "isFixedGasLimit": false
    }
  ],
  "receipts": [],
  "libraries": [],
  "pending": [
    "0x748ddcbe80399b6d25d224836bdd8af1789da85d0e3069aa3fd3e1dbc4c94d65",
    "0x44aec8366d34ec8f81a16d2921c45acefea645214fc633a7259279ee2d7c1f30"
  ],
  "returns": {},
  "timestamp": 1714378306,
  "chain": 50,
  "commit": "63bc345"
}