{
  "transactions": [
    {
      "hash": "0x687459f40d263fe9f26478501158a1bbb8ee2614844aae49adffafd8c035fc1b",
      "transactionType": "CALL",
      "contractName": null,
      "contractAddress": "0x836Fb23d69c0fa1f195d1FDB25742E30ded5A328",
      "function": "grantRole(bytes32,address)",
      "arguments": [
        "0x0000000000000000000000000000000000000000000000000000000000000000",
        "0x3745f639898b064B0278574267Be7D7acDcd6C44"
      ],
      "transaction": {
        "type": "0x00",
        "from": "0x4015b6569369af4f17cd2da9e2f5e14a5dd162b4",
        "to": "0x836fb23d69c0fa1f195d1fdb25742e30ded5a328",
        "gas": "0xcd73",
        "value": "0x0",
        "data": "0x2f2ff15d00000000000000000000000000000000000000000000000000000000000000000000000000000000000000003745f639898b064b0278574267be7d7acdcd6c44",
        "nonce": "0x78"
      },
      "additionalContracts": [],
      "isFixedGasLimit": false
    },
    {
      "hash": "0x4842aa2da76cb99324b7b6c4c718b6cd9456505de60eba9370c726f58a0ca293",
      "transactionType": "CALL",
      "contractName": null,
      "contractAddress": "0x5A44Ad2BEdb5f4CE6041706aCAcfF8755D7a96d8",
      "function": "grantRole(bytes32,address)",
      "arguments": [
        "0x0000000000000000000000000000000000000000000000000000000000000000",
        "0x3745f639898b064B0278574267Be7D7acDcd6C44"
      ],
      "transaction": {
        "type": "0x00",
        "from": "0x4015b6569369af4f17cd2da9e2f5e14a5dd162b4",
        "to": "0x5a44ad2bedb5f4ce6041706acacff8755d7a96d8",
        "gas": "0xcd72",
        "value": "0x0",
        "data": "0x2f2ff15d00000000000000000000000000000000000000000000000000000000000000000000000000000000000000003745f639898b064b0278574267be7d7acdcd6c44",
        "nonce": "0x79"
      },
      "additionalContracts": [],
      "isFixedGasLimit": false
    },
    {
      "hash": "0xf257f184ed2b8c5bc4b0ac9d7495f91c4db7d1b60aaa980513f7b43432f2e343",
      "transactionType": "CALL",
      "contractName": null,
      "contractAddress": "0xa37ec425f96D9531dD597Ec8932Df8c484B8Eaf2",
      "function": "grantRole(bytes32,address)",
      "arguments": [
        "0x0000000000000000000000000000000000000000000000000000000000000000",
        "0x3745f639898b064B0278574267Be7D7acDcd6C44"
      ],
      "transaction": {
        "type": "0x00",
        "from": "0x4015b6569369af4f17cd2da9e2f5e14a5dd162b4",
        "to": "0xa37ec425f96d9531dd597ec8932df8c484b8eaf2",
        "gas": "0xcd72",
        "value": "0x0",
        "data": "0x2f2ff15d00000000000000000000000000000000000000000000000000000000000000000000000000000000000000003745f639898b064b0278574267be7d7acdcd6c44",
        "nonce": "0x7a"
      },
      "additionalContracts": [],
      "isFixedGasLimit": false
    },
    {
      "hash": "0x82b03ff46d333e9e719a2ef5e7320dd0456356fc24a2286fc65005ec1bd1d1d1",
      "transactionType": "CALL",
      "contractName": null,
      "contractAddress": "0x5A44Ad2BEdb5f4CE6041706aCAcfF8755D7a96d8",
      "function": "grantRole(bytes32,address)",
      "arguments": [
        "0xdf8b4c520ffe197c5343c6f5aec59570151ef9a492f2c624fd45ddde6135ec42",
        "0x3745f639898b064B0278574267Be7D7acDcd6C44"
      ],
      "transaction": {
        "type": "0x00",
        "from": "0x4015b6569369af4f17cd2da9e2f5e14a5dd162b4",
        "to": "0x5a44ad2bedb5f4ce6041706acacff8755d7a96d8",
        "gas": "0xcfa3",
        "value": "0x0",
        "data": "0x2f2ff15ddf8b4c520ffe197c5343c6f5aec59570151ef9a492f2c624fd45ddde6135ec420000000000000000000000003745f639898b064b0278574267be7d7acdcd6c44",
        "nonce": "0x7b"
      },
      "additionalContracts": [],
      "isFixedGasLimit": false
    },
    {
      "hash": "0xe4d2a123e5da7bc7962a96b33cae7f2ed50c0f1176545f06e144446b4c754d5f",
      "transactionType": "CALL",
      "contractName": null,
      "contractAddress": "0xa37ec425f96D9531dD597Ec8932Df8c484B8Eaf2",
      "function": "grantRole(bytes32,address)",
      "arguments": [
        "0xdf8b4c520ffe197c5343c6f5aec59570151ef9a492f2c624fd45ddde6135ec42",
        "0x3745f639898b064B0278574267Be7D7acDcd6C44"
      ],
      "transaction": {
        "type": "0x00",
        "from": "0x4015b6569369af4f17cd2da9e2f5e14a5dd162b4",
        "to": "0xa37ec425f96d9531dd597ec8932df8c484b8eaf2",
        "gas": "0xcfa3",
        "value": "0x0",
        "data": "0x2f2ff15ddf8b4c520ffe197c5343c6f5aec59570151ef9a492f2c624fd45ddde6135ec420000000000000000000000003745f639898b064b0278574267be7d7acdcd6c44",
        "nonce": "0x7c"
      },
      "additionalContracts": [],
      "isFixedGasLimit": false
    }
  ],
  "receipts": [
    {
      "transactionHash": "0x687459f40d263fe9f26478501158a1bbb8ee2614844aae49adffafd8c035fc1b",
      "transactionIndex": "0x2",
      "blockHash": "0x142d5c815799eb3834f3ea7506e935a8728f0f323fded9b5ef609d5a65d317e7",
      "blockNumber": "0x472fb49",
      "from": "0x4015B6569369af4F17CD2DA9e2F5e14A5Dd162b4",
      "to": "0x836Fb23d69c0fa1f195d1FDB25742E30ded5A328",
      "cumulativeGasUsed": "0x23f73",
      "gasUsed": "0x708b",
      "contractAddress": null,
      "logs": [],
      "status": "0x1",
      "logsBloom": "0x00000000000000000000000000000000000000000000000000000000000000000000000000000000000000000000000000000000000000000000000000000000000000000000000000000000000000000000000000000000000000000000000000000000000000000000000000000000000000000000000000000000000000000000000000000000000000000000000000000000000000000000000000000000000000000000000000000000000000000000000000000000000000000000000000000000000000000000000000000000000000000000000000000000000000000000000000000000000000000000000000000000000000000000000000000000"
    },
    {
      "transactionHash": "0x4842aa2da76cb99324b7b6c4c718b6cd9456505de60eba9370c726f58a0ca293",
      "transactionIndex": "0x6",
      "blockHash": "0x27c30a1250d013ad55563730cbf85fb9223fd70ec7ba322dfaa7c22f65da888f",
      "blockNumber": "0x472fb4c",
      "from": "0x4015B6569369af4F17CD2DA9e2F5e14A5Dd162b4",
      "to": "0x5A44Ad2BEdb5f4CE6041706aCAcfF8755D7a96d8",
      "cumulativeGasUsed": "0x1363658",
      "gasUsed": "0x708a",
      "contractAddress": null,
      "logs": [],
      "status": "0x1",
      "logsBloom": "0x00000000000000000000000000000000000000000000000000000000000000000000000000000000000000000000000000000000000000000000000000000000000000000000000000000000000000000000000000000000000000000000000000000000000000000000000000000000000000000000000000000000000000000000000000000000000000000000000000000000000000000000000000000000000000000000000000000000000000000000000000000000000000000000000000000000000000000000000000000000000000000000000000000000000000000000000000000000000000000000000000000000000000000000000000000000"
    },
    {
      "transactionHash": "0xf257f184ed2b8c5bc4b0ac9d7495f91c4db7d1b60aaa980513f7b43432f2e343",
      "transactionIndex": "0x4",
      "blockHash": "0xc1caae17a143789028aa7492399ad249e8974fb41e1b0fcfb4a8015500afeed5",
      "blockNumber": "0x472fb50",
      "from": "0x4015B6569369af4F17CD2DA9e2F5e14A5Dd162b4",
      "to": "0xa37ec425f96D9531dD597Ec8932Df8c484B8Eaf2",
      "cumulativeGasUsed": "0x131ff14",
      "gasUsed": "0x708a",
      "contractAddress": null,
      "logs": [],
      "status": "0x1",
      "logsBloom": "0x00000000000000000000000000000000000000000000000000000000000000000000000000000000000000000000000000000000000000000000000000000000000000000000000000000000000000000000000000000000000000000000000000000000000000000000000000000000000000000000000000000000000000000000000000000000000000000000000000000000000000000000000000000000000000000000000000000000000000000000000000000000000000000000000000000000000000000000000000000000000000000000000000000000000000000000000000000000000000000000000000000000000000000000000000000000"
    },
    {
      "transactionHash": "0x82b03ff46d333e9e719a2ef5e7320dd0456356fc24a2286fc65005ec1bd1d1d1",
      "transactionIndex": "0x1",
      "blockHash": "0xfae422f3f651e15645776115343e0643cd61086eff43a7d302704d26a00b60d7",
      "blockNumber": "0x472fb55",
      "from": "0x4015B6569369af4F17CD2DA9e2F5e14A5Dd162b4",
      "to": "0x5A44Ad2BEdb5f4CE6041706aCAcfF8755D7a96d8",
      "cumulativeGasUsed": "0x788a",
      "gasUsed": "0x788a",
      "contractAddress": null,
      "logs": [],
      "status": "0x1",
      "logsBloom": "0x00000000000000000000000000000000000000000000000000000000000000000000000000000000000000000000000000000000000000000000000000000000000000000000000000000000000000000000000000000000000000000000000000000000000000000000000000000000000000000000000000000000000000000000000000000000000000000000000000000000000000000000000000000000000000000000000000000000000000000000000000000000000000000000000000000000000000000000000000000000000000000000000000000000000000000000000000000000000000000000000000000000000000000000000000000000"
    },
    {
      "transactionHash": "0xe4d2a123e5da7bc7962a96b33cae7f2ed50c0f1176545f06e144446b4c754d5f",
      "transactionIndex": "0x1",
      "blockHash": "0xe2ea02796b99b8eb4899d70abb8be16591a8c284b72d2334f68e87904a7e4aab",
      "blockNumber": "0x472fb59",
      "from": "0x4015B6569369af4F17CD2DA9e2F5e14A5Dd162b4",
      "to": "0xa37ec425f96D9531dD597Ec8932Df8c484B8Eaf2",
      "cumulativeGasUsed": "0x788a",
      "gasUsed": "0x788a",
      "contractAddress": null,
      "logs": [],
      "status": "0x1",
      "logsBloom": "0x00000000000000000000000000000000000000000000000000000000000000000000000000000000000000000000000000000000000000000000000000000000000000000000000000000000000000000000000000000000000000000000000000000000000000000000000000000000000000000000000000000000000000000000000000000000000000000000000000000000000000000000000000000000000000000000000000000000000000000000000000000000000000000000000000000000000000000000000000000000000000000000000000000000000000000000000000000000000000000000000000000000000000000000000000000000"
    }
  ],
  "libraries": [],
  "pending": [],
  "returns": {},
  "timestamp": 1715410611,
  "chain": 50,
  "multi": false,
  "commit": "a8ab58f"
}