{
  "transactions": [
    {
      "hash": "0x6a75d7a3aff84cd50a269e88b15cfa1db4c4114f95456df7218598a79926e1cc",
      "transactionType": "CALL",
      "contractName": null,
      "contractAddress": "0xe0e943e7D5070840d6d0C026a69F07787c5132Cf",
      "function": "debit(address,uint256,address)",
      "arguments": [
        "0xDef28f7d7F3700e30F403B6350Fb54a358469874",
        "100",
        "0x312BA46064e1fe5904362BfB0C52c38F20d3Ef44"
      ],
      "transaction": {
        "type": "0x00",
        "from": "0x8d76db34ccca356fa805f5a277efff53aac5af88",
        "to": "0xe0e943e7d5070840d6d0c026a69f07787c5132cf",
        "gas": "0x1e920",
        "value": "0x0",
        "data": "0x0a9c1890000000000000000000000000def28f7d7f3700e30f403b6350fb54a3584698740000000000000000000000000000000000000000000000000000000000000064000000000000000000000000312ba46064e1fe5904362bfb0c52c38f20d3ef44",
        "nonce": "0x31"
      },
      "additionalContracts": [],
      "isFixedGasLimit": false
    }
  ],
  "receipts": [
    {
      "transactionHash": "0x6a75d7a3aff84cd50a269e88b15cfa1db4c4114f95456df7218598a79926e1cc",
      "transactionIndex": "0x1",
      "blockHash": "0x7ff7248728951def417c2227f6e0efb8ae50cd8fc4462ae876ec315901b3f685",
      "blockNumber": "0x3942321",
      "from": "0x8d76dB34CcCA356fA805f5A277EFFf53aaC5af88",
      "to": "0xe0e943e7D5070840d6d0C026a69F07787c5132Cf",
      "cumulativeGasUsed": "0x156bf",
      "gasUsed": "0x156bf",
      "contractAddress": null,
      "logs": [
        {
          "address": "0xb0F5c667e9aB3144cF6b2E9B03805a87955bdC07",
          "topics": [
            "0xddf252ad1be2c89b69c2b068fc378daa952ba7f163c4a11628f55a4df523b3ef",
            "0x000000000000000000000000e0e943e7d5070840d6d0c026a69f07787c5132cf",
            "0x000000000000000000000000def28f7d7f3700e30f403b6350fb54a358469874"
          ],
          "data": "0x0000000000000000000000000000000000000000000000000000000000000064",
          "blockHash": "0x7ff7248728951def417c2227f6e0efb8ae50cd8fc4462ae876ec315901b3f685",
          "blockNumber": "0x3942321",
          "transactionHash": "0x6a75d7a3aff84cd50a269e88b15cfa1db4c4114f95456df7218598a79926e1cc",
          "transactionIndex": "0x1",
          "logIndex": "0x1",
          "removed": false
        },
        {
          "address": "0x6052DA350b789E8FEF2307Ea0Bc8464568325906",
          "topics": [
            "0x448ae9bff4aaa5fb489d2812e8c122a36682e661254785220fbdf4198c792042"
          ],
          "data": "0x000000000000000000000000e0e943e7d5070840d6d0c026a69f07787c5132cf0000000000000000000000008d76db34ccca356fa805f5a277efff53aac5af88000000000000000000000000def28f7d7f3700e30f403b6350fb54a3584698740000000000000000000000000000000000000000000000000000000000000064",
          "blockHash": "0x7ff7248728951def417c2227f6e0efb8ae50cd8fc4462ae876ec315901b3f685",
          "blockNumber": "0x3942321",
          "transactionHash": "0x6a75d7a3aff84cd50a269e88b15cfa1db4c4114f95456df7218598a79926e1cc",
          "transactionIndex": "0x1",
          "logIndex": "0x2",
          "removed": false
        }
      ],
      "status": "0x1",
      "logsBloom": "0x00000000000000000000000000000000000000000000000000000000000000000000000000000000000000000000004000000000000000000000000000000000000000000000000000000008000000000400000000000000000000000000000200400000000000000000000000000000000000010000000000000010000000100000000000040000000000000000000000000001000000000000000000000000000000000100000000000000000000000800000000000000100000000200000000000002000000000000800000000000000000000000800000000000000000000000000000000000000000000000000000000000000000000000000000020000"
    }
  ],
  "libraries": [],
  "pending": [],
  "returns": {},
  "timestamp": 1708094405,
  "chain": 51,
  "multi": false,
  "commit": "2c78fd5"
}