{
  "transactions": [
    {
      "hash": "0x9c54f66364ccdfc4f0af5e87a73d4e468196a2868daf2e4356348c8dd81ed2ef",
      "transactionType": "CALL",
      "contractName": null,
      "contractAddress": "0xf48e37FC7a7767d04e39dE8effDD5b47A790e20D",
      "function": "debit(address,uint256,address)",
      "arguments": [
        "0xDef28f7d7F3700e30F403B6350Fb54a358469874",
        "100",
        "0xBff8142DAFDa5E796541f4f22fabc3Ee35bAFD0B"
      ],
      "transaction": {
        "type": "0x00",
        "from": "0x8d76db34ccca356fa805f5a277efff53aac5af88",
        "to": "0xf48e37fc7a7767d04e39de8effdd5b47a790e20d",
        "gas": "0x1c145",
        "value": "0x0",
        "data": "0x0a9c1890000000000000000000000000def28f7d7f3700e30f403b6350fb54a3584698740000000000000000000000000000000000000000000000000000000000000064000000000000000000000000bff8142dafda5e796541f4f22fabc3ee35bafd0b",
        "nonce": "0x3c"
      },
      "additionalContracts": [],
      "isFixedGasLimit": false
    }
  ],
  "receipts": [
    {
      "transactionHash": "0x9c54f66364ccdfc4f0af5e87a73d4e468196a2868daf2e4356348c8dd81ed2ef",
      "transactionIndex": "0x1",
      "blockHash": "0xe99c3087978d915b8a98af553cd59756d3a46af73f6d6f9faf9d38fcb6ffc722",
      "blockNumber": "0x39a63ec",
      "from": "0x8d76dB34CcCA356fA805f5A277EFFf53aaC5af88",
      "to": "0xf48e37FC7a7767d04e39dE8effDD5b47A790e20D",
      "cumulativeGasUsed": "0xb12c",
      "gasUsed": "0xb12c",
      "contractAddress": null,
      "logs": [
        {
          "address": "0xfBA6CED88170e86DA9F49902055cF80A62F1AC4a",
          "topics": [
            "0xddf252ad1be2c89b69c2b068fc378daa952ba7f163c4a11628f55a4df523b3ef",
            "0x000000000000000000000000f48e37fc7a7767d04e39de8effdd5b47a790e20d",
            "0x000000000000000000000000def28f7d7f3700e30f403b6350fb54a358469874"
          ],
          "data": "0x0000000000000000000000000000000000000000000000000000000000000064",
          "blockHash": "0xe99c3087978d915b8a98af553cd59756d3a46af73f6d6f9faf9d38fcb6ffc722",
          "blockNumber": "0x39a63ec",
          "transactionHash": "0x9c54f66364ccdfc4f0af5e87a73d4e468196a2868daf2e4356348c8dd81ed2ef",
          "transactionIndex": "0x1",
          "logIndex": "0x1",
          "removed": false
        },
        {
          "address": "0xf48e37FC7a7767d04e39dE8effDD5b47A790e20D",
          "topics": [
            "0xdc95cccefa07472883633e3b800a6f123825f8f8f5d4029e93b1306e8c5fa839"
          ],
          "data": "0x0000000000000000000000008d76db34ccca356fa805f5a277efff53aac5af88000000000000000000000000def28f7d7f3700e30f403b6350fb54a3584698740000000000000000000000000000000000000000000000000000000000000064",
          "blockHash": "0xe99c3087978d915b8a98af553cd59756d3a46af73f6d6f9faf9d38fcb6ffc722",
          "blockNumber": "0x39a63ec",
          "transactionHash": "0x9c54f66364ccdfc4f0af5e87a73d4e468196a2868daf2e4356348c8dd81ed2ef",
          "transactionIndex": "0x1",
          "logIndex": "0x2",
          "removed": false
        }
      ],
      "status": "0x1",
      "logsBloom": "0x00000000000000000000000000000000000000000000000000000000000000100000000000000000000000000000000000000000000000000000000000000000000000000000000000000008000000000000000000800000000000000000000000000000000000000000000000000000000000004200040000000010000000100000000000000000000000400000000000000000000000000000000000001000100000000100000000000000000000000000000000000000000000000000000000040002000002000000000000000000000000000000800000000000000000000020000040000000000000000000000000000000000000000000000000000000"
    }
  ],
  "libraries": [],
  "pending": [],
  "returns": {},
  "timestamp": 1709557126,
  "chain": 51,
  "multi": false,
  "commit": "8b9e0be"
}