{
  "transactions": [
    {
      "hash": "0xa5115e90d6b7f807aaf1f187356a617b4a5f624c93dc163c01a5544830af2440",
      "transactionType": "CALL",
      "contractName": null,
      "contractAddress": "0xb0F5c667e9aB3144cF6b2E9B03805a87955bdC07",
      "function": "mint(address,uint256)",
      "arguments": [
        "0x8d76dB34CcCA356fA805f5A277EFFf53aaC5af88",
        "1000000000000000000000000"
      ],
      "transaction": {
        "type": "0x00",
        "from": "0x8d76db34ccca356fa805f5a277efff53aac5af88",
        "to": "0xb0f5c667e9ab3144cf6b2e9b03805a87955bdc07",
        "gas": "0xc284",
        "value": "0x0",
        "data": "0x40c10f190000000000000000000000008d76db34ccca356fa805f5a277efff53aac5af8800000000000000000000000000000000000000000000d3c21bcecceda1000000",
        "nonce": "0x2f"
      },
      "additionalContracts": [],
      "isFixedGasLimit": false
    }
  ],
  "receipts": [
    {
      "transactionHash": "0xa5115e90d6b7f807aaf1f187356a617b4a5f624c93dc163c01a5544830af2440",
      "transactionIndex": "0x1",
      "blockHash": "0xdd7aee9aad79a79474cd12c0736f7f2eed5bb482f92a7e4590155f6ca0fa7de6",
      "blockNumber": "0x39422c8",
      "from": "0x8d76dB34CcCA356fA805f5A277EFFf53aaC5af88",
      "to": "0xb0F5c667e9aB3144cF6b2E9B03805a87955bdC07",
      "cumulativeGasUsed": "0x918d",
      "gasUsed": "0x918d",
      "contractAddress": null,
      "logs": [
        {
          "address": "0xb0F5c667e9aB3144cF6b2E9B03805a87955bdC07",
          "topics": [
            "0xddf252ad1be2c89b69c2b068fc378daa952ba7f163c4a11628f55a4df523b3ef",
            "0x0000000000000000000000000000000000000000000000000000000000000000",
            "0x0000000000000000000000008d76db34ccca356fa805f5a277efff53aac5af88"
          ],
          "data": "0x00000000000000000000000000000000000000000000d3c21bcecceda1000000",
          "blockHash": "0xdd7aee9aad79a79474cd12c0736f7f2eed5bb482f92a7e4590155f6ca0fa7de6",
          "blockNumber": "0x39422c8",
          "transactionHash": "0xa5115e90d6b7f807aaf1f187356a617b4a5f624c93dc163c01a5544830af2440",
          "transactionIndex": "0x1",
          "logIndex": "0x1",
          "removed": false
        }
      ],
      "status": "0x1",
      "logsBloom": "0x00000000000000000000000000000000000000000000000000000000000000000000000000000000000000000000004000000000000000000000000004000000000000000000000000000008000000000000000000000000000000000000000000400000020000000000000000020800000000000000000000000010000000000000000000000000000000000000000000000000000000000000000000000000000000000000000000000000000000000000000000000000000000000000000000000002000000000000800000000000000000000000000000000000000020000000000000000000000000000000000000000000000000000000000000400000"
    }
  ],
  "libraries": [],
  "pending": [],
  "returns": {},
  "timestamp": 1708094208,
  "chain": 51,
  "multi": false,
  "commit": "2c78fd5"
}