{
  "transactions": [
    {
      "hash": "0xa5115e90d6b7f807aaf1f187356a617b4a5f624c93dc163c01a5544830af2440",
      "transactionType": "CALL",
      "contractName": null,
      "contractAddress": "0xb0F5c667e9aB3144cF6b2E9B03805a87955bdC07",
      "function": "mint(address,uint256)",
      "arguments": [
        "0x8d76dB34CcCA356fA805f5A277EFFf53aaC5af88",
        "1000000000000000000000000"
      ],
      "transaction": {
        "type": "0x00",
        "from": "0x8d76db34ccca356fa805f5a277efff53aac5af88",
        "to": "0xb0f5c667e9ab3144cf6b2e9b03805a87955bdc07",
        "gas": "0xc284",
        "value": "0x0",
        "data": "0x40c10f190000000000000000000000008d76db34ccca356fa805f5a277efff53aac5af8800000000000000000000000000000000000000000000d3c21bcecceda1000000",
        "nonce": "0x2f"
      },
      "additionalContracts": [],
      "isFixedGasLimit": false
    }
  ],
  "receipts": [],
  "libraries": [],
  "pending": [
    "0xa5115e90d6b7f807aaf1f187356a617b4a5f624c93dc163c01a5544830af2440"
  ],
  "returns": {},
  "timestamp": 1708094202,
  "chain": 51,
  "multi": false,
  "commit": "2c78fd5"
}