{
  "transactions": [
    {
      "hash": "0x6244e5da3b7ae5285c733fa02fc2c375916735132507a0106425152ded98af0f",
      "transactionType": "CALL",
      "contractName": null,
      "contractAddress": "0xb0F5c667e9aB3144cF6b2E9B03805a87955bdC07",
      "function": "mint(address,uint256)",
      "arguments": [
        "0x1804c8AB1F12E6bbf3894d4083f33e07309d1f38",
        "1000000000000"
      ],
      "transaction": {
        "type": "0x00",
        "from": "0x8d76db34ccca356fa805f5a277efff53aac5af88",
        "to": "0xb0f5c667e9ab3144cf6b2e9b03805a87955bdc07",
        "gas": "0xb783",
        "value": "0x0",
        "data": "0x40c10f190000000000000000000000001804c8ab1f12e6bbf3894d4083f33e07309d1f38000000000000000000000000000000000000000000000000000000e8d4a51000",
        "nonce": "0x2c"
      },
      "additionalContracts": [],
      "isFixedGasLimit": false
    }
  ],
  "receipts": [
    {
      "transactionHash": "0x6244e5da3b7ae5285c733fa02fc2c375916735132507a0106425152ded98af0f",
      "transactionIndex": "0x1",
      "blockHash": "0x11fee4b788da4d73510be3b66c906c25c0199c1181c5d9ee1033674a4c630ce8",
      "blockNumber": "0x3942254",
      "from": "0x8d76dB34CcCA356fA805f5A277EFFf53aaC5af88",
      "to": "0xb0F5c667e9aB3144cF6b2E9B03805a87955bdC07",
      "cumulativeGasUsed": "0x90cd",
      "gasUsed": "0x90cd",
      "contractAddress": null,
      "logs": [
        {
          "address": "0xb0F5c667e9aB3144cF6b2E9B03805a87955bdC07",
          "topics": [
            "0xddf252ad1be2c89b69c2b068fc378daa952ba7f163c4a11628f55a4df523b3ef",
            "0x0000000000000000000000000000000000000000000000000000000000000000",
            "0x0000000000000000000000001804c8ab1f12e6bbf3894d4083f33e07309d1f38"
          ],
          "data": "0x000000000000000000000000000000000000000000000000000000e8d4a51000",
          "blockHash": "0x11fee4b788da4d73510be3b66c906c25c0199c1181c5d9ee1033674a4c630ce8",
          "blockNumber": "0x3942254",
          "transactionHash": "0x6244e5da3b7ae5285c733fa02fc2c375916735132507a0106425152ded98af0f",
          "transactionIndex": "0x1",
          "logIndex": "0x1",
          "removed": false
        }
      ],
      "status": "0x1",
      "logsBloom": "0x00000000000000000000000000000000000000000000000000000000000000000000000000000000000000000000004000000000000000000000000000000000000000000000000000000008000000000000000000000000000000000000000000400000020000000001000000000800000000000000000000000010000000000000000000000000000004000000000000000000000000000000000000000000000000000000000000000000000000000000000000000000000000000000000000000002000004000000800000000000000000000000000000000000000020000000000000000000000000000000000000000000000000000000000000000000"
    }
  ],
  "libraries": [],
  "pending": [],
  "returns": {},
  "timestamp": 1708093951,
  "chain": 51,
  "multi": false,
  "commit": "2c78fd5"
}