{
  "transactions": [
    {
      "hash": "0xdb992de0b3382ad2efccb96af74d22c81bcd815adc4ae919d6bc415d98f82bb0",
      "transactionType": "CALL",
      "contractName": null,
      "contractAddress": "0xfBA6CED88170e86DA9F49902055cF80A62F1AC4a",
      "function": "mint(address,uint256)",
      "arguments": [
        "0x8d76dB34CcCA356fA805f5A277EFFf53aaC5af88",
        "1000000000000000000000000"
      ],
      "transaction": {
        "type": "0x00",
        "from": "0x8d76db34ccca356fa805f5a277efff53aac5af88",
        "to": "0xfba6ced88170e86da9f49902055cf80a62f1ac4a",
        "gas": "0xc391",
        "value": "0x0",
        "data": "0x40c10f190000000000000000000000008d76db34ccca356fa805f5a277efff53aac5af8800000000000000000000000000000000000000000000d3c21bcecceda1000000",
        "nonce": "0x34"
      },
      "additionalContracts": [],
      "isFixedGasLimit": false
    },
    {
      "hash": "0x337bf45ad3201f867f0cb609c005497dc9acfd3e3607faab9068293665bdaca9",
      "transactionType": "CALL",
      "contractName": null,
      "contractAddress": "0xfBA6CED88170e86DA9F49902055cF80A62F1AC4a",
      "function": "approve(address,uint256)",
      "arguments": [
        "0x9E2Fb8d43C4F700A9362Ce48dF3DFF53e4877716",
        "1000000000000000000000000"
      ],
      "transaction": {
        "type": "0x00",
        "from": "0x8d76db34ccca356fa805f5a277efff53aac5af88",
        "to": "0xfba6ced88170e86da9f49902055cf80a62f1ac4a",
        "gas": "0xfa41",
        "value": "0x0",
        "data": "0x095ea7b30000000000000000000000009e2fb8d43c4f700a9362ce48df3dff53e487771600000000000000000000000000000000000000000000d3c21bcecceda1000000",
        "nonce": "0x35"
      },
      "additionalContracts": [],
      "isFixedGasLimit": false
    }
  ],
  "receipts": [
    {
      "transactionHash": "0xdb992de0b3382ad2efccb96af74d22c81bcd815adc4ae919d6bc415d98f82bb0",
      "transactionIndex": "0x2",
      "blockHash": "0x323598e3cd25056943e11fd0f6918ebf7d46f827d0bbd3b7a9e3b38c3a6c2878",
      "blockNumber": "0x39a5da2",
      "from": "0x8d76dB34CcCA356fA805f5A277EFFf53aaC5af88",
      "to": "0xfBA6CED88170e86DA9F49902055cF80A62F1AC4a",
      "cumulativeGasUsed": "0x2e45d",
      "gasUsed": "0x9245",
      "contractAddress": null,
      "logs": [
        {
          "address": "0xfBA6CED88170e86DA9F49902055cF80A62F1AC4a",
          "topics": [
            "0xddf252ad1be2c89b69c2b068fc378daa952ba7f163c4a11628f55a4df523b3ef",
            "0x0000000000000000000000000000000000000000000000000000000000000000",
            "0x0000000000000000000000008d76db34ccca356fa805f5a277efff53aac5af88"
          ],
          "data": "0x00000000000000000000000000000000000000000000d3c21bcecceda1000000",
          "blockHash": "0x323598e3cd25056943e11fd0f6918ebf7d46f827d0bbd3b7a9e3b38c3a6c2878",
          "blockNumber": "0x39a5da2",
          "transactionHash": "0xdb992de0b3382ad2efccb96af74d22c81bcd815adc4ae919d6bc415d98f82bb0",
          "transactionIndex": "0x2",
          "logIndex": "0x7",
          "removed": false
        }
      ],
      "status": "0x1",
      "logsBloom": "0x00000000000000000000000000000000000000000000000000000000000000000000000000000000000000000000000000000000000000000000000004000000000000000000000000000008000000000000000000800000000000000000000000000000020000000000000000020800000000004000000000000010000000000000000000000000000000000000000000000000000000000000000000000000000000000000000000000000000000000000000000000000000000000000000000000002000002000000000000000000000000000000000000000000000020000000000000000000000000000000000000000000000000000000000000400000"
    },
    {
      "transactionHash": "0x337bf45ad3201f867f0cb609c005497dc9acfd3e3607faab9068293665bdaca9",
      "transactionIndex": "0x3",
      "blockHash": "0x323598e3cd25056943e11fd0f6918ebf7d46f827d0bbd3b7a9e3b38c3a6c2878",
      "blockNumber": "0x39a5da2",
      "from": "0x8d76dB34CcCA356fA805f5A277EFFf53aaC5af88",
      "to": "0xfBA6CED88170e86DA9F49902055cF80A62F1AC4a",
      "cumulativeGasUsed": "0x397a4",
      "gasUsed": "0xb347",
      "contractAddress": null,
      "logs": [
        {
          "address": "0xfBA6CED88170e86DA9F49902055cF80A62F1AC4a",
          "topics": [
            "0x8c5be1e5ebec7d5bd14f71427d1e84f3dd0314c0f7b2291e5b200ac8c7c3b925",
            "0x0000000000000000000000008d76db34ccca356fa805f5a277efff53aac5af88",
            "0x0000000000000000000000009e2fb8d43c4f700a9362ce48df3dff53e4877716"
          ],
          "data": "0x00000000000000000000000000000000000000000000d3c21bcecceda1000000",
          "blockHash": "0x323598e3cd25056943e11fd0f6918ebf7d46f827d0bbd3b7a9e3b38c3a6c2878",
          "blockNumber": "0x39a5da2",
          "transactionHash": "0x337bf45ad3201f867f0cb609c005497dc9acfd3e3607faab9068293665bdaca9",
          "transactionIndex": "0x3",
          "logIndex": "0x8",
          "removed": false
        }
      ],
      "status": "0x1",
      "logsBloom": "0x00000000000000000000000000000000000000000000000000000000000000000000000000000000000000000000000000000010000000000000000004200000000000000000000000000000000000000000000000800000000000000000000000000000000000000000000000020000000000004000000000000000000000000000000000000000000000000000000000000000000000000800000000000000020000000000000000000000000000000000000000000010000000000000000000000000000002000000000000000000000000000000000000000000000000000010000000000000000000000000000000000000000000000000000000400000"
    }
  ],
  "libraries": [],
  "pending": [],
  "returns": {},
  "timestamp": 1709549000,
  "chain": 51,
  "multi": false,
  "commit": "8b9e0be"
}