{
  "transactions": [
    {
      "hash": "0x0bc77107e4da6b45bdcaf69fb7f56a912cf9549ca2fc3935cffa72e723fc0d46",
      "transactionType": "CALL",
      "contractName": null,
      "contractAddress": "0xf31DbBeb861B6Bf008Be3E542cDea390bE3B1240",
      "function": "deployBankroll(address,uint256,bytes32)",
      "arguments": [
        "0xfBA6CED88170e86DA9F49902055cF80A62F1AC4a",
        "10000",
        "0x3078300000000000000000000000000000000000000000000000000000000000"
      ],
      "transaction": {
        "type": "0x00",
        "from": "0x4015b6569369af4f17cd2da9e2f5e14a5dd162b4",
        "to": "0xf31dbbeb861b6bf008be3e542cdea390be3b1240",
        "gas": "0x6c9fd",
        "value": "0x0",
        "data": "0xeb971c61000000000000000000000000fba6ced88170e86da9f49902055cf80a62f1ac4a00000000000000000000000000000000000000000000000000000000000027103078300000000000000000000000000000000000000000000000000000000000",
        "nonce": "0x66"
      },
      "additionalContracts": [
        {
          "transactionType": "CREATE2",
          "address": "0xf48e37FC7a7767d04e39dE8effDD5b47A790e20D",
          "initCode": "0x3d602d80600a3d3981f3363d3d373d3d3d363d730bca86079e2865fc0ef87f92e084426ae51c46c05af43d82803e903d91602b57fd5bf3"
        }
      ],
      "isFixedGasLimit": false
    },
    {
      "hash": "0x288957772e957e096cc77667dd92fc931fcf49215242b0e2c5cd262838e721d7",
      "transactionType": "CALL",
      "contractName": null,
      "contractAddress": "0xbda10160e83FC353bc198A2F2a25850FF9648722",
      "function": "setOperatorToBankroll(address,address)",
      "arguments": [
        "0xf48e37FC7a7767d04e39dE8effDD5b47A790e20D",
        "0xBff8142DAFDa5E796541f4f22fabc3Ee35bAFD0B"
      ],
      "transaction": {
        "type": "0x00",
        "from": "0x4015b6569369af4f17cd2da9e2f5e14a5dd162b4",
        "to": "0xbda10160e83fc353bc198a2f2a25850ff9648722",
        "gas": "0x1fcf7",
        "value": "0x0",
        "data": "0xcb233b0a000000000000000000000000f48e37fc7a7767d04e39de8effdd5b47a790e20d000000000000000000000000bff8142dafda5e796541f4f22fabc3ee35bafd0b",
        "nonce": "0x67"
      },
      "additionalContracts": [],
      "isFixedGasLimit": false
    },
    {
      "hash": "0x4107d6a7ce5db9996cca50ca68e3b85393876fa6a872bacc1e2cc88e12a96e52",
      "transactionType": "CALL",
      "contractName": null,
      "contractAddress": "0xbda10160e83FC353bc198A2F2a25850FF9648722",
      "function": "approveBankroll(address,uint256)",
      "arguments": [
        "0xf48e37FC7a7767d04e39dE8effDD5b47A790e20D",
        "650"
      ],
      "transaction": {
        "type": "0x00",
        "from": "0x4015b6569369af4f17cd2da9e2f5e14a5dd162b4",
        "to": "0xbda10160e83fc353bc198a2f2a25850ff9648722",
        "gas": "0x1f91b",
        "value": "0x0",
        "data": "0x9756e8df000000000000000000000000f48e37fc7a7767d04e39de8effdd5b47a790e20d000000000000000000000000000000000000000000000000000000000000028a",
        "nonce": "0x68"
      },
      "additionalContracts": [],
      "isFixedGasLimit": false
    },
    {
      "hash": "0x6895732f3db44cb37c2b93ea2438cbfb7f7ac15def51485764ab0d02fca779da",
      "transactionType": "CALL",
      "contractName": null,
      "contractAddress": "0xf48e37FC7a7767d04e39dE8effDD5b47A790e20D",
      "function": "maxBankrollManagerApprove()",
      "arguments": [],
      "transaction": {
        "type": "0x00",
        "from": "0x4015b6569369af4f17cd2da9e2f5e14a5dd162b4",
        "to": "0xf48e37fc7a7767d04e39de8effdd5b47a790e20d",
        "gas": "0x13211",
        "value": "0x0",
        "data": "0xa4eb75b3",
        "nonce": "0x69"
      },
      "additionalContracts": [],
      "isFixedGasLimit": false
    }
  ],
  "receipts": [
    {
      "transactionHash": "0x0bc77107e4da6b45bdcaf69fb7f56a912cf9549ca2fc3935cffa72e723fc0d46",
      "transactionIndex": "0x2",
      "blockHash": "0xc3eb5d9f41f2ae8e2d8098a171fdf74c7a054058a35f44bf5269d92d12fb3e39",
      "blockNumber": "0x39a625d",
      "from": "0x4015B6569369af4F17CD2DA9e2F5e14A5Dd162b4",
      "to": "0xf31DbBeb861B6Bf008Be3E542cDea390bE3B1240",
      "cumulativeGasUsed": "0x5ebe0",
      "gasUsed": "0x493fa",
      "contractAddress": null,
      "logs": [
        {
          "address": "0xf48e37FC7a7767d04e39dE8effDD5b47A790e20D",
          "topics": [
            "0x2f8788117e7eff1d82e926ec794901d17c78024a50270940304540a733656f0d",
            "0x0000000000000000000000000000000000000000000000000000000000000000",
            "0x0000000000000000000000001d424382e8e09cc6f8425c9f32d2c695e7698db7",
            "0x000000000000000000000000f31dbbeb861b6bf008be3e542cdea390be3b1240"
          ],
          "data": "0x",
          "blockHash": "0xc3eb5d9f41f2ae8e2d8098a171fdf74c7a054058a35f44bf5269d92d12fb3e39",
          "blockNumber": "0x39a625d",
          "transactionHash": "0x0bc77107e4da6b45bdcaf69fb7f56a912cf9549ca2fc3935cffa72e723fc0d46",
          "transactionIndex": "0x2",
          "logIndex": "0x2",
          "removed": false
        },
        {
          "address": "0xf48e37FC7a7767d04e39dE8effDD5b47A790e20D",
          "topics": [
            "0x2f8788117e7eff1d82e926ec794901d17c78024a50270940304540a733656f0d",
            "0xdf8b4c520ffe197c5343c6f5aec59570151ef9a492f2c624fd45ddde6135ec42",
            "0x0000000000000000000000008d76db34ccca356fa805f5a277efff53aac5af88",
            "0x000000000000000000000000f31dbbeb861b6bf008be3e542cdea390be3b1240"
          ],
          "data": "0x",
          "blockHash": "0xc3eb5d9f41f2ae8e2d8098a171fdf74c7a054058a35f44bf5269d92d12fb3e39",
          "blockNumber": "0x39a625d",
          "transactionHash": "0x0bc77107e4da6b45bdcaf69fb7f56a912cf9549ca2fc3935cffa72e723fc0d46",
          "transactionIndex": "0x2",
          "logIndex": "0x3",
          "removed": false
        },
        {
          "address": "0xf48e37FC7a7767d04e39dE8effDD5b47A790e20D",
          "topics": [
            "0x2f8788117e7eff1d82e926ec794901d17c78024a50270940304540a733656f0d",
            "0x48a7db58bc0d0016705458e918f4ea84477e4f4c43c6d240db04e4db985c2082",
            "0x000000000000000000000000bda10160e83fc353bc198a2f2a25850ff9648722",
            "0x000000000000000000000000f31dbbeb861b6bf008be3e542cdea390be3b1240"
          ],
          "data": "0x",
          "blockHash": "0xc3eb5d9f41f2ae8e2d8098a171fdf74c7a054058a35f44bf5269d92d12fb3e39",
          "blockNumber": "0x39a625d",
          "transactionHash": "0x0bc77107e4da6b45bdcaf69fb7f56a912cf9549ca2fc3935cffa72e723fc0d46",
          "transactionIndex": "0x2",
          "logIndex": "0x4",
          "removed": false
        },
        {
          "address": "0xf48e37FC7a7767d04e39dE8effDD5b47A790e20D",
          "topics": [
            "0xc7f505b2f371ae2175ee4913f4499e1f2633a7b5936321eed1cdaeb6115181d2"
          ],
          "data": "0x0000000000000000000000000000000000000000000000000000000000000001",
          "blockHash": "0xc3eb5d9f41f2ae8e2d8098a171fdf74c7a054058a35f44bf5269d92d12fb3e39",
          "blockNumber": "0x39a625d",
          "transactionHash": "0x0bc77107e4da6b45bdcaf69fb7f56a912cf9549ca2fc3935cffa72e723fc0d46",
          "transactionIndex": "0x2",
          "logIndex": "0x5",
          "removed": false
        }
      ],
      "status": "0x1",
      "logsBloom": "0x00804004000000000000000000000000000000000000000000000000000000300000000000000000000000000000004000000000000080000000000004000000000000000000000000000000000000000000000000000000008000000000000000000000020000000000008000020800000000000200040000000000000000000000048000000000000800000000000000000000000080000000000000000000000000000000000000000000100000000000000000000400001000000000000000000000000000000004000000000000000000000004000100000000000020002000000001000000000000000000000000000010000000000000000000400000"
    },
    {
      "transactionHash": "0x288957772e957e096cc77667dd92fc931fcf49215242b0e2c5cd262838e721d7",
      "transactionIndex": "0x1",
      "blockHash": "0x46c2d8d47983a3d549d1e819977670c925848271e35921ce10c6da9edb667783",
      "blockNumber": "0x39a625e",
      "from": "0x4015B6569369af4F17CD2DA9e2F5e14A5Dd162b4",
      "to": "0xbda10160e83FC353bc198A2F2a25850FF9648722",
      "cumulativeGasUsed": "0x1606c",
      "gasUsed": "0x1606c",
      "contractAddress": null,
      "logs": [],
      "status": "0x1",
      "logsBloom": "0x00000000000000000000000000000000000000000000000000000000000000000000000000000000000000000000000000000000000000000000000000000000000000000000000000000000000000000000000000000000000000000000000000000000000000000000000000000000000000000000000000000000000000000000000000000000000000000000000000000000000000000000000000000000000000000000000000000000000000000000000000000000000000000000000000000000000000000000000000000000000000000000000000000000000000000000000000000000000000000000000000000000000000000000000000000000"
    },
    {
      "transactionHash": "0x4107d6a7ce5db9996cca50ca68e3b85393876fa6a872bacc1e2cc88e12a96e52",
      "transactionIndex": "0x2",
      "blockHash": "0x46c2d8d47983a3d549d1e819977670c925848271e35921ce10c6da9edb667783",
      "blockNumber": "0x39a625e",
      "from": "0x4015B6569369af4F17CD2DA9e2F5e14A5Dd162b4",
      "to": "0xbda10160e83FC353bc198A2F2a25850FF9648722",
      "cumulativeGasUsed": "0x2b168",
      "gasUsed": "0x150fc",
      "contractAddress": null,
      "logs": [],
      "status": "0x1",
      "logsBloom": "0x00000000000000000000000000000000000000000000000000000000000000000000000000000000000000000000000000000000000000000000000000000000000000000000000000000000000000000000000000000000000000000000000000000000000000000000000000000000000000000000000000000000000000000000000000000000000000000000000000000000000000000000000000000000000000000000000000000000000000000000000000000000000000000000000000000000000000000000000000000000000000000000000000000000000000000000000000000000000000000000000000000000000000000000000000000000"
    },
    {
      "transactionHash": "0x6895732f3db44cb37c2b93ea2438cbfb7f7ac15def51485764ab0d02fca779da",
      "transactionIndex": "0x3",
      "blockHash": "0x46c2d8d47983a3d549d1e819977670c925848271e35921ce10c6da9edb667783",
      "blockNumber": "0x39a625e",
      "from": "0x4015B6569369af4F17CD2DA9e2F5e14A5Dd162b4",
      "to": "0xf48e37FC7a7767d04e39dE8effDD5b47A790e20D",
      "cumulativeGasUsed": "0x370f3",
      "gasUsed": "0xbf8b",
      "contractAddress": null,
      "logs": [
        {
          "address": "0xfBA6CED88170e86DA9F49902055cF80A62F1AC4a",
          "topics": [
            "0x8c5be1e5ebec7d5bd14f71427d1e84f3dd0314c0f7b2291e5b200ac8c7c3b925",
            "0x000000000000000000000000f48e37fc7a7767d04e39de8effdd5b47a790e20d",
            "0x000000000000000000000000bda10160e83fc353bc198a2f2a25850ff9648722"
          ],
          "data": "0xffffffffffffffffffffffffffffffffffffffffffffffffffffffffffffffff",
          "blockHash": "0x46c2d8d47983a3d549d1e819977670c925848271e35921ce10c6da9edb667783",
          "blockNumber": "0x39a625e",
          "transactionHash": "0x6895732f3db44cb37c2b93ea2438cbfb7f7ac15def51485764ab0d02fca779da",
          "transactionIndex": "0x3",
          "logIndex": "0x1",
          "removed": false
        }
      ],
      "status": "0x1",
      "logsBloom": "0x00800000000000000000000000000000000000000000000000000000000000000000000000000000000000000000004000000000000000000000000000200000000000000000000000000000000000000000000000800000000000000000000000000000000000000000000000000000000000004000000000000000000000000000008000000000000000400000000000000000000000000000000000000000020000000000000000000000000000000000000000000000000000000000000000000000000002000000000000000000000000000000000000000000000000000030000040000000000000000000000000000000000000000000000000000000"
    }
  ],
  "libraries": [],
  "pending": [],
  "returns": {},
  "timestamp": 1709555462,
  "chain": 51,
  "multi": false,
  "commit": "8b9e0be"
}