{
  "transactions": [
    {
      "hash": "0xe2d4d4c848530ce0ccdb1e6ef7f356d03395abd91ebff691e1ac13cc6cf7a99b",
      "transactionType": "CALL",
      "contractName": null,
      "contractAddress": "0x5A44Ad2BEdb5f4CE6041706aCAcfF8755D7a96d8",
      "function": "deployBankroll(address,uint256,bytes32)",
      "arguments": [
        "0xfBA6CED88170e86DA9F49902055cF80A62F1AC4a",
        "10000",
        "0x3078300000000000000000000000000000000000000000000000000000000000"
      ],
      "transaction": {
        "type": "0x00",
        "from": "0x4015b6569369af4f17cd2da9e2f5e14a5dd162b4",
        "to": "0x5a44ad2bedb5f4ce6041706acacff8755d7a96d8",
        "gas": "0x6c9fd",
        "value": "0x0",
        "data": "0xeb971c61000000000000000000000000fba6ced88170e86da9f49902055cf80a62f1ac4a00000000000000000000000000000000000000000000000000000000000027103078300000000000000000000000000000000000000000000000000000000000",
        "nonce": "0x5b"
      },
      "additionalContracts": [
        {
          "transactionType": "CREATE2",
          "address": "0x9E2Fb8d43C4F700A9362Ce48dF3DFF53e4877716",
          "initCode": "0x3d602d80600a3d3981f3363d3d373d3d3d363d7376e5195c7d09c2fceab4cb8ea6a54b362de655da5af43d82803e903d91602b57fd5bf3"
        }
      ],
      "isFixedGasLimit": false
    },
    {
      "hash": "0xe187b29f3526eb765b5bc31408891bdc63abc37ef3d3cd7911bcb3da9c776001",
      "transactionType": "CALL",
      "contractName": null,
      "contractAddress": "0x0Eec616A9102562d97695441d1c4aaa51546C341",
      "function": "setOperatorToBankroll(address,address)",
      "arguments": [
        "0x9E2Fb8d43C4F700A9362Ce48dF3DFF53e4877716",
        "0xBff8142DAFDa5E796541f4f22fabc3Ee35bAFD0B"
      ],
      "transaction": {
        "type": "0x00",
        "from": "0x4015b6569369af4f17cd2da9e2f5e14a5dd162b4",
        "to": "0x0eec616a9102562d97695441d1c4aaa51546c341",
        "gas": "0x1fcf7",
        "value": "0x0",
        "data": "0xcb233b0a0000000000000000000000009e2fb8d43c4f700a9362ce48df3dff53e4877716000000000000000000000000bff8142dafda5e796541f4f22fabc3ee35bafd0b",
        "nonce": "0x5c"
      },
      "additionalContracts": [],
      "isFixedGasLimit": false
    },
    {
      "hash": "0x4167187ce7cda5cdbf4abcd2ba4a25dded8a9d5b063b7d0b03b7ee299aacbd7f",
      "transactionType": "CALL",
      "contractName": null,
      "contractAddress": "0x0Eec616A9102562d97695441d1c4aaa51546C341",
      "function": "approveBankroll(address,uint256)",
      "arguments": [
        "0x9E2Fb8d43C4F700A9362Ce48dF3DFF53e4877716",
        "650"
      ],
      "transaction": {
        "type": "0x00",
        "from": "0x4015b6569369af4f17cd2da9e2f5e14a5dd162b4",
        "to": "0x0eec616a9102562d97695441d1c4aaa51546c341",
        "gas": "0x1f91b",
        "value": "0x0",
        "data": "0x9756e8df0000000000000000000000009e2fb8d43c4f700a9362ce48df3dff53e4877716000000000000000000000000000000000000000000000000000000000000028a",
        "nonce": "0x5d"
      },
      "additionalContracts": [],
      "isFixedGasLimit": false
    },
    {
      "hash": "0x6df5f3db0cf16466f4f8fc0fdf79fdebde7b5533331c2633d5b6a6465bc7da00",
      "transactionType": "CALL",
      "contractName": null,
      "contractAddress": "0x9E2Fb8d43C4F700A9362Ce48dF3DFF53e4877716",
      "function": "maxBankrollManagerApprove()",
      "arguments": [],
      "transaction": {
        "type": "0x00",
        "from": "0x4015b6569369af4f17cd2da9e2f5e14a5dd162b4",
        "to": "0x9e2fb8d43c4f700a9362ce48df3dff53e4877716",
        "gas": "0x13211",
        "value": "0x0",
        "data": "0xa4eb75b3",
        "nonce": "0x5e"
      },
      "additionalContracts": [],
      "isFixedGasLimit": false
    }
  ],
  "receipts": [
    {
      "transactionHash": "0xe2d4d4c848530ce0ccdb1e6ef7f356d03395abd91ebff691e1ac13cc6cf7a99b",
      "transactionIndex": "0x1",
      "blockHash": "0xc1414a05980f766c7a46167804ccb29e5d3b3f8d0dc34156515623ba2e4c22be",
      "blockNumber": "0x399b295",
      "from": "0x4015B6569369af4F17CD2DA9e2F5e14A5Dd162b4",
      "to": "0x5A44Ad2BEdb5f4CE6041706aCAcfF8755D7a96d8",
      "cumulativeGasUsed": "0x493fa",
      "gasUsed": "0x493fa",
      "contractAddress": null,
      "logs": [
        {
          "address": "0x9E2Fb8d43C4F700A9362Ce48dF3DFF53e4877716",
          "topics": [
            "0x2f8788117e7eff1d82e926ec794901d17c78024a50270940304540a733656f0d",
            "0x0000000000000000000000000000000000000000000000000000000000000000",
            "0x0000000000000000000000008d76db34ccca356fa805f5a277efff53aac5af88",
            "0x0000000000000000000000005a44ad2bedb5f4ce6041706acacff8755d7a96d8"
          ],
          "data": "0x",
          "blockHash": "0xc1414a05980f766c7a46167804ccb29e5d3b3f8d0dc34156515623ba2e4c22be",
          "blockNumber": "0x399b295",
          "transactionHash": "0xe2d4d4c848530ce0ccdb1e6ef7f356d03395abd91ebff691e1ac13cc6cf7a99b",
          "transactionIndex": "0x1",
          "logIndex": "0x1",
          "removed": false
        },
        {
          "address": "0x9E2Fb8d43C4F700A9362Ce48dF3DFF53e4877716",
          "topics": [
            "0x2f8788117e7eff1d82e926ec794901d17c78024a50270940304540a733656f0d",
            "0xdf8b4c520ffe197c5343c6f5aec59570151ef9a492f2c624fd45ddde6135ec42",
            "0x0000000000000000000000001d424382e8e09cc6f8425c9f32d2c695e7698db7",
            "0x0000000000000000000000005a44ad2bedb5f4ce6041706acacff8755d7a96d8"
          ],
          "data": "0x",
          "blockHash": "0xc1414a05980f766c7a46167804ccb29e5d3b3f8d0dc34156515623ba2e4c22be",
          "blockNumber": "0x399b295",
          "transactionHash": "0xe2d4d4c848530ce0ccdb1e6ef7f356d03395abd91ebff691e1ac13cc6cf7a99b",
          "transactionIndex": "0x1",
          "logIndex": "0x2",
          "removed": false
        },
        {
          "address": "0x9E2Fb8d43C4F700A9362Ce48dF3DFF53e4877716",
          "topics": [
            "0x2f8788117e7eff1d82e926ec794901d17c78024a50270940304540a733656f0d",
            "0x48a7db58bc0d0016705458e918f4ea84477e4f4c43c6d240db04e4db985c2082",
            "0x0000000000000000000000000eec616a9102562d97695441d1c4aaa51546c341",
            "0x0000000000000000000000005a44ad2bedb5f4ce6041706acacff8755d7a96d8"
          ],
          "data": "0x",
          "blockHash": "0xc1414a05980f766c7a46167804ccb29e5d3b3f8d0dc34156515623ba2e4c22be",
          "blockNumber": "0x399b295",
          "transactionHash": "0xe2d4d4c848530ce0ccdb1e6ef7f356d03395abd91ebff691e1ac13cc6cf7a99b",
          "transactionIndex": "0x1",
          "logIndex": "0x3",
          "removed": false
        },
        {
          "address": "0x9E2Fb8d43C4F700A9362Ce48dF3DFF53e4877716",
          "topics": [
            "0xc7f505b2f371ae2175ee4913f4499e1f2633a7b5936321eed1cdaeb6115181d2"
          ],
          "data": "0x0000000000000000000000000000000000000000000000000000000000000001",
          "blockHash": "0xc1414a05980f766c7a46167804ccb29e5d3b3f8d0dc34156515623ba2e4c22be",
          "blockNumber": "0x399b295",
          "transactionHash": "0xe2d4d4c848530ce0ccdb1e6ef7f356d03395abd91ebff691e1ac13cc6cf7a99b",
          "transactionIndex": "0x1",
          "logIndex": "0x4",
          "removed": false
        }
      ],
      "status": "0x1",
      "logsBloom": "0x00004004000000000000040000000000000040040000000000000000000000200000000000000000000000000000000000000000080080000000000004000000000000000000000000000000000000000000000000000000000000000200000000000000020000000010008000020800000000000000000000000000000000000000040000000000000800000000000000000000000080000000000000000000000000000000000000000000100000000000000000000400001000000000000000000000000000000004000000000000000000000004000100000000000020002000000000000010000000000000000000000000400000040000000000400000"
    },
    {
      "transactionHash": "0xe187b29f3526eb765b5bc31408891bdc63abc37ef3d3cd7911bcb3da9c776001",
      "transactionIndex": "0x2",
      "blockHash": "0xc1414a05980f766c7a46167804ccb29e5d3b3f8d0dc34156515623ba2e4c22be",
      "blockNumber": "0x399b295",
      "from": "0x4015B6569369af4F17CD2DA9e2F5e14A5Dd162b4",
      "to": "0x0Eec616A9102562d97695441d1c4aaa51546C341",
      "cumulativeGasUsed": "0x5f466",
      "gasUsed": "0x1606c",
      "contractAddress": null,
      "logs": [],
      "status": "0x1",
      "logsBloom": "0x00000000000000000000000000000000000000000000000000000000000000000000000000000000000000000000000000000000000000000000000000000000000000000000000000000000000000000000000000000000000000000000000000000000000000000000000000000000000000000000000000000000000000000000000000000000000000000000000000000000000000000000000000000000000000000000000000000000000000000000000000000000000000000000000000000000000000000000000000000000000000000000000000000000000000000000000000000000000000000000000000000000000000000000000000000000"
    },
    {
      "transactionHash": "0x4167187ce7cda5cdbf4abcd2ba4a25dded8a9d5b063b7d0b03b7ee299aacbd7f",
      "transactionIndex": "0x3",
      "blockHash": "0xc1414a05980f766c7a46167804ccb29e5d3b3f8d0dc34156515623ba2e4c22be",
      "blockNumber": "0x399b295",
      "from": "0x4015B6569369af4F17CD2DA9e2F5e14A5Dd162b4",
      "to": "0x0Eec616A9102562d97695441d1c4aaa51546C341",
      "cumulativeGasUsed": "0x74562",
      "gasUsed": "0x150fc",
      "contractAddress": null,
      "logs": [],
      "status": "0x1",
      "logsBloom": "0x00000000000000000000000000000000000000000000000000000000000000000000000000000000000000000000000000000000000000000000000000000000000000000000000000000000000000000000000000000000000000000000000000000000000000000000000000000000000000000000000000000000000000000000000000000000000000000000000000000000000000000000000000000000000000000000000000000000000000000000000000000000000000000000000000000000000000000000000000000000000000000000000000000000000000000000000000000000000000000000000000000000000000000000000000000000"
    },
    {
      "transactionHash": "0x6df5f3db0cf16466f4f8fc0fdf79fdebde7b5533331c2633d5b6a6465bc7da00",
      "transactionIndex": "0x4",
      "blockHash": "0xc1414a05980f766c7a46167804ccb29e5d3b3f8d0dc34156515623ba2e4c22be",
      "blockNumber": "0x399b295",
      "from": "0x4015B6569369af4F17CD2DA9e2F5e14A5Dd162b4",
      "to": "0x9E2Fb8d43C4F700A9362Ce48dF3DFF53e4877716",
      "cumulativeGasUsed": "0x804ed",
      "gasUsed": "0xbf8b",
      "contractAddress": null,
      "logs": [
        {
          "address": "0xfBA6CED88170e86DA9F49902055cF80A62F1AC4a",
          "topics": [
            "0x8c5be1e5ebec7d5bd14f71427d1e84f3dd0314c0f7b2291e5b200ac8c7c3b925",
            "0x0000000000000000000000009e2fb8d43c4f700a9362ce48df3dff53e4877716",
            "0x0000000000000000000000000eec616a9102562d97695441d1c4aaa51546c341"
          ],
          "data": "0xffffffffffffffffffffffffffffffffffffffffffffffffffffffffffffffff",
          "blockHash": "0xc1414a05980f766c7a46167804ccb29e5d3b3f8d0dc34156515623ba2e4c22be",
          "blockNumber": "0x399b295",
          "transactionHash": "0x6df5f3db0cf16466f4f8fc0fdf79fdebde7b5533331c2633d5b6a6465bc7da00",
          "transactionIndex": "0x4",
          "logIndex": "0x5",
          "removed": false
        }
      ],
      "status": "0x1",
      "logsBloom": "0x00000000000000000000040000000000000040040000000000000000000000000000000000000000000000000000000000000010000000000000000000200000000000000000000000000000000000000000000000800000000000000000000000000000000000000000000000000000000000004000000000000000000000000000000000000000000000000000000000000000000000000800000000000000020000000000000000000000000000000000000000000010000000000000000000000000000002000000000000000000000000000000000000000000000000000010000000000000000000000000000000000000000000000000000000000000"
    }
  ],
  "libraries": [],
  "pending": [],
  "returns": {},
  "timestamp": 1709307779,
  "chain": 51,
  "multi": false,
  "commit": "c68a092"
}