{
  "transactions": [
    {
      "hash": "0x8c1261025ef60e146c6ff510905bdb819d069a50397a180fff1ea1a641b49f45",
      "transactionType": "CALL",
      "contractName": null,
      "contractAddress": "0xEbDb3D71dB8Cd40c7C442aE2c6E346a2EC51555e",
      "function": "deployBankroll(address,uint256,uint256,bytes32)",
      "arguments": [
        "0xfBA6CED88170e86DA9F49902055cF80A62F1AC4a",
        "8000",
        "1000000000",
        "0x3078320000000000000000000000000000000000000000000000000000000000"
      ],
      "transaction": {
        "type": "0x00",
        "from": "0x802a1f49be649823f41017cbe814e08a98db5a6d",
        "to": "0xebdb3d71db8cd40c7c442ae2c6e346a2ec51555e",
        "gas": "0xa016e",
        "value": "0x0",
        "data": "0x14dd160e000000000000000000000000fba6ced88170e86da9f49902055cf80a62f1ac4a0000000000000000000000000000000000000000000000000000000000001f40000000000000000000000000000000000000000000000000000000003b9aca003078320000000000000000000000000000000000000000000000000000000000",
        "nonce": "0x19"
      },
      "additionalContracts": [
        {
          "transactionType": "CREATE2",
          "address": "0xa9226D46445435a051fd54266bbD122db6195ed5",
          "initCode": "0x3d602d80600a3d3981f3363d3d373d3d3d363d7372e0068d6aed2055d09314bb7444ed770f512deb5af43d82803e903d91602b57fd5bf3"
        }
      ],
      "isFixedGasLimit": false
    },
    {
      "hash": "0x93ed4b3c216639b241628f33cca1ddd5bbfed546ea0c78c1f5f868f403bbc594",
      "transactionType": "CALL",
      "contractName": null,
      "contractAddress": "0x51Db97f0a5ef75ecdA70938306d0cEa894BBE1Ee",
      "function": "addOperator(address)",
      "arguments": [
        "0xaD0e95D949cf8ae7D9FaCe4454e1a27Bc811D8f1"
      ],
      "transaction": {
        "type": "0x00",
        "from": "0x802a1f49be649823f41017cbe814e08a98db5a6d",
        "to": "0x51db97f0a5ef75ecda70938306d0cea894bbe1ee",
        "gas": "0xcf5e",
        "value": "0x0",
        "data": "0x9870d7fe000000000000000000000000ad0e95d949cf8ae7d9face4454e1a27bc811d8f1",
        "nonce": "0x1a"
      },
      "additionalContracts": [],
      "isFixedGasLimit": false
    },
    {
      "hash": "0x5ab0bbaee376d4f1c3abd9c35a3683448cfd83b0fce2c8b896cce277972e3ae4",
      "transactionType": "CALL",
      "contractName": null,
      "contractAddress": "0x51Db97f0a5ef75ecdA70938306d0cEa894BBE1Ee",
      "function": "approveBankroll(address,uint256)",
      "arguments": [
        "0xa9226D46445435a051fd54266bbD122db6195ed5",
        "650"
      ],
      "transaction": {
        "type": "0x00",
        "from": "0x802a1f49be649823f41017cbe814e08a98db5a6d",
        "to": "0x51db97f0a5ef75ecda70938306d0cea894bbe1ee",
        "gas": "0x1a7ce",
        "value": "0x0",
        "data": "0x9756e8df000000000000000000000000a9226d46445435a051fd54266bbd122db6195ed5000000000000000000000000000000000000000000000000000000000000028a",
        "nonce": "0x1b"
      },
      "additionalContracts": [],
      "isFixedGasLimit": false
    },
    {
      "hash": "0x035dc9fd55d8960f77c9699473b42146f6780064c15c8e4b081e1941382f25e2",
      "transactionType": "CALL",
      "contractName": null,
      "contractAddress": "0x51Db97f0a5ef75ecdA70938306d0cEa894BBE1Ee",
      "function": "setOperatorToBankroll(address,address)",
      "arguments": [
        "0xa9226D46445435a051fd54266bbD122db6195ed5",
        "0xaD0e95D949cf8ae7D9FaCe4454e1a27Bc811D8f1"
      ],
      "transaction": {
        "type": "0x00",
        "from": "0x802a1f49be649823f41017cbe814e08a98db5a6d",
        "to": "0x51db97f0a5ef75ecda70938306d0cea894bbe1ee",
        "gas": "0x25d08",
        "value": "0x0",
        "data": "0xcb233b0a000000000000000000000000a9226d46445435a051fd54266bbd122db6195ed5000000000000000000000000ad0e95d949cf8ae7d9face4454e1a27bc811d8f1",
        "nonce": "0x1c"
      },
      "additionalContracts": [],
      "isFixedGasLimit": false
    },
    {
      "hash": "0xf7c58da33f9ce60b75e92bf4f61ffacac5711916b66f3ac1fe49c1c8c72ab68d",
      "transactionType": "CALL",
      "contractName": null,
      "contractAddress": "0xa9226D46445435a051fd54266bbD122db6195ed5",
      "function": "maxContractsApprove()",
      "arguments": [],
      "transaction": {
        "type": "0x00",
        "from": "0x632a7cf953c3127606aadccd832e9d480b81f7c0",
        "to": "0xa9226d46445435a051fd54266bbd122db6195ed5",
        "gas": "0x1d7c5",
        "value": "0x0",
        "data": "0xcbb3b225",
        "nonce": "0x8"
      },
      "additionalContracts": [],
      "isFixedGasLimit": false
    }
  ],
  "receipts": [
    {
      "transactionHash": "0x8c1261025ef60e146c6ff510905bdb819d069a50397a180fff1ea1a641b49f45",
      "transactionIndex": "0x0",
      "blockHash": "0x22a4528ff7fe1ab5cc1d175eccd6ef9f41de4111c87f24cdf6b2206f3558f2a5",
      "blockNumber": "0x3b57f8f",
      "from": "0x802a1f49Be649823f41017Cbe814E08A98dB5a6d",
      "to": "0xEbDb3D71dB8Cd40c7C442aE2c6E346a2EC51555e",
      "cumulativeGasUsed": "0x6b97b",
      "gasUsed": "0x6b97b",
      "contractAddress": null,
      "logs": [
        {
          "address": "0xa9226D46445435a051fd54266bbD122db6195ed5",
          "topics": [
            "0x2f8788117e7eff1d82e926ec794901d17c78024a50270940304540a733656f0d",
            "0x0000000000000000000000000000000000000000000000000000000000000000",
            "0x0000000000000000000000001d424382e8e09cc6f8425c9f32d2c695e7698db7",
            "0x000000000000000000000000ebdb3d71db8cd40c7c442ae2c6e346a2ec51555e"
          ],
          "data": "0x",
          "blockHash": "0x22a4528ff7fe1ab5cc1d175eccd6ef9f41de4111c87f24cdf6b2206f3558f2a5",
          "blockNumber": "0x3b57f8f",
          "transactionHash": "0x8c1261025ef60e146c6ff510905bdb819d069a50397a180fff1ea1a641b49f45",
          "transactionIndex": "0x0",
          "logIndex": "0x0",
          "removed": false
        },
        {
          "address": "0xa9226D46445435a051fd54266bbD122db6195ed5",
          "topics": [
            "0x2f8788117e7eff1d82e926ec794901d17c78024a50270940304540a733656f0d",
            "0xdf8b4c520ffe197c5343c6f5aec59570151ef9a492f2c624fd45ddde6135ec42",
            "0x000000000000000000000000ac1684e1e51aaa47353004040c0e5c51ce31e3f4",
            "0x000000000000000000000000ebdb3d71db8cd40c7c442ae2c6e346a2ec51555e"
          ],
          "data": "0x",
          "blockHash": "0x22a4528ff7fe1ab5cc1d175eccd6ef9f41de4111c87f24cdf6b2206f3558f2a5",
          "blockNumber": "0x3b57f8f",
          "transactionHash": "0x8c1261025ef60e146c6ff510905bdb819d069a50397a180fff1ea1a641b49f45",
          "transactionIndex": "0x0",
          "logIndex": "0x1",
          "removed": false
        },
        {
          "address": "0xa9226D46445435a051fd54266bbD122db6195ed5",
          "topics": [
            "0x2f8788117e7eff1d82e926ec794901d17c78024a50270940304540a733656f0d",
            "0xdf8b4c520ffe197c5343c6f5aec59570151ef9a492f2c624fd45ddde6135ec42",
            "0x000000000000000000000000632a7cf953c3127606aadccd832e9d480b81f7c0",
            "0x000000000000000000000000ebdb3d71db8cd40c7c442ae2c6e346a2ec51555e"
          ],
          "data": "0x",
          "blockHash": "0x22a4528ff7fe1ab5cc1d175eccd6ef9f41de4111c87f24cdf6b2206f3558f2a5",
          "blockNumber": "0x3b57f8f",
          "transactionHash": "0x8c1261025ef60e146c6ff510905bdb819d069a50397a180fff1ea1a641b49f45",
          "transactionIndex": "0x0",
          "logIndex": "0x2",
          "removed": false
        },
        {
          "address": "0xa9226D46445435a051fd54266bbD122db6195ed5",
          "topics": [
            "0x2f8788117e7eff1d82e926ec794901d17c78024a50270940304540a733656f0d",
            "0x48a7db58bc0d0016705458e918f4ea84477e4f4c43c6d240db04e4db985c2082",
            "0x00000000000000000000000051db97f0a5ef75ecda70938306d0cea894bbe1ee",
            "0x000000000000000000000000ebdb3d71db8cd40c7c442ae2c6e346a2ec51555e"
          ],
          "data": "0x",
          "blockHash": "0x22a4528ff7fe1ab5cc1d175eccd6ef9f41de4111c87f24cdf6b2206f3558f2a5",
          "blockNumber": "0x3b57f8f",
          "transactionHash": "0x8c1261025ef60e146c6ff510905bdb819d069a50397a180fff1ea1a641b49f45",
          "transactionIndex": "0x0",
          "logIndex": "0x3",
          "removed": false
        },
        {
          "address": "0xa9226D46445435a051fd54266bbD122db6195ed5",
          "topics": [
            "0x7f26b83ff96e1f2b6a682f133852f6798a09c465da95921460cefb3847402498"
          ],
          "data": "0x0000000000000000000000000000000000000000000000000000000000000001",
          "blockHash": "0x22a4528ff7fe1ab5cc1d175eccd6ef9f41de4111c87f24cdf6b2206f3558f2a5",
          "blockNumber": "0x3b57f8f",
          "transactionHash": "0x8c1261025ef60e146c6ff510905bdb819d069a50397a180fff1ea1a641b49f45",
          "transactionIndex": "0x0",
          "logIndex": "0x4",
          "removed": false
        }
      ],
      "status": "0x1",
      "logsBloom": "0x00004004000000000000000000000000000000080000000000000000000000201000000000000004000000000000000000000000000080000000000000000000000000004000000000000000000000000000000100000200000000000000000000000000020000000000008000000800000000000000000000000000000000000000040000000000000000000000000000040000000081000000000000000000000000000000000200000000100400000040000000000400001000000000000000000000000000000004000000440000000000000000000100000000000020102000000000000000000000000000088000400000000000000000000000000000"
    },
    {
      "transactionHash": "0x93ed4b3c216639b241628f33cca1ddd5bbfed546ea0c78c1f5f868f403bbc594",
      "transactionIndex": "0x0",
      "blockHash": "0xf460ff1a1ac7b18d9b22a49e09b3bb55f07b420318826aa35ef7700e657c6fce",
      "blockNumber": "0x3b57f92",
      "from": "0x802a1f49Be649823f41017Cbe814E08A98dB5a6d",
      "to": "0x51Db97f0a5ef75ecdA70938306d0cEa894BBE1Ee",
      "cumulativeGasUsed": "0x723f",
      "gasUsed": "0x723f",
      "contractAddress": null,
      "logs": [],
      "status": "0x1",
      "logsBloom": "0x00000000000000000000000000000000000000000000000000000000000000000000000000000000000000000000000000000000000000000000000000000000000000000000000000000000000000000000000000000000000000000000000000000000000000000000000000000000000000000000000000000000000000000000000000000000000000000000000000000000000000000000000000000000000000000000000000000000000000000000000000000000000000000000000000000000000000000000000000000000000000000000000000000000000000000000000000000000000000000000000000000000000000000000000000000000"
    },
    {
      "transactionHash": "0x5ab0bbaee376d4f1c3abd9c35a3683448cfd83b0fce2c8b896cce277972e3ae4",
      "transactionIndex": "0x0",
      "blockHash": "0x282db43648af16dc992df36c23d3015eceba55edb23b4a271c86f6e7fe83d53e",
      "blockNumber": "0x3b57f95",
      "from": "0x802a1f49Be649823f41017Cbe814E08A98dB5a6d",
      "to": "0x51Db97f0a5ef75ecdA70938306d0cEa894BBE1Ee",
      "cumulativeGasUsed": "0x10cc0",
      "gasUsed": "0x10cc0",
      "contractAddress": null,
      "logs": [],
      "status": "0x1",
      "logsBloom": "0x00000000000000000000000000000000000000000000000000000000000000000000000000000000000000000000000000000000000000000000000000000000000000000000000000000000000000000000000000000000000000000000000000000000000000000000000000000000000000000000000000000000000000000000000000000000000000000000000000000000000000000000000000000000000000000000000000000000000000000000000000000000000000000000000000000000000000000000000000000000000000000000000000000000000000000000000000000000000000000000000000000000000000000000000000000000"
    },
    {
      "transactionHash": "0x035dc9fd55d8960f77c9699473b42146f6780064c15c8e4b081e1941382f25e2",
      "transactionIndex": "0x0",
      "blockHash": "0xc5afa9488fce167495b7fbdff29a690bfb1eb5782c509cdf30f84d68a4f7e00f",
      "blockNumber": "0x3b57f98",
      "from": "0x802a1f49Be649823f41017Cbe814E08A98dB5a6d",
      "to": "0x51Db97f0a5ef75ecdA70938306d0cEa894BBE1Ee",
      "cumulativeGasUsed": "0x174a3",
      "gasUsed": "0x174a3",
      "contractAddress": null,
      "logs": [],
      "status": "0x1",
      "logsBloom": "0x00000000000000000000000000000000000000000000000000000000000000000000000000000000000000000000000000000000000000000000000000000000000000000000000000000000000000000000000000000000000000000000000000000000000000000000000000000000000000000000000000000000000000000000000000000000000000000000000000000000000000000000000000000000000000000000000000000000000000000000000000000000000000000000000000000000000000000000000000000000000000000000000000000000000000000000000000000000000000000000000000000000000000000000000000000000"
    },
    {
      "transactionHash": "0xf7c58da33f9ce60b75e92bf4f61ffacac5711916b66f3ac1fe49c1c8c72ab68d",
      "transactionIndex": "0x0",
      "blockHash": "0x6698a0cd961d9b3c9b2164db944a6000b8276fc4742d13463b2ea0aef5557dec",
      "blockNumber": "0x3b57f9b",
      "from": "0x632A7cf953C3127606aadcCD832e9d480b81F7C0",
      "to": "0xa9226D46445435a051fd54266bbD122db6195ed5",
      "cumulativeGasUsed": "0x12c93",
      "gasUsed": "0x12c93",
      "contractAddress": null,
      "logs": [
        {
          "address": "0xfBA6CED88170e86DA9F49902055cF80A62F1AC4a",
          "topics": [
            "0x8c5be1e5ebec7d5bd14f71427d1e84f3dd0314c0f7b2291e5b200ac8c7c3b925",
            "0x000000000000000000000000a9226d46445435a051fd54266bbd122db6195ed5",
            "0x00000000000000000000000051db97f0a5ef75ecda70938306d0cea894bbe1ee"
          ],
          "data": "0xffffffffffffffffffffffffffffffffffffffffffffffffffffffffffffffff",
          "blockHash": "0x6698a0cd961d9b3c9b2164db944a6000b8276fc4742d13463b2ea0aef5557dec",
          "blockNumber": "0x3b57f9b",
          "transactionHash": "0xf7c58da33f9ce60b75e92bf4f61ffacac5711916b66f3ac1fe49c1c8c72ab68d",
          "transactionIndex": "0x0",
          "logIndex": "0x0",
          "removed": false
        },
        {
          "address": "0xfBA6CED88170e86DA9F49902055cF80A62F1AC4a",
          "topics": [
            "0x8c5be1e5ebec7d5bd14f71427d1e84f3dd0314c0f7b2291e5b200ac8c7c3b925",
            "0x000000000000000000000000a9226d46445435a051fd54266bbd122db6195ed5",
            "0x000000000000000000000000ac1684e1e51aaa47353004040c0e5c51ce31e3f4"
          ],
          "data": "0xffffffffffffffffffffffffffffffffffffffffffffffffffffffffffffffff",
          "blockHash": "0x6698a0cd961d9b3c9b2164db944a6000b8276fc4742d13463b2ea0aef5557dec",
          "blockNumber": "0x3b57f9b",
          "transactionHash": "0xf7c58da33f9ce60b75e92bf4f61ffacac5711916b66f3ac1fe49c1c8c72ab68d",
          "transactionIndex": "0x0",
          "logIndex": "0x1",
          "removed": false
        }
      ],
      "status": "0x1",
      "logsBloom": "0x00000000000000000000000000000000000000000000000000000000000000001000000000000004000000000000000000000000000000000000000000200000010000004000000000000000000000000000000000800000000000000000100000000000000000000000000000000000000000004000000000000000000000000000000000000000000000000000000000000000000001000000000000000000020000000000000200000000000000000000000000000010000000000000000000000000000002000000000000400000000000000000000000000000000000000010000000000000000000000000000000000000000000000000000000000000"
    }
  ],
  "libraries": [],
  "pending": [],
  "returns": {},
  "timestamp": 1713873201,
  "chain": 51,
  "multi": false,
  "commit": "87d3b9e"
}