{
  "transactions": [
    {
      "hash": "0x13bbcda85e289dff6e9ecb439d5de2546f19afc07efafcca34f500014e6b8d0c",
      "transactionType": "CALL",
      "contractName": null,
      "contractAddress": "0x485C43f6ea086af34476d15954a4A92EF32fb2DC",
      "function": "deployBankroll(address,uint256,uint256,bytes32)",
      "arguments": [
        "0xfBA6CED88170e86DA9F49902055cF80A62F1AC4a",
        "8000",
        "5000",
        "0x3078300000000000000000000000000000000000000000000000000000000000"
      ],
      "transaction": {
        "type": "0x00",
        "from": "0x4015b6569369af4f17cd2da9e2f5e14a5dd162b4",
        "to": "0x485c43f6ea086af34476d15954a4a92ef32fb2dc",
        "gas": "0xb5b6b",
        "value": "0x0",
        "data": "0x14dd160e000000000000000000000000fba6ced88170e86da9f49902055cf80a62f1ac4a0000000000000000000000000000000000000000000000000000000000001f4000000000000000000000000000000000000000000000000000000000000013883078300000000000000000000000000000000000000000000000000000000000",
        "nonce": "0xba"
      },
      "additionalContracts": [
        {
          "transactionType": "CREATE2",
          "address": "0xB58e49823f1E539b84Eda034f506E5e30CdDff21",
          "initCode": "0x3d602d80600a3d3981f3363d3d373d3d3d363d738a0f1d5261e5a3467037e7b4ce53fc0498f4b60f5af43d82803e903d91602b57fd5bf3"
        }
      ],
      "isFixedGasLimit": false
    },
    {
      "hash": "0xa4acc3327f1368f107139eab5a1e5c79a11618b7d54666ca6f18173a4a4c9937",
      "transactionType": "CALL",
      "contractName": null,
      "contractAddress": "0xB3b4EE2ac46D283aF39caB76a4aF488E679b7C39",
      "function": "addOperator(address)",
      "arguments": [
        "0x312BA46064e1fe5904362BfB0C52c38F20d3Ef44"
      ],
      "transaction": {
        "type": "0x00",
        "from": "0x4015b6569369af4f17cd2da9e2f5e14a5dd162b4",
        "to": "0xb3b4ee2ac46d283af39cab76a4af488e679b7c39",
        "gas": "0x12f38",
        "value": "0x0",
        "data": "0x9870d7fe000000000000000000000000312ba46064e1fe5904362bfb0c52c38f20d3ef44",
        "nonce": "0xbb"
      },
      "additionalContracts": [],
      "isFixedGasLimit": false
    },
    {
      "hash": "0x238704c9b1cf6538c3c1da3bfd976768be4021a327ff91c8f932423496636188",
      "transactionType": "CALL",
      "contractName": null,
      "contractAddress": "0xB3b4EE2ac46D283aF39caB76a4aF488E679b7C39",
      "function": "approveBankroll(address,uint256)",
      "arguments": [
        "0xB58e49823f1E539b84Eda034f506E5e30CdDff21",
        "650"
      ],
      "transaction": {
        "type": "0x00",
        "from": "0x4015b6569369af4f17cd2da9e2f5e14a5dd162b4",
        "to": "0xb3b4ee2ac46d283af39cab76a4af488e679b7c39",
        "gas": "0x1a7ce",
        "value": "0x0",
        "data": "0x9756e8df000000000000000000000000b58e49823f1e539b84eda034f506e5e30cddff21000000000000000000000000000000000000000000000000000000000000028a",
        "nonce": "0xbc"
      },
      "additionalContracts": [],
      "isFixedGasLimit": false
    },
    {
      "hash": "0x7f16c3cc732044bdd84786f7c0ae8f89c5b0742d71305bcc19eccfb0fa9a3ab1",
      "transactionType": "CALL",
      "contractName": null,
      "contractAddress": "0xB3b4EE2ac46D283aF39caB76a4aF488E679b7C39",
      "function": "setOperatorToBankroll(address,address)",
      "arguments": [
        "0xB58e49823f1E539b84Eda034f506E5e30CdDff21",
        "0x312BA46064e1fe5904362BfB0C52c38F20d3Ef44"
      ],
      "transaction": {
        "type": "0x00",
        "from": "0x4015b6569369af4f17cd2da9e2f5e14a5dd162b4",
        "to": "0xb3b4ee2ac46d283af39cab76a4af488e679b7c39",
        "gas": "0x25d08",
        "value": "0x0",
        "data": "0xcb233b0a000000000000000000000000b58e49823f1e539b84eda034f506e5e30cddff21000000000000000000000000312ba46064e1fe5904362bfb0c52c38f20d3ef44",
        "nonce": "0xbd"
      },
      "additionalContracts": [],
      "isFixedGasLimit": false
    },
    {
      "hash": "0x827d337f80c72bb7257dd78f179d29d28433a5edc092dca5dfc2dbc9b73eb94f",
      "transactionType": "CALL",
      "contractName": null,
      "contractAddress": "0xB58e49823f1E539b84Eda034f506E5e30CdDff21",
      "function": "maxContractsApprove()",
      "arguments": [],
      "transaction": {
        "type": "0x00",
        "from": "0x8d76db34ccca356fa805f5a277efff53aac5af88",
        "to": "0xb58e49823f1e539b84eda034f506e5e30cddff21",
        "gas": "0x1d7c5",
        "value": "0x0",
        "data": "0xcbb3b225",
        "nonce": "0x40"
      },
      "additionalContracts": [],
      "isFixedGasLimit": false
    }
  ],
  "receipts": [
    {
      "transactionHash": "0x13bbcda85e289dff6e9ecb439d5de2546f19afc07efafcca34f500014e6b8d0c",
      "transactionIndex": "0x0",
      "blockHash": "0x51d3a263b16d098e13cedd3149f04c3c2c5ecba82c13fb1e28da5ad5d4ebb2f8",
      "blockNumber": "0x3b1e685",
      "from": "0x4015B6569369af4F17CD2DA9e2F5e14A5Dd162b4",
      "to": "0x485C43f6ea086af34476d15954a4A92EF32fb2DC",
      "cumulativeGasUsed": "0x72e6b",
      "gasUsed": "0x72e6b",
      "contractAddress": null,
      "logs": [
        {
          "address": "0xB58e49823f1E539b84Eda034f506E5e30CdDff21",
          "topics": [
            "0x2f8788117e7eff1d82e926ec794901d17c78024a50270940304540a733656f0d",
            "0x0000000000000000000000000000000000000000000000000000000000000000",
            "0x0000000000000000000000001d424382e8e09cc6f8425c9f32d2c695e7698db7",
            "0x000000000000000000000000485c43f6ea086af34476d15954a4a92ef32fb2dc"
          ],
          "data": "0x",
          "blockHash": "0x51d3a263b16d098e13cedd3149f04c3c2c5ecba82c13fb1e28da5ad5d4ebb2f8",
          "blockNumber": "0x3b1e685",
          "transactionHash": "0x13bbcda85e289dff6e9ecb439d5de2546f19afc07efafcca34f500014e6b8d0c",
          "transactionIndex": "0x0",
          "logIndex": "0x0",
          "removed": false
        },
        {
          "address": "0xB58e49823f1E539b84Eda034f506E5e30CdDff21",
          "topics": [
            "0x2f8788117e7eff1d82e926ec794901d17c78024a50270940304540a733656f0d",
            "0xdf8b4c520ffe197c5343c6f5aec59570151ef9a492f2c624fd45ddde6135ec42",
            "0x000000000000000000000000c4a4c50945f9d44044c5f005fc327c9a5bceef88",
            "0x000000000000000000000000485c43f6ea086af34476d15954a4a92ef32fb2dc"
          ],
          "data": "0x",
          "blockHash": "0x51d3a263b16d098e13cedd3149f04c3c2c5ecba82c13fb1e28da5ad5d4ebb2f8",
          "blockNumber": "0x3b1e685",
          "transactionHash": "0x13bbcda85e289dff6e9ecb439d5de2546f19afc07efafcca34f500014e6b8d0c",
          "transactionIndex": "0x0",
          "logIndex": "0x1",
          "removed": false
        },
        {
          "address": "0xB58e49823f1E539b84Eda034f506E5e30CdDff21",
          "topics": [
            "0x2f8788117e7eff1d82e926ec794901d17c78024a50270940304540a733656f0d",
            "0xdf8b4c520ffe197c5343c6f5aec59570151ef9a492f2c624fd45ddde6135ec42",
            "0x0000000000000000000000008d76db34ccca356fa805f5a277efff53aac5af88",
            "0x000000000000000000000000485c43f6ea086af34476d15954a4a92ef32fb2dc"
          ],
          "data": "0x",
          "blockHash": "0x51d3a263b16d098e13cedd3149f04c3c2c5ecba82c13fb1e28da5ad5d4ebb2f8",
          "blockNumber": "0x3b1e685",
          "transactionHash": "0x13bbcda85e289dff6e9ecb439d5de2546f19afc07efafcca34f500014e6b8d0c",
          "transactionIndex": "0x0",
          "logIndex": "0x2",
          "removed": false
        },
        {
          "address": "0xB58e49823f1E539b84Eda034f506E5e30CdDff21",
          "topics": [
            "0x2f8788117e7eff1d82e926ec794901d17c78024a50270940304540a733656f0d",
            "0x48a7db58bc0d0016705458e918f4ea84477e4f4c43c6d240db04e4db985c2082",
            "0x000000000000000000000000b3b4ee2ac46d283af39cab76a4af488e679b7c39",
            "0x000000000000000000000000485c43f6ea086af34476d15954a4a92ef32fb2dc"
          ],
          "data": "0x",
          "blockHash": "0x51d3a263b16d098e13cedd3149f04c3c2c5ecba82c13fb1e28da5ad5d4ebb2f8",
          "blockNumber": "0x3b1e685",
          "transactionHash": "0x13bbcda85e289dff6e9ecb439d5de2546f19afc07efafcca34f500014e6b8d0c",
          "transactionIndex": "0x0",
          "logIndex": "0x3",
          "removed": false
        },
        {
          "address": "0xB58e49823f1E539b84Eda034f506E5e30CdDff21",
          "topics": [
            "0x7f26b83ff96e1f2b6a682f133852f6798a09c465da95921460cefb3847402498"
          ],
          "data": "0x0000000000000000000000000000000000000000000000000000000000000001",
          "blockHash": "0x51d3a263b16d098e13cedd3149f04c3c2c5ecba82c13fb1e28da5ad5d4ebb2f8",
          "blockNumber": "0x3b1e685",
          "transactionHash": "0x13bbcda85e289dff6e9ecb439d5de2546f19afc07efafcca34f500014e6b8d0c",
          "transactionIndex": "0x0",
          "logIndex": "0x4",
          "removed": false
        }
      ],
      "status": "0x1",
      "logsBloom": "0x00004004000000000020000000000000000000000000000000000000040000200020000000000000400000000000000000000000000080000000400004000000000000000000000000000000000000000000000000000000000001000000000000000000020000000080008000020800000000000100000000000000000000000000040000000000000000000000000000000000000080000000001000000000000000000000000000000000100400000000000000000400001000000000000000000000000000000004100000040000000000000000000100000000000020002000000000020000000000000080000000000000000000000000000000400000"
    },
    {
      "transactionHash": "0xa4acc3327f1368f107139eab5a1e5c79a11618b7d54666ca6f18173a4a4c9937",
      "transactionIndex": "0x0",
      "blockHash": "0xa93a65680362a34048487a1049e282059344bd1971ed653c812030de8c7be23e",
      "blockNumber": "0x3b1e687",
      "from": "0x4015B6569369af4F17CD2DA9e2F5e14A5Dd162b4",
      "to": "0xB3b4EE2ac46D283aF39caB76a4aF488E679b7C39",
      "cumulativeGasUsed": "0xbd3f",
      "gasUsed": "0xbd3f",
      "contractAddress": null,
      "logs": [],
      "status": "0x1",
      "logsBloom": "0x00000000000000000000000000000000000000000000000000000000000000000000000000000000000000000000000000000000000000000000000000000000000000000000000000000000000000000000000000000000000000000000000000000000000000000000000000000000000000000000000000000000000000000000000000000000000000000000000000000000000000000000000000000000000000000000000000000000000000000000000000000000000000000000000000000000000000000000000000000000000000000000000000000000000000000000000000000000000000000000000000000000000000000000000000000000"
    },
    {
      "transactionHash": "0x238704c9b1cf6538c3c1da3bfd976768be4021a327ff91c8f932423496636188",
      "transactionIndex": "0x0",
      "blockHash": "0x1e189f630cee72ed5e8b7767bcbbe1cb1db87743076c073de239f8f4e8e9068f",
      "blockNumber": "0x3b1e68a",
      "from": "0x4015B6569369af4F17CD2DA9e2F5e14A5Dd162b4",
      "to": "0xB3b4EE2ac46D283aF39caB76a4aF488E679b7C39",
      "cumulativeGasUsed": "0x10cc0",
      "gasUsed": "0x10cc0",
      "contractAddress": null,
      "logs": [],
      "status": "0x1",
      "logsBloom": "0x00000000000000000000000000000000000000000000000000000000000000000000000000000000000000000000000000000000000000000000000000000000000000000000000000000000000000000000000000000000000000000000000000000000000000000000000000000000000000000000000000000000000000000000000000000000000000000000000000000000000000000000000000000000000000000000000000000000000000000000000000000000000000000000000000000000000000000000000000000000000000000000000000000000000000000000000000000000000000000000000000000000000000000000000000000000"
    },
    {
      "transactionHash": "0x7f16c3cc732044bdd84786f7c0ae8f89c5b0742d71305bcc19eccfb0fa9a3ab1",
      "transactionIndex": "0x0",
      "blockHash": "0xb747ce0dd05a3be4eb4435900569afb2dc4e4bdaf2203ad0fd9aae52ce25c7f8",
      "blockNumber": "0x3b1e68d",
      "from": "0x4015B6569369af4F17CD2DA9e2F5e14A5Dd162b4",
      "to": "0xB3b4EE2ac46D283aF39caB76a4aF488E679b7C39",
      "cumulativeGasUsed": "0x174a3",
      "gasUsed": "0x174a3",
      "contractAddress": null,
      "logs": [],
      "status": "0x1",
      "logsBloom": "0x00000000000000000000000000000000000000000000000000000000000000000000000000000000000000000000000000000000000000000000000000000000000000000000000000000000000000000000000000000000000000000000000000000000000000000000000000000000000000000000000000000000000000000000000000000000000000000000000000000000000000000000000000000000000000000000000000000000000000000000000000000000000000000000000000000000000000000000000000000000000000000000000000000000000000000000000000000000000000000000000000000000000000000000000000000000"
    },
    {
      "transactionHash": "0x827d337f80c72bb7257dd78f179d29d28433a5edc092dca5dfc2dbc9b73eb94f",
      "transactionIndex": "0x1",
      "blockHash": "0x6e47c0b2d3c219f405d08f823528c4a9da030aa37d86ecfe4bfe1c8a49acf2ee",
      "blockNumber": "0x3b1e68f",
      "from": "0x8d76dB34CcCA356fA805f5A277EFFf53aaC5af88",
      "to": "0xB58e49823f1E539b84Eda034f506E5e30CdDff21",
      "cumulativeGasUsed": "0x331bc",
      "gasUsed": "0x12c93",
      "contractAddress": null,
      "logs": [
        {
          "address": "0xfBA6CED88170e86DA9F49902055cF80A62F1AC4a",
          "topics": [
            "0x8c5be1e5ebec7d5bd14f71427d1e84f3dd0314c0f7b2291e5b200ac8c7c3b925",
            "0x000000000000000000000000b58e49823f1e539b84eda034f506e5e30cddff21",
            "0x000000000000000000000000b3b4ee2ac46d283af39cab76a4af488e679b7c39"
          ],
          "data": "0xffffffffffffffffffffffffffffffffffffffffffffffffffffffffffffffff",
          "blockHash": "0x6e47c0b2d3c219f405d08f823528c4a9da030aa37d86ecfe4bfe1c8a49acf2ee",
          "blockNumber": "0x3b1e68f",
          "transactionHash": "0x827d337f80c72bb7257dd78f179d29d28433a5edc092dca5dfc2dbc9b73eb94f",
          "transactionIndex": "0x1",
          "logIndex": "0x4",
          "removed": false
        },
        {
          "address": "0xfBA6CED88170e86DA9F49902055cF80A62F1AC4a",
          "topics": [
            "0x8c5be1e5ebec7d5bd14f71427d1e84f3dd0314c0f7b2291e5b200ac8c7c3b925",
            "0x000000000000000000000000b58e49823f1e539b84eda034f506e5e30cddff21",
            "0x000000000000000000000000c4a4c50945f9d44044c5f005fc327c9a5bceef88"
          ],
          "data": "0xffffffffffffffffffffffffffffffffffffffffffffffffffffffffffffffff",
          "blockHash": "0x6e47c0b2d3c219f405d08f823528c4a9da030aa37d86ecfe4bfe1c8a49acf2ee",
          "blockNumber": "0x3b1e68f",
          "transactionHash": "0x827d337f80c72bb7257dd78f179d29d28433a5edc092dca5dfc2dbc9b73eb94f",
          "transactionIndex": "0x1",
          "logIndex": "0x5",
          "removed": false
        }
      ],
      "status": "0x1",
      "logsBloom": "0x00000000000000000000000000000000000000000000000000000000000000000020000000000000000000000000000000000000000000000004400000208000000000000000000000000000000000000000000000800000000000000000000000000000000100000080000000000000000000004000000000000000000000000000000000000000000000000000000000000000000000000000001000000000020000000000000000000000000000000000000000000000000000000000000000000000000002000000100000000000000000000000000000000000000000000010000000020000000000000000000000000000000000000000000000000000"
    }
  ],
  "libraries": [],
  "pending": [],
  "returns": {},
  "timestamp": 1713339589,
  "chain": 51,
  "multi": false,
  "commit": "8da793f"
}