{
  "transactions": [
    {
      "hash": "0xfb50e73762893ab7708794d18f38a7dddff206c8becd08b745fd73ec261c1dd7",
      "transactionType": "CALL",
      "contractName": null,
      "contractAddress": "0xEbDb3D71dB8Cd40c7C442aE2c6E346a2EC51555e",
      "function": "deployBankroll(address,uint256,uint256,bytes32)",
      "arguments": [
        "0xfBA6CED88170e86DA9F49902055cF80A62F1AC4a",
        "8000",
        "1000000000",
        "0x3078310000000000000000000000000000000000000000000000000000000000"
      ],
      "transaction": {
        "type": "0x00",
        "from": "0x802a1f49be649823f41017cbe814e08a98db5a6d",
        "to": "0xebdb3d71db8cd40c7c442ae2c6e346a2ec51555e",
        "gas": "0xa016e",
        "value": "0x0",
        "data": "0x14dd160e000000000000000000000000fba6ced88170e86da9f49902055cf80a62f1ac4a0000000000000000000000000000000000000000000000000000000000001f40000000000000000000000000000000000000000000000000000000003b9aca003078310000000000000000000000000000000000000000000000000000000000",
        "nonce": "0x15"
      },
      "additionalContracts": [
        {
          "transactionType": "CREATE2",
          "address": "0x7E87520AB349abB3368Ce3EA594303B548fa9Edb",
          "initCode": "0x3d602d80600a3d3981f3363d3d373d3d3d363d7372e0068d6aed2055d09314bb7444ed770f512deb5af43d82803e903d91602b57fd5bf3"
        }
      ],
      "isFixedGasLimit": false
    },
    {
      "hash": "0xa44c5806531d1d4a9248e20dc65f538a86ac9692e482dd67d7b163f86dab61f3",
      "transactionType": "CALL",
      "contractName": null,
      "contractAddress": "0x51Db97f0a5ef75ecdA70938306d0cEa894BBE1Ee",
      "function": "addOperator(address)",
      "arguments": [
        "0xaD0e95D949cf8ae7D9FaCe4454e1a27Bc811D8f1"
      ],
      "transaction": {
        "type": "0x00",
        "from": "0x802a1f49be649823f41017cbe814e08a98db5a6d",
        "to": "0x51db97f0a5ef75ecda70938306d0cea894bbe1ee",
        "gas": "0xcf5e",
        "value": "0x0",
        "data": "0x9870d7fe000000000000000000000000ad0e95d949cf8ae7d9face4454e1a27bc811d8f1",
        "nonce": "0x16"
      },
      "additionalContracts": [],
      "isFixedGasLimit": false
    },
    {
      "hash": "0x8eca45a3539bdd8429d1ff19c856736e0ab9911df55208e3255529e915d8bfc1",
      "transactionType": "CALL",
      "contractName": null,
      "contractAddress": "0x51Db97f0a5ef75ecdA70938306d0cEa894BBE1Ee",
      "function": "approveBankroll(address,uint256)",
      "arguments": [
        "0x7E87520AB349abB3368Ce3EA594303B548fa9Edb",
        "650"
      ],
      "transaction": {
        "type": "0x00",
        "from": "0x802a1f49be649823f41017cbe814e08a98db5a6d",
        "to": "0x51db97f0a5ef75ecda70938306d0cea894bbe1ee",
        "gas": "0x1a7ce",
        "value": "0x0",
        "data": "0x9756e8df0000000000000000000000007e87520ab349abb3368ce3ea594303b548fa9edb000000000000000000000000000000000000000000000000000000000000028a",
        "nonce": "0x17"
      },
      "additionalContracts": [],
      "isFixedGasLimit": false
    },
    {
      "hash": "0x1ccea7ef90a1e19e1d610933d1caf684581589348a789fabf7d46a921e3050a2",
      "transactionType": "CALL",
      "contractName": null,
      "contractAddress": "0x51Db97f0a5ef75ecdA70938306d0cEa894BBE1Ee",
      "function": "setOperatorToBankroll(address,address)",
      "arguments": [
        "0x7E87520AB349abB3368Ce3EA594303B548fa9Edb",
        "0xaD0e95D949cf8ae7D9FaCe4454e1a27Bc811D8f1"
      ],
      "transaction": {
        "type": "0x00",
        "from": "0x802a1f49be649823f41017cbe814e08a98db5a6d",
        "to": "0x51db97f0a5ef75ecda70938306d0cea894bbe1ee",
        "gas": "0x25d08",
        "value": "0x0",
        "data": "0xcb233b0a0000000000000000000000007e87520ab349abb3368ce3ea594303b548fa9edb000000000000000000000000ad0e95d949cf8ae7d9face4454e1a27bc811d8f1",
        "nonce": "0x18"
      },
      "additionalContracts": [],
      "isFixedGasLimit": false
    },
    {
      "hash": "0xb44e0485db8dbaac099100ecae7b7b19046f2be88c7aaeb82d2c4105a060427a",
      "transactionType": "CALL",
      "contractName": null,
      "contractAddress": "0x7E87520AB349abB3368Ce3EA594303B548fa9Edb",
      "function": "maxContractsApprove()",
      "arguments": [],
      "transaction": {
        "type": "0x00",
        "from": "0x632a7cf953c3127606aadccd832e9d480b81f7c0",
        "to": "0x7e87520ab349abb3368ce3ea594303b548fa9edb",
        "gas": "0x1d7c5",
        "value": "0x0",
        "data": "0xcbb3b225",
        "nonce": "0x7"
      },
      "additionalContracts": [],
      "isFixedGasLimit": false
    }
  ],
  "receipts": [
    {
      "transactionHash": "0xfb50e73762893ab7708794d18f38a7dddff206c8becd08b745fd73ec261c1dd7",
      "transactionIndex": "0x1",
      "blockHash": "0x9bc368627350c80b7e5c09f1084ef398faa530300bcf7a5189fa3136b363e4e3",
      "blockNumber": "0x3b57f56",
      "from": "0x802a1f49Be649823f41017Cbe814E08A98dB5a6d",
      "to": "0xEbDb3D71dB8Cd40c7C442aE2c6E346a2EC51555e",
      "cumulativeGasUsed": "0x8bea4",
      "gasUsed": "0x6b97b",
      "contractAddress": null,
      "logs": [
        {
          "address": "0x7E87520AB349abB3368Ce3EA594303B548fa9Edb",
          "topics": [
            "0x2f8788117e7eff1d82e926ec794901d17c78024a50270940304540a733656f0d",
            "0x0000000000000000000000000000000000000000000000000000000000000000",
            "0x0000000000000000000000001d424382e8e09cc6f8425c9f32d2c695e7698db7",
            "0x000000000000000000000000ebdb3d71db8cd40c7c442ae2c6e346a2ec51555e"
          ],
          "data": "0x",
          "blockHash": "0x9bc368627350c80b7e5c09f1084ef398faa530300bcf7a5189fa3136b363e4e3",
          "blockNumber": "0x3b57f56",
          "transactionHash": "0xfb50e73762893ab7708794d18f38a7dddff206c8becd08b745fd73ec261c1dd7",
          "transactionIndex": "0x1",
          "logIndex": "0x4",
          "removed": false
        },
        {
          "address": "0x7E87520AB349abB3368Ce3EA594303B548fa9Edb",
          "topics": [
            "0x2f8788117e7eff1d82e926ec794901d17c78024a50270940304540a733656f0d",
            "0xdf8b4c520ffe197c5343c6f5aec59570151ef9a492f2c624fd45ddde6135ec42",
            "0x000000000000000000000000ac1684e1e51aaa47353004040c0e5c51ce31e3f4",
            "0x000000000000000000000000ebdb3d71db8cd40c7c442ae2c6e346a2ec51555e"
          ],
          "data": "0x",
          "blockHash": "0x9bc368627350c80b7e5c09f1084ef398faa530300bcf7a5189fa3136b363e4e3",
          "blockNumber": "0x3b57f56",
          "transactionHash": "0xfb50e73762893ab7708794d18f38a7dddff206c8becd08b745fd73ec261c1dd7",
          "transactionIndex": "0x1",
          "logIndex": "0x5",
          "removed": false
        },
        {
          "address": "0x7E87520AB349abB3368Ce3EA594303B548fa9Edb",
          "topics": [
            "0x2f8788117e7eff1d82e926ec794901d17c78024a50270940304540a733656f0d",
            "0xdf8b4c520ffe197c5343c6f5aec59570151ef9a492f2c624fd45ddde6135ec42",
            "0x000000000000000000000000632a7cf953c3127606aadccd832e9d480b81f7c0",
            "0x000000000000000000000000ebdb3d71db8cd40c7c442ae2c6e346a2ec51555e"
          ],
          "data": "0x",
          "blockHash": "0x9bc368627350c80b7e5c09f1084ef398faa530300bcf7a5189fa3136b363e4e3",
          "blockNumber": "0x3b57f56",
          "transactionHash": "0xfb50e73762893ab7708794d18f38a7dddff206c8becd08b745fd73ec261c1dd7",
          "transactionIndex": "0x1",
          "logIndex": "0x6",
          "removed": false
        },
        {
          "address": "0x7E87520AB349abB3368Ce3EA594303B548fa9Edb",
          "topics": [
            "0x2f8788117e7eff1d82e926ec794901d17c78024a50270940304540a733656f0d",
            "0x48a7db58bc0d0016705458e918f4ea84477e4f4c43c6d240db04e4db985c2082",
            "0x00000000000000000000000051db97f0a5ef75ecda70938306d0cea894bbe1ee",
            "0x000000000000000000000000ebdb3d71db8cd40c7c442ae2c6e346a2ec51555e"
          ],
          "data": "0x",
          "blockHash": "0x9bc368627350c80b7e5c09f1084ef398faa530300bcf7a5189fa3136b363e4e3",
          "blockNumber": "0x3b57f56",
          "transactionHash": "0xfb50e73762893ab7708794d18f38a7dddff206c8becd08b745fd73ec261c1dd7",
          "transactionIndex": "0x1",
          "logIndex": "0x7",
          "removed": false
        },
        {
          "address": "0x7E87520AB349abB3368Ce3EA594303B548fa9Edb",
          "topics": [
            "0x7f26b83ff96e1f2b6a682f133852f6798a09c465da95921460cefb3847402498"
          ],
          "data": "0x0000000000000000000000000000000000000000000000000000000000000001",
          "blockHash": "0x9bc368627350c80b7e5c09f1084ef398faa530300bcf7a5189fa3136b363e4e3",
          "blockNumber": "0x3b57f56",
          "transactionHash": "0xfb50e73762893ab7708794d18f38a7dddff206c8becd08b745fd73ec261c1dd7",
          "transactionIndex": "0x1",
          "logIndex": "0x8",
          "removed": false
        }
      ],
      "status": "0x1",
      "logsBloom": "0x00004004000000000000000000000000000000080000000000000000000000201000000000000004000000000000000000000000000080000000000000000000000000004000000000000000000000000000000100000000000000000000000000200000020000000000008000000800000000000000000000000000000000000000040000000000008000000000000000000000000081000000000000000000000000000000000200000000100400000040000000000400001000000000000000000000000000000004000000440000000000000000040100000000000020102000000000000000000000000000080000400000000000000000000000000000"
    },
    {
      "transactionHash": "0xa44c5806531d1d4a9248e20dc65f538a86ac9692e482dd67d7b163f86dab61f3",
      "transactionIndex": "0x0",
      "blockHash": "0x6f493470de9f6ef93d6ea827c749e999b57eee3a0e3f28bcd12876516b1fbc1b",
      "blockNumber": "0x3b57f59",
      "from": "0x802a1f49Be649823f41017Cbe814E08A98dB5a6d",
      "to": "0x51Db97f0a5ef75ecdA70938306d0cEa894BBE1Ee",
      "cumulativeGasUsed": "0x723f",
      "gasUsed": "0x723f",
      "contractAddress": null,
      "logs": [],
      "status": "0x1",
      "logsBloom": "0x00000000000000000000000000000000000000000000000000000000000000000000000000000000000000000000000000000000000000000000000000000000000000000000000000000000000000000000000000000000000000000000000000000000000000000000000000000000000000000000000000000000000000000000000000000000000000000000000000000000000000000000000000000000000000000000000000000000000000000000000000000000000000000000000000000000000000000000000000000000000000000000000000000000000000000000000000000000000000000000000000000000000000000000000000000000"
    },
    {
      "transactionHash": "0x8eca45a3539bdd8429d1ff19c856736e0ab9911df55208e3255529e915d8bfc1",
      "transactionIndex": "0x1",
      "blockHash": "0x90ab30815924c61d91364b35f94122468e1b151aa25392cb7dc8e82da14b5d16",
      "blockNumber": "0x3b57f5d",
      "from": "0x802a1f49Be649823f41017Cbe814E08A98dB5a6d",
      "to": "0x51Db97f0a5ef75ecdA70938306d0cEa894BBE1Ee",
      "cumulativeGasUsed": "0x1deff",
      "gasUsed": "0x10cc0",
      "contractAddress": null,
      "logs": [],
      "status": "0x1",
      "logsBloom": "0x00000000000000000000000000000000000000000000000000000000000000000000000000000000000000000000000000000000000000000000000000000000000000000000000000000000000000000000000000000000000000000000000000000000000000000000000000000000000000000000000000000000000000000000000000000000000000000000000000000000000000000000000000000000000000000000000000000000000000000000000000000000000000000000000000000000000000000000000000000000000000000000000000000000000000000000000000000000000000000000000000000000000000000000000000000000"
    },
    {
      "transactionHash": "0x1ccea7ef90a1e19e1d610933d1caf684581589348a789fabf7d46a921e3050a2",
      "transactionIndex": "0x0",
      "blockHash": "0xce192ecdad9d6addebf3e76bcf88aba8cee84a616b6f86bddf0585670379e29a",
      "blockNumber": "0x3b57f60",
      "from": "0x802a1f49Be649823f41017Cbe814E08A98dB5a6d",
      "to": "0x51Db97f0a5ef75ecdA70938306d0cEa894BBE1Ee",
      "cumulativeGasUsed": "0x174a3",
      "gasUsed": "0x174a3",
      "contractAddress": null,
      "logs": [],
      "status": "0x1",
      "logsBloom": "0x00000000000000000000000000000000000000000000000000000000000000000000000000000000000000000000000000000000000000000000000000000000000000000000000000000000000000000000000000000000000000000000000000000000000000000000000000000000000000000000000000000000000000000000000000000000000000000000000000000000000000000000000000000000000000000000000000000000000000000000000000000000000000000000000000000000000000000000000000000000000000000000000000000000000000000000000000000000000000000000000000000000000000000000000000000000"
    },
    {
      "transactionHash": "0xb44e0485db8dbaac099100ecae7b7b19046f2be88c7aaeb82d2c4105a060427a",
      "transactionIndex": "0x0",
      "blockHash": "0x712d1eed18636039996433235496f9f88424d9268f02e0b3bd5ff6560c09e9a2",
      "blockNumber": "0x3b57f63",
      "from": "0x632A7cf953C3127606aadcCD832e9d480b81F7C0",
      "to": "0x7E87520AB349abB3368Ce3EA594303B548fa9Edb",
      "cumulativeGasUsed": "0x12c93",
      "gasUsed": "0x12c93",
      "contractAddress": null,
      "logs": [
        {
          "address": "0xfBA6CED88170e86DA9F49902055cF80A62F1AC4a",
          "topics": [
            "0x8c5be1e5ebec7d5bd14f71427d1e84f3dd0314c0f7b2291e5b200ac8c7c3b925",
            "0x0000000000000000000000007e87520ab349abb3368ce3ea594303b548fa9edb",
            "0x00000000000000000000000051db97f0a5ef75ecda70938306d0cea894bbe1ee"
          ],
          "data": "0xffffffffffffffffffffffffffffffffffffffffffffffffffffffffffffffff",
          "blockHash": "0x712d1eed18636039996433235496f9f88424d9268f02e0b3bd5ff6560c09e9a2",
          "blockNumber": "0x3b57f63",
          "transactionHash": "0xb44e0485db8dbaac099100ecae7b7b19046f2be88c7aaeb82d2c4105a060427a",
          "transactionIndex": "0x0",
          "logIndex": "0x0",
          "removed": false
        },
        {
          "address": "0xfBA6CED88170e86DA9F49902055cF80A62F1AC4a",
          "topics": [
            "0x8c5be1e5ebec7d5bd14f71427d1e84f3dd0314c0f7b2291e5b200ac8c7c3b925",
            "0x0000000000000000000000007e87520ab349abb3368ce3ea594303b548fa9edb",
            "0x000000000000000000000000ac1684e1e51aaa47353004040c0e5c51ce31e3f4"
          ],
          "data": "0xffffffffffffffffffffffffffffffffffffffffffffffffffffffffffffffff",
          "blockHash": "0x712d1eed18636039996433235496f9f88424d9268f02e0b3bd5ff6560c09e9a2",
          "blockNumber": "0x3b57f63",
          "transactionHash": "0xb44e0485db8dbaac099100ecae7b7b19046f2be88c7aaeb82d2c4105a060427a",
          "transactionIndex": "0x0",
          "logIndex": "0x1",
          "removed": false
        }
      ],
      "status": "0x1",
      "logsBloom": "0x00000000020000000000000000000000000000000000000000000000000000001000000000000004000000000000000000000000000000000000000000200000000000004000000000000000000000000000000000840000000000000000000000000000000000000000000000000000000000004000000000000000000000000000000000000000000000000000000000000000000001000000000000000000020000000000000200000000000000000000000000000000000000000000000000000000000002000000000000400000000000000000000000000000000000000010000000000000000000000000000000000000000000000008000000000000"
    }
  ],
  "libraries": [],
  "pending": [],
  "returns": {},
  "timestamp": 1713873077,
  "chain": 51,
  "multi": false,
  "commit": "87d3b9e"
}