{
  "transactions": [
    {
      "hash": "0x01530e8d6d19273d66ffcf65258ef49c54c743083bf7b959986c9031f125dc74",
      "transactionType": "CALL",
      "contractName": null,
      "contractAddress": "0x1e45b6C4f00e63A6771e70DDaDd1b2B2182aC31c",
      "function": "deployBankroll(address,uint256,uint256,bytes32)",
      "arguments": [
        "0xb0F5c667e9aB3144cF6b2E9B03805a87955bdC07",
        "8000",
        "5000",
        "0x3078300000000000000000000000000000000000000000000000000000000000"
      ],
      "transaction": {
        "type": "0x00",
        "from": "0x4015b6569369af4f17cd2da9e2f5e14a5dd162b4",
        "to": "0x1e45b6c4f00e63a6771e70ddadd1b2b2182ac31c",
        "gas": "0xb5b6b",
        "value": "0x0",
        "data": "0x14dd160e000000000000000000000000b0f5c667e9ab3144cf6b2e9b03805a87955bdc070000000000000000000000000000000000000000000000000000000000001f4000000000000000000000000000000000000000000000000000000000000013883078300000000000000000000000000000000000000000000000000000000000",
        "nonce": "0x9a"
      },
      "additionalContracts": [
        {
          "transactionType": "CREATE2",
          "address": "0xbB0ee0e1f119328b1E012C029c0dF46E74d24D41",
          "initCode": "0x3d602d80600a3d3981f3363d3d373d3d3d363d7375fd9a70ef232a415d8ae04c5631e3df4fd801b05af43d82803e903d91602b57fd5bf3"
        }
      ],
      "isFixedGasLimit": false
    },
    {
      "hash": "0xad9e27ef4e182bab2d68bf04295fc1c8fa1d603560b1c894ee2e9c33f88593ce",
      "transactionType": "CALL",
      "contractName": null,
      "contractAddress": "0x6637AeAc61D5f1B5a190A5c510ab88fa0E414F76",
      "function": "addOperator(address)",
      "arguments": [
        "0x312BA46064e1fe5904362BfB0C52c38F20d3Ef44"
      ],
      "transaction": {
        "type": "0x00",
        "from": "0x4015b6569369af4f17cd2da9e2f5e14a5dd162b4",
        "to": "0x6637aeac61d5f1b5a190a5c510ab88fa0e414f76",
        "gas": "0x12f38",
        "value": "0x0",
        "data": "0x9870d7fe000000000000000000000000312ba46064e1fe5904362bfb0c52c38f20d3ef44",
        "nonce": "0x9b"
      },
      "additionalContracts": [],
      "isFixedGasLimit": false
    },
    {
      "hash": "0xb216723f9db7cb16eda5623f5880022aa6229078b53f705162ad482e9be154d4",
      "transactionType": "CALL",
      "contractName": null,
      "contractAddress": "0x6637AeAc61D5f1B5a190A5c510ab88fa0E414F76",
      "function": "approveBankroll(address,uint256)",
      "arguments": [
        "0xbB0ee0e1f119328b1E012C029c0dF46E74d24D41",
        "650"
      ],
      "transaction": {
        "type": "0x00",
        "from": "0x4015b6569369af4f17cd2da9e2f5e14a5dd162b4",
        "to": "0x6637aeac61d5f1b5a190a5c510ab88fa0e414f76",
        "gas": "0x1a7ce",
        "value": "0x0",
        "data": "0x9756e8df000000000000000000000000bb0ee0e1f119328b1e012c029c0df46e74d24d41000000000000000000000000000000000000000000000000000000000000028a",
        "nonce": "0x9c"
      },
      "additionalContracts": [],
      "isFixedGasLimit": false
    },
    {
      "hash": "0x0c083e906c2206baf9006ea072bacf204b8fc902ec7ab2520a942322db6eca89",
      "transactionType": "CALL",
      "contractName": null,
      "contractAddress": "0x6637AeAc61D5f1B5a190A5c510ab88fa0E414F76",
      "function": "setOperatorToBankroll(address,address)",
      "arguments": [
        "0xbB0ee0e1f119328b1E012C029c0dF46E74d24D41",
        "0x312BA46064e1fe5904362BfB0C52c38F20d3Ef44"
      ],
      "transaction": {
        "type": "0x00",
        "from": "0x4015b6569369af4f17cd2da9e2f5e14a5dd162b4",
        "to": "0x6637aeac61d5f1b5a190a5c510ab88fa0e414f76",
        "gas": "0x25d08",
        "value": "0x0",
        "data": "0xcb233b0a000000000000000000000000bb0ee0e1f119328b1e012c029c0df46e74d24d41000000000000000000000000312ba46064e1fe5904362bfb0c52c38f20d3ef44",
        "nonce": "0x9d"
      },
      "additionalContracts": [],
      "isFixedGasLimit": false
    },
    {
      "hash": "0x199c411dcfc245dde851cf6f9a5cca050b2257f3ed91e63386bf3a25a9f38327",
      "transactionType": "CALL",
      "contractName": null,
      "contractAddress": "0xbB0ee0e1f119328b1E012C029c0dF46E74d24D41",
      "function": "maxContractsApprove()",
      "arguments": [],
      "transaction": {
        "type": "0x00",
        "from": "0x8d76db34ccca356fa805f5a277efff53aac5af88",
        "to": "0xbb0ee0e1f119328b1e012c029c0df46e74d24d41",
        "gas": "0x1f242",
        "value": "0x0",
        "data": "0xcbb3b225",
        "nonce": "0x3e"
      },
      "additionalContracts": [],
      "isFixedGasLimit": false
    }
  ],
  "receipts": [
    {
      "transactionHash": "0x01530e8d6d19273d66ffcf65258ef49c54c743083bf7b959986c9031f125dc74",
      "transactionIndex": "0x1",
      "blockHash": "0x66ef64d5c7297c48e2a2650a1c13e0dc0f7125a4daeb43764396222e95a0c847",
      "blockNumber": "0x3b0dcb3",
      "from": "0x4015B6569369af4F17CD2DA9e2F5e14A5Dd162b4",
      "to": "0x1e45b6C4f00e63A6771e70DDaDd1b2B2182aC31c",
      "cumulativeGasUsed": "0xcadca",
      "gasUsed": "0x72e6b",
      "contractAddress": null,
      "logs": [
        {
          "address": "0xbB0ee0e1f119328b1E012C029c0dF46E74d24D41",
          "topics": [
            "0x2f8788117e7eff1d82e926ec794901d17c78024a50270940304540a733656f0d",
            "0x0000000000000000000000000000000000000000000000000000000000000000",
            "0x0000000000000000000000001d424382e8e09cc6f8425c9f32d2c695e7698db7",
            "0x0000000000000000000000001e45b6c4f00e63a6771e70ddadd1b2b2182ac31c"
          ],
          "data": "0x",
          "blockHash": "0x66ef64d5c7297c48e2a2650a1c13e0dc0f7125a4daeb43764396222e95a0c847",
          "blockNumber": "0x3b0dcb3",
          "transactionHash": "0x01530e8d6d19273d66ffcf65258ef49c54c743083bf7b959986c9031f125dc74",
          "transactionIndex": "0x1",
          "logIndex": "0x3",
          "removed": false
        },
        {
          "address": "0xbB0ee0e1f119328b1E012C029c0dF46E74d24D41",
          "topics": [
            "0x2f8788117e7eff1d82e926ec794901d17c78024a50270940304540a733656f0d",
            "0xdf8b4c520ffe197c5343c6f5aec59570151ef9a492f2c624fd45ddde6135ec42",
            "0x000000000000000000000000180fa63d9759ce8ab916f1f7bc8c8989de07906b",
            "0x0000000000000000000000001e45b6c4f00e63a6771e70ddadd1b2b2182ac31c"
          ],
          "data": "0x",
          "blockHash": "0x66ef64d5c7297c48e2a2650a1c13e0dc0f7125a4daeb43764396222e95a0c847",
          "blockNumber": "0x3b0dcb3",
          "transactionHash": "0x01530e8d6d19273d66ffcf65258ef49c54c743083bf7b959986c9031f125dc74",
          "transactionIndex": "0x1",
          "logIndex": "0x4",
          "removed": false
        },
        {
          "address": "0xbB0ee0e1f119328b1E012C029c0dF46E74d24D41",
          "topics": [
            "0x2f8788117e7eff1d82e926ec794901d17c78024a50270940304540a733656f0d",
            "0xdf8b4c520ffe197c5343c6f5aec59570151ef9a492f2c624fd45ddde6135ec42",
            "0x0000000000000000000000008d76db34ccca356fa805f5a277efff53aac5af88",
            "0x0000000000000000000000001e45b6c4f00e63a6771e70ddadd1b2b2182ac31c"
          ],
          "data": "0x",
          "blockHash": "0x66ef64d5c7297c48e2a2650a1c13e0dc0f7125a4daeb43764396222e95a0c847",
          "blockNumber": "0x3b0dcb3",
          "transactionHash": "0x01530e8d6d19273d66ffcf65258ef49c54c743083bf7b959986c9031f125dc74",
          "transactionIndex": "0x1",
          "logIndex": "0x5",
          "removed": false
        },
        {
          "address": "0xbB0ee0e1f119328b1E012C029c0dF46E74d24D41",
          "topics": [
            "0x2f8788117e7eff1d82e926ec794901d17c78024a50270940304540a733656f0d",
            "0x48a7db58bc0d0016705458e918f4ea84477e4f4c43c6d240db04e4db985c2082",
            "0x0000000000000000000000006637aeac61d5f1b5a190a5c510ab88fa0e414f76",
            "0x0000000000000000000000001e45b6c4f00e63a6771e70ddadd1b2b2182ac31c"
          ],
          "data": "0x",
          "blockHash": "0x66ef64d5c7297c48e2a2650a1c13e0dc0f7125a4daeb43764396222e95a0c847",
          "blockNumber": "0x3b0dcb3",
          "transactionHash": "0x01530e8d6d19273d66ffcf65258ef49c54c743083bf7b959986c9031f125dc74",
          "transactionIndex": "0x1",
          "logIndex": "0x6",
          "removed": false
        },
        {
          "address": "0xbB0ee0e1f119328b1E012C029c0dF46E74d24D41",
          "topics": [
            "0x7f26b83ff96e1f2b6a682f133852f6798a09c465da95921460cefb3847402498"
          ],
          "data": "0x0000000000000000000000000000000000000000000000000000000000000001",
          "blockHash": "0x66ef64d5c7297c48e2a2650a1c13e0dc0f7125a4daeb43764396222e95a0c847",
          "blockNumber": "0x3b0dcb3",
          "transactionHash": "0x01530e8d6d19273d66ffcf65258ef49c54c743083bf7b959986c9031f125dc74",
          "transactionIndex": "0x1",
          "logIndex": "0x7",
          "removed": false
        }
      ],
      "status": "0x1",
      "logsBloom": "0x00004004000000000000000080000000000000000000000000000000000000200000000000000000000000000000000000000000000080000008000004000080000000800000000000000000000000000000000000000000020000000000000000000000020000000000008100020800000000000000000000000000004000000000048000000000000000000000000000000000000080000000000000000000000000000000000000000000100400000000000000000400001000000000000000000000000000000004000000040000002000000000000100000000000020002000000000000000000000000000000000000021000000000000000000400000"
    },
    {
      "transactionHash": "0xad9e27ef4e182bab2d68bf04295fc1c8fa1d603560b1c894ee2e9c33f88593ce",
      "transactionIndex": "0x0",
      "blockHash": "0x9954151466e925e78494b8ce0a5155986b6a1b2b57863698b13b553eca7abd9f",
      "blockNumber": "0x3b0dcb5",
      "from": "0x4015B6569369af4F17CD2DA9e2F5e14A5Dd162b4",
      "to": "0x6637AeAc61D5f1B5a190A5c510ab88fa0E414F76",
      "cumulativeGasUsed": "0xbd3f",
      "gasUsed": "0xbd3f",
      "contractAddress": null,
      "logs": [],
      "status": "0x1",
      "logsBloom": "0x00000000000000000000000000000000000000000000000000000000000000000000000000000000000000000000000000000000000000000000000000000000000000000000000000000000000000000000000000000000000000000000000000000000000000000000000000000000000000000000000000000000000000000000000000000000000000000000000000000000000000000000000000000000000000000000000000000000000000000000000000000000000000000000000000000000000000000000000000000000000000000000000000000000000000000000000000000000000000000000000000000000000000000000000000000000"
    },
    {
      "transactionHash": "0xb216723f9db7cb16eda5623f5880022aa6229078b53f705162ad482e9be154d4",
      "transactionIndex": "0x0",
      "blockHash": "0xd6adf51d0cee9dbf423ff2ce834850a73e7c18fc3523414cafd6de9441bc5994",
      "blockNumber": "0x3b0dcb8",
      "from": "0x4015B6569369af4F17CD2DA9e2F5e14A5Dd162b4",
      "to": "0x6637AeAc61D5f1B5a190A5c510ab88fa0E414F76",
      "cumulativeGasUsed": "0x10cc0",
      "gasUsed": "0x10cc0",
      "contractAddress": null,
      "logs": [],
      "status": "0x1",
      "logsBloom": "0x00000000000000000000000000000000000000000000000000000000000000000000000000000000000000000000000000000000000000000000000000000000000000000000000000000000000000000000000000000000000000000000000000000000000000000000000000000000000000000000000000000000000000000000000000000000000000000000000000000000000000000000000000000000000000000000000000000000000000000000000000000000000000000000000000000000000000000000000000000000000000000000000000000000000000000000000000000000000000000000000000000000000000000000000000000000"
    },
    {
      "transactionHash": "0x0c083e906c2206baf9006ea072bacf204b8fc902ec7ab2520a942322db6eca89",
      "transactionIndex": "0x0",
      "blockHash": "0x11db226d3de24d75946e7a374097af4663d51714225e4e8fe9aac95cafbf6868",
      "blockNumber": "0x3b0dcbb",
      "from": "0x4015B6569369af4F17CD2DA9e2F5e14A5Dd162b4",
      "to": "0x6637AeAc61D5f1B5a190A5c510ab88fa0E414F76",
      "cumulativeGasUsed": "0x174a3",
      "gasUsed": "0x174a3",
      "contractAddress": null,
      "logs": [],
      "status": "0x1",
      "logsBloom": "0x00000000000000000000000000000000000000000000000000000000000000000000000000000000000000000000000000000000000000000000000000000000000000000000000000000000000000000000000000000000000000000000000000000000000000000000000000000000000000000000000000000000000000000000000000000000000000000000000000000000000000000000000000000000000000000000000000000000000000000000000000000000000000000000000000000000000000000000000000000000000000000000000000000000000000000000000000000000000000000000000000000000000000000000000000000000"
    },
    {
      "transactionHash": "0x199c411dcfc245dde851cf6f9a5cca050b2257f3ed91e63386bf3a25a9f38327",
      "transactionIndex": "0x0",
      "blockHash": "0xb418a35539475901e7730132427da9c782ef1aadca4b8801fe35b1e9cd32b4d1",
      "blockNumber": "0x3b0dcbe",
      "from": "0x8d76dB34CcCA356fA805f5A277EFFf53aaC5af88",
      "to": "0xbB0ee0e1f119328b1E012C029c0dF46E74d24D41",
      "cumulativeGasUsed": "0x12bb5",
      "gasUsed": "0x12bb5",
      "contractAddress": null,
      "logs": [
        {
          "address": "0xb0F5c667e9aB3144cF6b2E9B03805a87955bdC07",
          "topics": [
            "0x8c5be1e5ebec7d5bd14f71427d1e84f3dd0314c0f7b2291e5b200ac8c7c3b925",
            "0x000000000000000000000000bb0ee0e1f119328b1e012c029c0df46e74d24d41",
            "0x0000000000000000000000006637aeac61d5f1b5a190a5c510ab88fa0e414f76"
          ],
          "data": "0xffffffffffffffffffffffffffffffffffffffffffffffffffffffffffffffff",
          "blockHash": "0xb418a35539475901e7730132427da9c782ef1aadca4b8801fe35b1e9cd32b4d1",
          "blockNumber": "0x3b0dcbe",
          "transactionHash": "0x199c411dcfc245dde851cf6f9a5cca050b2257f3ed91e63386bf3a25a9f38327",
          "transactionIndex": "0x0",
          "logIndex": "0x0",
          "removed": false
        },
        {
          "address": "0xb0F5c667e9aB3144cF6b2E9B03805a87955bdC07",
          "topics": [
            "0x8c5be1e5ebec7d5bd14f71427d1e84f3dd0314c0f7b2291e5b200ac8c7c3b925",
            "0x000000000000000000000000bb0ee0e1f119328b1e012c029c0df46e74d24d41",
            "0x000000000000000000000000180fa63d9759ce8ab916f1f7bc8c8989de07906b"
          ],
          "data": "0xffffffffffffffffffffffffffffffffffffffffffffffffffffffffffffffff",
          "blockHash": "0xb418a35539475901e7730132427da9c782ef1aadca4b8801fe35b1e9cd32b4d1",
          "blockNumber": "0x3b0dcbe",
          "transactionHash": "0x199c411dcfc245dde851cf6f9a5cca050b2257f3ed91e63386bf3a25a9f38327",
          "transactionIndex": "0x0",
          "logIndex": "0x1",
          "removed": false
        }
      ],
      "status": "0x1",
      "logsBloom": "0x00000000000000000000000080000000000000000000000000000000000000000000000004000000000000000000004000000000000000000008000000200000000000000000000000000000000000000000000000000000000000000000000000400000000000000000000100000000000000000000000000000000000000000000008000000000000000000000000000000000000000000000000000000000020000000000020000000000000000000000000000000000000000000000000000000000000000000000800000000000002000000000000000000000000000000010000000000000000000000000008000000020000000000000000000000000"
    }
  ],
  "libraries": [],
  "pending": [],
  "returns": {},
  "timestamp": 1713187099,
  "chain": 51,
  "multi": false,
  "commit": "94125ce"
}