{
  "transactions": [
    {
      "hash": "0x103c7151b54e068960332a585cba10f2dec30130f907bb2eec8a825c2be8cc0a",
      "transactionType": "CALL",
      "contractName": null,
      "contractAddress": "0xD0F2a5FAf981773fF6f912e762E831Fb936D9E71",
      "function": "deployBankroll(address,uint256,bytes32)",
      "arguments": [
        "0xfBA6CED88170e86DA9F49902055cF80A62F1AC4a",
        "10000",
        "0x3078300000000000000000000000000000000000000000000000000000000000"
      ],
      "transaction": {
        "type": "0x00",
        "from": "0x4015b6569369af4f17cd2da9e2f5e14a5dd162b4",
        "to": "0xd0f2a5faf981773ff6f912e762e831fb936d9e71",
        "gas": "0x6c9fd",
        "value": "0x0",
        "data": "0xeb971c61000000000000000000000000fba6ced88170e86da9f49902055cf80a62f1ac4a00000000000000000000000000000000000000000000000000000000000027103078300000000000000000000000000000000000000000000000000000000000",
        "nonce": "0x51"
      },
      "additionalContracts": [
        {
          "transactionType": "CREATE2",
          "address": "0xa3CDB5dF2e1e8B799c2b71DA2bc35FB8E7364E7b",
          "initCode": "0x3d602d80600a3d3981f3363d3d373d3d3d363d73b3f9ba9877206f7c47f5a37b9e23c373d0dc67465af43d82803e903d91602b57fd5bf3"
        }
      ],
      "isFixedGasLimit": false
    },
    {
      "hash": "0x4578dc67bcdd5c1b5bef8a60d55e5163d58ba06f239f382646a7b02c52ad3ff4",
      "transactionType": "CALL",
      "contractName": null,
      "contractAddress": "0xA5417198E91d97cE3CeB9Df06dCAa0fb5654cfe6",
      "function": "setOperatorToBankroll(address,address)",
      "arguments": [
        "0xa3CDB5dF2e1e8B799c2b71DA2bc35FB8E7364E7b",
        "0xBff8142DAFDa5E796541f4f22fabc3Ee35bAFD0B"
      ],
      "transaction": {
        "type": "0x00",
        "from": "0x4015b6569369af4f17cd2da9e2f5e14a5dd162b4",
        "to": "0xa5417198e91d97ce3ceb9df06dcaa0fb5654cfe6",
        "gas": "0x1fcf7",
        "value": "0x0",
        "data": "0xcb233b0a000000000000000000000000a3cdb5df2e1e8b799c2b71da2bc35fb8e7364e7b000000000000000000000000bff8142dafda5e796541f4f22fabc3ee35bafd0b",
        "nonce": "0x52"
      },
      "additionalContracts": [],
      "isFixedGasLimit": false
    },
    {
      "hash": "0xb6e24057427f62c4a899d5344648bfae7d42c0ab97a30d1213583e5951a37c72",
      "transactionType": "CALL",
      "contractName": null,
      "contractAddress": "0xA5417198E91d97cE3CeB9Df06dCAa0fb5654cfe6",
      "function": "approveBankroll(address,uint256)",
      "arguments": [
        "0xa3CDB5dF2e1e8B799c2b71DA2bc35FB8E7364E7b",
        "650"
      ],
      "transaction": {
        "type": "0x00",
        "from": "0x4015b6569369af4f17cd2da9e2f5e14a5dd162b4",
        "to": "0xa5417198e91d97ce3ceb9df06dcaa0fb5654cfe6",
        "gas": "0x1f91b",
        "value": "0x0",
        "data": "0x9756e8df000000000000000000000000a3cdb5df2e1e8b799c2b71da2bc35fb8e7364e7b000000000000000000000000000000000000000000000000000000000000028a",
        "nonce": "0x53"
      },
      "additionalContracts": [],
      "isFixedGasLimit": false
    },
    {
      "hash": "0x74b5189cb24ea2190b3b3ce438069e974177382831222502504ce0ddd4d751b9",
      "transactionType": "CALL",
      "contractName": null,
      "contractAddress": "0xa3CDB5dF2e1e8B799c2b71DA2bc35FB8E7364E7b",
      "function": "maxBankrollManagerApprove()",
      "arguments": [],
      "transaction": {
        "type": "0x00",
        "from": "0x4015b6569369af4f17cd2da9e2f5e14a5dd162b4",
        "to": "0xa3cdb5df2e1e8b799c2b71da2bc35fb8e7364e7b",
        "gas": "0x13211",
        "value": "0x0",
        "data": "0xa4eb75b3",
        "nonce": "0x54"
      },
      "additionalContracts": [],
      "isFixedGasLimit": false
    }
  ],
  "receipts": [
    {
      "transactionHash": "0x103c7151b54e068960332a585cba10f2dec30130f907bb2eec8a825c2be8cc0a",
      "transactionIndex": "0x1",
      "blockHash": "0x0ad95305b87e6c367b57ee639430d73611ebf2781a71bba9b5f326f3aaf6ac33",
      "blockNumber": "0x399b057",
      "from": "0x4015B6569369af4F17CD2DA9e2F5e14A5Dd162b4",
      "to": "0xD0F2a5FAf981773fF6f912e762E831Fb936D9E71",
      "cumulativeGasUsed": "0x493fa",
      "gasUsed": "0x493fa",
      "contractAddress": null,
      "logs": [
        {
          "address": "0xa3CDB5dF2e1e8B799c2b71DA2bc35FB8E7364E7b",
          "topics": [
            "0x2f8788117e7eff1d82e926ec794901d17c78024a50270940304540a733656f0d",
            "0x0000000000000000000000000000000000000000000000000000000000000000",
            "0x0000000000000000000000008d76db34ccca356fa805f5a277efff53aac5af88",
            "0x000000000000000000000000d0f2a5faf981773ff6f912e762e831fb936d9e71"
          ],
          "data": "0x",
          "blockHash": "0x0ad95305b87e6c367b57ee639430d73611ebf2781a71bba9b5f326f3aaf6ac33",
          "blockNumber": "0x399b057",
          "transactionHash": "0x103c7151b54e068960332a585cba10f2dec30130f907bb2eec8a825c2be8cc0a",
          "transactionIndex": "0x1",
          "logIndex": "0x1",
          "removed": false
        },
        {
          "address": "0xa3CDB5dF2e1e8B799c2b71DA2bc35FB8E7364E7b",
          "topics": [
            "0x2f8788117e7eff1d82e926ec794901d17c78024a50270940304540a733656f0d",
            "0xdf8b4c520ffe197c5343c6f5aec59570151ef9a492f2c624fd45ddde6135ec42",
            "0x0000000000000000000000001d424382e8e09cc6f8425c9f32d2c695e7698db7",
            "0x000000000000000000000000d0f2a5faf981773ff6f912e762e831fb936d9e71"
          ],
          "data": "0x",
          "blockHash": "0x0ad95305b87e6c367b57ee639430d73611ebf2781a71bba9b5f326f3aaf6ac33",
          "blockNumber": "0x399b057",
          "transactionHash": "0x103c7151b54e068960332a585cba10f2dec30130f907bb2eec8a825c2be8cc0a",
          "transactionIndex": "0x1",
          "logIndex": "0x2",
          "removed": false
        },
        {
          "address": "0xa3CDB5dF2e1e8B799c2b71DA2bc35FB8E7364E7b",
          "topics": [
            "0x2f8788117e7eff1d82e926ec794901d17c78024a50270940304540a733656f0d",
            "0x48a7db58bc0d0016705458e918f4ea84477e4f4c43c6d240db04e4db985c2082",
            "0x000000000000000000000000a5417198e91d97ce3ceb9df06dcaa0fb5654cfe6",
            "0x000000000000000000000000d0f2a5faf981773ff6f912e762e831fb936d9e71"
          ],
          "data": "0x",
          "blockHash": "0x0ad95305b87e6c367b57ee639430d73611ebf2781a71bba9b5f326f3aaf6ac33",
          "blockNumber": "0x399b057",
          "transactionHash": "0x103c7151b54e068960332a585cba10f2dec30130f907bb2eec8a825c2be8cc0a",
          "transactionIndex": "0x1",
          "logIndex": "0x3",
          "removed": false
        },
        {
          "address": "0xa3CDB5dF2e1e8B799c2b71DA2bc35FB8E7364E7b",
          "topics": [
            "0xc7f505b2f371ae2175ee4913f4499e1f2633a7b5936321eed1cdaeb6115181d2"
          ],
          "data": "0x0000000000000000000000000000000000000000000000000000000000000001",
          "blockHash": "0x0ad95305b87e6c367b57ee639430d73611ebf2781a71bba9b5f326f3aaf6ac33",
          "blockNumber": "0x399b057",
          "transactionHash": "0x103c7151b54e068960332a585cba10f2dec30130f907bb2eec8a825c2be8cc0a",
          "transactionIndex": "0x1",
          "logIndex": "0x4",
          "removed": false
        }
      ],
      "status": "0x1",
      "logsBloom": "0x000040040000000000000000000000000000000000000000000100000000002000000000000000000000000000000000000000000000800000000000040000000000010000000000000000000000000800000040000000000000000000000000000000000a0000000000008000020800000000000000000000000000000000000000040000000000000800000000000000000000000081000000000000000000000080000000000000000000100000000000000000000400001000000000004000000000000000000004000000000000000000000004000100000000000020002000000000000000000000000000000200000000000000000000000000400000"
    },
    {
      "transactionHash": "0x4578dc67bcdd5c1b5bef8a60d55e5163d58ba06f239f382646a7b02c52ad3ff4",
      "transactionIndex": "0x2",
      "blockHash": "0x0ad95305b87e6c367b57ee639430d73611ebf2781a71bba9b5f326f3aaf6ac33",
      "blockNumber": "0x399b057",
      "from": "0x4015B6569369af4F17CD2DA9e2F5e14A5Dd162b4",
      "to": "0xA5417198E91d97cE3CeB9Df06dCAa0fb5654cfe6",
      "cumulativeGasUsed": "0x5f466",
      "gasUsed": "0x1606c",
      "contractAddress": null,
      "logs": [],
      "status": "0x1",
      "logsBloom": "0x00000000000000000000000000000000000000000000000000000000000000000000000000000000000000000000000000000000000000000000000000000000000000000000000000000000000000000000000000000000000000000000000000000000000000000000000000000000000000000000000000000000000000000000000000000000000000000000000000000000000000000000000000000000000000000000000000000000000000000000000000000000000000000000000000000000000000000000000000000000000000000000000000000000000000000000000000000000000000000000000000000000000000000000000000000000"
    },
    {
      "transactionHash": "0xb6e24057427f62c4a899d5344648bfae7d42c0ab97a30d1213583e5951a37c72",
      "transactionIndex": "0x3",
      "blockHash": "0x0ad95305b87e6c367b57ee639430d73611ebf2781a71bba9b5f326f3aaf6ac33",
      "blockNumber": "0x399b057",
      "from": "0x4015B6569369af4F17CD2DA9e2F5e14A5Dd162b4",
      "to": "0xA5417198E91d97cE3CeB9Df06dCAa0fb5654cfe6",
      "cumulativeGasUsed": "0x74562",
      "gasUsed": "0x150fc",
      "contractAddress": null,
      "logs": [],
      "status": "0x1",
      "logsBloom": "0x00000000000000000000000000000000000000000000000000000000000000000000000000000000000000000000000000000000000000000000000000000000000000000000000000000000000000000000000000000000000000000000000000000000000000000000000000000000000000000000000000000000000000000000000000000000000000000000000000000000000000000000000000000000000000000000000000000000000000000000000000000000000000000000000000000000000000000000000000000000000000000000000000000000000000000000000000000000000000000000000000000000000000000000000000000000"
    },
    {
      "transactionHash": "0x74b5189cb24ea2190b3b3ce438069e974177382831222502504ce0ddd4d751b9",
      "transactionIndex": "0x4",
      "blockHash": "0x0ad95305b87e6c367b57ee639430d73611ebf2781a71bba9b5f326f3aaf6ac33",
      "blockNumber": "0x399b057",
      "from": "0x4015B6569369af4F17CD2DA9e2F5e14A5Dd162b4",
      "to": "0xa3CDB5dF2e1e8B799c2b71DA2bc35FB8E7364E7b",
      "cumulativeGasUsed": "0x804ed",
      "gasUsed": "0xbf8b",
      "contractAddress": null,
      "logs": [
        {
          "address": "0xfBA6CED88170e86DA9F49902055cF80A62F1AC4a",
          "topics": [
            "0x8c5be1e5ebec7d5bd14f71427d1e84f3dd0314c0f7b2291e5b200ac8c7c3b925",
            "0x000000000000000000000000a3cdb5df2e1e8b799c2b71da2bc35fb8e7364e7b",
            "0x000000000000000000000000a5417198e91d97ce3ceb9df06dcaa0fb5654cfe6"
          ],
          "data": "0xffffffffffffffffffffffffffffffffffffffffffffffffffffffffffffffff",
          "blockHash": "0x0ad95305b87e6c367b57ee639430d73611ebf2781a71bba9b5f326f3aaf6ac33",
          "blockNumber": "0x399b057",
          "transactionHash": "0x74b5189cb24ea2190b3b3ce438069e974177382831222502504ce0ddd4d751b9",
          "transactionIndex": "0x4",
          "logIndex": "0x5",
          "removed": false
        }
      ],
      "status": "0x1",
      "logsBloom": "0x00800000000000000000000000000000000000000080004000000000000000000000000000000000000000000000000000000000000000000000000000200000000000000000000000000000000000000000004000800000000000000000000000000000000000000000000000000000000000004000000000000000000000000000000000000000000000000000000000000000000000000000000000000000020080000000000000000000000000000000000000000000000000000000000000000000000002000000000000000000000000000000000000000000000000000010000000000000000000000000000200000000000000000000000000000000"
    }
  ],
  "libraries": [],
  "pending": [],
  "returns": {},
  "timestamp": 1709304183,
  "chain": 51,
  "multi": false,
  "commit": "b136271"
}