{
  "transactions": [
    {
      "hash": "0x607f29d071561ae4092a720b4e355cd72a9fccedda62057ee2da0997c59c79aa",
      "transactionType": "CALL",
      "contractName": null,
      "contractAddress": "0x485C43f6ea086af34476d15954a4A92EF32fb2DC",
      "function": "deployBankroll(address,uint256,uint256,bytes32)",
      "arguments": [
        "0xb0F5c667e9aB3144cF6b2E9B03805a87955bdC07",
        "8000",
        "5000",
        "0x3078310000000000000000000000000000000000000000000000000000000000"
      ],
      "transaction": {
        "type": "0x00",
        "from": "0x4015b6569369af4f17cd2da9e2f5e14a5dd162b4",
        "to": "0x485c43f6ea086af34476d15954a4a92ef32fb2dc",
        "gas": "0xa9809",
        "value": "0x0",
        "data": "0x14dd160e000000000000000000000000b0f5c667e9ab3144cf6b2e9b03805a87955bdc070000000000000000000000000000000000000000000000000000000000001f4000000000000000000000000000000000000000000000000000000000000013883078310000000000000000000000000000000000000000000000000000000000",
        "nonce": "0xbe"
      },
      "additionalContracts": [
        {
          "transactionType": "CREATE2",
          "address": "0xe758D37ee043e250c56127bDe6312e8F31A960cC",
          "initCode": "0x3d602d80600a3d3981f3363d3d373d3d3d363d738a0f1d5261e5a3467037e7b4ce53fc0498f4b60f5af43d82803e903d91602b57fd5bf3"
        }
      ],
      "isFixedGasLimit": false
    },
    {
      "hash": "0x9100a8ca8459e794f85db0001ff9300ba0f44e42bb30c4722d353b0bd80a1985",
      "transactionType": "CALL",
      "contractName": null,
      "contractAddress": "0xB3b4EE2ac46D283aF39caB76a4aF488E679b7C39",
      "function": "addOperator(address)",
      "arguments": [
        "0x312BA46064e1fe5904362BfB0C52c38F20d3Ef44"
      ],
      "transaction": {
        "type": "0x00",
        "from": "0x4015b6569369af4f17cd2da9e2f5e14a5dd162b4",
        "to": "0xb3b4ee2ac46d283af39cab76a4af488e679b7c39",
        "gas": "0xcf5e",
        "value": "0x0",
        "data": "0x9870d7fe000000000000000000000000312ba46064e1fe5904362bfb0c52c38f20d3ef44",
        "nonce": "0xbf"
      },
      "additionalContracts": [],
      "isFixedGasLimit": false
    },
    {
      "hash": "0xd58e6e2adbf69fadcd7645569efc8aa15eec4e7e02fb710ae1a2a22b5d22d309",
      "transactionType": "CALL",
      "contractName": null,
      "contractAddress": "0xB3b4EE2ac46D283aF39caB76a4aF488E679b7C39",
      "function": "approveBankroll(address,uint256)",
      "arguments": [
        "0xe758D37ee043e250c56127bDe6312e8F31A960cC",
        "650"
      ],
      "transaction": {
        "type": "0x00",
        "from": "0x4015b6569369af4f17cd2da9e2f5e14a5dd162b4",
        "to": "0xb3b4ee2ac46d283af39cab76a4af488e679b7c39",
        "gas": "0x1a7ce",
        "value": "0x0",
        "data": "0x9756e8df000000000000000000000000e758d37ee043e250c56127bde6312e8f31a960cc000000000000000000000000000000000000000000000000000000000000028a",
        "nonce": "0xc0"
      },
      "additionalContracts": [],
      "isFixedGasLimit": false
    },
    {
      "hash": "0xc4455d6af73d08f4be11fd26ca44350a9955959e114c51df0dd02fdac9a61ae3",
      "transactionType": "CALL",
      "contractName": null,
      "contractAddress": "0xB3b4EE2ac46D283aF39caB76a4aF488E679b7C39",
      "function": "setOperatorToBankroll(address,address)",
      "arguments": [
        "0xe758D37ee043e250c56127bDe6312e8F31A960cC",
        "0x312BA46064e1fe5904362BfB0C52c38F20d3Ef44"
      ],
      "transaction": {
        "type": "0x00",
        "from": "0x4015b6569369af4f17cd2da9e2f5e14a5dd162b4",
        "to": "0xb3b4ee2ac46d283af39cab76a4af488e679b7c39",
        "gas": "0x25d08",
        "value": "0x0",
        "data": "0xcb233b0a000000000000000000000000e758d37ee043e250c56127bde6312e8f31a960cc000000000000000000000000312ba46064e1fe5904362bfb0c52c38f20d3ef44",
        "nonce": "0xc1"
      },
      "additionalContracts": [],
      "isFixedGasLimit": false
    },
    {
      "hash": "0x58fbe8f8b3d3e11c4677b5f8c3a1df40e8aaf1b9e6679892d1a836a9a0a94348",
      "transactionType": "CALL",
      "contractName": null,
      "contractAddress": "0xe758D37ee043e250c56127bDe6312e8F31A960cC",
      "function": "maxContractsApprove()",
      "arguments": [],
      "transaction": {
        "type": "0x00",
        "from": "0x8d76db34ccca356fa805f5a277efff53aac5af88",
        "to": "0xe758d37ee043e250c56127bde6312e8f31a960cc",
        "gas": "0x1f242",
        "value": "0x0",
        "data": "0xcbb3b225",
        "nonce": "0x41"
      },
      "additionalContracts": [],
      "isFixedGasLimit": false
    }
  ],
  "receipts": [
    {
      "transactionHash": "0x607f29d071561ae4092a720b4e355cd72a9fccedda62057ee2da0997c59c79aa",
      "transactionIndex": "0x0",
      "blockHash": "0xe1a622a660c995fbdd768bf781c4d76ff1dde02d3697f92f44e93686d2cd248c",
      "blockNumber": "0x3b1e6ff",
      "from": "0x4015B6569369af4F17CD2DA9e2F5e14A5Dd162b4",
      "to": "0x485C43f6ea086af34476d15954a4A92EF32fb2DC",
      "cumulativeGasUsed": "0x6b93b",
      "gasUsed": "0x6b93b",
      "contractAddress": null,
      "logs": [
        {
          "address": "0xe758D37ee043e250c56127bDe6312e8F31A960cC",
          "topics": [
            "0x2f8788117e7eff1d82e926ec794901d17c78024a50270940304540a733656f0d",
            "0x0000000000000000000000000000000000000000000000000000000000000000",
            "0x0000000000000000000000001d424382e8e09cc6f8425c9f32d2c695e7698db7",
            "0x000000000000000000000000485c43f6ea086af34476d15954a4a92ef32fb2dc"
          ],
          "data": "0x",
          "blockHash": "0xe1a622a660c995fbdd768bf781c4d76ff1dde02d3697f92f44e93686d2cd248c",
          "blockNumber": "0x3b1e6ff",
          "transactionHash": "0x607f29d071561ae4092a720b4e355cd72a9fccedda62057ee2da0997c59c79aa",
          "transactionIndex": "0x0",
          "logIndex": "0x0",
          "removed": false
        },
        {
          "address": "0xe758D37ee043e250c56127bDe6312e8F31A960cC",
          "topics": [
            "0x2f8788117e7eff1d82e926ec794901d17c78024a50270940304540a733656f0d",
            "0xdf8b4c520ffe197c5343c6f5aec59570151ef9a492f2c624fd45ddde6135ec42",
            "0x000000000000000000000000c4a4c50945f9d44044c5f005fc327c9a5bceef88",
            "0x000000000000000000000000485c43f6ea086af34476d15954a4a92ef32fb2dc"
          ],
          "data": "0x",
          "blockHash": "0xe1a622a660c995fbdd768bf781c4d76ff1dde02d3697f92f44e93686d2cd248c",
          "blockNumber": "0x3b1e6ff",
          "transactionHash": "0x607f29d071561ae4092a720b4e355cd72a9fccedda62057ee2da0997c59c79aa",
          "transactionIndex": "0x0",
          "logIndex": "0x1",
          "removed": false
        },
        {
          "address": "0xe758D37ee043e250c56127bDe6312e8F31A960cC",
          "topics": [
            "0x2f8788117e7eff1d82e926ec794901d17c78024a50270940304540a733656f0d",
            "0xdf8b4c520ffe197c5343c6f5aec59570151ef9a492f2c624fd45ddde6135ec42",
            "0x0000000000000000000000008d76db34ccca356fa805f5a277efff53aac5af88",
            "0x000000000000000000000000485c43f6ea086af34476d15954a4a92ef32fb2dc"
          ],
          "data": "0x",
          "blockHash": "0xe1a622a660c995fbdd768bf781c4d76ff1dde02d3697f92f44e93686d2cd248c",
          "blockNumber": "0x3b1e6ff",
          "transactionHash": "0x607f29d071561ae4092a720b4e355cd72a9fccedda62057ee2da0997c59c79aa",
          "transactionIndex": "0x0",
          "logIndex": "0x2",
          "removed": false
        },
        {
          "address": "0xe758D37ee043e250c56127bDe6312e8F31A960cC",
          "topics": [
            "0x2f8788117e7eff1d82e926ec794901d17c78024a50270940304540a733656f0d",
            "0x48a7db58bc0d0016705458e918f4ea84477e4f4c43c6d240db04e4db985c2082",
            "0x000000000000000000000000b3b4ee2ac46d283af39cab76a4af488e679b7c39",
            "0x000000000000000000000000485c43f6ea086af34476d15954a4a92ef32fb2dc"
          ],
          "data": "0x",
          "blockHash": "0xe1a622a660c995fbdd768bf781c4d76ff1dde02d3697f92f44e93686d2cd248c",
          "blockNumber": "0x3b1e6ff",
          "transactionHash": "0x607f29d071561ae4092a720b4e355cd72a9fccedda62057ee2da0997c59c79aa",
          "transactionIndex": "0x0",
          "logIndex": "0x3",
          "removed": false
        },
        {
          "address": "0xe758D37ee043e250c56127bDe6312e8F31A960cC",
          "topics": [
            "0x7f26b83ff96e1f2b6a682f133852f6798a09c465da95921460cefb3847402498"
          ],
          "data": "0x0000000000000000000000000000000000000000000000000000000000000001",
          "blockHash": "0xe1a622a660c995fbdd768bf781c4d76ff1dde02d3697f92f44e93686d2cd248c",
          "blockNumber": "0x3b1e6ff",
          "transactionHash": "0x607f29d071561ae4092a720b4e355cd72a9fccedda62057ee2da0997c59c79aa",
          "transactionIndex": "0x0",
          "logIndex": "0x4",
          "removed": false
        }
      ],
      "status": "0x1",
      "logsBloom": "0x00004004000000000000000000000000000000000000000000000000000000200020000000080000000000000000000000000000000080000000400004000000000000000000000000000000000000000000000000000000000001000000000000000000020800000080008000020800000000000100000000000000000000000000040000000000000000000000000000000000000080000000001000000000000000000200000000000000100400000000000000000400001000000000000000000000000000000004100000040000000000000000000100000000000020002000000000020000000000000080000000000000000000000000000000400000"
    },
    {
      "transactionHash": "0x9100a8ca8459e794f85db0001ff9300ba0f44e42bb30c4722d353b0bd80a1985",
      "transactionIndex": "0x0",
      "blockHash": "0x4873ce4e32ae1f9d3873b6f6b52af3f101fafd186cca574a4371643f40eaaa5c",
      "blockNumber": "0x3b1e702",
      "from": "0x4015B6569369af4F17CD2DA9e2F5e14A5Dd162b4",
      "to": "0xB3b4EE2ac46D283aF39caB76a4aF488E679b7C39",
      "cumulativeGasUsed": "0x723f",
      "gasUsed": "0x723f",
      "contractAddress": null,
      "logs": [],
      "status": "0x1",
      "logsBloom": "0x00000000000000000000000000000000000000000000000000000000000000000000000000000000000000000000000000000000000000000000000000000000000000000000000000000000000000000000000000000000000000000000000000000000000000000000000000000000000000000000000000000000000000000000000000000000000000000000000000000000000000000000000000000000000000000000000000000000000000000000000000000000000000000000000000000000000000000000000000000000000000000000000000000000000000000000000000000000000000000000000000000000000000000000000000000000"
    },
    {
      "transactionHash": "0xd58e6e2adbf69fadcd7645569efc8aa15eec4e7e02fb710ae1a2a22b5d22d309",
      "transactionIndex": "0x0",
      "blockHash": "0x88c49eda4d43534fdb396ce690fe6bcc74c21c3d8b987a6c93aa2c28771035d0",
      "blockNumber": "0x3b1e703",
      "from": "0x4015B6569369af4F17CD2DA9e2F5e14A5Dd162b4",
      "to": "0xB3b4EE2ac46D283aF39caB76a4aF488E679b7C39",
      "cumulativeGasUsed": "0x10cc0",
      "gasUsed": "0x10cc0",
      "contractAddress": null,
      "logs": [],
      "status": "0x1",
      "logsBloom": "0x00000000000000000000000000000000000000000000000000000000000000000000000000000000000000000000000000000000000000000000000000000000000000000000000000000000000000000000000000000000000000000000000000000000000000000000000000000000000000000000000000000000000000000000000000000000000000000000000000000000000000000000000000000000000000000000000000000000000000000000000000000000000000000000000000000000000000000000000000000000000000000000000000000000000000000000000000000000000000000000000000000000000000000000000000000000"
    },
    {
      "transactionHash": "0xc4455d6af73d08f4be11fd26ca44350a9955959e114c51df0dd02fdac9a61ae3",
      "transactionIndex": "0x0",
      "blockHash": "0xd0e6071d54eb5536015380e6cd64b32607cce3efc99739c8db2419fbd32b5c63",
      "blockNumber": "0x3b1e706",
      "from": "0x4015B6569369af4F17CD2DA9e2F5e14A5Dd162b4",
      "to": "0xB3b4EE2ac46D283aF39caB76a4aF488E679b7C39",
      "cumulativeGasUsed": "0x174a3",
      "gasUsed": "0x174a3",
      "contractAddress": null,
      "logs": [],
      "status": "0x1",
      "logsBloom": "0x00000000000000000000000000000000000000000000000000000000000000000000000000000000000000000000000000000000000000000000000000000000000000000000000000000000000000000000000000000000000000000000000000000000000000000000000000000000000000000000000000000000000000000000000000000000000000000000000000000000000000000000000000000000000000000000000000000000000000000000000000000000000000000000000000000000000000000000000000000000000000000000000000000000000000000000000000000000000000000000000000000000000000000000000000000000"
    },
    {
      "transactionHash": "0x58fbe8f8b3d3e11c4677b5f8c3a1df40e8aaf1b9e6679892d1a836a9a0a94348",
      "transactionIndex": "0x0",
      "blockHash": "0x16d101e4c4db420462473b8dac65970e1840aeed98627fc7e31445ab645f9d54",
      "blockNumber": "0x3b1e709",
      "from": "0x8d76dB34CcCA356fA805f5A277EFFf53aaC5af88",
      "to": "0xe758D37ee043e250c56127bDe6312e8F31A960cC",
      "cumulativeGasUsed": "0x12bb5",
      "gasUsed": "0x12bb5",
      "contractAddress": null,
      "logs": [
        {
          "address": "0xb0F5c667e9aB3144cF6b2E9B03805a87955bdC07",
          "topics": [
            "0x8c5be1e5ebec7d5bd14f71427d1e84f3dd0314c0f7b2291e5b200ac8c7c3b925",
            "0x000000000000000000000000e758d37ee043e250c56127bde6312e8f31a960cc",
            "0x000000000000000000000000b3b4ee2ac46d283af39cab76a4af488e679b7c39"
          ],
          "data": "0xffffffffffffffffffffffffffffffffffffffffffffffffffffffffffffffff",
          "blockHash": "0x16d101e4c4db420462473b8dac65970e1840aeed98627fc7e31445ab645f9d54",
          "blockNumber": "0x3b1e709",
          "transactionHash": "0x58fbe8f8b3d3e11c4677b5f8c3a1df40e8aaf1b9e6679892d1a836a9a0a94348",
          "transactionIndex": "0x0",
          "logIndex": "0x0",
          "removed": false
        },
        {
          "address": "0xb0F5c667e9aB3144cF6b2E9B03805a87955bdC07",
          "topics": [
            "0x8c5be1e5ebec7d5bd14f71427d1e84f3dd0314c0f7b2291e5b200ac8c7c3b925",
            "0x000000000000000000000000e758d37ee043e250c56127bde6312e8f31a960cc",
            "0x000000000000000000000000c4a4c50945f9d44044c5f005fc327c9a5bceef88"
          ],
          "data": "0xffffffffffffffffffffffffffffffffffffffffffffffffffffffffffffffff",
          "blockHash": "0x16d101e4c4db420462473b8dac65970e1840aeed98627fc7e31445ab645f9d54",
          "blockNumber": "0x3b1e709",
          "transactionHash": "0x58fbe8f8b3d3e11c4677b5f8c3a1df40e8aaf1b9e6679892d1a836a9a0a94348",
          "transactionIndex": "0x0",
          "logIndex": "0x1",
          "removed": false
        }
      ],
      "status": "0x1",
      "logsBloom": "0x00000000000000000000000000000000000000000000000000000000000000000020000000000000000000000000004000000000000000000000400000200000000000000000000000002000000000000000000000000000000000000000000000400000000000000080000000000000000000000000000000000000000000000000000000000000000000000000000000000000000000000000001000000000020000000000000000000000000000000000000000000000000000000000000000000000000000000000900000000000000000040000000000000000000000000010000000020000000000000000000001000000000000000000000000000000"
    }
  ],
  "libraries": [],
  "pending": [],
  "returns": {},
  "timestamp": 1713339857,
  "chain": 51,
  "multi": false,
  "commit": "8da793f"
}