{
  "transactions": [
    {
      "hash": "0xc89d151e230265dae62091669bdddc012c82507caaa6410cea2a696ba7fdf3c6",
      "transactionType": "CALL",
      "contractName": null,
      "contractAddress": "0x51db97f0a5ef75ecda70938306d0cea894bbe1ee",
      "function": "deployBankroll(address,uint256,uint256,bytes32)",
      "arguments": [
        "0x4200000000000000000000000000000000000022",
        "8000",
        "1000000000",
        "0x3078300000000000000000000000000000000000000000000000000000000000"
      ],
      "transaction": {
        "from": "0x802a1f49be649823f41017cbe814e08a98db5a6d",
        "to": "0x51db97f0a5ef75ecda70938306d0cea894bbe1ee",
        "gas": "0xab8ca",
        "value": "0x0",
        "input": "0x14dd160e00000000000000000000000042000000000000000000000000000000000000220000000000000000000000000000000000000000000000000000000000001f40000000000000000000000000000000000000000000000000000000003b9aca003078300000000000000000000000000000000000000000000000000000000000",
        "nonce": "0xc",
        "chainId": "0xa0c71fd",
        "accessList": null,
        "type": null
      },
      "additionalContracts": [
        {
          "transactionType": "CREATE2",
          "address": "0xe662a6b3d093e53c6910f05e2122e8f4c92864f1",
          "initCode": "0x3d602d80600a3d3981f3363d3d373d3d3d363d731a9d4f05a06e79ee941008526c84aaca91bfef295af43d82803e903d91602b57fd5bf3"
        }
      ],
      "isFixedGasLimit": false
    },
    {
      "hash": "0xbe5113383d9a847696189e8a5f8a253576ba3995c1f43653c7fcaaa3b31950a4",
      "transactionType": "CALL",
      "contractName": null,
      "contractAddress": "0x5da8888d11131753b98ff702b4140f09fb1c55ce",
      "function": "addOperator(address)",
      "arguments": [
        "0xaD0e95D949cf8ae7D9FaCe4454e1a27Bc811D8f1"
      ],
      "transaction": {
        "from": "0x802a1f49be649823f41017cbe814e08a98db5a6d",
        "to": "0x5da8888d11131753b98ff702b4140f09fb1c55ce",
        "gas": "0x12f38",
        "value": "0x0",
        "input": "0x9870d7fe000000000000000000000000ad0e95d949cf8ae7d9face4454e1a27bc811d8f1",
        "nonce": "0xd",
        "chainId": "0xa0c71fd",
        "accessList": null,
        "type": null
      },
      "additionalContracts": [],
      "isFixedGasLimit": false
    },
    {
      "hash": "0xfc9e7d10f9a27346720a4f84d8ad57f2182ab0d97e719a35484c616bfe4a0ec2",
      "transactionType": "CALL",
      "contractName": null,
      "contractAddress": "0x5da8888d11131753b98ff702b4140f09fb1c55ce",
      "function": "approveBankroll(address,uint256)",
      "arguments": [
        "0xe662A6b3D093e53C6910F05E2122e8F4C92864F1",
        "650"
      ],
      "transaction": {
        "from": "0x802a1f49be649823f41017cbe814e08a98db5a6d",
        "to": "0x5da8888d11131753b98ff702b4140f09fb1c55ce",
        "gas": "0x1a7ce",
        "value": "0x0",
        "input": "0x9756e8df000000000000000000000000e662a6b3d093e53c6910f05e2122e8f4c92864f1000000000000000000000000000000000000000000000000000000000000028a",
        "nonce": "0xe",
        "chainId": "0xa0c71fd",
        "accessList": null,
        "type": null
      },
      "additionalContracts": [],
      "isFixedGasLimit": false
    },
    {
      "hash": "0x80e74e9edf81ac62df04d0ccd8976eb9c5e517d857f0c05cd561bb07fbaf6883",
      "transactionType": "CALL",
      "contractName": null,
      "contractAddress": "0x5da8888d11131753b98ff702b4140f09fb1c55ce",
      "function": "setOperatorToBankroll(address,address)",
      "arguments": [
        "0xe662A6b3D093e53C6910F05E2122e8F4C92864F1",
        "0xaD0e95D949cf8ae7D9FaCe4454e1a27Bc811D8f1"
      ],
      "transaction": {
        "from": "0x802a1f49be649823f41017cbe814e08a98db5a6d",
        "to": "0x5da8888d11131753b98ff702b4140f09fb1c55ce",
        "gas": "0x25d08",
        "value": "0x0",
        "input": "0xcb233b0a000000000000000000000000e662a6b3d093e53c6910f05e2122e8f4c92864f1000000000000000000000000ad0e95d949cf8ae7d9face4454e1a27bc811d8f1",
        "nonce": "0xf",
        "chainId": "0xa0c71fd",
        "accessList": null,
        "type": null
      },
      "additionalContracts": [],
      "isFixedGasLimit": false
    },
    {
      "hash": "0x07b65163a49bbc06af2b9d3f64f0262c5dac86de03921a1323dc916adaec88fa",
      "transactionType": "CALL",
      "contractName": null,
      "contractAddress": "0xe662a6b3d093e53c6910f05e2122e8f4c92864f1",
      "function": "maxContractsApprove()",
      "arguments": [],
      "transaction": {
        "from": "0x632a7cf953c3127606aadccd832e9d480b81f7c0",
        "to": "0xe662a6b3d093e53c6910f05e2122e8f4c92864f1",
        "gas": "0x21208",
        "value": "0x0",
        "input": "0xcbb3b225",
        "nonce": "0x0",
        "chainId": "0xa0c71fd",
        "accessList": null,
        "type": null
      },
      "additionalContracts": [],
      "isFixedGasLimit": false
    }
  ],
  "receipts": [
    {
      "status": "0x1",
      "cumulativeGasUsed": "0x104e04",
      "logs": [
        {
          "address": "0xe662a6b3d093e53c6910f05e2122e8f4c92864f1",
          "topics": [
            "0x2f8788117e7eff1d82e926ec794901d17c78024a50270940304540a733656f0d",
            "0x0000000000000000000000000000000000000000000000000000000000000000",
            "0x0000000000000000000000001d424382e8e09cc6f8425c9f32d2c695e7698db7",
            "0x00000000000000000000000051db97f0a5ef75ecda70938306d0cea894bbe1ee"
          ],
          "data": "0x",
          "blockHash": "0x56c7d56990370de41ed649249b8036f13d97999ac5921058a38bec61f96f158c",
          "blockNumber": "0x460aaf",
          "transactionHash": "0xc89d151e230265dae62091669bdddc012c82507caaa6410cea2a696ba7fdf3c6",
          "transactionIndex": "0x5",
          "logIndex": "0x7",
          "removed": false
        },
        {
          "address": "0xe662a6b3d093e53c6910f05e2122e8f4c92864f1",
          "topics": [
            "0x2f8788117e7eff1d82e926ec794901d17c78024a50270940304540a733656f0d",
            "0xdf8b4c520ffe197c5343c6f5aec59570151ef9a492f2c624fd45ddde6135ec42",
            "0x0000000000000000000000008a84d11c3757008a8d76de6c76bf686460c4a5d9",
            "0x00000000000000000000000051db97f0a5ef75ecda70938306d0cea894bbe1ee"
          ],
          "data": "0x",
          "blockHash": "0x56c7d56990370de41ed649249b8036f13d97999ac5921058a38bec61f96f158c",
          "blockNumber": "0x460aaf",
          "transactionHash": "0xc89d151e230265dae62091669bdddc012c82507caaa6410cea2a696ba7fdf3c6",
          "transactionIndex": "0x5",
          "logIndex": "0x8",
          "removed": false
        },
        {
          "address": "0xe662a6b3d093e53c6910f05e2122e8f4c92864f1",
          "topics": [
            "0x2f8788117e7eff1d82e926ec794901d17c78024a50270940304540a733656f0d",
            "0xdf8b4c520ffe197c5343c6f5aec59570151ef9a492f2c624fd45ddde6135ec42",
            "0x000000000000000000000000632a7cf953c3127606aadccd832e9d480b81f7c0",
            "0x00000000000000000000000051db97f0a5ef75ecda70938306d0cea894bbe1ee"
          ],
          "data": "0x",
          "blockHash": "0x56c7d56990370de41ed649249b8036f13d97999ac5921058a38bec61f96f158c",
          "blockNumber": "0x460aaf",
          "transactionHash": "0xc89d151e230265dae62091669bdddc012c82507caaa6410cea2a696ba7fdf3c6",
          "transactionIndex": "0x5",
          "logIndex": "0x9",
          "removed": false
        },
        {
          "address": "0xe662a6b3d093e53c6910f05e2122e8f4c92864f1",
          "topics": [
            "0x2f8788117e7eff1d82e926ec794901d17c78024a50270940304540a733656f0d",
            "0x48a7db58bc0d0016705458e918f4ea84477e4f4c43c6d240db04e4db985c2082",
            "0x0000000000000000000000005da8888d11131753b98ff702b4140f09fb1c55ce",
            "0x00000000000000000000000051db97f0a5ef75ecda70938306d0cea894bbe1ee"
          ],
          "data": "0x",
          "blockHash": "0x56c7d56990370de41ed649249b8036f13d97999ac5921058a38bec61f96f158c",
          "blockNumber": "0x460aaf",
          "transactionHash": "0xc89d151e230265dae62091669bdddc012c82507caaa6410cea2a696ba7fdf3c6",
          "transactionIndex": "0x5",
          "logIndex": "0xa",
          "removed": false
        },
        {
          "address": "0xe662a6b3d093e53c6910f05e2122e8f4c92864f1",
          "topics": [
            "0x7f26b83ff96e1f2b6a682f133852f6798a09c465da95921460cefb3847402498"
          ],
          "data": "0x0000000000000000000000000000000000000000000000000000000000000001",
          "blockHash": "0x56c7d56990370de41ed649249b8036f13d97999ac5921058a38bec61f96f158c",
          "blockNumber": "0x460aaf",
          "transactionHash": "0xc89d151e230265dae62091669bdddc012c82507caaa6410cea2a696ba7fdf3c6",
          "transactionIndex": "0x5",
          "logIndex": "0xb",
          "removed": false
        }
      ],
      "logsBloom": "0x00004004000000000000000000000000000000000000000000000000000000201020000000000000000000000000000000000000000080000000000000000000000000000000000000000000000000000000000000000000000000002000000000000000020000000000008000000800000000000000000000000000000000000000040000000000000000000000000000000000000081000000000000000020000000000000000002000020100400000040000000000400001000000000000000000020000000000004000000440000000000000400000100400000000020102000000000000000000000000000000000400000000000000000000000001000",
      "type": "0x2",
      "transactionHash": "0xc89d151e230265dae62091669bdddc012c82507caaa6410cea2a696ba7fdf3c6",
      "transactionIndex": "0x5",
      "blockHash": "0x56c7d56990370de41ed649249b8036f13d97999ac5921058a38bec61f96f158c",
      "blockNumber": "0x460aaf",
      "gasUsed": "0x7c333",
      "effectiveGasPrice": "0xf434b",
      "from": "0x802a1f49be649823f41017cbe814e08a98db5a6d",
      "to": "0x51db97f0a5ef75ecda70938306d0cea894bbe1ee",
      "contractAddress": null,
      "l1Fee": "0x2271239c",
      "l1FeeScalar": "0.684",
      "l1GasPrice": "0x4c9d9",
      "l1GasUsed": "0xa84"
    },
    {
      "status": "0x1",
      "cumulativeGasUsed": "0xcd98b",
      "logs": [],
      "logsBloom": "0x00000000000000000000000000000000000000000000000000000000000000000000000000000000000000000000000000000000000000000000000000000000000000000000000000000000000000000000000000000000000000000000000000000000000000000000000000000000000000000000000000000000000000000000000000000000000000000000000000000000000000000000000000000000000000000000000000000000000000000000000000000000000000000000000000000000000000000000000000000000000000000000000000000000000000000000000000000000000000000000000000000000000000000000000000000000",
      "type": "0x2",
      "transactionHash": "0xbe5113383d9a847696189e8a5f8a253576ba3995c1f43653c7fcaaa3b31950a4",
      "transactionIndex": "0x5",
      "blockHash": "0x87cc42aec4016dd50f6dcd21df405d14f9bc9a4a54038f74ab101e0e6b672aab",
      "blockNumber": "0x460ab3",
      "gasUsed": "0xdb87",
      "effectiveGasPrice": "0xf434b",
      "from": "0x802a1f49be649823f41017cbe814e08a98db5a6d",
      "to": "0x5da8888d11131753b98ff702b4140f09fb1c55ce",
      "contractAddress": null,
      "l1Fee": "0x20cfdb9d",
      "l1FeeScalar": "0.684",
      "l1GasPrice": "0x51767",
      "l1GasUsed": "0x96c"
    },
    {
      "status": "0x1",
      "cumulativeGasUsed": "0x7d3e0",
      "logs": [],
      "logsBloom": "0x00000000000000000000000000000000000000000000000000000000000000000000000000000000000000000000000000000000000000000000000000000000000000000000000000000000000000000000000000000000000000000000000000000000000000000000000000000000000000000000000000000000000000000000000000000000000000000000000000000000000000000000000000000000000000000000000000000000000000000000000000000000000000000000000000000000000000000000000000000000000000000000000000000000000000000000000000000000000000000000000000000000000000000000000000000000",
      "type": "0x2",
      "transactionHash": "0xfc9e7d10f9a27346720a4f84d8ad57f2182ab0d97e719a35484c616bfe4a0ec2",
      "transactionIndex": "0x3",
      "blockHash": "0xea26ee37f0c64e5342d037feb6553f3a2661a7afcdfb888957e3383ca5fb14fd",
      "blockNumber": "0x460ab7",
      "gasUsed": "0x132d4",
      "effectiveGasPrice": "0xf434b",
      "from": "0x802a1f49be649823f41017cbe814e08a98db5a6d",
      "to": "0x5da8888d11131753b98ff702b4140f09fb1c55ce",
      "contractAddress": null,
      "l1Fee": "0x2318ec2f",
      "l1FeeScalar": "0.684",
      "l1GasPrice": "0x51767",
      "l1GasUsed": "0xa14"
    },
    {
      "status": "0x1",
      "cumulativeGasUsed": "0x74d06",
      "logs": [],
      "logsBloom": "0x00000000000000000000000000000000000000000000000000000000000000000000000000000000000000000000000000000000000000000000000000000000000000000000000000000000000000000000000000000000000000000000000000000000000000000000000000000000000000000000000000000000000000000000000000000000000000000000000000000000000000000000000000000000000000000000000000000000000000000000000000000000000000000000000000000000000000000000000000000000000000000000000000000000000000000000000000000000000000000000000000000000000000000000000000000000",
      "type": "0x2",
      "transactionHash": "0x80e74e9edf81ac62df04d0ccd8976eb9c5e517d857f0c05cd561bb07fbaf6883",
      "transactionIndex": "0x6",
      "blockHash": "0xb3dda3cd957570e2105dab3e235d2b1b0b9811a8449b5df2de03ec81e7771d65",
      "blockNumber": "0x460aba",
      "gasUsed": "0x19db3",
      "effectiveGasPrice": "0xf434a",
      "from": "0x802a1f49be649823f41017cbe814e08a98db5a6d",
      "to": "0x5da8888d11131753b98ff702b4140f09fb1c55ce",
      "contractAddress": null,
      "l1Fee": "0x23c1a992",
      "l1FeeScalar": "0.684",
      "l1GasPrice": "0x4d3e8",
      "l1GasUsed": "0xad4"
    },
    {
      "status": "0x1",
      "cumulativeGasUsed": "0x42baa",
      "logs": [
        {
          "address": "0x4200000000000000000000000000000000000022",
          "topics": [
            "0x8c5be1e5ebec7d5bd14f71427d1e84f3dd0314c0f7b2291e5b200ac8c7c3b925",
            "0x000000000000000000000000e662a6b3d093e53c6910f05e2122e8f4c92864f1",
            "0x0000000000000000000000005da8888d11131753b98ff702b4140f09fb1c55ce"
          ],
          "data": "0xffffffffffffffffffffffffffffffffffffffffffffffffffffffffffffffff",
          "blockHash": "0xfeb138e4fc27737d3d420a7e9d0020b6d43f9cb130b0539ef1865124ca37a6eb",
          "blockNumber": "0x460abe",
          "transactionHash": "0x07b65163a49bbc06af2b9d3f64f0262c5dac86de03921a1323dc916adaec88fa",
          "transactionIndex": "0x3",
          "logIndex": "0x2",
          "removed": false
        },
        {
          "address": "0x4200000000000000000000000000000000000022",
          "topics": [
            "0x8c5be1e5ebec7d5bd14f71427d1e84f3dd0314c0f7b2291e5b200ac8c7c3b925",
            "0x000000000000000000000000e662a6b3d093e53c6910f05e2122e8f4c92864f1",
            "0x0000000000000000000000008a84d11c3757008a8d76de6c76bf686460c4a5d9"
          ],
          "data": "0xffffffffffffffffffffffffffffffffffffffffffffffffffffffffffffffff",
          "blockHash": "0xfeb138e4fc27737d3d420a7e9d0020b6d43f9cb130b0539ef1865124ca37a6eb",
          "blockNumber": "0x460abe",
          "transactionHash": "0x07b65163a49bbc06af2b9d3f64f0262c5dac86de03921a1323dc916adaec88fa",
          "transactionIndex": "0x3",
          "logIndex": "0x3",
          "removed": false
        }
      ],
      "logsBloom": "0x00000000000000000000000000000000000000000000000000000000000000000020010000000000000000000000000000000000000000000000000000200000000000000000000040000000000000000000000000000000000000002000000000000000000000000000000000000000000000000100000000000000800000000000000000000000000000000000000000000000000000000000000000000000020000000000000000000020000000000000000000000000000000000000000000000000000000000000000100000000000000000400000000400000000000000010000000000000000000100000000000000000000000000000000000001000",
      "type": "0x2",
      "transactionHash": "0x07b65163a49bbc06af2b9d3f64f0262c5dac86de03921a1323dc916adaec88fa",
      "transactionIndex": "0x3",
      "blockHash": "0xfeb138e4fc27737d3d420a7e9d0020b6d43f9cb130b0539ef1865124ca37a6eb",
      "blockNumber": "0x460abe",
      "gasUsed": "0x16a6b",
      "effectiveGasPrice": "0xf4349",
      "from": "0x632a7cf953c3127606aadccd832e9d480b81f7c0",
      "to": "0xe662a6b3d093e53c6910f05e2122e8f4c92864f1",
      "contractAddress": null,
      "l1Fee": "0x1a5dab95",
      "l1FeeScalar": "0.684",
      "l1GasPrice": "0x4d3e8",
      "l1GasUsed": "0x7fc"
    }
  ],
  "libraries": [],
  "pending": [],
  "returns": {},
  "timestamp": 1713867233,
  "chain": 168587773,
  "commit": "4f905cc"
}