{
  "transactions": [
    {
      "hash": "0xd185c7f6ace189a275d4e3326addceea00ab76b49928dee6d80716e8d3dc78e9",
      "transactionType": "CALL",
      "contractName": null,
      "contractAddress": "0xf0fe256f315ffcbd713c6904e33311e1d528af99",
      "function": "deployBankroll(address,uint256,uint256,bytes32)",
      "arguments": [
        "0x4200000000000000000000000000000000000022",
        "8000",
        "5000",
        "0x3078300000000000000000000000000000000000000000000000000000000000"
      ],
      "transaction": {
        "from": "0x4015b6569369af4f17cd2da9e2f5e14a5dd162b4",
        "to": "0xf0fe256f315ffcbd713c6904e33311e1d528af99",
        "gas": "0xb5a2f",
        "value": "0x0",
        "input": "0x14dd160e00000000000000000000000042000000000000000000000000000000000000220000000000000000000000000000000000000000000000000000000000001f4000000000000000000000000000000000000000000000000000000000000013883078300000000000000000000000000000000000000000000000000000000000",
        "nonce": "0x2a",
        "chainId": "0xa0c71fd",
        "accessList": null,
        "type": null
      },
      "additionalContracts": [
        {
          "transactionType": "CREATE2",
          "address": "0xbf5ad084547a5ba83822f20aeaace87d8cc2e7a1",
          "initCode": "0x3d602d80600a3d3981f3363d3d373d3d3d363d7306b93c503ec39cd45c8664190c6d2663365bf45c5af43d82803e903d91602b57fd5bf3"
        }
      ],
      "isFixedGasLimit": false
    },
    {
      "hash": "0x67e35f06d79bd8e4274f2a0cec1c1431be9d5be99f537fecc4009c2fa4545606",
      "transactionType": "CALL",
      "contractName": null,
      "contractAddress": "0xda2614e4a44c06f21533d848c5c9445f42641ab2",
      "function": "addOperator(address)",
      "arguments": [
        "0x312BA46064e1fe5904362BfB0C52c38F20d3Ef44"
      ],
      "transaction": {
        "from": "0x4015b6569369af4f17cd2da9e2f5e14a5dd162b4",
        "to": "0xda2614e4a44c06f21533d848c5c9445f42641ab2",
        "gas": "0x12f38",
        "value": "0x0",
        "input": "0x9870d7fe000000000000000000000000312ba46064e1fe5904362bfb0c52c38f20d3ef44",
        "nonce": "0x2b",
        "chainId": "0xa0c71fd",
        "accessList": null,
        "type": null
      },
      "additionalContracts": [],
      "isFixedGasLimit": false
    },
    {
      "hash": "0x16b389d08117162495321c01bdd04229ecd1972c3b92b0c5cf034914dba51f55",
      "transactionType": "CALL",
      "contractName": null,
      "contractAddress": "0xda2614e4a44c06f21533d848c5c9445f42641ab2",
      "function": "approveBankroll(address,uint256)",
      "arguments": [
        "0xbF5AD084547a5Ba83822f20AeaaCE87d8CC2E7a1",
        "650"
      ],
      "transaction": {
        "from": "0x4015b6569369af4f17cd2da9e2f5e14a5dd162b4",
        "to": "0xda2614e4a44c06f21533d848c5c9445f42641ab2",
        "gas": "0x1a7ce",
        "value": "0x0",
        "input": "0x9756e8df000000000000000000000000bf5ad084547a5ba83822f20aeaace87d8cc2e7a1000000000000000000000000000000000000000000000000000000000000028a",
        "nonce": "0x2c",
        "chainId": "0xa0c71fd",
        "accessList": null,
        "type": null
      },
      "additionalContracts": [],
      "isFixedGasLimit": false
    },
    {
      "hash": "0x7f256fcdc2086cedc9d6625ef6be5f49cdd4af9340cc19de870d4618b9b562e2",
      "transactionType": "CALL",
      "contractName": null,
      "contractAddress": "0xda2614e4a44c06f21533d848c5c9445f42641ab2",
      "function": "setOperatorToBankroll(address,address)",
      "arguments": [
        "0xbF5AD084547a5Ba83822f20AeaaCE87d8CC2E7a1",
        "0x312BA46064e1fe5904362BfB0C52c38F20d3Ef44"
      ],
      "transaction": {
        "from": "0x4015b6569369af4f17cd2da9e2f5e14a5dd162b4",
        "to": "0xda2614e4a44c06f21533d848c5c9445f42641ab2",
        "gas": "0x25d08",
        "value": "0x0",
        "input": "0xcb233b0a000000000000000000000000bf5ad084547a5ba83822f20aeaace87d8cc2e7a1000000000000000000000000312ba46064e1fe5904362bfb0c52c38f20d3ef44",
        "nonce": "0x2d",
        "chainId": "0xa0c71fd",
        "accessList": null,
        "type": null
      },
      "additionalContracts": [],
      "isFixedGasLimit": false
    },
    {
      "hash": "0x952312910ff9ff7477d61fa8e2afba6edd940eff94c51188ca9531ab48858f7e",
      "transactionType": "CALL",
      "contractName": null,
      "contractAddress": "0xbf5ad084547a5ba83822f20aeaace87d8cc2e7a1",
      "function": "maxContractsApprove()",
      "arguments": [],
      "transaction": {
        "from": "0x8d76db34ccca356fa805f5a277efff53aac5af88",
        "to": "0xbf5ad084547a5ba83822f20aeaace87d8cc2e7a1",
        "gas": "0x21208",
        "value": "0x0",
        "input": "0xcbb3b225",
        "nonce": "0x6",
        "chainId": "0xa0c71fd",
        "accessList": null,
        "type": null
      },
      "additionalContracts": [],
      "isFixedGasLimit": false
    }
  ],
  "receipts": [
    {
      "status": "0x1",
      "cumulativeGasUsed": "0xbed43",
      "logs": [
        {
          "address": "0xbf5ad084547a5ba83822f20aeaace87d8cc2e7a1",
          "topics": [
            "0x2f8788117e7eff1d82e926ec794901d17c78024a50270940304540a733656f0d",
            "0x0000000000000000000000000000000000000000000000000000000000000000",
            "0x0000000000000000000000001d424382e8e09cc6f8425c9f32d2c695e7698db7",
            "0x000000000000000000000000f0fe256f315ffcbd713c6904e33311e1d528af99"
          ],
          "data": "0x",
          "blockHash": "0xbdef08cd8daf850e8d30d76091bdedad4b3b63a4883be4c48e3d1089bcac60c1",
          "blockNumber": "0x420629",
          "transactionHash": "0xd185c7f6ace189a275d4e3326addceea00ab76b49928dee6d80716e8d3dc78e9",
          "transactionIndex": "0x3",
          "logIndex": "0x3",
          "removed": false
        },
        {
          "address": "0xbf5ad084547a5ba83822f20aeaace87d8cc2e7a1",
          "topics": [
            "0x2f8788117e7eff1d82e926ec794901d17c78024a50270940304540a733656f0d",
            "0xdf8b4c520ffe197c5343c6f5aec59570151ef9a492f2c624fd45ddde6135ec42",
            "0x00000000000000000000000051d77cb2d8a76350d3bb01d01d3e2bdfe9df42cc",
            "0x000000000000000000000000f0fe256f315ffcbd713c6904e33311e1d528af99"
          ],
          "data": "0x",
          "blockHash": "0xbdef08cd8daf850e8d30d76091bdedad4b3b63a4883be4c48e3d1089bcac60c1",
          "blockNumber": "0x420629",
          "transactionHash": "0xd185c7f6ace189a275d4e3326addceea00ab76b49928dee6d80716e8d3dc78e9",
          "transactionIndex": "0x3",
          "logIndex": "0x4",
          "removed": false
        },
        {
          "address": "0xbf5ad084547a5ba83822f20aeaace87d8cc2e7a1",
          "topics": [
            "0x2f8788117e7eff1d82e926ec794901d17c78024a50270940304540a733656f0d",
            "0xdf8b4c520ffe197c5343c6f5aec59570151ef9a492f2c624fd45ddde6135ec42",
            "0x0000000000000000000000008d76db34ccca356fa805f5a277efff53aac5af88",
            "0x000000000000000000000000f0fe256f315ffcbd713c6904e33311e1d528af99"
          ],
          "data": "0x",
          "blockHash": "0xbdef08cd8daf850e8d30d76091bdedad4b3b63a4883be4c48e3d1089bcac60c1",
          "blockNumber": "0x420629",
          "transactionHash": "0xd185c7f6ace189a275d4e3326addceea00ab76b49928dee6d80716e8d3dc78e9",
          "transactionIndex": "0x3",
          "logIndex": "0x5",
          "removed": false
        },
        {
          "address": "0xbf5ad084547a5ba83822f20aeaace87d8cc2e7a1",
          "topics": [
            "0x2f8788117e7eff1d82e926ec794901d17c78024a50270940304540a733656f0d",
            "0x48a7db58bc0d0016705458e918f4ea84477e4f4c43c6d240db04e4db985c2082",
            "0x000000000000000000000000da2614e4a44c06f21533d848c5c9445f42641ab2",
            "0x000000000000000000000000f0fe256f315ffcbd713c6904e33311e1d528af99"
          ],
          "data": "0x",
          "blockHash": "0xbdef08cd8daf850e8d30d76091bdedad4b3b63a4883be4c48e3d1089bcac60c1",
          "blockNumber": "0x420629",
          "transactionHash": "0xd185c7f6ace189a275d4e3326addceea00ab76b49928dee6d80716e8d3dc78e9",
          "transactionIndex": "0x3",
          "logIndex": "0x6",
          "removed": false
        },
        {
          "address": "0xbf5ad084547a5ba83822f20aeaace87d8cc2e7a1",
          "topics": [
            "0x7f26b83ff96e1f2b6a682f133852f6798a09c465da95921460cefb3847402498"
          ],
          "data": "0x0000000000000000000000000000000000000000000000000000000000000001",
          "blockHash": "0xbdef08cd8daf850e8d30d76091bdedad4b3b63a4883be4c48e3d1089bcac60c1",
          "blockNumber": "0x420629",
          "transactionHash": "0xd185c7f6ace189a275d4e3326addceea00ab76b49928dee6d80716e8d3dc78e9",
          "transactionIndex": "0x3",
          "logIndex": "0x7",
          "removed": false
        }
      ],
      "logsBloom": "0x00004004000000000000000000800000000000000000000000000000000000200000000000000000000000000000000000000000000080000000000004080000000000000000000000000000000000000000000000000000000000000000000000000000020000000020008000028800000000020000000000000000000000000008040000000000000000000000000000000000000080000000000000000000000000000000000000000000100400000000000800000400001000000000000000000000000000000004000000040000000000000000000100000200000020202008000000000000000000080000020000000000000000000000000000400000",
      "type": "0x0",
      "transactionHash": "0xd185c7f6ace189a275d4e3326addceea00ab76b49928dee6d80716e8d3dc78e9",
      "transactionIndex": "0x3",
      "blockHash": "0xbdef08cd8daf850e8d30d76091bdedad4b3b63a4883be4c48e3d1089bcac60c1",
      "blockNumber": "0x420629",
      "gasUsed": "0x7c327",
      "effectiveGasPrice": "0xf4345",
      "from": "0x4015b6569369af4f17cd2da9e2f5e14a5dd162b4",
      "to": "0xf0fe256f315ffcbd713c6904e33311e1d528af99",
      "contractAddress": null,
      "l1Fee": "0x14c65d463a",
      "l1FeeScalar": "0.684",
      "l1GasPrice": "0x3071dcd",
      "l1GasUsed": "0xa08"
    },
    {
      "status": "0x1",
      "cumulativeGasUsed": "0x192d0",
      "logs": [],
      "logsBloom": "0x00000000000000000000000000000000000000000000000000000000000000000000000000000000000000000000000000000000000000000000000000000000000000000000000000000000000000000000000000000000000000000000000000000000000000000000000000000000000000000000000000000000000000000000000000000000000000000000000000000000000000000000000000000000000000000000000000000000000000000000000000000000000000000000000000000000000000000000000000000000000000000000000000000000000000000000000000000000000000000000000000000000000000000000000000000000",
      "type": "0x0",
      "transactionHash": "0x67e35f06d79bd8e4274f2a0cec1c1431be9d5be99f537fecc4009c2fa4545606",
      "transactionIndex": "0x1",
      "blockHash": "0x6950aa42bb12bb81fcd2dc7dcc38b627cb0b569ecf5f8a40b74ae40bd4d6547a",
      "blockNumber": "0x42062e",
      "gasUsed": "0xdb87",
      "effectiveGasPrice": "0xf4345",
      "from": "0x4015b6569369af4f17cd2da9e2f5e14a5dd162b4",
      "to": "0xda2614e4a44c06f21533d848c5c9445f42641ab2",
      "contractAddress": null,
      "l1Fee": "0x12a9e4a091",
      "l1FeeScalar": "0.684",
      "l1GasPrice": "0x3097c5c",
      "l1GasUsed": "0x8fc"
    },
    {
      "status": "0x1",
      "cumulativeGasUsed": "0xa4833",
      "logs": [],
      "logsBloom": "0x00000000000000000000000000000000000000000000000000000000000000000000000000000000000000000000000000000000000000000000000000000000000000000000000000000000000000000000000000000000000000000000000000000000000000000000000000000000000000000000000000000000000000000000000000000000000000000000000000000000000000000000000000000000000000000000000000000000000000000000000000000000000000000000000000000000000000000000000000000000000000000000000000000000000000000000000000000000000000000000000000000000000000000000000000000000",
      "type": "0x0",
      "transactionHash": "0x16b389d08117162495321c01bdd04229ecd1972c3b92b0c5cf034914dba51f55",
      "transactionIndex": "0x3",
      "blockHash": "0xdb2473c7fb0e71d81307e85f473ea80f4abe728c5c808cb6deac7bef63b13d16",
      "blockNumber": "0x420631",
      "gasUsed": "0x132d4",
      "effectiveGasPrice": "0xf4345",
      "from": "0x4015b6569369af4f17cd2da9e2f5e14a5dd162b4",
      "to": "0xda2614e4a44c06f21533d848c5c9445f42641ab2",
      "contractAddress": null,
      "l1Fee": "0x137f14f894",
      "l1FeeScalar": "0.684",
      "l1GasPrice": "0x2f4e420",
      "l1GasUsed": "0x9a4"
    },
    {
      "status": "0x1",
      "cumulativeGasUsed": "0x807c1",
      "logs": [],
      "logsBloom": "0x00000000000000000000000000000000000000000000000000000000000000000000000000000000000000000000000000000000000000000000000000000000000000000000000000000000000000000000000000000000000000000000000000000000000000000000000000000000000000000000000000000000000000000000000000000000000000000000000000000000000000000000000000000000000000000000000000000000000000000000000000000000000000000000000000000000000000000000000000000000000000000000000000000000000000000000000000000000000000000000000000000000000000000000000000000000",
      "type": "0x0",
      "transactionHash": "0x7f256fcdc2086cedc9d6625ef6be5f49cdd4af9340cc19de870d4618b9b562e2",
      "transactionIndex": "0x3",
      "blockHash": "0xea3ce0a269cd8108b476e7ba629fd2f98022275ad035f126fb8640de6d743662",
      "blockNumber": "0x420635",
      "gasUsed": "0x19db3",
      "effectiveGasPrice": "0xf4345",
      "from": "0x4015b6569369af4f17cd2da9e2f5e14a5dd162b4",
      "to": "0xda2614e4a44c06f21533d848c5c9445f42641ab2",
      "contractAddress": null,
      "l1Fee": "0x1533e71777",
      "l1FeeScalar": "0.684",
      "l1GasPrice": "0x2f4e420",
      "l1GasUsed": "0xa7c"
    },
    {
      "status": "0x1",
      "cumulativeGasUsed": "0x221c0",
      "logs": [
        {
          "address": "0x4200000000000000000000000000000000000022",
          "topics": [
            "0x8c5be1e5ebec7d5bd14f71427d1e84f3dd0314c0f7b2291e5b200ac8c7c3b925",
            "0x000000000000000000000000bf5ad084547a5ba83822f20aeaace87d8cc2e7a1",
            "0x000000000000000000000000da2614e4a44c06f21533d848c5c9445f42641ab2"
          ],
          "data": "0xffffffffffffffffffffffffffffffffffffffffffffffffffffffffffffffff",
          "blockHash": "0x85ed1612349438e57d0663b559a8efb2be08012d55e581b1b9eda87c1fa59616",
          "blockNumber": "0x420639",
          "transactionHash": "0x952312910ff9ff7477d61fa8e2afba6edd940eff94c51188ca9531ab48858f7e",
          "transactionIndex": "0x1",
          "logIndex": "0x0",
          "removed": false
        },
        {
          "address": "0x4200000000000000000000000000000000000022",
          "topics": [
            "0x8c5be1e5ebec7d5bd14f71427d1e84f3dd0314c0f7b2291e5b200ac8c7c3b925",
            "0x000000000000000000000000bf5ad084547a5ba83822f20aeaace87d8cc2e7a1",
            "0x00000000000000000000000051d77cb2d8a76350d3bb01d01d3e2bdfe9df42cc"
          ],
          "data": "0xffffffffffffffffffffffffffffffffffffffffffffffffffffffffffffffff",
          "blockHash": "0x85ed1612349438e57d0663b559a8efb2be08012d55e581b1b9eda87c1fa59616",
          "blockNumber": "0x420639",
          "transactionHash": "0x952312910ff9ff7477d61fa8e2afba6edd940eff94c51188ca9531ab48858f7e",
          "transactionIndex": "0x1",
          "logIndex": "0x1",
          "removed": false
        }
      ],
      "logsBloom": "0x00000000000000000000000000000000000000000000000000000000000000000000010000000000000000000000000000000000000000000000000000200000000000000000000040000000000000000000000000000000000000000000000000000000000000000020000000008000000000020000000000000000800000000008000000000000000000000000000000000000000000000000000000000000020000000000000000040000000000000000000800000000000000000000000000000000000040000000000000000000000000000000000000000000000000000010800000000000000000080000000000000000000000000000000000000000",
      "type": "0x0",
      "transactionHash": "0x952312910ff9ff7477d61fa8e2afba6edd940eff94c51188ca9531ab48858f7e",
      "transactionIndex": "0x1",
      "blockHash": "0x85ed1612349438e57d0663b559a8efb2be08012d55e581b1b9eda87c1fa59616",
      "blockNumber": "0x420639",
      "gasUsed": "0x16a6b",
      "effectiveGasPrice": "0xf4345",
      "from": "0x8d76db34ccca356fa805f5a277efff53aac5af88",
      "to": "0xbf5ad084547a5ba83822f20aeaace87d8cc2e7a1",
      "contractAddress": null,
      "l1Fee": "0x1129310b67",
      "l1FeeScalar": "0.684",
      "l1GasPrice": "0x3530db5",
      "l1GasUsed": "0x78c"
    }
  ],
  "libraries": [],
  "pending": [],
  "returns": {},
  "timestamp": 1713340631,
  "chain": 168587773,
  "commit": "8da793f"
}