{
  "transactions": [
    {
      "hash": "0xcdf8532b6085ca1c5cb9dc367201ae87e4461270c1e6f64d273a4f180e51e1f2",
      "transactionType": "CALL",
      "contractName": null,
      "contractAddress": "0x442cd67533efc9519722a4401d0e4d6eba2a6bf1",
      "function": "deployBankroll(address,uint256,uint256,bytes32)",
      "arguments": [
        "0x4200000000000000000000000000000000000022",
        "8000",
        "5000",
        "0x3078300000000000000000000000000000000000000000000000000000000000"
      ],
      "transaction": {
        "from": "0x4015b6569369af4f17cd2da9e2f5e14a5dd162b4",
        "to": "0x442cd67533efc9519722a4401d0e4d6eba2a6bf1",
        "gas": "0xb5a2f",
        "value": "0x0",
        "input": "0x14dd160e00000000000000000000000042000000000000000000000000000000000000220000000000000000000000000000000000000000000000000000000000001f4000000000000000000000000000000000000000000000000000000000000013883078300000000000000000000000000000000000000000000000000000000000",
        "nonce": "0x1a",
        "chainId": "0xa0c71fd",
        "accessList": null,
        "type": null
      },
      "additionalContracts": [
        {
          "transactionType": "CREATE2",
          "address": "0x55e24dd6056d676698767caa4715b6ddb0ce5ca7",
          "initCode": "0x3d602d80600a3d3981f3363d3d373d3d3d363d73ae07315a09a37cab9fc80ad6f2078d06e7a440765af43d82803e903d91602b57fd5bf3"
        }
      ],
      "isFixedGasLimit": false
    },
    {
      "hash": "0x1648f4c2088fda2c2c794e07e3e29e1188c2ecf3c12a2e26edea85baba5d65fa",
      "transactionType": "CALL",
      "contractName": null,
      "contractAddress": "0x97fcd67ce8374f94601a0524c423e9b9f8c0c210",
      "function": "addOperator(address)",
      "arguments": [
        "0x312BA46064e1fe5904362BfB0C52c38F20d3Ef44"
      ],
      "transaction": {
        "from": "0x4015b6569369af4f17cd2da9e2f5e14a5dd162b4",
        "to": "0x97fcd67ce8374f94601a0524c423e9b9f8c0c210",
        "gas": "0x12f38",
        "value": "0x0",
        "input": "0x9870d7fe000000000000000000000000312ba46064e1fe5904362bfb0c52c38f20d3ef44",
        "nonce": "0x1b",
        "chainId": "0xa0c71fd",
        "accessList": null,
        "type": null
      },
      "additionalContracts": [],
      "isFixedGasLimit": false
    },
    {
      "hash": "0xf91195b780003572d98c14e0c10a051c771576130b27607255400e6e6411bf4f",
      "transactionType": "CALL",
      "contractName": null,
      "contractAddress": "0x97fcd67ce8374f94601a0524c423e9b9f8c0c210",
      "function": "approveBankroll(address,uint256)",
      "arguments": [
        "0x55E24dD6056d676698767CaA4715B6ddB0CE5CA7",
        "650"
      ],
      "transaction": {
        "from": "0x4015b6569369af4f17cd2da9e2f5e14a5dd162b4",
        "to": "0x97fcd67ce8374f94601a0524c423e9b9f8c0c210",
        "gas": "0x1a7ce",
        "value": "0x0",
        "input": "0x9756e8df00000000000000000000000055e24dd6056d676698767caa4715b6ddb0ce5ca7000000000000000000000000000000000000000000000000000000000000028a",
        "nonce": "0x1c",
        "chainId": "0xa0c71fd",
        "accessList": null,
        "type": null
      },
      "additionalContracts": [],
      "isFixedGasLimit": false
    },
    {
      "hash": "0x06886f974b504afec308c911c8caf40d08f6de4a0f6f32ae649b614310d4bd17",
      "transactionType": "CALL",
      "contractName": null,
      "contractAddress": "0x97fcd67ce8374f94601a0524c423e9b9f8c0c210",
      "function": "setOperatorToBankroll(address,address)",
      "arguments": [
        "0x55E24dD6056d676698767CaA4715B6ddB0CE5CA7",
        "0x312BA46064e1fe5904362BfB0C52c38F20d3Ef44"
      ],
      "transaction": {
        "from": "0x4015b6569369af4f17cd2da9e2f5e14a5dd162b4",
        "to": "0x97fcd67ce8374f94601a0524c423e9b9f8c0c210",
        "gas": "0x25d08",
        "value": "0x0",
        "input": "0xcb233b0a00000000000000000000000055e24dd6056d676698767caa4715b6ddb0ce5ca7000000000000000000000000312ba46064e1fe5904362bfb0c52c38f20d3ef44",
        "nonce": "0x1d",
        "chainId": "0xa0c71fd",
        "accessList": null,
        "type": null
      },
      "additionalContracts": [],
      "isFixedGasLimit": false
    },
    {
      "hash": "0xaa509ec06aa916511d116e1fda4f42687fe00170da444f5163c00af90d0ea3c1",
      "transactionType": "CALL",
      "contractName": null,
      "contractAddress": "0x55e24dd6056d676698767caa4715b6ddb0ce5ca7",
      "function": "maxContractsApprove()",
      "arguments": [],
      "transaction": {
        "from": "0x8d76db34ccca356fa805f5a277efff53aac5af88",
        "to": "0x55e24dd6056d676698767caa4715b6ddb0ce5ca7",
        "gas": "0x21208",
        "value": "0x0",
        "input": "0xcbb3b225",
        "nonce": "0x5",
        "chainId": "0xa0c71fd",
        "accessList": null,
        "type": null
      },
      "additionalContracts": [],
      "isFixedGasLimit": false
    }
  ],
  "receipts": [
    {
      "status": "0x1",
      "cumulativeGasUsed": "0xf8d06",
      "logs": [
        {
          "address": "0x55e24dd6056d676698767caa4715b6ddb0ce5ca7",
          "topics": [
            "0x2f8788117e7eff1d82e926ec794901d17c78024a50270940304540a733656f0d",
            "0x0000000000000000000000000000000000000000000000000000000000000000",
            "0x0000000000000000000000001d424382e8e09cc6f8425c9f32d2c695e7698db7",
            "0x000000000000000000000000442cd67533efc9519722a4401d0e4d6eba2a6bf1"
          ],
          "data": "0x",
          "blockHash": "0x61ede29891406f8463a24b2cd1faeea6ce6db5b88b969d07a11d9a7665e5f158",
          "blockNumber": "0x40d77c",
          "transactionHash": "0xcdf8532b6085ca1c5cb9dc367201ae87e4461270c1e6f64d273a4f180e51e1f2",
          "transactionIndex": "0x6",
          "logIndex": "0x6",
          "removed": false
        },
        {
          "address": "0x55e24dd6056d676698767caa4715b6ddb0ce5ca7",
          "topics": [
            "0x2f8788117e7eff1d82e926ec794901d17c78024a50270940304540a733656f0d",
            "0xdf8b4c520ffe197c5343c6f5aec59570151ef9a492f2c624fd45ddde6135ec42",
            "0x00000000000000000000000099bb8a97aea843c0d27fe2703a39dc187a9c6070",
            "0x000000000000000000000000442cd67533efc9519722a4401d0e4d6eba2a6bf1"
          ],
          "data": "0x",
          "blockHash": "0x61ede29891406f8463a24b2cd1faeea6ce6db5b88b969d07a11d9a7665e5f158",
          "blockNumber": "0x40d77c",
          "transactionHash": "0xcdf8532b6085ca1c5cb9dc367201ae87e4461270c1e6f64d273a4f180e51e1f2",
          "transactionIndex": "0x6",
          "logIndex": "0x7",
          "removed": false
        },
        {
          "address": "0x55e24dd6056d676698767caa4715b6ddb0ce5ca7",
          "topics": [
            "0x2f8788117e7eff1d82e926ec794901d17c78024a50270940304540a733656f0d",
            "0xdf8b4c520ffe197c5343c6f5aec59570151ef9a492f2c624fd45ddde6135ec42",
            "0x0000000000000000000000008d76db34ccca356fa805f5a277efff53aac5af88",
            "0x000000000000000000000000442cd67533efc9519722a4401d0e4d6eba2a6bf1"
          ],
          "data": "0x",
          "blockHash": "0x61ede29891406f8463a24b2cd1faeea6ce6db5b88b969d07a11d9a7665e5f158",
          "blockNumber": "0x40d77c",
          "transactionHash": "0xcdf8532b6085ca1c5cb9dc367201ae87e4461270c1e6f64d273a4f180e51e1f2",
          "transactionIndex": "0x6",
          "logIndex": "0x8",
          "removed": false
        },
        {
          "address": "0x55e24dd6056d676698767caa4715b6ddb0ce5ca7",
          "topics": [
            "0x2f8788117e7eff1d82e926ec794901d17c78024a50270940304540a733656f0d",
            "0x48a7db58bc0d0016705458e918f4ea84477e4f4c43c6d240db04e4db985c2082",
            "0x00000000000000000000000097fcd67ce8374f94601a0524c423e9b9f8c0c210",
            "0x000000000000000000000000442cd67533efc9519722a4401d0e4d6eba2a6bf1"
          ],
          "data": "0x",
          "blockHash": "0x61ede29891406f8463a24b2cd1faeea6ce6db5b88b969d07a11d9a7665e5f158",
          "blockNumber": "0x40d77c",
          "transactionHash": "0xcdf8532b6085ca1c5cb9dc367201ae87e4461270c1e6f64d273a4f180e51e1f2",
          "transactionIndex": "0x6",
          "logIndex": "0x9",
          "removed": false
        },
        {
          "address": "0x55e24dd6056d676698767caa4715b6ddb0ce5ca7",
          "topics": [
            "0x7f26b83ff96e1f2b6a682f133852f6798a09c465da95921460cefb3847402498"
          ],
          "data": "0x0000000000000000000000000000000000000000000000000000000000000001",
          "blockHash": "0x61ede29891406f8463a24b2cd1faeea6ce6db5b88b969d07a11d9a7665e5f158",
          "blockNumber": "0x40d77c",
          "transactionHash": "0xcdf8532b6085ca1c5cb9dc367201ae87e4461270c1e6f64d273a4f180e51e1f2",
          "transactionIndex": "0x6",
          "logIndex": "0xa",
          "removed": false
        }
      ],
      "logsBloom": "0x00004004000000000000000000000000000000000400020000000000000000200000000000000000000000000000000000000000000080000000000004000000000000000000000000000000000000000000000000000000000000000000000000200000020400000000008000020800000000000000100000000000000000000000040000000000000000000200000080000000000080000000000000000000008000000000000000000000100400000000000000000400001000004000000000000000000000000004000000040000000000000020000100000000000020002000000000000000000000000000080000000000000000800000000000400000",
      "type": "0x0",
      "transactionHash": "0xcdf8532b6085ca1c5cb9dc367201ae87e4461270c1e6f64d273a4f180e51e1f2",
      "transactionIndex": "0x6",
      "blockHash": "0x61ede29891406f8463a24b2cd1faeea6ce6db5b88b969d07a11d9a7665e5f158",
      "blockNumber": "0x40d77c",
      "gasUsed": "0x7c327",
      "effectiveGasPrice": "0xf434a",
      "from": "0x4015b6569369af4f17cd2da9e2f5e14a5dd162b4",
      "to": "0x442cd67533efc9519722a4401d0e4d6eba2a6bf1",
      "contractAddress": null,
      "l1Fee": "0x370e0e569b8",
      "l1FeeScalar": "0.684",
      "l1GasPrice": "0x8061d8a7",
      "l1GasUsed": "0xa08"
    },
    {
      "status": "0x1",
      "cumulativeGasUsed": "0x89f10",
      "logs": [],
      "logsBloom": "0x00000000000000000000000000000000000000000000000000000000000000000000000000000000000000000000000000000000000000000000000000000000000000000000000000000000000000000000000000000000000000000000000000000000000000000000000000000000000000000000000000000000000000000000000000000000000000000000000000000000000000000000000000000000000000000000000000000000000000000000000000000000000000000000000000000000000000000000000000000000000000000000000000000000000000000000000000000000000000000000000000000000000000000000000000000000",
      "type": "0x0",
      "transactionHash": "0x1648f4c2088fda2c2c794e07e3e29e1188c2ecf3c12a2e26edea85baba5d65fa",
      "transactionIndex": "0x5",
      "blockHash": "0x71c5cc3c951c4677f46f24cc947f92534e31af9a5c5daca80ad1be26f0427727",
      "blockNumber": "0x40d780",
      "gasUsed": "0xdb87",
      "effectiveGasPrice": "0xf434a",
      "from": "0x4015b6569369af4f17cd2da9e2f5e14a5dd162b4",
      "to": "0x97fcd67ce8374f94601a0524c423e9b9f8c0c210",
      "contractAddress": null,
      "l1Fee": "0x30f65d853c0",
      "l1FeeScalar": "0.684",
      "l1GasPrice": "0x8025c3ee",
      "l1GasUsed": "0x8f0"
    },
    {
      "status": "0x1",
      "cumulativeGasUsed": "0x101173",
      "logs": [],
      "logsBloom": "0x00000000000000000000000000000000000000000000000000000000000000000000000000000000000000000000000000000000000000000000000000000000000000000000000000000000000000000000000000000000000000000000000000000000000000000000000000000000000000000000000000000000000000000000000000000000000000000000000000000000000000000000000000000000000000000000000000000000000000000000000000000000000000000000000000000000000000000000000000000000000000000000000000000000000000000000000000000000000000000000000000000000000000000000000000000000",
      "type": "0x0",
      "transactionHash": "0xf91195b780003572d98c14e0c10a051c771576130b27607255400e6e6411bf4f",
      "transactionIndex": "0xa",
      "blockHash": "0x66732d6328301edf727907b4dfbfa16ce2eac68bc848785e020d9fe7d33854c3",
      "blockNumber": "0x40d784",
      "gasUsed": "0x132d4",
      "effectiveGasPrice": "0xf434a",
      "from": "0x4015b6569369af4f17cd2da9e2f5e14a5dd162b4",
      "to": "0x97fcd67ce8374f94601a0524c423e9b9f8c0c210",
      "contractAddress": null,
      "l1Fee": "0x34d075e2837",
      "l1FeeScalar": "0.684",
      "l1GasPrice": "0x8025c3ee",
      "l1GasUsed": "0x9a4"
    },
    {
      "status": "0x1",
      "cumulativeGasUsed": "0x13545f",
      "logs": [],
      "logsBloom": "0x00000000000000000000000000000000000000000000000000000000000000000000000000000000000000000000000000000000000000000000000000000000000000000000000000000000000000000000000000000000000000000000000000000000000000000000000000000000000000000000000000000000000000000000000000000000000000000000000000000000000000000000000000000000000000000000000000000000000000000000000000000000000000000000000000000000000000000000000000000000000000000000000000000000000000000000000000000000000000000000000000000000000000000000000000000000",
      "type": "0x0",
      "transactionHash": "0x06886f974b504afec308c911c8caf40d08f6de4a0f6f32ae649b614310d4bd17",
      "transactionIndex": "0x6",
      "blockHash": "0x040275c3b763aeb1050d6549ffba9b0a53680bd045d7a5e1bc8419370d357c34",
      "blockNumber": "0x40d787",
      "gasUsed": "0x19db3",
      "effectiveGasPrice": "0xf434a",
      "from": "0x4015b6569369af4f17cd2da9e2f5e14a5dd162b4",
      "to": "0x97fcd67ce8374f94601a0524c423e9b9f8c0c210",
      "contractAddress": null,
      "l1Fee": "0x3657c220051",
      "l1FeeScalar": "0.684",
      "l1GasPrice": "0x79ca1562",
      "l1GasUsed": "0xa70"
    },
    {
      "status": "0x1",
      "cumulativeGasUsed": "0x8c1df",
      "logs": [
        {
          "address": "0x4200000000000000000000000000000000000022",
          "topics": [
            "0x8c5be1e5ebec7d5bd14f71427d1e84f3dd0314c0f7b2291e5b200ac8c7c3b925",
            "0x00000000000000000000000055e24dd6056d676698767caa4715b6ddb0ce5ca7",
            "0x00000000000000000000000097fcd67ce8374f94601a0524c423e9b9f8c0c210"
          ],
          "data": "0xffffffffffffffffffffffffffffffffffffffffffffffffffffffffffffffff",
          "blockHash": "0xeb0d01cbc554ccb7e6a46b5e602f95456db472b59ad5283cba1517347acd3cb6",
          "blockNumber": "0x40d78b",
          "transactionHash": "0xaa509ec06aa916511d116e1fda4f42687fe00170da444f5163c00af90d0ea3c1",
          "transactionIndex": "0x5",
          "logIndex": "0x7",
          "removed": false
        },
        {
          "address": "0x4200000000000000000000000000000000000022",
          "topics": [
            "0x8c5be1e5ebec7d5bd14f71427d1e84f3dd0314c0f7b2291e5b200ac8c7c3b925",
            "0x00000000000000000000000055e24dd6056d676698767caa4715b6ddb0ce5ca7",
            "0x00000000000000000000000099bb8a97aea843c0d27fe2703a39dc187a9c6070"
          ],
          "data": "0xffffffffffffffffffffffffffffffffffffffffffffffffffffffffffffffff",
          "blockHash": "0xeb0d01cbc554ccb7e6a46b5e602f95456db472b59ad5283cba1517347acd3cb6",
          "blockNumber": "0x40d78b",
          "transactionHash": "0xaa509ec06aa916511d116e1fda4f42687fe00170da444f5163c00af90d0ea3c1",
          "transactionIndex": "0x5",
          "logIndex": "0x8",
          "removed": false
        }
      ],
      "logsBloom": "0x00000000000000000000000000000000000000000400000000000000000000000000010000000000000000000000000000000100000000000000000000200000000000000000000040000000000000000000000000000000000000000000000000200000000000000000000000000000000000000000100000000000800000000000000000000000000000800200000000000000000000000000000000000000028000000000000000000000000000000000000000000020000000000000000000000000000000000000000000000000000000000000000000000000000000000010000000000000000000000000000000000000000000800000000000000000",
      "type": "0x0",
      "transactionHash": "0xaa509ec06aa916511d116e1fda4f42687fe00170da444f5163c00af90d0ea3c1",
      "transactionIndex": "0x5",
      "blockHash": "0xeb0d01cbc554ccb7e6a46b5e602f95456db472b59ad5283cba1517347acd3cb6",
      "blockNumber": "0x40d78b",
      "gasUsed": "0x16a6b",
      "effectiveGasPrice": "0xf434a",
      "from": "0x8d76db34ccca356fa805f5a277efff53aac5af88",
      "to": "0x55e24dd6056d676698767caa4715b6ddb0ce5ca7",
      "contractAddress": null,
      "l1Fee": "0x26e1784afd5",
      "l1FeeScalar": "0.684",
      "l1GasPrice": "0x7883241c",
      "l1GasUsed": "0x78c"
    }
  ],
  "libraries": [],
  "pending": [],
  "returns": {},
  "timestamp": 1713185660,
  "chain": 168587773,
  "commit": "94125ce"
}