{
  "transactions": [
    {
      "hash": "0xa7b7a3461780d3220d031f678551be7167521f9e4c646b13db7d18c0cd0c94c3",
      "transactionType": "CALL",
      "contractName": null,
      "contractAddress": "0x4200000000000000000000000000000000000022",
      "function": "approve(address,uint256)",
      "arguments": [
        "0xbF5AD084547a5Ba83822f20AeaaCE87d8CC2E7a1",
        "300000000000000000000"
      ],
      "transaction": {
        "type": "0x00",
        "from": "0x8d76db34ccca356fa805f5a277efff53aac5af88",
        "to": "0x4200000000000000000000000000000000000022",
        "gas": "0xc365",
        "value": "0x0",
        "data": "0x095ea7b3000000000000000000000000bf5ad084547a5ba83822f20aeaace87d8cc2e7a100000000000000000000000000000000000000000000001043561a8829300000",
        "nonce": "0xc"
      },
      "additionalContracts": [],
      "isFixedGasLimit": false
    },
    {
      "hash": "0x5bc0f788f627a50e4ac205f9103ac9ffcf6af55ca7dc58f10e1559801d84e7f7",
      "transactionType": "CALL",
      "contractName": null,
      "contractAddress": "0xbF5AD084547a5Ba83822f20AeaaCE87d8CC2E7a1",
      "function": "depositFunds(uint256)",
      "arguments": [
        "300000000000000000000"
      ],
      "transaction": {
        "type": "0x00",
        "from": "0x8d76db34ccca356fa805f5a277efff53aac5af88",
        "to": "0xbf5ad084547a5ba83822f20aeaace87d8cc2e7a1",
        "gas": "0x40239",
        "value": "0x0",
        "data": "0x3b76594d00000000000000000000000000000000000000000000001043561a8829300000",
        "nonce": "0xd"
      },
      "additionalContracts": [],
      "isFixedGasLimit": false
    }
  ],
  "receipts": [
    {
      "transactionHash": "0xa7b7a3461780d3220d031f678551be7167521f9e4c646b13db7d18c0cd0c94c3",
      "transactionIndex": "0x5",
      "blockHash": "0x7666e8a393684af46f297b24fbc7cb21146c469583d24ca9a83471ca080ae28a",
      "blockNumber": "0x45535b",
      "from": "0x8d76dB34CcCA356fA805f5A277EFFf53aaC5af88",
      "to": "0x4200000000000000000000000000000000000022",
      "cumulativeGasUsed": "0x5437a",
      "gasUsed": "0x859b",
      "contractAddress": null,
      "logs": [
        {
          "address": "0x4200000000000000000000000000000000000022",
          "topics": [
            "0x8c5be1e5ebec7d5bd14f71427d1e84f3dd0314c0f7b2291e5b200ac8c7c3b925",
            "0x0000000000000000000000008d76db34ccca356fa805f5a277efff53aac5af88",
            "0x000000000000000000000000bf5ad084547a5ba83822f20aeaace87d8cc2e7a1"
          ],
          "data": "0x00000000000000000000000000000000000000000000001043561a8829300000",
          "blockHash": "0x7666e8a393684af46f297b24fbc7cb21146c469583d24ca9a83471ca080ae28a",
          "blockNumber": "0x45535b",
          "transactionHash": "0xa7b7a3461780d3220d031f678551be7167521f9e4c646b13db7d18c0cd0c94c3",
          "transactionIndex": "0x5",
          "logIndex": "0x7",
          "removed": false
        }
      ],
      "status": "0x1",
      "logsBloom": "0x00000000000000000000000000000000000000000000000000000000000000000000010000000000000000000000000000000000000000000000000004200000000000000000000040000000000000000000000000000000000000000000000000000000000000000000000000020000000000000000000000000000800000000000000000000000000000000000000000000000000000000000000000000000020000000000000000040000000000000000000000000000000000000000000000000000000040000000000000000000000000000000000000000000000000000010800000000000000000000000000000000000000000000000000000400000",
      "type": "0x0",
      "effectiveGasPrice": "0xf4340"
    },
    {
      "transactionHash": "0x5bc0f788f627a50e4ac205f9103ac9ffcf6af55ca7dc58f10e1559801d84e7f7",
      "transactionIndex": "0x6",
      "blockHash": "0x7666e8a393684af46f297b24fbc7cb21146c469583d24ca9a83471ca080ae28a",
      "blockNumber": "0x45535b",
      "from": "0x8d76dB34CcCA356fA805f5A277EFFf53aaC5af88",
      "to": "0xbF5AD084547a5Ba83822f20AeaaCE87d8CC2E7a1",
      "cumulativeGasUsed": "0x82a72",
      "gasUsed": "0x2e6f8",
      "contractAddress": null,
      "logs": [
        {
          "address": "0x4200000000000000000000000000000000000022",
          "topics": [
            "0x8c5be1e5ebec7d5bd14f71427d1e84f3dd0314c0f7b2291e5b200ac8c7c3b925",
            "0x0000000000000000000000008d76db34ccca356fa805f5a277efff53aac5af88",
            "0x000000000000000000000000bf5ad084547a5ba83822f20aeaace87d8cc2e7a1"
          ],
          "data": "0x0000000000000000000000000000000000000000000000000000000000000000",
          "blockHash": "0x7666e8a393684af46f297b24fbc7cb21146c469583d24ca9a83471ca080ae28a",
          "blockNumber": "0x45535b",
          "transactionHash": "0x5bc0f788f627a50e4ac205f9103ac9ffcf6af55ca7dc58f10e1559801d84e7f7",
          "transactionIndex": "0x6",
          "logIndex": "0x8",
          "removed": false
        },
        {
          "address": "0x4200000000000000000000000000000000000022",
          "topics": [
            "0xddf252ad1be2c89b69c2b068fc378daa952ba7f163c4a11628f55a4df523b3ef",
            "0x0000000000000000000000008d76db34ccca356fa805f5a277efff53aac5af88",
            "0x000000000000000000000000bf5ad084547a5ba83822f20aeaace87d8cc2e7a1"
          ],
          "data": "0x00000000000000000000000000000000000000000000001043561a8829300000",
          "blockHash": "0x7666e8a393684af46f297b24fbc7cb21146c469583d24ca9a83471ca080ae28a",
          "blockNumber": "0x45535b",
          "transactionHash": "0x5bc0f788f627a50e4ac205f9103ac9ffcf6af55ca7dc58f10e1559801d84e7f7",
          "transactionIndex": "0x6",
          "logIndex": "0x9",
          "removed": false
        },
        {
          "address": "0xbF5AD084547a5Ba83822f20AeaaCE87d8CC2E7a1",
          "topics": [
            "0x543ba50a5eec5e6178218e364b1d0f396157b3c8fa278522c2cb7fd99407d474"
          ],
          "data": "0x0000000000000000000000008d76db34ccca356fa805f5a277efff53aac5af8800000000000000000000000000000000000000000000001043561a8829300000",
          "blockHash": "0x7666e8a393684af46f297b24fbc7cb21146c469583d24ca9a83471ca080ae28a",
          "blockNumber": "0x45535b",
          "transactionHash": "0x5bc0f788f627a50e4ac205f9103ac9ffcf6af55ca7dc58f10e1559801d84e7f7",
          "transactionIndex": "0x6",
          "logIndex": "0xa",
          "removed": false
        }
      ],
      "status": "0x1",
      "logsBloom": "0x00000000000000000000000000800000000000000000020000000000000000000000010000000800000000000000000000000000000000000000000004280000000000000000000040000008000000000000000000000000000000000000000000000000000000000000000000020000000000000000000000000010800000000000000000000000000000000000000000000000000000000000000000000000020000000000000000040000000000000000000000000000001000000000000000000002000040000000000000000000000000000000000000000000000000000010800000000000000000000000020000000000000000000000000000400000",
      "type": "0x0",
      "effectiveGasPrice": "0xf4340"
    }
  ],
  "libraries": [],
  "pending": [],
  "returns": {},
  "timestamp": 1713773339,
  "chain": 168587773,
  "multi": false,
  "commit": "4f905cc"
}