{
  "transactions": [
    {
      "hash": "0xe831d6ff5107b79c3e6631463dfa1bb4ddb0937cdef42a20bb664d4ba7635827",
      "transactionType": "CALL",
      "contractName": null,
      "contractAddress": "0xb0F5c667e9aB3144cF6b2E9B03805a87955bdC07",
      "function": "approve(address,uint256)",
      "arguments": [
        "0xe758D37ee043e250c56127bDe6312e8F31A960cC",
        "300000000000000000000"
      ],
      "transaction": {
        "type": "0x00",
        "from": "0x8d76db34ccca356fa805f5a277efff53aac5af88",
        "to": "0xb0f5c667e9ab3144cf6b2e9b03805a87955bdc07",
        "gas": "0x9d65",
        "value": "0x0",
        "data": "0x095ea7b3000000000000000000000000e758d37ee043e250c56127bde6312e8f31a960cc00000000000000000000000000000000000000000000001043561a8829300000",
        "nonce": "0x61"
      },
      "additionalContracts": [],
      "isFixedGasLimit": false
    },
    {
      "hash": "0xe4c4336174a2ee809aae9d41cdb79fa966b249741bf14c04f9789bc01b3f7bf7",
      "transactionType": "CALL",
      "contractName": null,
      "contractAddress": "0xe758D37ee043e250c56127bDe6312e8F31A960cC",
      "function": "depositFunds(uint256)",
      "arguments": [
        "300000000000000000000"
      ],
      "transaction": {
        "type": "0x00",
        "from": "0x8d76db34ccca356fa805f5a277efff53aac5af88",
        "to": "0xe758d37ee043e250c56127bde6312e8f31a960cc",
        "gas": "0x1aec3",
        "value": "0x0",
        "data": "0x3b76594d00000000000000000000000000000000000000000000001043561a8829300000",
        "nonce": "0x62"
      },
      "additionalContracts": [],
      "isFixedGasLimit": false
    }
  ],
  "receipts": [],
  "libraries": [],
  "pending": [
    "0xe831d6ff5107b79c3e6631463dfa1bb4ddb0937cdef42a20bb664d4ba7635827",
    "0xe4c4336174a2ee809aae9d41cdb79fa966b249741bf14c04f9789bc01b3f7bf7"
  ],
  "returns": {},
  "timestamp": 1713795210,
  "chain": 51,
  "multi": false,
  "commit": "4f905cc"
}