{
  "transactions": [
    {
      "hash": "0xe831d6ff5107b79c3e6631463dfa1bb4ddb0937cdef42a20bb664d4ba7635827",
      "transactionType": "CALL",
      "contractName": null,
      "contractAddress": "0xb0F5c667e9aB3144cF6b2E9B03805a87955bdC07",
      "function": "approve(address,uint256)",
      "arguments": [
        "0xe758D37ee043e250c56127bDe6312e8F31A960cC",
        "300000000000000000000"
      ],
      "transaction": {
        "type": "0x00",
        "from": "0x8d76db34ccca356fa805f5a277efff53aac5af88",
        "to": "0xb0f5c667e9ab3144cf6b2e9b03805a87955bdc07",
        "gas": "0x9d65",
        "value": "0x0",
        "data": "0x095ea7b3000000000000000000000000e758d37ee043e250c56127bde6312e8f31a960cc00000000000000000000000000000000000000000000001043561a8829300000",
        "nonce": "0x61"
      },
      "additionalContracts": [],
      "isFixedGasLimit": false
    },
    {
      "hash": "0xe4c4336174a2ee809aae9d41cdb79fa966b249741bf14c04f9789bc01b3f7bf7",
      "transactionType": "CALL",
      "contractName": null,
      "contractAddress": "0xe758D37ee043e250c56127bDe6312e8F31A960cC",
      "function": "depositFunds(uint256)",
      "arguments": [
        "300000000000000000000"
      ],
      "transaction": {
        "type": "0x00",
        "from": "0x8d76db34ccca356fa805f5a277efff53aac5af88",
        "to": "0xe758d37ee043e250c56127bde6312e8f31a960cc",
        "gas": "0x1aec3",
        "value": "0x0",
        "data": "0x3b76594d00000000000000000000000000000000000000000000001043561a8829300000",
        "nonce": "0x62"
      },
      "additionalContracts": [],
      "isFixedGasLimit": false
    }
  ],
  "receipts": [
    {
      "transactionHash": "0xe831d6ff5107b79c3e6631463dfa1bb4ddb0937cdef42a20bb664d4ba7635827",
      "transactionIndex": "0x0",
      "blockHash": "0xb4f91d1c6024ccf27ac8444967616960e97e4644ed7fc97d468c498d28311c88",
      "blockNumber": "0x3b4f987",
      "from": "0x8d76dB34CcCA356fA805f5A277EFFf53aaC5af88",
      "to": "0xb0F5c667e9aB3144cF6b2E9B03805a87955bdC07",
      "cumulativeGasUsed": "0x7840",
      "gasUsed": "0x7840",
      "contractAddress": null,
      "logs": [
        {
          "address": "0xb0F5c667e9aB3144cF6b2E9B03805a87955bdC07",
          "topics": [
            "0x8c5be1e5ebec7d5bd14f71427d1e84f3dd0314c0f7b2291e5b200ac8c7c3b925",
            "0x0000000000000000000000008d76db34ccca356fa805f5a277efff53aac5af88",
            "0x000000000000000000000000e758d37ee043e250c56127bde6312e8f31a960cc"
          ],
          "data": "0x00000000000000000000000000000000000000000000001043561a8829300000",
          "blockHash": "0xb4f91d1c6024ccf27ac8444967616960e97e4644ed7fc97d468c498d28311c88",
          "blockNumber": "0x3b4f987",
          "transactionHash": "0xe831d6ff5107b79c3e6631463dfa1bb4ddb0937cdef42a20bb664d4ba7635827",
          "transactionIndex": "0x0",
          "logIndex": "0x0",
          "removed": false
        }
      ],
      "status": "0x1",
      "logsBloom": "0x00000000000000000000000000000000000000000000000000000000000000000000000000000000000000000000004000000000000000000000000004200000000000000000000000002000000000000000000000000000000000000000000000400000000000000000000000020000000000000000000000000000000000000000000000000000000000000000000000000000000000000000000000000000020000000000000000000000000000000000000000000000000000000000000000000000000000000000800000000000000000040000000000000000000000000010000000000000000000000000000001000000000000000000000000400000"
    },
    {
      "transactionHash": "0xe4c4336174a2ee809aae9d41cdb79fa966b249741bf14c04f9789bc01b3f7bf7",
      "transactionIndex": "0x1",
      "blockHash": "0xb4f91d1c6024ccf27ac8444967616960e97e4644ed7fc97d468c498d28311c88",
      "blockNumber": "0x3b4f987",
      "from": "0x8d76dB34CcCA356fA805f5A277EFFf53aaC5af88",
      "to": "0xe758D37ee043e250c56127bDe6312e8F31A960cC",
      "cumulativeGasUsed": "0x185ae",
      "gasUsed": "0x10d6e",
      "contractAddress": null,
      "logs": [
        {
          "address": "0xb0F5c667e9aB3144cF6b2E9B03805a87955bdC07",
          "topics": [
            "0x8c5be1e5ebec7d5bd14f71427d1e84f3dd0314c0f7b2291e5b200ac8c7c3b925",
            "0x0000000000000000000000008d76db34ccca356fa805f5a277efff53aac5af88",
            "0x000000000000000000000000e758d37ee043e250c56127bde6312e8f31a960cc"
          ],
          "data": "0x0000000000000000000000000000000000000000000000000000000000000000",
          "blockHash": "0xb4f91d1c6024ccf27ac8444967616960e97e4644ed7fc97d468c498d28311c88",
          "blockNumber": "0x3b4f987",
          "transactionHash": "0xe4c4336174a2ee809aae9d41cdb79fa966b249741bf14c04f9789bc01b3f7bf7",
          "transactionIndex": "0x1",
          "logIndex": "0x1",
          "removed": false
        },
        {
          "address": "0xb0F5c667e9aB3144cF6b2E9B03805a87955bdC07",
          "topics": [
            "0xddf252ad1be2c89b69c2b068fc378daa952ba7f163c4a11628f55a4df523b3ef",
            "0x0000000000000000000000008d76db34ccca356fa805f5a277efff53aac5af88",
            "0x000000000000000000000000e758d37ee043e250c56127bde6312e8f31a960cc"
          ],
          "data": "0x00000000000000000000000000000000000000000000001043561a8829300000",
          "blockHash": "0xb4f91d1c6024ccf27ac8444967616960e97e4644ed7fc97d468c498d28311c88",
          "blockNumber": "0x3b4f987",
          "transactionHash": "0xe4c4336174a2ee809aae9d41cdb79fa966b249741bf14c04f9789bc01b3f7bf7",
          "transactionIndex": "0x1",
          "logIndex": "0x2",
          "removed": false
        },
        {
          "address": "0xe758D37ee043e250c56127bDe6312e8F31A960cC",
          "topics": [
            "0x543ba50a5eec5e6178218e364b1d0f396157b3c8fa278522c2cb7fd99407d474"
          ],
          "data": "0x0000000000000000000000008d76db34ccca356fa805f5a277efff53aac5af8800000000000000000000000000000000000000000000001043561a8829300000",
          "blockHash": "0xb4f91d1c6024ccf27ac8444967616960e97e4644ed7fc97d468c498d28311c88",
          "blockNumber": "0x3b4f987",
          "transactionHash": "0xe4c4336174a2ee809aae9d41cdb79fa966b249741bf14c04f9789bc01b3f7bf7",
          "transactionIndex": "0x1",
          "logIndex": "0x3",
          "removed": false
        }
      ],
      "status": "0x1",
      "logsBloom": "0x00000000000000000000000000000000000000000000020000000000000000000000000000080800000000000000004000000000000000000000000004200000000000000000000000002008000000000000000000000000000000000000000000400000000800000000000000020000000000000000000000000010000000000000000000000000000000000000000000000000000000000000000000000000020000000200000000000000000000000000000000000000001000000000000000000002000000000000800000000000000000040000000000000000000000000010000000000000000000000000000001000000000000000000000000400000"
    }
  ],
  "libraries": [],
  "pending": [],
  "returns": {},
  "timestamp": 1713795216,
  "chain": 51,
  "multi": false,
  "commit": "4f905cc"
}