{
  "transactions": [
    {
      "hash": "0xdc79a6b8d4d9e6cbc591d08419cc30374edfb8d19a1a45246150dd657f2e8184",
      "transactionType": "CALL",
      "contractName": null,
      "contractAddress": "0xb0F5c667e9aB3144cF6b2E9B03805a87955bdC07",
      "function": "approve(address,uint256)",
      "arguments": [
        "0xe758D37ee043e250c56127bDe6312e8F31A960cC",
        "1000000000000000000000000"
      ],
      "transaction": {
        "type": "0x00",
        "from": "0x8d76db34ccca356fa805f5a277efff53aac5af88",
        "to": "0xb0f5c667e9ab3144cf6b2e9b03805a87955bdc07",
        "gas": "0x9d65",
        "value": "0x0",
        "data": "0x095ea7b3000000000000000000000000e758d37ee043e250c56127bde6312e8f31a960cc00000000000000000000000000000000000000000000d3c21bcecceda1000000",
        "nonce": "0x5c"
      },
      "additionalContracts": [],
      "isFixedGasLimit": false
    },
    {
      "hash": "0xa06bf244e8908d1d081e5ef345b499bc6683d22a3f56427d239c9c0764080488",
      "transactionType": "CALL",
      "contractName": null,
      "contractAddress": "0xe758D37ee043e250c56127bDe6312e8F31A960cC",
      "function": "depositFunds(uint256)",
      "arguments": [
        "1000000000000000000000000"
      ],
      "transaction": {
        "type": "0x00",
        "from": "0x8d76db34ccca356fa805f5a277efff53aac5af88",
        "to": "0xe758d37ee043e250c56127bde6312e8f31a960cc",
        "gas": "0x2d19d",
        "value": "0x0",
        "data": "0x3b76594d00000000000000000000000000000000000000000000d3c21bcecceda1000000",
        "nonce": "0x5d"
      },
      "additionalContracts": [],
      "isFixedGasLimit": false
    }
  ],
  "receipts": [],
  "libraries": [],
  "pending": [
    "0xdc79a6b8d4d9e6cbc591d08419cc30374edfb8d19a1a45246150dd657f2e8184",
    "0xa06bf244e8908d1d081e5ef345b499bc6683d22a3f56427d239c9c0764080488"
  ],
  "returns": {},
  "timestamp": 1713772647,
  "chain": 51,
  "multi": false,
  "commit": "4f905cc"
}