{
  "transactions": [
    {
      "hash": "0xdc79a6b8d4d9e6cbc591d08419cc30374edfb8d19a1a45246150dd657f2e8184",
      "transactionType": "CALL",
      "contractName": null,
      "contractAddress": "0xb0F5c667e9aB3144cF6b2E9B03805a87955bdC07",
      "function": "approve(address,uint256)",
      "arguments": [
        "0xe758D37ee043e250c56127bDe6312e8F31A960cC",
        "1000000000000000000000000"
      ],
      "transaction": {
        "type": "0x00",
        "from": "0x8d76db34ccca356fa805f5a277efff53aac5af88",
        "to": "0xb0f5c667e9ab3144cf6b2e9b03805a87955bdc07",
        "gas": "0x9d65",
        "value": "0x0",
        "data": "0x095ea7b3000000000000000000000000e758d37ee043e250c56127bde6312e8f31a960cc00000000000000000000000000000000000000000000d3c21bcecceda1000000",
        "nonce": "0x5c"
      },
      "additionalContracts": [],
      "isFixedGasLimit": false
    },
    {
      "hash": "0xa06bf244e8908d1d081e5ef345b499bc6683d22a3f56427d239c9c0764080488",
      "transactionType": "CALL",
      "contractName": null,
      "contractAddress": "0xe758D37ee043e250c56127bDe6312e8F31A960cC",
      "function": "depositFunds(uint256)",
      "arguments": [
        "1000000000000000000000000"
      ],
      "transaction": {
        "type": "0x00",
        "from": "0x8d76db34ccca356fa805f5a277efff53aac5af88",
        "to": "0xe758d37ee043e250c56127bde6312e8f31a960cc",
        "gas": "0x2d19d",
        "value": "0x0",
        "data": "0x3b76594d00000000000000000000000000000000000000000000d3c21bcecceda1000000",
        "nonce": "0x5d"
      },
      "additionalContracts": [],
      "isFixedGasLimit": false
    }
  ],
  "receipts": [
    {
      "transactionHash": "0xdc79a6b8d4d9e6cbc591d08419cc30374edfb8d19a1a45246150dd657f2e8184",
      "transactionIndex": "0x0",
      "blockHash": "0x4c625fdc964a2dbb73441d9f9650d591f852e78362ffe5260be3a917dd557864",
      "blockNumber": "0x3b4d275",
      "from": "0x8d76dB34CcCA356fA805f5A277EFFf53aaC5af88",
      "to": "0xb0F5c667e9aB3144cF6b2E9B03805a87955bdC07",
      "cumulativeGasUsed": "0x7840",
      "gasUsed": "0x7840",
      "contractAddress": null,
      "logs": [
        {
          "address": "0xb0F5c667e9aB3144cF6b2E9B03805a87955bdC07",
          "topics": [
            "0x8c5be1e5ebec7d5bd14f71427d1e84f3dd0314c0f7b2291e5b200ac8c7c3b925",
            "0x0000000000000000000000008d76db34ccca356fa805f5a277efff53aac5af88",
            "0x000000000000000000000000e758d37ee043e250c56127bde6312e8f31a960cc"
          ],
          "data": "0x00000000000000000000000000000000000000000000d3c21bcecceda1000000",
          "blockHash": "0x4c625fdc964a2dbb73441d9f9650d591f852e78362ffe5260be3a917dd557864",
          "blockNumber": "0x3b4d275",
          "transactionHash": "0xdc79a6b8d4d9e6cbc591d08419cc30374edfb8d19a1a45246150dd657f2e8184",
          "transactionIndex": "0x0",
          "logIndex": "0x0",
          "removed": false
        }
      ],
      "status": "0x1",
      "logsBloom": "0x00000000000000000000000000000000000000000000000000000000000000000000000000000000000000000000004000000000000000000000000004200000000000000000000000002000000000000000000000000000000000000000000000400000000000000000000000020000000000000000000000000000000000000000000000000000000000000000000000000000000000000000000000000000020000000000000000000000000000000000000000000000000000000000000000000000000000000000800000000000000000040000000000000000000000000010000000000000000000000000000001000000000000000000000000400000"
    },
    {
      "transactionHash": "0xa06bf244e8908d1d081e5ef345b499bc6683d22a3f56427d239c9c0764080488",
      "transactionIndex": "0x1",
      "blockHash": "0x4c625fdc964a2dbb73441d9f9650d591f852e78362ffe5260be3a917dd557864",
      "blockNumber": "0x3b4d275",
      "from": "0x8d76dB34CcCA356fA805f5A277EFFf53aaC5af88",
      "to": "0xe758D37ee043e250c56127bDe6312e8F31A960cC",
      "cumulativeGasUsed": "0x22e7a",
      "gasUsed": "0x1b63a",
      "contractAddress": null,
      "logs": [
        {
          "address": "0xb0F5c667e9aB3144cF6b2E9B03805a87955bdC07",
          "topics": [
            "0x8c5be1e5ebec7d5bd14f71427d1e84f3dd0314c0f7b2291e5b200ac8c7c3b925",
            "0x0000000000000000000000008d76db34ccca356fa805f5a277efff53aac5af88",
            "0x000000000000000000000000e758d37ee043e250c56127bde6312e8f31a960cc"
          ],
          "data": "0x0000000000000000000000000000000000000000000000000000000000000000",
          "blockHash": "0x4c625fdc964a2dbb73441d9f9650d591f852e78362ffe5260be3a917dd557864",
          "blockNumber": "0x3b4d275",
          "transactionHash": "0xa06bf244e8908d1d081e5ef345b499bc6683d22a3f56427d239c9c0764080488",
          "transactionIndex": "0x1",
          "logIndex": "0x1",
          "removed": false
        },
        {
          "address": "0xb0F5c667e9aB3144cF6b2E9B03805a87955bdC07",
          "topics": [
            "0xddf252ad1be2c89b69c2b068fc378daa952ba7f163c4a11628f55a4df523b3ef",
            "0x0000000000000000000000008d76db34ccca356fa805f5a277efff53aac5af88",
            "0x000000000000000000000000e758d37ee043e250c56127bde6312e8f31a960cc"
          ],
          "data": "0x00000000000000000000000000000000000000000000d3c21bcecceda1000000",
          "blockHash": "0x4c625fdc964a2dbb73441d9f9650d591f852e78362ffe5260be3a917dd557864",
          "blockNumber": "0x3b4d275",
          "transactionHash": "0xa06bf244e8908d1d081e5ef345b499bc6683d22a3f56427d239c9c0764080488",
          "transactionIndex": "0x1",
          "logIndex": "0x2",
          "removed": false
        },
        {
          "address": "0xe758D37ee043e250c56127bDe6312e8F31A960cC",
          "topics": [
            "0x543ba50a5eec5e6178218e364b1d0f396157b3c8fa278522c2cb7fd99407d474"
          ],
          "data": "0x0000000000000000000000008d76db34ccca356fa805f5a277efff53aac5af8800000000000000000000000000000000000000000000d3c21bcecceda1000000",
          "blockHash": "0x4c625fdc964a2dbb73441d9f9650d591f852e78362ffe5260be3a917dd557864",
          "blockNumber": "0x3b4d275",
          "transactionHash": "0xa06bf244e8908d1d081e5ef345b499bc6683d22a3f56427d239c9c0764080488",
          "transactionIndex": "0x1",
          "logIndex": "0x3",
          "removed": false
        }
      ],
      "status": "0x1",
      "logsBloom": "0x00000000000000000000000000000000000000000000020000000000000000000000000000080800000000000000004000000000000000000000000004200000000000000000000000002008000000000000000000000000000000000000000000400000000800000000000000020000000000000000000000000010000000000000000000000000000000000000000000000000000000000000000000000000020000000200000000000000000000000000000000000000001000000000000000000002000000000000800000000000000000040000000000000000000000000010000000000000000000000000000001000000000000000000000000400000"
    }
  ],
  "libraries": [],
  "pending": [],
  "returns": {},
  "timestamp": 1713772653,
  "chain": 51,
  "multi": false,
  "commit": "4f905cc"
}