{
  "transactions": [
    {
      "hash": "0xadf0195db1415f801b45a1f67bc2e33caa6e38e55f066501f3a92c209d821777",
      "transactionType": "CALL",
      "contractName": null,
      "contractAddress": "0xfBA6CED88170e86DA9F49902055cF80A62F1AC4a",
      "function": "approve(address,uint256)",
      "arguments": [
        "0xB58e49823f1E539b84Eda034f506E5e30CdDff21",
        "1000000000000000000000000"
      ],
      "transaction": {
        "type": "0x00",
        "from": "0x8d76db34ccca356fa805f5a277efff53aac5af88",
        "to": "0xfba6ced88170e86da9f49902055cf80a62f1ac4a",
        "gas": "0xa749",
        "value": "0x0",
        "data": "0x095ea7b3000000000000000000000000b58e49823f1e539b84eda034f506e5e30cddff2100000000000000000000000000000000000000000000d3c21bcecceda1000000",
        "nonce": "0x58"
      },
      "additionalContracts": [],
      "isFixedGasLimit": false
    },
    {
      "hash": "0xf17c581d0f6802be4e1a72e9ea9f0d7834395cac602c8d8aa86839381567198e",
      "transactionType": "CALL",
      "contractName": null,
      "contractAddress": "0xB58e49823f1E539b84Eda034f506E5e30CdDff21",
      "function": "depositFunds(uint256)",
      "arguments": [
        "1000000000000000000000000"
      ],
      "transaction": {
        "type": "0x00",
        "from": "0x8d76db34ccca356fa805f5a277efff53aac5af88",
        "to": "0xb58e49823f1e539b84eda034f506e5e30cddff21",
        "gas": "0x2a091",
        "value": "0x0",
        "data": "0x3b76594d00000000000000000000000000000000000000000000d3c21bcecceda1000000",
        "nonce": "0x59"
      },
      "additionalContracts": [],
      "isFixedGasLimit": false
    }
  ],
  "receipts": [],
  "libraries": [],
  "pending": [
    "0xadf0195db1415f801b45a1f67bc2e33caa6e38e55f066501f3a92c209d821777",
    "0xf17c581d0f6802be4e1a72e9ea9f0d7834395cac602c8d8aa86839381567198e"
  ],
  "returns": {},
  "timestamp": 1713772576,
  "chain": 51,
  "multi": false,
  "commit": "4f905cc"
}