{
  "transactions": [
    {
      "hash": "0x5b677dfeb54290d8dbe2d966cc3fcd811bf12f0dfd32c3c17650677e11a81106",
      "transactionType": "CALL",
      "contractName": null,
      "contractAddress": "0xfBA6CED88170e86DA9F49902055cF80A62F1AC4a",
      "function": "approve(address,uint256)",
      "arguments": [
        "0xf48e37FC7a7767d04e39dE8effDD5b47A790e20D",
        "1000000000000000"
      ],
      "transaction": {
        "type": "0x00",
        "from": "0x8d76db34ccca356fa805f5a277efff53aac5af88",
        "to": "0xfba6ced88170e86da9f49902055cf80a62f1ac4a",
        "gas": "0x108e9",
        "value": "0x0",
        "data": "0x095ea7b3000000000000000000000000f48e37fc7a7767d04e39de8effdd5b47a790e20d00000000000000000000000000000000000000000000000000038d7ea4c68000",
        "nonce": "0x39"
      },
      "additionalContracts": [],
      "isFixedGasLimit": false
    },
    {
      "hash": "0xaf309d1cd6e936caa14af8742e248152624236ca77fa234a1ba130e9e667db1c",
      "transactionType": "CALL",
      "contractName": null,
      "contractAddress": "0xf48e37FC7a7767d04e39dE8effDD5b47A790e20D",
      "function": "depositFunds(uint256)",
      "arguments": [
        "100"
      ],
      "transaction": {
        "type": "0x00",
        "from": "0x8d76db34ccca356fa805f5a277efff53aac5af88",
        "to": "0xf48e37fc7a7767d04e39de8effdd5b47a790e20d",
        "gas": "0x3635d",
        "value": "0x0",
        "data": "0x3b76594d0000000000000000000000000000000000000000000000000000000000000064",
        "nonce": "0x3a"
      },
      "additionalContracts": [],
      "isFixedGasLimit": false
    }
  ],
  "receipts": [
    {
      "transactionHash": "0x5b677dfeb54290d8dbe2d966cc3fcd811bf12f0dfd32c3c17650677e11a81106",
      "transactionIndex": "0x4",
      "blockHash": "0xf41146425d3db499595566a3460818923ae4a5016f2932f63c6b6bc133fce50d",
      "blockNumber": "0x39a6378",
      "from": "0x8d76dB34CcCA356fA805f5A277EFFf53aaC5af88",
      "to": "0xfBA6CED88170e86DA9F49902055cF80A62F1AC4a",
      "cumulativeGasUsed": "0xc0918d",
      "gasUsed": "0xb307",
      "contractAddress": null,
      "logs": [
        {
          "address": "0xfBA6CED88170e86DA9F49902055cF80A62F1AC4a",
          "topics": [
            "0x8c5be1e5ebec7d5bd14f71427d1e84f3dd0314c0f7b2291e5b200ac8c7c3b925",
            "0x0000000000000000000000008d76db34ccca356fa805f5a277efff53aac5af88",
            "0x000000000000000000000000f48e37fc7a7767d04e39de8effdd5b47a790e20d"
          ],
          "data": "0x00000000000000000000000000000000000000000000000000038d7ea4c68000",
          "blockHash": "0xf41146425d3db499595566a3460818923ae4a5016f2932f63c6b6bc133fce50d",
          "blockNumber": "0x39a6378",
          "transactionHash": "0x5b677dfeb54290d8dbe2d966cc3fcd811bf12f0dfd32c3c17650677e11a81106",
          "transactionIndex": "0x4",
          "logIndex": "0x47",
          "removed": false
        }
      ],
      "status": "0x1",
      "logsBloom": "0x00000000000000000000000000000000000000000000000000000000000000000000000000000000000000000000000000000000000000000000000004200000000000000000000000000000000000000000000000800000000000000000000000000000000000000000000000020000000000004000000000000000000000000000000000000000000000400000000000000000000000000000000000000000020000000000000000000000000000000000000000000000000000000000000000000000000002000000000000000000000000000000000000000000000000000030000040000000000000000000000000000000000000000000000000400000"
    },
    {
      "transactionHash": "0xaf309d1cd6e936caa14af8742e248152624236ca77fa234a1ba130e9e667db1c",
      "transactionIndex": "0x5",
      "blockHash": "0xf41146425d3db499595566a3460818923ae4a5016f2932f63c6b6bc133fce50d",
      "blockNumber": "0x39a6378",
      "from": "0x8d76dB34CcCA356fA805f5A277EFFf53aaC5af88",
      "to": "0xf48e37FC7a7767d04e39dE8effDD5b47A790e20D",
      "cumulativeGasUsed": "0xc2d80a",
      "gasUsed": "0x2467d",
      "contractAddress": null,
      "logs": [
        {
          "address": "0xfBA6CED88170e86DA9F49902055cF80A62F1AC4a",
          "topics": [
            "0xddf252ad1be2c89b69c2b068fc378daa952ba7f163c4a11628f55a4df523b3ef",
            "0x0000000000000000000000008d76db34ccca356fa805f5a277efff53aac5af88",
            "0x000000000000000000000000f48e37fc7a7767d04e39de8effdd5b47a790e20d"
          ],
          "data": "0x0000000000000000000000000000000000000000000000000000000000000064",
          "blockHash": "0xf41146425d3db499595566a3460818923ae4a5016f2932f63c6b6bc133fce50d",
          "blockNumber": "0x39a6378",
          "transactionHash": "0xaf309d1cd6e936caa14af8742e248152624236ca77fa234a1ba130e9e667db1c",
          "transactionIndex": "0x5",
          "logIndex": "0x48",
          "removed": false
        },
        {
          "address": "0xf48e37FC7a7767d04e39dE8effDD5b47A790e20D",
          "topics": [
            "0x543ba50a5eec5e6178218e364b1d0f396157b3c8fa278522c2cb7fd99407d474"
          ],
          "data": "0x0000000000000000000000008d76db34ccca356fa805f5a277efff53aac5af880000000000000000000000000000000000000000000000000000000000000064",
          "blockHash": "0xf41146425d3db499595566a3460818923ae4a5016f2932f63c6b6bc133fce50d",
          "blockNumber": "0x39a6378",
          "transactionHash": "0xaf309d1cd6e936caa14af8742e248152624236ca77fa234a1ba130e9e667db1c",
          "transactionIndex": "0x5",
          "logIndex": "0x49",
          "removed": false
        }
      ],
      "status": "0x1",
      "logsBloom": "0x00000000000000000000000000000000000000000000020000000000000000100000000000000800000000000000000000000000000000000000000004000000000000000000000000000008000000000000000000800000000000000000000000000000000000000000000000020000000000004200040000000010000000000000000000000000000000400000000000000000000000000000000000000000000000000000000000000000000000000000000000000000001000000000000000000002000002000000000000000000000000000000000000000000000000000020000040000000000000000000000000000000000000000000000000400000"
    }
  ],
  "libraries": [],
  "pending": [],
  "returns": {},
  "timestamp": 1709556508,
  "chain": 51,
  "multi": false,
  "commit": "8b9e0be"
}