{
  "transactions": [
    {
      "hash": "0xf94bfaaa4ba754e3f6a4d8f369c5f009198ba13a03ee4c52a3898f0a5bd7b7d8",
      "transactionType": "CALL",
      "contractName": null,
      "contractAddress": "0xfBA6CED88170e86DA9F49902055cF80A62F1AC4a",
      "function": "approve(address,uint256)",
      "arguments": [
        "0xB58e49823f1E539b84Eda034f506E5e30CdDff21",
        "300000000000000000000"
      ],
      "transaction": {
        "type": "0x00",
        "from": "0x8d76db34ccca356fa805f5a277efff53aac5af88",
        "to": "0xfba6ced88170e86da9f49902055cf80a62f1ac4a",
        "gas": "0xa749",
        "value": "0x0",
        "data": "0x095ea7b3000000000000000000000000b58e49823f1e539b84eda034f506e5e30cddff2100000000000000000000000000000000000000000000001043561a8829300000",
        "nonce": "0x65"
      },
      "additionalContracts": [],
      "isFixedGasLimit": false
    },
    {
      "hash": "0xd5259a837566918c3e69bdd4d3312e6539a0ed67f72d26adf0b382bb3c259bce",
      "transactionType": "CALL",
      "contractName": null,
      "contractAddress": "0xB58e49823f1E539b84Eda034f506E5e30CdDff21",
      "function": "depositFunds(uint256)",
      "arguments": [
        "300000000000000000000"
      ],
      "transaction": {
        "type": "0x00",
        "from": "0x8d76db34ccca356fa805f5a277efff53aac5af88",
        "to": "0xb58e49823f1e539b84eda034f506e5e30cddff21",
        "gas": "0x18c3b",
        "value": "0x0",
        "data": "0x3b76594d00000000000000000000000000000000000000000000001043561a8829300000",
        "nonce": "0x66"
      },
      "additionalContracts": [],
      "isFixedGasLimit": false
    }
  ],
  "receipts": [
    {
      "transactionHash": "0xf94bfaaa4ba754e3f6a4d8f369c5f009198ba13a03ee4c52a3898f0a5bd7b7d8",
      "transactionIndex": "0x0",
      "blockHash": "0xcbd0e2047b906b2f28ec3e29988df618ac39e9ad993ef7e02bf676f7fa57d647",
      "blockNumber": "0x3b4f9cc",
      "from": "0x8d76dB34CcCA356fA805f5A277EFFf53aaC5af88",
      "to": "0xfBA6CED88170e86DA9F49902055cF80A62F1AC4a",
      "cumulativeGasUsed": "0x78af",
      "gasUsed": "0x78af",
      "contractAddress": null,
      "logs": [
        {
          "address": "0xfBA6CED88170e86DA9F49902055cF80A62F1AC4a",
          "topics": [
            "0x8c5be1e5ebec7d5bd14f71427d1e84f3dd0314c0f7b2291e5b200ac8c7c3b925",
            "0x0000000000000000000000008d76db34ccca356fa805f5a277efff53aac5af88",
            "0x000000000000000000000000b58e49823f1e539b84eda034f506e5e30cddff21"
          ],
          "data": "0x00000000000000000000000000000000000000000000001043561a8829300000",
          "blockHash": "0xcbd0e2047b906b2f28ec3e29988df618ac39e9ad993ef7e02bf676f7fa57d647",
          "blockNumber": "0x3b4f9cc",
          "transactionHash": "0xf94bfaaa4ba754e3f6a4d8f369c5f009198ba13a03ee4c52a3898f0a5bd7b7d8",
          "transactionIndex": "0x0",
          "logIndex": "0x0",
          "removed": false
        }
      ],
      "status": "0x1",
      "logsBloom": "0x00000000000000000000000000000000000000000000000000000000000000000000000000000000000000000000000000000000000000000004000004208000000000000000000000000000000000000000000000800000000000000000000000000000000100000000000000020000000000004000000000000000000000000000000000000000000000000000000000000000000000000000000000000000020000000000000000000000000000000000000000000000000000000000000000000000000002000000000000000000000000000000000000000000000000000010000000000000000000000000000000000000000000000000000000400000"
    },
    {
      "transactionHash": "0xd5259a837566918c3e69bdd4d3312e6539a0ed67f72d26adf0b382bb3c259bce",
      "transactionIndex": "0x1",
      "blockHash": "0xcbd0e2047b906b2f28ec3e29988df618ac39e9ad993ef7e02bf676f7fa57d647",
      "blockNumber": "0x3b4f9cc",
      "from": "0x8d76dB34CcCA356fA805f5A277EFFf53aaC5af88",
      "to": "0xB58e49823f1E539b84Eda034f506E5e30CdDff21",
      "cumulativeGasUsed": "0x178f9",
      "gasUsed": "0x1004a",
      "contractAddress": null,
      "logs": [
        {
          "address": "0xfBA6CED88170e86DA9F49902055cF80A62F1AC4a",
          "topics": [
            "0xddf252ad1be2c89b69c2b068fc378daa952ba7f163c4a11628f55a4df523b3ef",
            "0x0000000000000000000000008d76db34ccca356fa805f5a277efff53aac5af88",
            "0x000000000000000000000000b58e49823f1e539b84eda034f506e5e30cddff21"
          ],
          "data": "0x00000000000000000000000000000000000000000000001043561a8829300000",
          "blockHash": "0xcbd0e2047b906b2f28ec3e29988df618ac39e9ad993ef7e02bf676f7fa57d647",
          "blockNumber": "0x3b4f9cc",
          "transactionHash": "0xd5259a837566918c3e69bdd4d3312e6539a0ed67f72d26adf0b382bb3c259bce",
          "transactionIndex": "0x1",
          "logIndex": "0x1",
          "removed": false
        },
        {
          "address": "0xB58e49823f1E539b84Eda034f506E5e30CdDff21",
          "topics": [
            "0x543ba50a5eec5e6178218e364b1d0f396157b3c8fa278522c2cb7fd99407d474"
          ],
          "data": "0x0000000000000000000000008d76db34ccca356fa805f5a277efff53aac5af8800000000000000000000000000000000000000000000001043561a8829300000",
          "blockHash": "0xcbd0e2047b906b2f28ec3e29988df618ac39e9ad993ef7e02bf676f7fa57d647",
          "blockNumber": "0x3b4f9cc",
          "transactionHash": "0xd5259a837566918c3e69bdd4d3312e6539a0ed67f72d26adf0b382bb3c259bce",
          "transactionIndex": "0x1",
          "logIndex": "0x2",
          "removed": false
        }
      ],
      "status": "0x1",
      "logsBloom": "0x00000000000000000020000000000000000000000000020000000000040000000000000000000800400000000000000000000000000000000004000004008000000000000000000000000008000000000000000000800000000000000000000000000000000100000000000000020000000000004000000000000010000000000000000000000000000000000000000000000000000000000000000000000000000000000000000000000000000000000000000000000000001000000000000000000002000002000000000000000000000000000000000000000000000000000000000000000000000000000000000000000000000000000000000000400000"
    }
  ],
  "libraries": [],
  "pending": [],
  "returns": {},
  "timestamp": 1713795375,
  "chain": 51,
  "multi": false,
  "commit": "4f905cc"
}