{
  "transactions": [
    {
      "hash": "0x1516b7b1b439f82c79c0f75fd3b23e379e6b78a933e8f0d738e51a17c22bc5ef",
      "transactionType": "CALL",
      "contractName": null,
      "contractAddress": "0x15a2Ef9E37aD9163391667455BA0e3da70a58601",
      "function": "withdrawalStageOne(uint256)",
      "arguments": [
        "100000000000000000000"
      ],
      "transaction": {
        "type": "0x00",
        "from": "0x8d76db34ccca356fa805f5a277efff53aac5af88",
        "to": "0x15a2ef9e37ad9163391667455ba0e3da70a58601",
        "gas": "0x31d79",
        "value": "0x0",
        "data": "0xbf05c5fa0000000000000000000000000000000000000000000000056bc75e2d63100000",
        "nonce": "0x21"
      },
      "additionalContracts": [],
      "isFixedGasLimit": false
    }
  ],
  "receipts": [
    {
      "transactionHash": "0x1516b7b1b439f82c79c0f75fd3b23e379e6b78a933e8f0d738e51a17c22bc5ef",
      "transactionIndex": "0x1",
      "blockHash": "0x9ab0860a9a3291bcec9c5415a2777e7fe8414df943999f905e100485b920c1c7",
      "blockNumber": "0x184e35a",
      "from": "0x8d76dB34CcCA356fA805f5A277EFFf53aaC5af88",
      "to": "0x15a2Ef9E37aD9163391667455BA0e3da70a58601",
      "cumulativeGasUsed": "0x23e77",
      "gasUsed": "0x23e77",
      "contractAddress": null,
      "logs": [
        {
          "address": "0x15a2Ef9E37aD9163391667455BA0e3da70a58601",
          "topics": [
            "0x94cc8e242e703f76694c39589c48f6b60888d81f294879776e21f915932208a1"
          ],
          "data": "0x0000000000000000000000008d76db34ccca356fa805f5a277efff53aac5af880000000000000000000000000000000000000000000000000000000065fc57860000000000000000000000000000000000000000000000000000000065fc58b1",
          "blockHash": "0x9ab0860a9a3291bcec9c5415a2777e7fe8414df943999f905e100485b920c1c7",
          "blockNumber": "0x184e35a",
          "transactionHash": "0x1516b7b1b439f82c79c0f75fd3b23e379e6b78a933e8f0d738e51a17c22bc5ef",
          "transactionIndex": "0x1",
          "logIndex": "0x0",
          "removed": false
        }
      ],
      "status": "0x1",
      "logsBloom": "0x00000000000000000000000000000000000000000000000000000000000000000000000000000000000000000000000000000000000000000000000000000000000000000000000000000000000000000000000000000000000000000000000000000000000000000040000000000000000800000000000000000000008000000000000000000000000000000000000000000000000000000000000000000000000000000000000000000100000000000000000000000000000000000000000000000000000000000000000000000000000000000000400000000000000000000001000000000000000000000000000000000000000000000000000000000000",
      "type": "0x0",
      "effectiveGasPrice": "0x5f5e100"
    }
  ],
  "libraries": [],
  "pending": [],
  "returns": {},
  "timestamp": 1711036293,
  "chain": 421614,
  "commit": "4e05d45"
}