{
  "transactions": [
    {
      "hash": "0x8c90010f3970bd2bb0a7b7cc5553a4d08e0917deee678cf54567be4a45854a53",
      "transactionType": "CALL",
      "contractName": null,
      "contractAddress": "0x242f2d72f6B9F534B6182d911e719b7be7a81861",
      "function": "debit(address,uint256,address)",
      "arguments": [
        "0xDef28f7d7F3700e30F403B6350Fb54a358469874",
        "10000000000000000000000",
        "0x312BA46064e1fe5904362BfB0C52c38F20d3Ef44"
      ],
      "transaction": {
        "type": "0x00",
        "from": "0x8d76db34ccca356fa805f5a277efff53aac5af88",
        "to": "0x242f2d72f6b9f534b6182d911e719b7be7a81861",
        "gas": "0x66799",
        "value": "0x0",
        "data": "0x0a9c1890000000000000000000000000def28f7d7f3700e30f403b6350fb54a35846987400000000000000000000000000000000000000000000021e19e0c9bab2400000000000000000000000000000312ba46064e1fe5904362bfb0c52c38f20d3ef44",
        "nonce": "0x32"
      },
      "additionalContracts": [],
      "isFixedGasLimit": false
    }
  ],
  "receipts": [
    {
      "transactionHash": "0x8c90010f3970bd2bb0a7b7cc5553a4d08e0917deee678cf54567be4a45854a53",
      "transactionIndex": "0x2",
      "blockHash": "0x1db7157a87112ae1aa1850a3b1ac3b256e0bc13b1c8a19186b5b286c7e278ae2",
      "blockNumber": "0x188a541",
      "from": "0x8d76dB34CcCA356fA805f5A277EFFf53aaC5af88",
      "to": "0x242f2d72f6B9F534B6182d911e719b7be7a81861",
      "cumulativeGasUsed": "0x8515a",
      "gasUsed": "0x465e0",
      "contractAddress": null,
      "logs": [
        {
          "address": "0x242f2d72f6B9F534B6182d911e719b7be7a81861",
          "topics": [
            "0xcf44ca17312ffea42419e2871e6437dc02616695d135552f5de492a5af68abdb"
          ],
          "data": "0x000000000000000000000000def28f7d7f3700e30f403b6350fb54a35846987400000000000000000000000000000000000000000000002b5e3af16b18800000",
          "blockHash": "0x1db7157a87112ae1aa1850a3b1ac3b256e0bc13b1c8a19186b5b286c7e278ae2",
          "blockNumber": "0x188a541",
          "transactionHash": "0x8c90010f3970bd2bb0a7b7cc5553a4d08e0917deee678cf54567be4a45854a53",
          "transactionIndex": "0x2",
          "logIndex": "0x3",
          "removed": false
        },
        {
          "address": "0xc6ADeA8722C2DB1EFF810f429C3C09BA00E1F25C",
          "topics": [
            "0xddf252ad1be2c89b69c2b068fc378daa952ba7f163c4a11628f55a4df523b3ef",
            "0x000000000000000000000000242f2d72f6b9f534b6182d911e719b7be7a81861",
            "0x000000000000000000000000a66271c90e344c6be44c3ece3856ed9976136ff5"
          ],
          "data": "0x00000000000000000000000000000000000000000000002b5e3af16b18800000",
          "blockHash": "0x1db7157a87112ae1aa1850a3b1ac3b256e0bc13b1c8a19186b5b286c7e278ae2",
          "blockNumber": "0x188a541",
          "transactionHash": "0x8c90010f3970bd2bb0a7b7cc5553a4d08e0917deee678cf54567be4a45854a53",
          "transactionIndex": "0x2",
          "logIndex": "0x4",
          "removed": false
        },
        {
          "address": "0xa66271c90e344c6be44C3ECe3856Ed9976136fF5",
          "topics": [
            "0xfbf61cba599d6492478e4eb159441beec2c8855ca41bfb51b7608d6c17d69c80"
          ],
          "data": "0x000000000000000000000000242f2d72f6b9f534b6182d911e719b7be7a81861000000000000000000000000312ba46064e1fe5904362bfb0c52c38f20d3ef44000000000000000000000000def28f7d7f3700e30f403b6350fb54a358469874000000000000000000000000c6adea8722c2db1eff810f429c3c09ba00e1f25c00000000000000000000000000000000000000000000000000000000000000a000000000000000000000000000000000000000000000000000000000000000a0000000000000000000000000242f2d72f6b9f534b6182d911e719b7be7a81861000000000000000000000000312ba46064e1fe5904362bfb0c52c38f20d3ef44000000000000000000000000def28f7d7f3700e30f403b6350fb54a358469874000000000000000000000000c6adea8722c2db1eff810f429c3c09ba00e1f25c0000000000000000000000000000000000000000000000000000000065fd59bc",
          "blockHash": "0x1db7157a87112ae1aa1850a3b1ac3b256e0bc13b1c8a19186b5b286c7e278ae2",
          "blockNumber": "0x188a541",
          "transactionHash": "0x8c90010f3970bd2bb0a7b7cc5553a4d08e0917deee678cf54567be4a45854a53",
          "transactionIndex": "0x2",
          "logIndex": "0x5",
          "removed": false
        }
      ],
      "status": "0x1",
      "logsBloom": "0x00000000000001000000000000000000000020000001000000000000000010000000000000000000008200000000000000000000000000100000008000020000000000080000000000000008010000000000000000000000000000000000000100000000000000000000002080000000000000000000000000000010000000000000000000000000000000000000000000000000000000000000000000000000000040000000000000020000000001000000000000000000000000000000000080000002000000000000000000000000000000000000000000000000000000000000000000000020000010000000000200000000000000000000000000000000",
      "type": "0x0",
      "effectiveGasPrice": "0x5f5e100"
    }
  ],
  "libraries": [],
  "pending": [],
  "returns": {},
  "timestamp": 1711102396,
  "chain": 421614,
  "commit": "c0e78ed"
}