{
  "transactions": [
    {
      "hash": "0x5ee2c87cee66691f819a64a8be03a25b1564a381088702111661f3689f3803fe",
      "transactionType": "CALL",
      "contractName": null,
      "contractAddress": "0x34a13c722e2b6247ea431e605a145ca0dedd2977",
      "function": "grantRole(bytes32,address)",
      "arguments": [
        "0x0000000000000000000000000000000000000000000000000000000000000000",
        "0x3745f639898b064B0278574267Be7D7acDcd6C44"
      ],
      "transaction": {
        "from": "0x74f6c83b58a9e69502c02752056af93c2bd8fc59",
        "to": "0x34a13c722e2b6247ea431e605a145ca0dedd2977",
        "gas": "0x14c81",
        "value": "0x0",
        "input": "0x2f2ff15d00000000000000000000000000000000000000000000000000000000000000000000000000000000000000003745f639898b064b0278574267be7d7acdcd6c44",
        "nonce": "0x10",
        "chainId": "0x868b"
      },
      "additionalContracts": [],
      "isFixedGasLimit": false
    },
    {
      "hash": "0xb13ace905e3b1e5e51a15fda430c89030cdbbfa7ddbdcaa6207ec1f5b5d3c333",
      "transactionType": "CALL",
      "contractName": null,
      "contractAddress": "0xfb75f39166c006254931d314a24397979440de73",
      "function": "grantRole(bytes32,address)",
      "arguments": [
        "0x0000000000000000000000000000000000000000000000000000000000000000",
        "0x3745f639898b064B0278574267Be7D7acDcd6C44"
      ],
      "transaction": {
        "from": "0x74f6c83b58a9e69502c02752056af93c2bd8fc59",
        "to": "0xfb75f39166c006254931d314a24397979440de73",
        "gas": "0x14c80",
        "value": "0x0",
        "input": "0x2f2ff15d00000000000000000000000000000000000000000000000000000000000000000000000000000000000000003745f639898b064b0278574267be7d7acdcd6c44",
        "nonce": "0x11",
        "chainId": "0x868b"
      },
      "additionalContracts": [],
      "isFixedGasLimit": false
    },
    {
      "hash": "0x2806f2facfaaaf5993638a1286cc17e20498d23c5913d6963899d989b8062c84",
      "transactionType": "CALL",
      "contractName": null,
      "contractAddress": "0xd245c96879e3d7115ac7d9c667b3070a531cb439",
      "function": "grantRole(bytes32,address)",
      "arguments": [
        "0x0000000000000000000000000000000000000000000000000000000000000000",
        "0x3745f639898b064B0278574267Be7D7acDcd6C44"
      ],
      "transaction": {
        "from": "0x74f6c83b58a9e69502c02752056af93c2bd8fc59",
        "to": "0xd245c96879e3d7115ac7d9c667b3070a531cb439",
        "gas": "0x14c80",
        "value": "0x0",
        "input": "0x2f2ff15d00000000000000000000000000000000000000000000000000000000000000000000000000000000000000003745f639898b064b0278574267be7d7acdcd6c44",
        "nonce": "0x12",
        "chainId": "0x868b"
      },
      "additionalContracts": [],
      "isFixedGasLimit": false
    },
    {
      "hash": "0xcf9e412cffe013ec62b6e3614badf9966f30725aaf336c5f5c900ad1c125e90c",
      "transactionType": "CALL",
      "contractName": null,
      "contractAddress": "0xfb75f39166c006254931d314a24397979440de73",
      "function": "grantRole(bytes32,address)",
      "arguments": [
        "0xdf8b4c520ffe197c5343c6f5aec59570151ef9a492f2c624fd45ddde6135ec42",
        "0x3745f639898b064B0278574267Be7D7acDcd6C44"
      ],
      "transaction": {
        "from": "0x74f6c83b58a9e69502c02752056af93c2bd8fc59",
        "to": "0xfb75f39166c006254931d314a24397979440de73",
        "gas": "0x14eb1",
        "value": "0x0",
        "input": "0x2f2ff15ddf8b4c520ffe197c5343c6f5aec59570151ef9a492f2c624fd45ddde6135ec420000000000000000000000003745f639898b064b0278574267be7d7acdcd6c44",
        "nonce": "0x13",
        "chainId": "0x868b"
      },
      "additionalContracts": [],
      "isFixedGasLimit": false
    },
    {
      "hash": "0xa050f9382ded8f75a3c3b1b967ff239990fc2f53b72a4b0ba0ca3cb6f6639545",
      "transactionType": "CALL",
      "contractName": null,
      "contractAddress": "0xd245c96879e3d7115ac7d9c667b3070a531cb439",
      "function": "grantRole(bytes32,address)",
      "arguments": [
        "0xdf8b4c520ffe197c5343c6f5aec59570151ef9a492f2c624fd45ddde6135ec42",
        "0x3745f639898b064B0278574267Be7D7acDcd6C44"
      ],
      "transaction": {
        "from": "0x74f6c83b58a9e69502c02752056af93c2bd8fc59",
        "to": "0xd245c96879e3d7115ac7d9c667b3070a531cb439",
        "gas": "0x14eb1",
        "value": "0x0",
        "input": "0x2f2ff15ddf8b4c520ffe197c5343c6f5aec59570151ef9a492f2c624fd45ddde6135ec420000000000000000000000003745f639898b064b0278574267be7d7acdcd6c44",
        "nonce": "0x14",
        "chainId": "0x868b"
      },
      "additionalContracts": [],
      "isFixedGasLimit": false
    }
  ],
  "receipts": [
    {
      "status": "0x1",
      "cumulativeGasUsed": "0x3f6213",
      "logs": [
        {
          "address": "0x34a13c722e2b6247ea431e605a145ca0dedd2977",
          "topics": [
            "0x2f8788117e7eff1d82e926ec794901d17c78024a50270940304540a733656f0d",
            "0x0000000000000000000000000000000000000000000000000000000000000000",
            "0x0000000000000000000000003745f639898b064b0278574267be7d7acdcd6c44",
            "0x00000000000000000000000074f6c83b58a9e69502c02752056af93c2bd8fc59"
          ],
          "data": "0x",
          "blockHash": "0x798115492e345bb595a4d1344d9801e260df03a4535f777495f9986afc80d8ff",
          "blockNumber": "0x77bcd0",
          "transactionHash": "0x5ee2c87cee66691f819a64a8be03a25b1564a381088702111661f3689f3803fe",
          "transactionIndex": "0x6",
          "logIndex": "0x3",
          "removed": false
        }
      ],
      "logsBloom": "0x02000004000000000000000000000000000800000000000000001000000000000000000000000000000000000000000000000000000000000000000000000000000800000000000000000000000000000008000000000000000000000000000000000000020000000000000020000800000000000000000000000000000000000000000000000000000000000000000000000000000000000000000000080000000000000000000000000000000000000000000000000000001000000000000000000000000000000000000000000000000000100000000100000000000020000000000000000000000400000000000000000000000000000000000000000000",
      "type": "0x2",
      "transactionHash": "0x5ee2c87cee66691f819a64a8be03a25b1564a381088702111661f3689f3803fe",
      "transactionIndex": "0x6",
      "blockHash": "0x798115492e345bb595a4d1344d9801e260df03a4535f777495f9986afc80d8ff",
      "blockNumber": "0x77bcd0",
      "gasUsed": "0xe35b",
      "effectiveGasPrice": "0x4ae",
      "from": "0x74f6c83b58a9e69502c02752056af93c2bd8fc59",
      "to": "0x34a13c722e2b6247ea431e605a145ca0dedd2977",
      "contractAddress": null,
      "l1Fee": "0x3797249650",
      "l1GasPrice": "0x1392f73fa",
      "l1GasUsed": "0x8e0"
    },
    {
      "status": "0x1",
      "cumulativeGasUsed": "0x2ca8fc",
      "logs": [
        {
          "address": "0xfb75f39166c006254931d314a24397979440de73",
          "topics": [
            "0x2f8788117e7eff1d82e926ec794901d17c78024a50270940304540a733656f0d",
            "0x0000000000000000000000000000000000000000000000000000000000000000",
            "0x0000000000000000000000003745f639898b064b0278574267be7d7acdcd6c44",
            "0x00000000000000000000000074f6c83b58a9e69502c02752056af93c2bd8fc59"
          ],
          "data": "0x",
          "blockHash": "0xabd1f4577ed66df3b6327ac054c262643ff0d5d25e1e68dcf36d8053861671ec",
          "blockNumber": "0x77bcd5",
          "transactionHash": "0xb13ace905e3b1e5e51a15fda430c89030cdbbfa7ddbdcaa6207ec1f5b5d3c333",
          "transactionIndex": "0x5",
          "logIndex": "0x4",
          "removed": false
        }
      ],
      "logsBloom": "0x02000004000000000000000000000000000800000000000000000000000000000000000000000000000000000000000000000000000000000000000000000000000800000000000000000000000000000000000000000000000000000000200000000000020000000000000000000800000000000000000000000000000000000000000000000000000000000000000000000000000000000000000000080000000000000000000000000000000000000000000000000000009000000000000000000000000000000000000000000000000000100000000100000000200020000000000000000000000400000000000000000000000000000000000000000000",
      "type": "0x2",
      "transactionHash": "0xb13ace905e3b1e5e51a15fda430c89030cdbbfa7ddbdcaa6207ec1f5b5d3c333",
      "transactionIndex": "0x5",
      "blockHash": "0xabd1f4577ed66df3b6327ac054c262643ff0d5d25e1e68dcf36d8053861671ec",
      "blockNumber": "0x77bcd5",
      "gasUsed": "0xe35a",
      "effectiveGasPrice": "0x4ac",
      "from": "0x74f6c83b58a9e69502c02752056af93c2bd8fc59",
      "to": "0xfb75f39166c006254931d314a24397979440de73",
      "contractAddress": null,
      "l1Fee": "0x36a0a4adc7",
      "l1GasPrice": "0x133c2b900",
      "l1GasUsed": "0x8e0"
    },
    {
      "status": "0x1",
      "cumulativeGasUsed": "0x402dd0",
      "logs": [
        {
          "address": "0xd245c96879e3d7115ac7d9c667b3070a531cb439",
          "topics": [
            "0x2f8788117e7eff1d82e926ec794901d17c78024a50270940304540a733656f0d",
            "0x0000000000000000000000000000000000000000000000000000000000000000",
            "0x0000000000000000000000003745f639898b064b0278574267be7d7acdcd6c44",
            "0x00000000000000000000000074f6c83b58a9e69502c02752056af93c2bd8fc59"
          ],
          "data": "0x",
          "blockHash": "0xe0de12ac36c5b5416f474b31301f0560f03bf05014687642f0934153cbcd16eb",
          "blockNumber": "0x77bcd9",
          "transactionHash": "0x2806f2facfaaaf5993638a1286cc17e20498d23c5913d6963899d989b8062c84",
          "transactionIndex": "0x6",
          "logIndex": "0x4",
          "removed": false
        }
      ],
      "logsBloom": "0x02000004000000000000000000000000000800000000000000000000000000000000000000000000000000000000000000000000000000000000000000000000000800000000000000000000000000000000000000000000000000000000000000000000020000000000000000000800000000000000040000000000000000100000000000000000000000000000000000000000000000000000000000080000000000000000000000000000000000000000000000000000001000000000000000000080000000000000000000000000000000100000000100000000000020000000000000000000000400000000000000000000000000000000000000000000",
      "type": "0x2",
      "transactionHash": "0x2806f2facfaaaf5993638a1286cc17e20498d23c5913d6963899d989b8062c84",
      "transactionIndex": "0x6",
      "blockHash": "0xe0de12ac36c5b5416f474b31301f0560f03bf05014687642f0934153cbcd16eb",
      "blockNumber": "0x77bcd9",
      "gasUsed": "0xe35a",
      "effectiveGasPrice": "0x4ac",
      "from": "0x74f6c83b58a9e69502c02752056af93c2bd8fc59",
      "to": "0xd245c96879e3d7115ac7d9c667b3070a531cb439",
      "contractAddress": null,
      "l1Fee": "0x36a0a4adc7",
      "l1GasPrice": "0x133c2b900",
      "l1GasUsed": "0x8e0"
    },
    {
      "status": "0x1",
      "cumulativeGasUsed": "0x2b2ef8",
      "logs": [
        {
          "address": "0xfb75f39166c006254931d314a24397979440de73",
          "topics": [
            "0x2f8788117e7eff1d82e926ec794901d17c78024a50270940304540a733656f0d",
            "0xdf8b4c520ffe197c5343c6f5aec59570151ef9a492f2c624fd45ddde6135ec42",
            "0x0000000000000000000000003745f639898b064b0278574267be7d7acdcd6c44",
            "0x00000000000000000000000074f6c83b58a9e69502c02752056af93c2bd8fc59"
          ],
          "data": "0x",
          "blockHash": "0x13067f21fa46796ec6e5740ad06d5d67ad5097d4b0ae4cb225731170b0631e27",
          "blockNumber": "0x77bcdd",
          "transactionHash": "0xcf9e412cffe013ec62b6e3614badf9966f30725aaf336c5f5c900ad1c125e90c",
          "transactionIndex": "0x5",
          "logIndex": "0x9",
          "removed": false
        }
      ],
      "logsBloom": "0x02000004000000000000000000000000000800000000000000000000000000200000000000000000000000000000000000000000000000000000000000000000000800000000000000000000000000000000000000000000000000000000200000000000000000000000008000000000000000000000000000000000000000000000000000000000000000000000000000000000000000000000000000080000000000000000000000000000100000000000000000000000009000000000000000000000000000000000000000000000000000100000000100000000200000000000000000000000000400000000000000000000000000000000000000000000",
      "type": "0x2",
      "transactionHash": "0xcf9e412cffe013ec62b6e3614badf9966f30725aaf336c5f5c900ad1c125e90c",
      "transactionIndex": "0x5",
      "blockHash": "0x13067f21fa46796ec6e5740ad06d5d67ad5097d4b0ae4cb225731170b0631e27",
      "blockNumber": "0x77bcdd",
      "gasUsed": "0xe4da",
      "effectiveGasPrice": "0x4ac",
      "from": "0x74f6c83b58a9e69502c02752056af93c2bd8fc59",
      "to": "0xfb75f39166c006254931d314a24397979440de73",
      "contractAddress": null,
      "l1Fee": "0x4039bb3fcc",
      "l1GasPrice": "0x13585428b",
      "l1GasUsed": "0xa60"
    },
    {
      "status": "0x1",
      "cumulativeGasUsed": "0x405442",
      "logs": [
        {
          "address": "0xd245c96879e3d7115ac7d9c667b3070a531cb439",
          "topics": [
            "0x2f8788117e7eff1d82e926ec794901d17c78024a50270940304540a733656f0d",
            "0xdf8b4c520ffe197c5343c6f5aec59570151ef9a492f2c624fd45ddde6135ec42",
            "0x0000000000000000000000003745f639898b064b0278574267be7d7acdcd6c44",
            "0x00000000000000000000000074f6c83b58a9e69502c02752056af93c2bd8fc59"
          ],
          "data": "0x",
          "blockHash": "0x7271faba0878989cbdf8ee6a2b86937193896f2d988143eb4378906195005669",
          "blockNumber": "0x77bce0",
          "transactionHash": "0xa050f9382ded8f75a3c3b1b967ff239990fc2f53b72a4b0ba0ca3cb6f6639545",
          "transactionIndex": "0x6",
          "logIndex": "0xa",
          "removed": false
        }
      ],
      "logsBloom": "0x02000004000000000000000000000000000800000000000000000000000000200000000000000000000000000000000000000000000000000000000000000000000800000000000000000000000000000000000000000000000000000000000000000000000000000000008000000000000000000000040000000000000000100000000000000000000000000000000000000000000000000000000000080000000000000000000000000000100000000000000000000000001000000000000000000080000000000000000000000000000000100000000100000000000000000000000000000000000400000000000000000000000000000000000000000000",
      "type": "0x2",
      "transactionHash": "0xa050f9382ded8f75a3c3b1b967ff239990fc2f53b72a4b0ba0ca3cb6f6639545",
      "transactionIndex": "0x6",
      "blockHash": "0x7271faba0878989cbdf8ee6a2b86937193896f2d988143eb4378906195005669",
      "blockNumber": "0x77bce0",
      "gasUsed": "0xe4da",
      "effectiveGasPrice": "0x4ac",
      "from": "0x74f6c83b58a9e69502c02752056af93c2bd8fc59",
      "to": "0xd245c96879e3d7115ac7d9c667b3070a531cb439",
      "contractAddress": null,
      "l1Fee": "0x4039bb3fcc",
      "l1GasPrice": "0x13585428b",
      "l1GasUsed": "0xa60"
    }
  ],
  "libraries": [],
  "pending": [],
  "returns": {},
  "timestamp": 1715861858,
  "chain": 34443,
  "commit": "3c39574"
}