{
  "transactions": [
    {
      "hash": "0xcceae0dfbcde96ae7203f4c449caad362aa7c62c61cb6dc85bf0eb4fc6ae66a3",
      "transactionType": "CALL",
      "contractName": null,
      "contractAddress": "0xc6ADeA8722C2DB1EFF810f429C3C09BA00E1F25C",
      "function": "approve(address,uint256)",
      "arguments": [
        "0x79cb297c923430cfab2714648941553298444743",
        "1000000000000000000000000"
      ],
      "transaction": {
        "type": "0x00",
        "from": "0x8d76db34ccca356fa805f5a277efff53aac5af88",
        "to": "0xc6adea8722c2db1eff810f429c3c09ba00e1f25c",
        "gas": "0x9423",
        "value": "0x0",
        "data": "0x095ea7b300000000000000000000000079cb297c923430cfab271464894155329844474300000000000000000000000000000000000000000000d3c21bcecceda1000000",
        "nonce": "0x5b"
      },
      "additionalContracts": [],
      "isFixedGasLimit": false
    },
    {
      "hash": "0x6dbfab07f79400992b285384a99b4af31bcf29fe0063ba9529819d741b9254dc",
      "transactionType": "CALL",
      "contractName": null,
      "contractAddress": "0x79cb297c923430cfab2714648941553298444743",
      "function": "depositFunds(uint256)",
      "arguments": [
        "1000000000000000000000000"
      ],
      "transaction": {
        "type": "0x00",
        "from": "0x8d76db34ccca356fa805f5a277efff53aac5af88",
        "to": "0x79cb297c923430cfab2714648941553298444743",
        "gas": "0x181b9",
        "value": "0x0",
        "data": "0x3b76594d00000000000000000000000000000000000000000000d3c21bcecceda1000000",
        "nonce": "0x5c"
      },
      "additionalContracts": [],
      "isFixedGasLimit": false
    }
  ],
  "receipts": [
    {
      "transactionHash": "0xcceae0dfbcde96ae7203f4c449caad362aa7c62c61cb6dc85bf0eb4fc6ae66a3",
      "transactionIndex": "0x3",
      "blockHash": "0x24d9be6ad1a7a69231bd9d48c1c337e8fd0f5da97e8901917eae87358f608355",
      "blockNumber": "0x2296f41",
      "from": "0x8d76dB34CcCA356fA805f5A277EFFf53aaC5af88",
      "to": "0xc6ADeA8722C2DB1EFF810f429C3C09BA00E1F25C",
      "cumulativeGasUsed": "0xfab86",
      "gasUsed": "0x71f4",
      "contractAddress": null,
      "logs": [
        {
          "address": "0xc6ADeA8722C2DB1EFF810f429C3C09BA00E1F25C",
          "topics": [
            "0x8c5be1e5ebec7d5bd14f71427d1e84f3dd0314c0f7b2291e5b200ac8c7c3b925",
            "0x0000000000000000000000008d76db34ccca356fa805f5a277efff53aac5af88",
            "0x00000000000000000000000079cb297c923430cfab2714648941553298444743"
          ],
          "data": "0x00000000000000000000000000000000000000000000d3c21bcecceda1000000",
          "blockHash": "0x24d9be6ad1a7a69231bd9d48c1c337e8fd0f5da97e8901917eae87358f608355",
          "blockNumber": "0x2296f41",
          "transactionHash": "0xcceae0dfbcde96ae7203f4c449caad362aa7c62c61cb6dc85bf0eb4fc6ae66a3",
          "transactionIndex": "0x3",
          "logIndex": "0x25",
          "removed": false
        }
      ],
      "status": "0x1",
      "logsBloom": "0x00000000000000004000000000000000000000000000000000000000000000000000000000000000000000000000000000000000000000000000000004200000000000000000000000000000000000000000000000000000000000000000000000000000000000000000000000020000000000000000000000000000000000000000000000000000000000000000000000000000000000000000000000000000020040000000000000000000000000000000000000000000000000000000000080000000000000000000000000000000000000000000000000000000000000000010800000000000000000000000000200000000000000000100000000400000",
      "type": "0x0",
      "effectiveGasPrice": "0x314a6880"
    },
    {
      "transactionHash": "0x6dbfab07f79400992b285384a99b4af31bcf29fe0063ba9529819d741b9254dc",
      "transactionIndex": "0x1",
      "blockHash": "0x11a4e0e2af7cc0e24f94157dc9f4abaf943636ac5c66c40929d5e269f2b8ba50",
      "blockNumber": "0x2296f44",
      "from": "0x8d76dB34CcCA356fA805f5A277EFFf53aaC5af88",
      "to": "0x79cb297c923430cfab2714648941553298444743",
      "cumulativeGasUsed": "0x1268a",
      "gasUsed": "0x1268a",
      "contractAddress": null,
      "logs": [
        {
          "address": "0xc6ADeA8722C2DB1EFF810f429C3C09BA00E1F25C",
          "topics": [
            "0x8c5be1e5ebec7d5bd14f71427d1e84f3dd0314c0f7b2291e5b200ac8c7c3b925",
            "0x0000000000000000000000008d76db34ccca356fa805f5a277efff53aac5af88",
            "0x00000000000000000000000079cb297c923430cfab2714648941553298444743"
          ],
          "data": "0x0000000000000000000000000000000000000000000000000000000000000000",
          "blockHash": "0x11a4e0e2af7cc0e24f94157dc9f4abaf943636ac5c66c40929d5e269f2b8ba50",
          "blockNumber": "0x2296f44",
          "transactionHash": "0x6dbfab07f79400992b285384a99b4af31bcf29fe0063ba9529819d741b9254dc",
          "transactionIndex": "0x1",
          "logIndex": "0x0",
          "removed": false
        },
        {
          "address": "0xc6ADeA8722C2DB1EFF810f429C3C09BA00E1F25C",
          "topics": [
            "0xddf252ad1be2c89b69c2b068fc378daa952ba7f163c4a11628f55a4df523b3ef",
            "0x0000000000000000000000008d76db34ccca356fa805f5a277efff53aac5af88",
            "0x00000000000000000000000079cb297c923430cfab2714648941553298444743"
          ],
          "data": "0x00000000000000000000000000000000000000000000d3c21bcecceda1000000",
          "blockHash": "0x11a4e0e2af7cc0e24f94157dc9f4abaf943636ac5c66c40929d5e269f2b8ba50",
          "blockNumber": "0x2296f44",
          "transactionHash": "0x6dbfab07f79400992b285384a99b4af31bcf29fe0063ba9529819d741b9254dc",
          "transactionIndex": "0x1",
          "logIndex": "0x1",
          "removed": false
        },
        {
          "address": "0x79cb297c923430cfab2714648941553298444743",
          "topics": [
            "0x543ba50a5eec5e6178218e364b1d0f396157b3c8fa278522c2cb7fd99407d474"
          ],
          "data": "0x0000000000000000000000008d76db34ccca356fa805f5a277efff53aac5af8800000000000000000000000000000000000000000000d3c21bcecceda1000000",
          "blockHash": "0x11a4e0e2af7cc0e24f94157dc9f4abaf943636ac5c66c40929d5e269f2b8ba50",
          "blockNumber": "0x2296f44",
          "transactionHash": "0x6dbfab07f79400992b285384a99b4af31bcf29fe0063ba9529819d741b9254dc",
          "transactionIndex": "0x1",
          "logIndex": "0x2",
          "removed": false
        }
      ],
      "status": "0x1",
      "logsBloom": "0x00000000000000004000000000000000000000000000020000000000000000000000000000000800000000000000000000000000000000000000000004200000000000000000000000000008000000000000000000000000000000000000000000000000000000000000000000020000000000000000000000000010000000100000000000000000000000000000000000000000000000000000000000000000020040000000000000000000000000000000000000000000001000000000000080000002000000000000000001000000000000000000000000000000000000000010800000000000000000000000000200000000000000000100000000400000",
      "type": "0x0",
      "effectiveGasPrice": "0x31654380"
    }
  ],
  "libraries": [],
  "pending": [],
  "returns": {},
  "timestamp": 1713772779,
  "chain": 421614,
  "multi": false,
  "commit": "4f905cc"
}