{
  "transactions": [
    {
      "hash": "0x66fac92f865e00a8e76678e181c997fc362d606e8e3494c3398b23ecf91d56c6",
      "transactionType": "CALL",
      "contractName": null,
      "contractAddress": "0xc6ADeA8722C2DB1EFF810f429C3C09BA00E1F25C",
      "function": "approve(address,uint256)",
      "arguments": [
        "0x662C96c23d61156115F362c1698268F19B845898",
        "1000000000000000"
      ],
      "transaction": {
        "type": "0x00",
        "from": "0x8d76db34ccca356fa805f5a277efff53aac5af88",
        "to": "0xc6adea8722c2db1eff810f429c3c09ba00e1f25c",
        "gas": "0x24c3e",
        "value": "0x0",
        "data": "0x095ea7b3000000000000000000000000662c96c23d61156115f362c1698268f19b84589800000000000000000000000000000000000000000000000000038d7ea4c68000",
        "nonce": "0x12"
      },
      "additionalContracts": [],
      "isFixedGasLimit": false
    },
    {
      "hash": "0xa6bef1ff4527d638134dfe8e3ff9e7e3a06d3a2eac37e6ad9933023220281a88",
      "transactionType": "CALL",
      "contractName": null,
      "contractAddress": "0x662C96c23d61156115F362c1698268F19B845898",
      "function": "depositFunds(uint256)",
      "arguments": [
        "100000000"
      ],
      "transaction": {
        "type": "0x00",
        "from": "0x8d76db34ccca356fa805f5a277efff53aac5af88",
        "to": "0x662c96c23d61156115f362c1698268f19b845898",
        "gas": "0x2e711",
        "value": "0x0",
        "data": "0x3b76594d0000000000000000000000000000000000000000000000000000000005f5e100",
        "nonce": "0x13"
      },
      "additionalContracts": [],
      "isFixedGasLimit": false
    }
  ],
  "receipts": [
    {
      "transactionHash": "0x66fac92f865e00a8e76678e181c997fc362d606e8e3494c3398b23ecf91d56c6",
      "transactionIndex": "0x1",
      "blockHash": "0xe58c5037535e65d0ae8930460cbc3c5af14f9a0f6b84c7962c06df8b4240946a",
      "blockNumber": "0x184bd22",
      "from": "0x8d76dB34CcCA356fA805f5A277EFFf53aaC5af88",
      "to": "0xc6ADeA8722C2DB1EFF810f429C3C09BA00E1F25C",
      "cumulativeGasUsed": "0x17310",
      "gasUsed": "0x17310",
      "contractAddress": null,
      "logs": [
        {
          "address": "0xc6ADeA8722C2DB1EFF810f429C3C09BA00E1F25C",
          "topics": [
            "0x8c5be1e5ebec7d5bd14f71427d1e84f3dd0314c0f7b2291e5b200ac8c7c3b925",
            "0x0000000000000000000000008d76db34ccca356fa805f5a277efff53aac5af88",
            "0x000000000000000000000000662c96c23d61156115f362c1698268f19b845898"
          ],
          "data": "0x00000000000000000000000000000000000000000000000000038d7ea4c68000",
          "blockHash": "0xe58c5037535e65d0ae8930460cbc3c5af14f9a0f6b84c7962c06df8b4240946a",
          "blockNumber": "0x184bd22",
          "transactionHash": "0x66fac92f865e00a8e76678e181c997fc362d606e8e3494c3398b23ecf91d56c6",
          "transactionIndex": "0x1",
          "logIndex": "0x0",
          "removed": false
        }
      ],
      "status": "0x1",
      "logsBloom": "0x00000000000000000000000000000000000000000000000000000000000000080000000000000000000000000000000000000000000000000000000004200000000000000000000000000000000000000000000000000000000000000000000000000000000000000000000000020000000010000000000000000000000000000000000000000000000000000000000000000000000000001000000000000000020040000000000000000000000000000000000000000000000000000000000080000000000000000000000000000000000000000000000000000000000000000010000000000000000000000000000200000000000000000000000000400000",
      "type": "0x0",
      "effectiveGasPrice": "0x5f5e100"
    },
    {
      "transactionHash": "0xa6bef1ff4527d638134dfe8e3ff9e7e3a06d3a2eac37e6ad9933023220281a88",
      "transactionIndex": "0x3",
      "blockHash": "0xe90beb60cff0b50a21816949760c52d3ece3344c8c1edbe58afa324332845a38",
      "blockNumber": "0x184bd25",
      "from": "0x8d76dB34CcCA356fA805f5A277EFFf53aaC5af88",
      "to": "0x662C96c23d61156115F362c1698268F19B845898",
      "cumulativeGasUsed": "0x6c140",
      "gasUsed": "0x1ec8a",
      "contractAddress": null,
      "logs": [
        {
          "address": "0xc6ADeA8722C2DB1EFF810f429C3C09BA00E1F25C",
          "topics": [
            "0x8c5be1e5ebec7d5bd14f71427d1e84f3dd0314c0f7b2291e5b200ac8c7c3b925",
            "0x0000000000000000000000008d76db34ccca356fa805f5a277efff53aac5af88",
            "0x000000000000000000000000662c96c23d61156115f362c1698268f19b845898"
          ],
          "data": "0x00000000000000000000000000000000000000000000000000038d7e9ed09f00",
          "blockHash": "0xe90beb60cff0b50a21816949760c52d3ece3344c8c1edbe58afa324332845a38",
          "blockNumber": "0x184bd25",
          "transactionHash": "0xa6bef1ff4527d638134dfe8e3ff9e7e3a06d3a2eac37e6ad9933023220281a88",
          "transactionIndex": "0x3",
          "logIndex": "0x5",
          "removed": false
        },
        {
          "address": "0xc6ADeA8722C2DB1EFF810f429C3C09BA00E1F25C",
          "topics": [
            "0xddf252ad1be2c89b69c2b068fc378daa952ba7f163c4a11628f55a4df523b3ef",
            "0x0000000000000000000000008d76db34ccca356fa805f5a277efff53aac5af88",
            "0x000000000000000000000000662c96c23d61156115f362c1698268f19b845898"
          ],
          "data": "0x0000000000000000000000000000000000000000000000000000000005f5e100",
          "blockHash": "0xe90beb60cff0b50a21816949760c52d3ece3344c8c1edbe58afa324332845a38",
          "blockNumber": "0x184bd25",
          "transactionHash": "0xa6bef1ff4527d638134dfe8e3ff9e7e3a06d3a2eac37e6ad9933023220281a88",
          "transactionIndex": "0x3",
          "logIndex": "0x6",
          "removed": false
        },
        {
          "address": "0x662C96c23d61156115F362c1698268F19B845898",
          "topics": [
            "0x543ba50a5eec5e6178218e364b1d0f396157b3c8fa278522c2cb7fd99407d474"
          ],
          "data": "0x0000000000000000000000008d76db34ccca356fa805f5a277efff53aac5af880000000000000000000000000000000000000000000000000000000005f5e100",
          "blockHash": "0xe90beb60cff0b50a21816949760c52d3ece3344c8c1edbe58afa324332845a38",
          "blockNumber": "0x184bd25",
          "transactionHash": "0xa6bef1ff4527d638134dfe8e3ff9e7e3a06d3a2eac37e6ad9933023220281a88",
          "transactionIndex": "0x3",
          "logIndex": "0x7",
          "removed": false
        }
      ],
      "status": "0x1",
      "logsBloom": "0x00000000000000000000000000000000000000000000020000000000000000080000000000000800000000000000000000000100000000000000000004200000000000000000000000000008000000000000000000000000000000000000000000000000000000000000000000020000000010000000000000000010000000000000000000000000000000000000000000000000000000001000000000000000020040010000000000000000000000000000000000000000001000000000000080000002000000000000000000000000000000000000000000000000040000000010000000000000000000000000000200000000000000000000000000400000",
      "type": "0x0",
      "effectiveGasPrice": "0x5f5e100"
    }
  ],
  "libraries": [],
  "pending": [],
  "returns": {},
  "timestamp": 1711033837,
  "chain": 421614,
  "commit": "1858226"
}