{
  "transactions": [
    {
      "hash": "0x925b9c1a959a489b20ea679cc513b60b2cad28e8590061843a47f3d2e14b8aa8",
      "transactionType": "CALL",
      "contractName": null,
      "contractAddress": "0xc6ADeA8722C2DB1EFF810f429C3C09BA00E1F25C",
      "function": "approve(address,uint256)",
      "arguments": [
        "0x8487B23e891F2502c8f3337eD7ad30B23EBd254D",
        "1000000000000000000000"
      ],
      "transaction": {
        "type": "0x00",
        "from": "0x8d76db34ccca356fa805f5a277efff53aac5af88",
        "to": "0xc6adea8722c2db1eff810f429c3c09ba00e1f25c",
        "gas": "0x70465",
        "value": "0x0",
        "data": "0x095ea7b30000000000000000000000008487b23e891f2502c8f3337ed7ad30b23ebd254d00000000000000000000000000000000000000000000003635c9adc5dea00000",
        "nonce": "0x23"
      },
      "additionalContracts": [],
      "isFixedGasLimit": false
    },
    {
      "hash": "0x574f8b608c8acbd5683d64b80280695c4547c4b97c4f25a6194c009cb4e3db10",
      "transactionType": "CALL",
      "contractName": null,
      "contractAddress": "0x8487B23e891F2502c8f3337eD7ad30B23EBd254D",
      "function": "depositFunds(uint256)",
      "arguments": [
        "1000000000000000000000"
      ],
      "transaction": {
        "type": "0x00",
        "from": "0x8d76db34ccca356fa805f5a277efff53aac5af88",
        "to": "0x8487b23e891f2502c8f3337ed7ad30b23ebd254d",
        "gas": "0x2a677",
        "value": "0x0",
        "data": "0x3b76594d00000000000000000000000000000000000000000000003635c9adc5dea00000",
        "nonce": "0x24"
      },
      "additionalContracts": [],
      "isFixedGasLimit": false
    }
  ],
  "receipts": [
    {
      "transactionHash": "0x925b9c1a959a489b20ea679cc513b60b2cad28e8590061843a47f3d2e14b8aa8",
      "transactionIndex": "0x2",
      "blockHash": "0x135fba0344abbd67f4c065e1aa67960989c45218510dbfdf34db5a9d7b9e05e8",
      "blockNumber": "0x185beca",
      "from": "0x8d76dB34CcCA356fA805f5A277EFFf53aaC5af88",
      "to": "0xc6ADeA8722C2DB1EFF810f429C3C09BA00E1F25C",
      "cumulativeGasUsed": "0xf1c2d",
      "gasUsed": "0x444f7",
      "contractAddress": null,
      "logs": [
        {
          "address": "0xc6ADeA8722C2DB1EFF810f429C3C09BA00E1F25C",
          "topics": [
            "0x8c5be1e5ebec7d5bd14f71427d1e84f3dd0314c0f7b2291e5b200ac8c7c3b925",
            "0x0000000000000000000000008d76db34ccca356fa805f5a277efff53aac5af88",
            "0x0000000000000000000000008487b23e891f2502c8f3337ed7ad30b23ebd254d"
          ],
          "data": "0x00000000000000000000000000000000000000000000003635c9adc5dea00000",
          "blockHash": "0x135fba0344abbd67f4c065e1aa67960989c45218510dbfdf34db5a9d7b9e05e8",
          "blockNumber": "0x185beca",
          "transactionHash": "0x925b9c1a959a489b20ea679cc513b60b2cad28e8590061843a47f3d2e14b8aa8",
          "transactionIndex": "0x2",
          "logIndex": "0x3",
          "removed": false
        }
      ],
      "status": "0x1",
      "logsBloom": "0x00000000000000000000000000000000000000000000000000000000000000000000000000000000000000010000000000000000000000000000000004200000000000000000000000000000000000000000000000000000000000000000000000000000000000000000000000020000000000800000000000000000800000000000000000000000000000000000000000000000000000000000000000000000020040000000000000000000000000000000000000000000000000000000000080000000000000000000000000000000000000000000000000000000000000000010000000000000000000000000000200000000000000000000000000400000",
      "type": "0x0",
      "effectiveGasPrice": "0x5f5e100"
    },
    {
      "transactionHash": "0x574f8b608c8acbd5683d64b80280695c4547c4b97c4f25a6194c009cb4e3db10",
      "transactionIndex": "0x3",
      "blockHash": "0x0fbc396c2d4d89de99d85bc9dbace64054821133a7fe87e0657b6b043913645b",
      "blockNumber": "0x185becd",
      "from": "0x8d76dB34CcCA356fA805f5A277EFFf53aaC5af88",
      "to": "0x8487B23e891F2502c8f3337eD7ad30B23EBd254D",
      "cumulativeGasUsed": "0x3d25bd",
      "gasUsed": "0x4b701",
      "contractAddress": null,
      "logs": [
        {
          "address": "0xc6ADeA8722C2DB1EFF810f429C3C09BA00E1F25C",
          "topics": [
            "0x8c5be1e5ebec7d5bd14f71427d1e84f3dd0314c0f7b2291e5b200ac8c7c3b925",
            "0x0000000000000000000000008d76db34ccca356fa805f5a277efff53aac5af88",
            "0x0000000000000000000000008487b23e891f2502c8f3337ed7ad30b23ebd254d"
          ],
          "data": "0x0000000000000000000000000000000000000000000000000000000000000000",
          "blockHash": "0x0fbc396c2d4d89de99d85bc9dbace64054821133a7fe87e0657b6b043913645b",
          "blockNumber": "0x185becd",
          "transactionHash": "0x574f8b608c8acbd5683d64b80280695c4547c4b97c4f25a6194c009cb4e3db10",
          "transactionIndex": "0x3",
          "logIndex": "0x11",
          "removed": false
        },
        {
          "address": "0xc6ADeA8722C2DB1EFF810f429C3C09BA00E1F25C",
          "topics": [
            "0xddf252ad1be2c89b69c2b068fc378daa952ba7f163c4a11628f55a4df523b3ef",
            "0x0000000000000000000000008d76db34ccca356fa805f5a277efff53aac5af88",
            "0x0000000000000000000000008487b23e891f2502c8f3337ed7ad30b23ebd254d"
          ],
          "data": "0x00000000000000000000000000000000000000000000003635c9adc5dea00000",
          "blockHash": "0x0fbc396c2d4d89de99d85bc9dbace64054821133a7fe87e0657b6b043913645b",
          "blockNumber": "0x185becd",
          "transactionHash": "0x574f8b608c8acbd5683d64b80280695c4547c4b97c4f25a6194c009cb4e3db10",
          "transactionIndex": "0x3",
          "logIndex": "0x12",
          "removed": false
        },
        {
          "address": "0x8487B23e891F2502c8f3337eD7ad30B23EBd254D",
          "topics": [
            "0x543ba50a5eec5e6178218e364b1d0f396157b3c8fa278522c2cb7fd99407d474"
          ],
          "data": "0x0000000000000000000000008d76db34ccca356fa805f5a277efff53aac5af8800000000000000000000000000000000000000000000003635c9adc5dea00000",
          "blockHash": "0x0fbc396c2d4d89de99d85bc9dbace64054821133a7fe87e0657b6b043913645b",
          "blockNumber": "0x185becd",
          "transactionHash": "0x574f8b608c8acbd5683d64b80280695c4547c4b97c4f25a6194c009cb4e3db10",
          "transactionIndex": "0x3",
          "logIndex": "0x13",
          "removed": false
        }
      ],
      "status": "0x1",
      "logsBloom": "0x00000000000000000000000000000000000000000000020000000000000000000000000000000800000000010000000000000000000000000000000004200000000000000000000000000008000000000000000000000000000000000000000000000000000000000000000000020000000000800000000000000010800000000000000000000000000000000000000000000000000000000000000000000000020040000000000000000000000000000000000000100000001000000000000080000002000000000000000000000000000000400000000000000000000000000010000000000000000000000010000200000000000000000000000000400000",
      "type": "0x0",
      "effectiveGasPrice": "0x5f5e100"
    }
  ],
  "libraries": [],
  "pending": [],
  "returns": {},
  "timestamp": 1711050674,
  "chain": 421614,
  "commit": "0aea9ec"
}