{
  "transactions": [
    {
      "hash": "0x90c1c297dbd1642922323cce238e6e87b97690d200918891576cd44385bcc7f8",
      "transactionType": "CALL",
      "contractName": null,
      "contractAddress": "0xc6ADeA8722C2DB1EFF810f429C3C09BA00E1F25C",
      "function": "approve(address,uint256)",
      "arguments": [
        "0x242f2d72f6B9F534B6182d911e719b7be7a81861",
        "1000000000000000000000"
      ],
      "transaction": {
        "type": "0x00",
        "from": "0x8d76db34ccca356fa805f5a277efff53aac5af88",
        "to": "0xc6adea8722c2db1eff810f429c3c09ba00e1f25c",
        "gas": "0x36c90",
        "value": "0x0",
        "data": "0x095ea7b3000000000000000000000000242f2d72f6b9f534b6182d911e719b7be7a8186100000000000000000000000000000000000000000000003635c9adc5dea00000",
        "nonce": "0x30"
      },
      "additionalContracts": [],
      "isFixedGasLimit": false
    },
    {
      "hash": "0x96956d5d4a5e6026891dc17fb0d43fc815689a71c3bb8c0c39cd48582ca8d6c1",
      "transactionType": "CALL",
      "contractName": null,
      "contractAddress": "0x242f2d72f6B9F534B6182d911e719b7be7a81861",
      "function": "depositFunds(uint256)",
      "arguments": [
        "1000000000000000000000"
      ],
      "transaction": {
        "type": "0x00",
        "from": "0x8d76db34ccca356fa805f5a277efff53aac5af88",
        "to": "0x242f2d72f6b9f534b6182d911e719b7be7a81861",
        "gas": "0x2a677",
        "value": "0x0",
        "data": "0x3b76594d00000000000000000000000000000000000000000000003635c9adc5dea00000",
        "nonce": "0x31"
      },
      "additionalContracts": [],
      "isFixedGasLimit": false
    }
  ],
  "receipts": [
    {
      "transactionHash": "0x90c1c297dbd1642922323cce238e6e87b97690d200918891576cd44385bcc7f8",
      "transactionIndex": "0x1",
      "blockHash": "0x1b0abf2214b9097e895dea175a6e39e390b43bb081e56055cf674280aaf39282",
      "blockNumber": "0x188a404",
      "from": "0x8d76dB34CcCA356fA805f5A277EFFf53aaC5af88",
      "to": "0xc6ADeA8722C2DB1EFF810f429C3C09BA00E1F25C",
      "cumulativeGasUsed": "0x22b94",
      "gasUsed": "0x22b94",
      "contractAddress": null,
      "logs": [
        {
          "address": "0xc6ADeA8722C2DB1EFF810f429C3C09BA00E1F25C",
          "topics": [
            "0x8c5be1e5ebec7d5bd14f71427d1e84f3dd0314c0f7b2291e5b200ac8c7c3b925",
            "0x0000000000000000000000008d76db34ccca356fa805f5a277efff53aac5af88",
            "0x000000000000000000000000242f2d72f6b9f534b6182d911e719b7be7a81861"
          ],
          "data": "0x00000000000000000000000000000000000000000000003635c9adc5dea00000",
          "blockHash": "0x1b0abf2214b9097e895dea175a6e39e390b43bb081e56055cf674280aaf39282",
          "blockNumber": "0x188a404",
          "transactionHash": "0x90c1c297dbd1642922323cce238e6e87b97690d200918891576cd44385bcc7f8",
          "transactionIndex": "0x1",
          "logIndex": "0x0",
          "removed": false
        }
      ],
      "status": "0x1",
      "logsBloom": "0x00000000000000000000000000000000000000000000000000000000000000000000000000000000000000000000000000000000000000000000000004220000000000000000000000000000010000000000000000000000000000000000000100000000000000000000000000020000000000000000000000000000000000000000000000000000000000000000000000000000000000000000000000000000020040000000000000000000000000000000000000000000000000000000000080000000000000000000000000000000000000000000000000000000000000000010000000000000000000000000000200000000000000000000000000400000",
      "type": "0x0",
      "effectiveGasPrice": "0x5f5e100"
    },
    {
      "transactionHash": "0x96956d5d4a5e6026891dc17fb0d43fc815689a71c3bb8c0c39cd48582ca8d6c1",
      "transactionIndex": "0x1",
      "blockHash": "0xb4cf4ff5861eddbab9eb6022c1355cb35d12b163d577cd05535e1c1a6b2a3b15",
      "blockNumber": "0x188a408",
      "from": "0x8d76dB34CcCA356fA805f5A277EFFf53aaC5af88",
      "to": "0x242f2d72f6B9F534B6182d911e719b7be7a81861",
      "cumulativeGasUsed": "0x3013f",
      "gasUsed": "0x3013f",
      "contractAddress": null,
      "logs": [
        {
          "address": "0xc6ADeA8722C2DB1EFF810f429C3C09BA00E1F25C",
          "topics": [
            "0x8c5be1e5ebec7d5bd14f71427d1e84f3dd0314c0f7b2291e5b200ac8c7c3b925",
            "0x0000000000000000000000008d76db34ccca356fa805f5a277efff53aac5af88",
            "0x000000000000000000000000242f2d72f6b9f534b6182d911e719b7be7a81861"
          ],
          "data": "0x0000000000000000000000000000000000000000000000000000000000000000",
          "blockHash": "0xb4cf4ff5861eddbab9eb6022c1355cb35d12b163d577cd05535e1c1a6b2a3b15",
          "blockNumber": "0x188a408",
          "transactionHash": "0x96956d5d4a5e6026891dc17fb0d43fc815689a71c3bb8c0c39cd48582ca8d6c1",
          "transactionIndex": "0x1",
          "logIndex": "0x0",
          "removed": false
        },
        {
          "address": "0xc6ADeA8722C2DB1EFF810f429C3C09BA00E1F25C",
          "topics": [
            "0xddf252ad1be2c89b69c2b068fc378daa952ba7f163c4a11628f55a4df523b3ef",
            "0x0000000000000000000000008d76db34ccca356fa805f5a277efff53aac5af88",
            "0x000000000000000000000000242f2d72f6b9f534b6182d911e719b7be7a81861"
          ],
          "data": "0x00000000000000000000000000000000000000000000003635c9adc5dea00000",
          "blockHash": "0xb4cf4ff5861eddbab9eb6022c1355cb35d12b163d577cd05535e1c1a6b2a3b15",
          "blockNumber": "0x188a408",
          "transactionHash": "0x96956d5d4a5e6026891dc17fb0d43fc815689a71c3bb8c0c39cd48582ca8d6c1",
          "transactionIndex": "0x1",
          "logIndex": "0x1",
          "removed": false
        },
        {
          "address": "0x242f2d72f6B9F534B6182d911e719b7be7a81861",
          "topics": [
            "0x543ba50a5eec5e6178218e364b1d0f396157b3c8fa278522c2cb7fd99407d474"
          ],
          "data": "0x0000000000000000000000008d76db34ccca356fa805f5a277efff53aac5af8800000000000000000000000000000000000000000000003635c9adc5dea00000",
          "blockHash": "0xb4cf4ff5861eddbab9eb6022c1355cb35d12b163d577cd05535e1c1a6b2a3b15",
          "blockNumber": "0x188a408",
          "transactionHash": "0x96956d5d4a5e6026891dc17fb0d43fc815689a71c3bb8c0c39cd48582ca8d6c1",
          "transactionIndex": "0x1",
          "logIndex": "0x2",
          "removed": false
        }
      ],
      "status": "0x1",
      "logsBloom": "0x00000000000000000000000000000000000000000001020000000000000000000000000000000800000000000000000000000000000000000000000004220000000000080000000000000008010000000000000000000000000000000000000100000000000000000000002000020000000000000000000000000010000000000000000000000000000000000000000000000000000000000000000000000000020040000000000000000000000000000000000000000000001000000000000080000002000000000000000000000000000000000000000000000000000000000010000000000000000000000000000200000000000000000000000000400000",
      "type": "0x0",
      "effectiveGasPrice": "0x5f5e100"
    }
  ],
  "libraries": [],
  "pending": [],
  "returns": {},
  "timestamp": 1711102316,
  "chain": 421614,
  "commit": "c0e78ed"
}