{
  "transactions": [
    {
      "hash": "0x4507e7d7c9874e8e00b014b139945f70895b953d4250ff9ffe3ab52833832a1c",
      "transactionType": "CALL",
      "contractName": null,
      "contractAddress": "0xc6ADeA8722C2DB1EFF810f429C3C09BA00E1F25C",
      "function": "approve(address,uint256)",
      "arguments": [
        "0x15a2Ef9E37aD9163391667455BA0e3da70a58601",
        "100000000000000000000"
      ],
      "transaction": {
        "type": "0x00",
        "from": "0x8d76db34ccca356fa805f5a277efff53aac5af88",
        "to": "0xc6adea8722c2db1eff810f429c3c09ba00e1f25c",
        "gas": "0x2883c",
        "value": "0x0",
        "data": "0x095ea7b300000000000000000000000015a2ef9e37ad9163391667455ba0e3da70a586010000000000000000000000000000000000000000000000056bc75e2d63100000",
        "nonce": "0x16"
      },
      "additionalContracts": [],
      "isFixedGasLimit": false
    },
    {
      "hash": "0x17f8b41330e8d6b3ec39ba8963ab9d624d1beb33db776bd5b45e8c10c70745a2",
      "transactionType": "CALL",
      "contractName": null,
      "contractAddress": "0x15a2Ef9E37aD9163391667455BA0e3da70a58601",
      "function": "depositFunds(uint256)",
      "arguments": [
        "100000000000000000000"
      ],
      "transaction": {
        "type": "0x00",
        "from": "0x8d76db34ccca356fa805f5a277efff53aac5af88",
        "to": "0x15a2ef9e37ad9163391667455ba0e3da70a58601",
        "gas": "0x2a677",
        "value": "0x0",
        "data": "0x3b76594d0000000000000000000000000000000000000000000000056bc75e2d63100000",
        "nonce": "0x17"
      },
      "additionalContracts": [],
      "isFixedGasLimit": false
    }
  ],
  "receipts": [
    {
      "transactionHash": "0x4507e7d7c9874e8e00b014b139945f70895b953d4250ff9ffe3ab52833832a1c",
      "transactionIndex": "0x4",
      "blockHash": "0xbdaebc011081d38610a57798fbce3799d5144666d96f1bfcc6a2044ada340ecd",
      "blockNumber": "0x184d7b6",
      "from": "0x8d76dB34CcCA356fA805f5A277EFFf53aaC5af88",
      "to": "0xc6ADeA8722C2DB1EFF810f429C3C09BA00E1F25C",
      "cumulativeGasUsed": "0x3a51a2",
      "gasUsed": "0x1a62f",
      "contractAddress": null,
      "logs": [
        {
          "address": "0xc6ADeA8722C2DB1EFF810f429C3C09BA00E1F25C",
          "topics": [
            "0x8c5be1e5ebec7d5bd14f71427d1e84f3dd0314c0f7b2291e5b200ac8c7c3b925",
            "0x0000000000000000000000008d76db34ccca356fa805f5a277efff53aac5af88",
            "0x00000000000000000000000015a2ef9e37ad9163391667455ba0e3da70a58601"
          ],
          "data": "0x0000000000000000000000000000000000000000000000056bc75e2d63100000",
          "blockHash": "0xbdaebc011081d38610a57798fbce3799d5144666d96f1bfcc6a2044ada340ecd",
          "blockNumber": "0x184d7b6",
          "transactionHash": "0x4507e7d7c9874e8e00b014b139945f70895b953d4250ff9ffe3ab52833832a1c",
          "transactionIndex": "0x4",
          "logIndex": "0x38",
          "removed": false
        }
      ],
      "status": "0x1",
      "logsBloom": "0x00000000000000000000000000000000000000000000000000000000000000000000000000000000000000000000000000000000000000000000000004200000000000000000000000000000000000000000000000000000000000000000000000000000000000000000000000020010000000000000000000000000000000000000000000000000000000000000000000000000000000000000000000000000020040000000000000000000000000000000000000000000000000000000000080000000000000000000000000000000000000000000000000000000000000008010000000000000000000000000000200000000000000000000000000408000",
      "type": "0x0",
      "effectiveGasPrice": "0x5f5e100"
    },
    {
      "transactionHash": "0x17f8b41330e8d6b3ec39ba8963ab9d624d1beb33db776bd5b45e8c10c70745a2",
      "transactionIndex": "0x2",
      "blockHash": "0x7f8e000c29d65c0d028cca9a32991ee6e9bc031377ee9f0ae0c743778f4b0faa",
      "blockNumber": "0x184d7d2",
      "from": "0x8d76dB34CcCA356fA805f5A277EFFf53aaC5af88",
      "to": "0x15a2Ef9E37aD9163391667455BA0e3da70a58601",
      "cumulativeGasUsed": "0x77efa",
      "gasUsed": "0x29496",
      "contractAddress": null,
      "logs": [
        {
          "address": "0xc6ADeA8722C2DB1EFF810f429C3C09BA00E1F25C",
          "topics": [
            "0x8c5be1e5ebec7d5bd14f71427d1e84f3dd0314c0f7b2291e5b200ac8c7c3b925",
            "0x0000000000000000000000008d76db34ccca356fa805f5a277efff53aac5af88",
            "0x00000000000000000000000015a2ef9e37ad9163391667455ba0e3da70a58601"
          ],
          "data": "0x0000000000000000000000000000000000000000000000000000000000000000",
          "blockHash": "0x7f8e000c29d65c0d028cca9a32991ee6e9bc031377ee9f0ae0c743778f4b0faa",
          "blockNumber": "0x184d7d2",
          "transactionHash": "0x17f8b41330e8d6b3ec39ba8963ab9d624d1beb33db776bd5b45e8c10c70745a2",
          "transactionIndex": "0x2",
          "logIndex": "0x0",
          "removed": false
        },
        {
          "address": "0xc6ADeA8722C2DB1EFF810f429C3C09BA00E1F25C",
          "topics": [
            "0xddf252ad1be2c89b69c2b068fc378daa952ba7f163c4a11628f55a4df523b3ef",
            "0x0000000000000000000000008d76db34ccca356fa805f5a277efff53aac5af88",
            "0x00000000000000000000000015a2ef9e37ad9163391667455ba0e3da70a58601"
          ],
          "data": "0x0000000000000000000000000000000000000000000000056bc75e2d63100000",
          "blockHash": "0x7f8e000c29d65c0d028cca9a32991ee6e9bc031377ee9f0ae0c743778f4b0faa",
          "blockNumber": "0x184d7d2",
          "transactionHash": "0x17f8b41330e8d6b3ec39ba8963ab9d624d1beb33db776bd5b45e8c10c70745a2",
          "transactionIndex": "0x2",
          "logIndex": "0x1",
          "removed": false
        },
        {
          "address": "0x15a2Ef9E37aD9163391667455BA0e3da70a58601",
          "topics": [
            "0x543ba50a5eec5e6178218e364b1d0f396157b3c8fa278522c2cb7fd99407d474"
          ],
          "data": "0x0000000000000000000000008d76db34ccca356fa805f5a277efff53aac5af880000000000000000000000000000000000000000000000056bc75e2d63100000",
          "blockHash": "0x7f8e000c29d65c0d028cca9a32991ee6e9bc031377ee9f0ae0c743778f4b0faa",
          "blockNumber": "0x184d7d2",
          "transactionHash": "0x17f8b41330e8d6b3ec39ba8963ab9d624d1beb33db776bd5b45e8c10c70745a2",
          "transactionIndex": "0x2",
          "logIndex": "0x2",
          "removed": false
        }
      ],
      "status": "0x1",
      "logsBloom": "0x00000000000000000000000000000000000000000000020000000000000000000000000000000800000000000000000000000000000000000000000004200000000000000000000000000008000000000000000000000000000000000000000000000000000000000000000000020010000800000000000000000010008000000000000000000000000000000000000000000000000000000000000000000000020040000000000000000000000000000000000000000000001000000000000080000002000000000000000000000000000000000000400000000000000000008010000000000000000000000000000200000000000000000000000000408000",
      "type": "0x0",
      "effectiveGasPrice": "0x5f5e100"
    }
  ],
  "libraries": [],
  "pending": [],
  "returns": {},
  "timestamp": 1711035552,
  "chain": 421614,
  "commit": "1858226"
}