{
  "transactions": [
    {
      "hash": "0xf4f192ed2bc554f604d73f6db4d2f182a1d736bc218e80ccbe0a424044cd3cff",
      "transactionType": "CALL",
      "contractName": null,
      "contractAddress": "0xc6ADeA8722C2DB1EFF810f429C3C09BA00E1F25C",
      "function": "approve(address,uint256)",
      "arguments": [
        "0x2B6C6F362d21327b9bD29E9870bCB15BA5a3f5aa",
        "1000000000000000"
      ],
      "transaction": {
        "type": "0x00",
        "from": "0x8d76db34ccca356fa805f5a277efff53aac5af88",
        "to": "0xc6adea8722c2db1eff810f429c3c09ba00e1f25c",
        "gas": "0x4675b",
        "value": "0x0",
        "data": "0x095ea7b30000000000000000000000002b6c6f362d21327b9bd29e9870bcb15ba5a3f5aa00000000000000000000000000000000000000000000000000038d7ea4c68000",
        "nonce": "0x5"
      },
      "additionalContracts": [],
      "isFixedGasLimit": false
    },
    {
      "hash": "0xc2b542f6478e0805300b6fe47058c7af2957f14c65561e16196f168d2725baaa",
      "transactionType": "CALL",
      "contractName": null,
      "contractAddress": "0x2B6C6F362d21327b9bD29E9870bCB15BA5a3f5aa",
      "function": "depositFunds(uint256)",
      "arguments": [
        "100"
      ],
      "transaction": {
        "type": "0x00",
        "from": "0x8d76db34ccca356fa805f5a277efff53aac5af88",
        "to": "0x2b6c6f362d21327b9bd29e9870bcb15ba5a3f5aa",
        "gas": "0x38ec8",
        "value": "0x0",
        "data": "0x3b76594d0000000000000000000000000000000000000000000000000000000000000064",
        "nonce": "0x6"
      },
      "additionalContracts": [],
      "isFixedGasLimit": false
    }
  ],
  "receipts": [
    {
      "transactionHash": "0xf4f192ed2bc554f604d73f6db4d2f182a1d736bc218e80ccbe0a424044cd3cff",
      "transactionIndex": "0x1",
      "blockHash": "0x1671602090cb7eca9e7152a0befe4e931bea63aa93eb4c42ff54ba8f8c7561d1",
      "blockNumber": "0x18479e7",
      "from": "0x8d76dB34CcCA356fA805f5A277EFFf53aaC5af88",
      "to": "0xc6ADeA8722C2DB1EFF810f429C3C09BA00E1F25C",
      "cumulativeGasUsed": "0x2be17",
      "gasUsed": "0x2be17",
      "contractAddress": null,
      "logs": [
        {
          "address": "0xc6ADeA8722C2DB1EFF810f429C3C09BA00E1F25C",
          "topics": [
            "0x8c5be1e5ebec7d5bd14f71427d1e84f3dd0314c0f7b2291e5b200ac8c7c3b925",
            "0x0000000000000000000000008d76db34ccca356fa805f5a277efff53aac5af88",
            "0x0000000000000000000000002b6c6f362d21327b9bd29e9870bcb15ba5a3f5aa"
          ],
          "data": "0x00000000000000000000000000000000000000000000000000038d7ea4c68000",
          "blockHash": "0x1671602090cb7eca9e7152a0befe4e931bea63aa93eb4c42ff54ba8f8c7561d1",
          "blockNumber": "0x18479e7",
          "transactionHash": "0xf4f192ed2bc554f604d73f6db4d2f182a1d736bc218e80ccbe0a424044cd3cff",
          "transactionIndex": "0x1",
          "logIndex": "0x0",
          "removed": false
        }
      ],
      "status": "0x1",
      "logsBloom": "0x00000000000000000000000000000000000000000000000000000000000000000000000000000000000000000000000000000000000000000000002004200000000000000000000000000000000000000000000000000000000000000000000000000000000000000000400000020000000000000000000000000000000000000000000000000000000000000000000000000000000000000000000000000000020040000000000000000000000000000000000000000000000000000000000080000000000000000001000000000000000000000000000000000000000000000010000000000000000000000000000200000000000000000000000000400000",
      "type": "0x0",
      "effectiveGasPrice": "0x5f5e100"
    },
    {
      "transactionHash": "0xc2b542f6478e0805300b6fe47058c7af2957f14c65561e16196f168d2725baaa",
      "transactionIndex": "0x1",
      "blockHash": "0x61849022351a3bcede88d68049e6d4409c713bd0b6ccb5e65b2d798443372a80",
      "blockNumber": "0x18479ea",
      "from": "0x8d76dB34CcCA356fA805f5A277EFFf53aaC5af88",
      "to": "0x2B6C6F362d21327b9bD29E9870bCB15BA5a3f5aa",
      "cumulativeGasUsed": "0x221da",
      "gasUsed": "0x221da",
      "contractAddress": null,
      "logs": [],
      "status": "0x1",
      "logsBloom": "0x00000000000000000000000000000000000000000000000000000000000000000000000000000000000000000000000000000000000000000000000000000000000000000000000000000000000000000000000000000000000000000000000000000000000000000000000000000000000000000000000000000000000000000000000000000000000000000000000000000000000000000000000000000000000000000000000000000000000000000000000000000000000000000000000000000000000000000000000000000000000000000000000000000000000000000000000000000000000000000000000000000000000000000000000000000000",
      "type": "0x0",
      "effectiveGasPrice": "0x5f5e100"
    }
  ],
  "libraries": [],
  "pending": [],
  "returns": {},
  "timestamp": 1711029540,
  "chain": 421614,
  "commit": "4a6e76a"
}