{
  "transactions": [
    {
      "hash": "0xc5715b305b9366f87b92c3802ca107d5a7ba913c0862373b0e93738797b76686",
      "transactionType": "CALL",
      "contractName": null,
      "contractAddress": "0xc6ADeA8722C2DB1EFF810f429C3C09BA00E1F25C",
      "function": "approve(address,uint256)",
      "arguments": [
        "0x662C96c23d61156115F362c1698268F19B845898",
        "100000000000000000000"
      ],
      "transaction": {
        "type": "0x00",
        "from": "0x8d76db34ccca356fa805f5a277efff53aac5af88",
        "to": "0xc6adea8722c2db1eff810f429c3c09ba00e1f25c",
        "gas": "0x24c4e",
        "value": "0x0",
        "data": "0x095ea7b3000000000000000000000000662c96c23d61156115f362c1698268f19b8458980000000000000000000000000000000000000000000000056bc75e2d63100000",
        "nonce": "0x14"
      },
      "additionalContracts": [],
      "isFixedGasLimit": false
    },
    {
      "hash": "0x1f14c46e3faa521ee084074d238f1526505060e766d3434051696c94d8b22fb6",
      "transactionType": "CALL",
      "contractName": null,
      "contractAddress": "0x662C96c23d61156115F362c1698268F19B845898",
      "function": "depositFunds(uint256)",
      "arguments": [
        "100000000000000000000"
      ],
      "transaction": {
        "type": "0x00",
        "from": "0x8d76db34ccca356fa805f5a277efff53aac5af88",
        "to": "0x662c96c23d61156115f362c1698268f19b845898",
        "gas": "0x16d54",
        "value": "0x0",
        "data": "0x3b76594d0000000000000000000000000000000000000000000000056bc75e2d63100000",
        "nonce": "0x15"
      },
      "additionalContracts": [],
      "isFixedGasLimit": false
    }
  ],
  "receipts": [
    {
      "transactionHash": "0xc5715b305b9366f87b92c3802ca107d5a7ba913c0862373b0e93738797b76686",
      "transactionIndex": "0x4",
      "blockHash": "0x4984812079b56ec6c73d35cc4cb7ebe2663a8ea2cbb4fa4365dfe408ebc7e0a2",
      "blockNumber": "0x184be2c",
      "from": "0x8d76dB34CcCA356fA805f5A277EFFf53aaC5af88",
      "to": "0xc6ADeA8722C2DB1EFF810f429C3C09BA00E1F25C",
      "cumulativeGasUsed": "0xbfe9d",
      "gasUsed": "0x1731c",
      "contractAddress": null,
      "logs": [
        {
          "address": "0xc6ADeA8722C2DB1EFF810f429C3C09BA00E1F25C",
          "topics": [
            "0x8c5be1e5ebec7d5bd14f71427d1e84f3dd0314c0f7b2291e5b200ac8c7c3b925",
            "0x0000000000000000000000008d76db34ccca356fa805f5a277efff53aac5af88",
            "0x000000000000000000000000662c96c23d61156115f362c1698268f19b845898"
          ],
          "data": "0x0000000000000000000000000000000000000000000000056bc75e2d63100000",
          "blockHash": "0x4984812079b56ec6c73d35cc4cb7ebe2663a8ea2cbb4fa4365dfe408ebc7e0a2",
          "blockNumber": "0x184be2c",
          "transactionHash": "0xc5715b305b9366f87b92c3802ca107d5a7ba913c0862373b0e93738797b76686",
          "transactionIndex": "0x4",
          "logIndex": "0x6",
          "removed": false
        }
      ],
      "status": "0x1",
      "logsBloom": "0x00000000000000000000000000000000000000000000000000000000000000080000000000000000000000000000000000000000000000000000000004200000000000000000000000000000000000000000000000000000000000000000000000000000000000000000000000020000000010000000000000000000000000000000000000000000000000000000000000000000000000001000000000000000020040000000000000000000000000000000000000000000000000000000000080000000000000000000000000000000000000000000000000000000000000000010000000000000000000000000000200000000000000000000000000400000",
      "type": "0x0",
      "effectiveGasPrice": "0x5f5e100"
    },
    {
      "transactionHash": "0x1f14c46e3faa521ee084074d238f1526505060e766d3434051696c94d8b22fb6",
      "transactionIndex": "0x1",
      "blockHash": "0x124bcb56c3e9cea3066fa43364b4308270d944759055b9d01d488446ed32ab6d",
      "blockNumber": "0x184be2e",
      "from": "0x8d76dB34CcCA356fA805f5A277EFFf53aaC5af88",
      "to": "0x662C96c23d61156115F362c1698268F19B845898",
      "cumulativeGasUsed": "0x1d9fa",
      "gasUsed": "0x1d9fa",
      "contractAddress": null,
      "logs": [
        {
          "address": "0xc6ADeA8722C2DB1EFF810f429C3C09BA00E1F25C",
          "topics": [
            "0x8c5be1e5ebec7d5bd14f71427d1e84f3dd0314c0f7b2291e5b200ac8c7c3b925",
            "0x0000000000000000000000008d76db34ccca356fa805f5a277efff53aac5af88",
            "0x000000000000000000000000662c96c23d61156115f362c1698268f19b845898"
          ],
          "data": "0x0000000000000000000000000000000000000000000000000000000000000000",
          "blockHash": "0x124bcb56c3e9cea3066fa43364b4308270d944759055b9d01d488446ed32ab6d",
          "blockNumber": "0x184be2e",
          "transactionHash": "0x1f14c46e3faa521ee084074d238f1526505060e766d3434051696c94d8b22fb6",
          "transactionIndex": "0x1",
          "logIndex": "0x0",
          "removed": false
        },
        {
          "address": "0xc6ADeA8722C2DB1EFF810f429C3C09BA00E1F25C",
          "topics": [
            "0xddf252ad1be2c89b69c2b068fc378daa952ba7f163c4a11628f55a4df523b3ef",
            "0x0000000000000000000000008d76db34ccca356fa805f5a277efff53aac5af88",
            "0x000000000000000000000000662c96c23d61156115f362c1698268f19b845898"
          ],
          "data": "0x0000000000000000000000000000000000000000000000056bc75e2d63100000",
          "blockHash": "0x124bcb56c3e9cea3066fa43364b4308270d944759055b9d01d488446ed32ab6d",
          "blockNumber": "0x184be2e",
          "transactionHash": "0x1f14c46e3faa521ee084074d238f1526505060e766d3434051696c94d8b22fb6",
          "transactionIndex": "0x1",
          "logIndex": "0x1",
          "removed": false
        },
        {
          "address": "0x662C96c23d61156115F362c1698268F19B845898",
          "topics": [
            "0x543ba50a5eec5e6178218e364b1d0f396157b3c8fa278522c2cb7fd99407d474"
          ],
          "data": "0x0000000000000000000000008d76db34ccca356fa805f5a277efff53aac5af880000000000000000000000000000000000000000000000056bc75e2d63100000",
          "blockHash": "0x124bcb56c3e9cea3066fa43364b4308270d944759055b9d01d488446ed32ab6d",
          "blockNumber": "0x184be2e",
          "transactionHash": "0x1f14c46e3faa521ee084074d238f1526505060e766d3434051696c94d8b22fb6",
          "transactionIndex": "0x1",
          "logIndex": "0x2",
          "removed": false
        }
      ],
      "status": "0x1",
      "logsBloom": "0x00000000000000000000000000000000000000000000020000000000000000080000000000000800000000000000000000000100000000000000000004200000000000000000000000000008000000000000000000000000000000000000000000000000000000000000000000020000000010000000000000000010000000000000000000000000000000000000000000000000000000001000000000000000020040010000000000000000000000000000000000000000001000000000000080000002000000000000000000000000000000000000000000000000040000000010000000000000000000000000000200000000000000000000000000400000",
      "type": "0x0",
      "effectiveGasPrice": "0x5f5e100"
    }
  ],
  "libraries": [],
  "pending": [],
  "returns": {},
  "timestamp": 1711033904,
  "chain": 421614,
  "commit": "1858226"
}