{
  "transactions": [
    {
      "hash": "0x0b0575384e2aa87a60542f0d2309821fe273df790f51d7cbcbca8349071f6e80",
      "transactionType": "CALL",
      "contractName": null,
      "contractAddress": "0xc6ADeA8722C2DB1EFF810f429C3C09BA00E1F25C",
      "function": "approve(address,uint256)",
      "arguments": [
        "0x54bE4777F127019B4E3Fb9E31cf8FAB19287d662",
        "1000000000000000000000"
      ],
      "transaction": {
        "type": "0x00",
        "from": "0x8d76db34ccca356fa805f5a277efff53aac5af88",
        "to": "0xc6adea8722c2db1eff810f429c3c09ba00e1f25c",
        "gas": "0xaab54",
        "value": "0x0",
        "data": "0x095ea7b300000000000000000000000054be4777f127019b4e3fb9e31cf8fab19287d66200000000000000000000000000000000000000000000003635c9adc5dea00000",
        "nonce": "0x27"
      },
      "additionalContracts": [],
      "isFixedGasLimit": false
    },
    {
      "hash": "0xe7131b3e695dae1e338805e1d7b7d93634f94f99619bf4b796882d56a351b1c1",
      "transactionType": "CALL",
      "contractName": null,
      "contractAddress": "0x54bE4777F127019B4E3Fb9E31cf8FAB19287d662",
      "function": "depositFunds(uint256)",
      "arguments": [
        "1000000000000000000000"
      ],
      "transaction": {
        "type": "0x00",
        "from": "0x8d76db34ccca356fa805f5a277efff53aac5af88",
        "to": "0x54be4777f127019b4e3fb9e31cf8fab19287d662",
        "gas": "0x2a677",
        "value": "0x0",
        "data": "0x3b76594d00000000000000000000000000000000000000000000003635c9adc5dea00000",
        "nonce": "0x28"
      },
      "additionalContracts": [],
      "isFixedGasLimit": false
    }
  ],
  "receipts": [
    {
      "transactionHash": "0x0b0575384e2aa87a60542f0d2309821fe273df790f51d7cbcbca8349071f6e80",
      "transactionIndex": "0x4",
      "blockHash": "0x700f9b12eecf25b37b7cea1045f49157e6eb697488cc91a022560f5a5dc12cbe",
      "blockNumber": "0x185c574",
      "from": "0x8d76dB34CcCA356fA805f5A277EFFf53aaC5af88",
      "to": "0xc6ADeA8722C2DB1EFF810f429C3C09BA00E1F25C",
      "cumulativeGasUsed": "0x2f7a20",
      "gasUsed": "0x6672c",
      "contractAddress": null,
      "logs": [
        {
          "address": "0xc6ADeA8722C2DB1EFF810f429C3C09BA00E1F25C",
          "topics": [
            "0x8c5be1e5ebec7d5bd14f71427d1e84f3dd0314c0f7b2291e5b200ac8c7c3b925",
            "0x0000000000000000000000008d76db34ccca356fa805f5a277efff53aac5af88",
            "0x00000000000000000000000054be4777f127019b4e3fb9e31cf8fab19287d662"
          ],
          "data": "0x00000000000000000000000000000000000000000000003635c9adc5dea00000",
          "blockHash": "0x700f9b12eecf25b37b7cea1045f49157e6eb697488cc91a022560f5a5dc12cbe",
          "blockNumber": "0x185c574",
          "transactionHash": "0x0b0575384e2aa87a60542f0d2309821fe273df790f51d7cbcbca8349071f6e80",
          "transactionIndex": "0x4",
          "logIndex": "0xb",
          "removed": false
        }
      ],
      "status": "0x1",
      "logsBloom": "0x00000000000000000000000000000000000000000000000000000000000000000000000000004000000000000000000000000000000000000000000004200000000000000000000000000000000000000000000000100000000000000000000000001000000000000000000000020000000000000000000000000000000000000000000000000000000000000000000000000000000000000000000000000000020040000000000000000000000000000000000000000000000000000000000080000000000000000000000000000000000000000000000000000000000000000010000000000000000000000000000200000000000000000000000000400000",
      "type": "0x0",
      "effectiveGasPrice": "0x5f5e100"
    },
    {
      "transactionHash": "0xe7131b3e695dae1e338805e1d7b7d93634f94f99619bf4b796882d56a351b1c1",
      "transactionIndex": "0x1",
      "blockHash": "0x8a0e63be845cde50f20a8dfc6c18f9079d4759e5040f684b9d48551cb49cfcdb",
      "blockNumber": "0x185c577",
      "from": "0x8d76dB34CcCA356fA805f5A277EFFf53aaC5af88",
      "to": "0x54bE4777F127019B4E3Fb9E31cf8FAB19287d662",
      "cumulativeGasUsed": "0x673f3",
      "gasUsed": "0x673f3",
      "contractAddress": null,
      "logs": [
        {
          "address": "0xc6ADeA8722C2DB1EFF810f429C3C09BA00E1F25C",
          "topics": [
            "0x8c5be1e5ebec7d5bd14f71427d1e84f3dd0314c0f7b2291e5b200ac8c7c3b925",
            "0x0000000000000000000000008d76db34ccca356fa805f5a277efff53aac5af88",
            "0x00000000000000000000000054be4777f127019b4e3fb9e31cf8fab19287d662"
          ],
          "data": "0x0000000000000000000000000000000000000000000000000000000000000000",
          "blockHash": "0x8a0e63be845cde50f20a8dfc6c18f9079d4759e5040f684b9d48551cb49cfcdb",
          "blockNumber": "0x185c577",
          "transactionHash": "0xe7131b3e695dae1e338805e1d7b7d93634f94f99619bf4b796882d56a351b1c1",
          "transactionIndex": "0x1",
          "logIndex": "0x0",
          "removed": false
        },
        {
          "address": "0xc6ADeA8722C2DB1EFF810f429C3C09BA00E1F25C",
          "topics": [
            "0xddf252ad1be2c89b69c2b068fc378daa952ba7f163c4a11628f55a4df523b3ef",
            "0x0000000000000000000000008d76db34ccca356fa805f5a277efff53aac5af88",
            "0x00000000000000000000000054be4777f127019b4e3fb9e31cf8fab19287d662"
          ],
          "data": "0x00000000000000000000000000000000000000000000003635c9adc5dea00000",
          "blockHash": "0x8a0e63be845cde50f20a8dfc6c18f9079d4759e5040f684b9d48551cb49cfcdb",
          "blockNumber": "0x185c577",
          "transactionHash": "0xe7131b3e695dae1e338805e1d7b7d93634f94f99619bf4b796882d56a351b1c1",
          "transactionIndex": "0x1",
          "logIndex": "0x1",
          "removed": false
        },
        {
          "address": "0x54bE4777F127019B4E3Fb9E31cf8FAB19287d662",
          "topics": [
            "0x543ba50a5eec5e6178218e364b1d0f396157b3c8fa278522c2cb7fd99407d474"
          ],
          "data": "0x0000000000000000000000008d76db34ccca356fa805f5a277efff53aac5af8800000000000000000000000000000000000000000000003635c9adc5dea00000",
          "blockHash": "0x8a0e63be845cde50f20a8dfc6c18f9079d4759e5040f684b9d48551cb49cfcdb",
          "blockNumber": "0x185c577",
          "transactionHash": "0xe7131b3e695dae1e338805e1d7b7d93634f94f99619bf4b796882d56a351b1c1",
          "transactionIndex": "0x1",
          "logIndex": "0x2",
          "removed": false
        }
      ],
      "status": "0x1",
      "logsBloom": "0x00000000000000000000000000000000000000000000020000000000000000000000000000004800000000000000000000000000000000000000000004200000000000000000000004000008000000000000000000100000000000000000000000001000000000000000000000020000000000000000000000000110040000000000000000000000000000000000000000000000000000000000000000000000020040000000000000000000000000000000000000000000001000000000000080000002000000000000000000000000000000000000000000000000000000000010000000000000000000000000000200000000000000000000000000400000",
      "type": "0x0",
      "effectiveGasPrice": "0x5f5e100"
    }
  ],
  "libraries": [],
  "pending": [],
  "returns": {},
  "timestamp": 1711051116,
  "chain": 421614,
  "commit": "0aea9ec"
}