{
  "transactions": [
    {
      "hash": "0x211ba4d691ba970f5318dfc1e29f596edf2d43a4be8dea7c52601a5ee2724453",
      "transactionType": "CALL",
      "contractName": null,
      "contractAddress": "0xc6adea8722c2db1eff810f429c3c09ba00e1f25c",
      "function": "approve(address,uint256)",
      "arguments": [
        "0x79cb297c923430cfab2714648941553298444743",
        "1000000000000000000000"
      ],
      "transaction": {
        "from": "0x8d76db34ccca356fa805f5a277efff53aac5af88",
        "to": "0xc6adea8722c2db1eff810f429c3c09ba00e1f25c",
        "gas": "0x9423",
        "value": "0x0",
        "input": "0x095ea7b300000000000000000000000079cb297c923430cfab271464894155329844474300000000000000000000000000000000000000000000003635c9adc5dea00000",
        "nonce": "0x51",
        "chainId": "0x66eee",
        "accessList": null,
        "type": null
      },
      "additionalContracts": [],
      "isFixedGasLimit": false
    },
    {
      "hash": "0x5a2c1ed934a575f4f500327354a181f98e850dba9fef8f49c0d667982fe161ea",
      "transactionType": "CALL",
      "contractName": null,
      "contractAddress": "0x79cb297c923430cfab2714648941553298444743",
      "function": "depositFunds(uint256)",
      "arguments": [
        "1000000000000000000000"
      ],
      "transaction": {
        "from": "0x8d76db34ccca356fa805f5a277efff53aac5af88",
        "to": "0x79cb297c923430cfab2714648941553298444743",
        "gas": "0x2885d",
        "value": "0x0",
        "input": "0x3b76594d00000000000000000000000000000000000000000000003635c9adc5dea00000",
        "nonce": "0x52",
        "chainId": "0x66eee",
        "accessList": null,
        "type": null
      },
      "additionalContracts": [],
      "isFixedGasLimit": false
    }
  ],
  "receipts": [
    {
      "status": "0x1",
      "cumulativeGasUsed": "0xc3fc",
      "logs": [
        {
          "address": "0xc6adea8722c2db1eff810f429c3c09ba00e1f25c",
          "topics": [
            "0x8c5be1e5ebec7d5bd14f71427d1e84f3dd0314c0f7b2291e5b200ac8c7c3b925",
            "0x0000000000000000000000008d76db34ccca356fa805f5a277efff53aac5af88",
            "0x00000000000000000000000079cb297c923430cfab2714648941553298444743"
          ],
          "data": "0x00000000000000000000000000000000000000000000003635c9adc5dea00000",
          "blockHash": "0xa2b4c8fecd1528fa85d7ce16a0df8482020935731a3292bdbd8e7345d8683afa",
          "blockNumber": "0x21aa546",
          "transactionHash": "0x211ba4d691ba970f5318dfc1e29f596edf2d43a4be8dea7c52601a5ee2724453",
          "transactionIndex": "0x2",
          "logIndex": "0x0",
          "removed": false
        }
      ],
      "logsBloom": "0x00000000000000004000000000000000000000000000000000000000000000000000000000000000000000000000000000000000000000000000000004200000000000000000000000000000000000000000000000000000000000000000000000000000000000000000000000020000000000000000000000000000000000000000000000000000000000000000000000000000000000000000000000000000020040000000000000000000000000000000000000000000000000000000000080000000000000000000000000000000000000000000000000000000000000000010800000000000000000000000000200000000000000000100000000400000",
      "type": "0x0",
      "transactionHash": "0x211ba4d691ba970f5318dfc1e29f596edf2d43a4be8dea7c52601a5ee2724453",
      "transactionIndex": "0x2",
      "blockHash": "0xa2b4c8fecd1528fa85d7ce16a0df8482020935731a3292bdbd8e7345d8683afa",
      "blockNumber": "0x21aa546",
      "gasUsed": "0x71f4",
      "effectiveGasPrice": "0x1887b9dd0",
      "from": "0x8d76db34ccca356fa805f5a277efff53aac5af88",
      "to": "0xc6adea8722c2db1eff810f429c3c09ba00e1f25c",
      "contractAddress": null,
      "gasUsedForL1": "0x0",
      "l1BlockNumber": "0x5775bd"
    },
    {
      "status": "0x1",
      "cumulativeGasUsed": "0x1ed6a",
      "logs": [
        {
          "address": "0xc6adea8722c2db1eff810f429c3c09ba00e1f25c",
          "topics": [
            "0x8c5be1e5ebec7d5bd14f71427d1e84f3dd0314c0f7b2291e5b200ac8c7c3b925",
            "0x0000000000000000000000008d76db34ccca356fa805f5a277efff53aac5af88",
            "0x00000000000000000000000079cb297c923430cfab2714648941553298444743"
          ],
          "data": "0x0000000000000000000000000000000000000000000000000000000000000000",
          "blockHash": "0xd400304caa5a9f1bef904dd20bd515b20c5dac38bd1a8851c404f76c353b84f3",
          "blockNumber": "0x21aa548",
          "transactionHash": "0x5a2c1ed934a575f4f500327354a181f98e850dba9fef8f49c0d667982fe161ea",
          "transactionIndex": "0x1",
          "logIndex": "0x0",
          "removed": false
        },
        {
          "address": "0xc6adea8722c2db1eff810f429c3c09ba00e1f25c",
          "topics": [
            "0xddf252ad1be2c89b69c2b068fc378daa952ba7f163c4a11628f55a4df523b3ef",
            "0x0000000000000000000000008d76db34ccca356fa805f5a277efff53aac5af88",
            "0x00000000000000000000000079cb297c923430cfab2714648941553298444743"
          ],
          "data": "0x00000000000000000000000000000000000000000000003635c9adc5dea00000",
          "blockHash": "0xd400304caa5a9f1bef904dd20bd515b20c5dac38bd1a8851c404f76c353b84f3",
          "blockNumber": "0x21aa548",
          "transactionHash": "0x5a2c1ed934a575f4f500327354a181f98e850dba9fef8f49c0d667982fe161ea",
          "transactionIndex": "0x1",
          "logIndex": "0x1",
          "removed": false
        },
        {
          "address": "0x79cb297c923430cfab2714648941553298444743",
          "topics": [
            "0x543ba50a5eec5e6178218e364b1d0f396157b3c8fa278522c2cb7fd99407d474"
          ],
          "data": "0x0000000000000000000000008d76db34ccca356fa805f5a277efff53aac5af8800000000000000000000000000000000000000000000003635c9adc5dea00000",
          "blockHash": "0xd400304caa5a9f1bef904dd20bd515b20c5dac38bd1a8851c404f76c353b84f3",
          "blockNumber": "0x21aa548",
          "transactionHash": "0x5a2c1ed934a575f4f500327354a181f98e850dba9fef8f49c0d667982fe161ea",
          "transactionIndex": "0x1",
          "logIndex": "0x2",
          "removed": false
        }
      ],
      "logsBloom": "0x00000000000000004000000000000000000000000000020000000000000000000000000000000800000000000000000000000000000000000000000004200000000000000000000000000008000000000000000000000000000000000000000000000000000000000000000000020000000000000000000000000010000000100000000000000000000000000000000000000000000000000000000000000000020040000000000000000000000000000000000000000000001000000000000080000002000000000000000001000000000000000000000000000000000000000010800000000000000000000000000200000000000000000100000000400000",
      "type": "0x0",
      "transactionHash": "0x5a2c1ed934a575f4f500327354a181f98e850dba9fef8f49c0d667982fe161ea",
      "transactionIndex": "0x1",
      "blockHash": "0xd400304caa5a9f1bef904dd20bd515b20c5dac38bd1a8851c404f76c353b84f3",
      "blockNumber": "0x21aa548",
      "gasUsed": "0x1ed6a",
      "effectiveGasPrice": "0x189034460",
      "from": "0x8d76db34ccca356fa805f5a277efff53aac5af88",
      "to": "0x79cb297c923430cfab2714648941553298444743",
      "contractAddress": null,
      "gasUsedForL1": "0x0",
      "l1BlockNumber": "0x5775bd"
    }
  ],
  "libraries": [],
  "pending": [],
  "returns": {},
  "timestamp": 1713531008,
  "chain": 421614,
  "commit": "9f80fd6"
}