{
  "transactions": [
    {
      "hash": "0x7da67e54ddf0129a8722dc891f409991a95b42e1bcd0ef71469536fcf2c1d908",
      "transactionType": "CALL",
      "contractName": null,
      "contractAddress": "0xc6ADeA8722C2DB1EFF810f429C3C09BA00E1F25C",
      "function": "approve(address,uint256)",
      "arguments": [
        "0x662C96c23d61156115F362c1698268F19B845898",
        "1000000000000000"
      ],
      "transaction": {
        "type": "0x00",
        "from": "0x8d76db34ccca356fa805f5a277efff53aac5af88",
        "to": "0xc6adea8722c2db1eff810f429c3c09ba00e1f25c",
        "gas": "0x1dda3",
        "value": "0x0",
        "data": "0x095ea7b3000000000000000000000000662c96c23d61156115f362c1698268f19b84589800000000000000000000000000000000000000000000000000038d7ea4c68000",
        "nonce": "0x10"
      },
      "additionalContracts": [],
      "isFixedGasLimit": false
    },
    {
      "hash": "0xd120160cd57e3fc98221c8fd9fa07f210322a83b36cf6d6301eafcbdb2a45c71",
      "transactionType": "CALL",
      "contractName": null,
      "contractAddress": "0x662C96c23d61156115F362c1698268F19B845898",
      "function": "depositFunds(uint256)",
      "arguments": [
        "100000000"
      ],
      "transaction": {
        "type": "0x00",
        "from": "0x8d76db34ccca356fa805f5a277efff53aac5af88",
        "to": "0x662c96c23d61156115f362c1698268f19b845898",
        "gas": "0x3911b",
        "value": "0x0",
        "data": "0x3b76594d0000000000000000000000000000000000000000000000000000000005f5e100",
        "nonce": "0x11"
      },
      "additionalContracts": [],
      "isFixedGasLimit": false
    }
  ],
  "receipts": [
    {
      "transactionHash": "0x7da67e54ddf0129a8722dc891f409991a95b42e1bcd0ef71469536fcf2c1d908",
      "transactionIndex": "0x4",
      "blockHash": "0x9af264fb640d24e3caed7bd0bded54321b3fd70908e5026564f5e68defeddf4c",
      "blockNumber": "0x184bb22",
      "from": "0x8d76dB34CcCA356fA805f5A277EFFf53aaC5af88",
      "to": "0xc6ADeA8722C2DB1EFF810f429C3C09BA00E1F25C",
      "cumulativeGasUsed": "0x144650",
      "gasUsed": "0x13271",
      "contractAddress": null,
      "logs": [
        {
          "address": "0xc6ADeA8722C2DB1EFF810f429C3C09BA00E1F25C",
          "topics": [
            "0x8c5be1e5ebec7d5bd14f71427d1e84f3dd0314c0f7b2291e5b200ac8c7c3b925",
            "0x0000000000000000000000008d76db34ccca356fa805f5a277efff53aac5af88",
            "0x000000000000000000000000662c96c23d61156115f362c1698268f19b845898"
          ],
          "data": "0x00000000000000000000000000000000000000000000000000038d7ea4c68000",
          "blockHash": "0x9af264fb640d24e3caed7bd0bded54321b3fd70908e5026564f5e68defeddf4c",
          "blockNumber": "0x184bb22",
          "transactionHash": "0x7da67e54ddf0129a8722dc891f409991a95b42e1bcd0ef71469536fcf2c1d908",
          "transactionIndex": "0x4",
          "logIndex": "0x10",
          "removed": false
        }
      ],
      "status": "0x1",
      "logsBloom": "0x00000000000000000000000000000000000000000000000000000000000000080000000000000000000000000000000000000000000000000000000004200000000000000000000000000000000000000000000000000000000000000000000000000000000000000000000000020000000010000000000000000000000000000000000000000000000000000000000000000000000000001000000000000000020040000000000000000000000000000000000000000000000000000000000080000000000000000000000000000000000000000000000000000000000000000010000000000000000000000000000200000000000000000000000000400000",
      "type": "0x0",
      "effectiveGasPrice": "0x5f5e100"
    },
    {
      "transactionHash": "0xd120160cd57e3fc98221c8fd9fa07f210322a83b36cf6d6301eafcbdb2a45c71",
      "transactionIndex": "0x2",
      "blockHash": "0x1f9d9f52e0a00f4d52c50d57231ef4a2aca7f92d34e8556d1f828513c7503318",
      "blockNumber": "0x184bb26",
      "from": "0x8d76dB34CcCA356fA805f5A277EFFf53aaC5af88",
      "to": "0x662C96c23d61156115F362c1698268F19B845898",
      "cumulativeGasUsed": "0x578b9",
      "gasUsed": "0x27f50",
      "contractAddress": null,
      "logs": [
        {
          "address": "0xc6ADeA8722C2DB1EFF810f429C3C09BA00E1F25C",
          "topics": [
            "0x8c5be1e5ebec7d5bd14f71427d1e84f3dd0314c0f7b2291e5b200ac8c7c3b925",
            "0x0000000000000000000000008d76db34ccca356fa805f5a277efff53aac5af88",
            "0x000000000000000000000000662c96c23d61156115f362c1698268f19b845898"
          ],
          "data": "0x00000000000000000000000000000000000000000000000000038d7e9ed09f00",
          "blockHash": "0x1f9d9f52e0a00f4d52c50d57231ef4a2aca7f92d34e8556d1f828513c7503318",
          "blockNumber": "0x184bb26",
          "transactionHash": "0xd120160cd57e3fc98221c8fd9fa07f210322a83b36cf6d6301eafcbdb2a45c71",
          "transactionIndex": "0x2",
          "logIndex": "0x3",
          "removed": false
        },
        {
          "address": "0xc6ADeA8722C2DB1EFF810f429C3C09BA00E1F25C",
          "topics": [
            "0xddf252ad1be2c89b69c2b068fc378daa952ba7f163c4a11628f55a4df523b3ef",
            "0x0000000000000000000000008d76db34ccca356fa805f5a277efff53aac5af88",
            "0x000000000000000000000000662c96c23d61156115f362c1698268f19b845898"
          ],
          "data": "0x0000000000000000000000000000000000000000000000000000000005f5e100",
          "blockHash": "0x1f9d9f52e0a00f4d52c50d57231ef4a2aca7f92d34e8556d1f828513c7503318",
          "blockNumber": "0x184bb26",
          "transactionHash": "0xd120160cd57e3fc98221c8fd9fa07f210322a83b36cf6d6301eafcbdb2a45c71",
          "transactionIndex": "0x2",
          "logIndex": "0x4",
          "removed": false
        },
        {
          "address": "0x662C96c23d61156115F362c1698268F19B845898",
          "topics": [
            "0x543ba50a5eec5e6178218e364b1d0f396157b3c8fa278522c2cb7fd99407d474"
          ],
          "data": "0x0000000000000000000000008d76db34ccca356fa805f5a277efff53aac5af880000000000000000000000000000000000000000000000000000000005f5e100",
          "blockHash": "0x1f9d9f52e0a00f4d52c50d57231ef4a2aca7f92d34e8556d1f828513c7503318",
          "blockNumber": "0x184bb26",
          "transactionHash": "0xd120160cd57e3fc98221c8fd9fa07f210322a83b36cf6d6301eafcbdb2a45c71",
          "transactionIndex": "0x2",
          "logIndex": "0x5",
          "removed": false
        }
      ],
      "status": "0x1",
      "logsBloom": "0x00000000000000000000000000000000000000000000020000000000000000080000000000000800000000000000000000000100000000000000000004200000000000000000000000000008000000000000000000000000000000000000000000000000000000000000000000020000000010000000000000000010000000000000000000000000000000000000000000000000000000001000000000000000020040010000000000000000000000000000000000000000001000000000000080000002000000000000000000000000000000000000000000000000040000000010000000000000000000000000000200000000000000000000000000400000",
      "type": "0x0",
      "effectiveGasPrice": "0x5f5e100"
    }
  ],
  "libraries": [],
  "pending": [],
  "returns": {},
  "timestamp": 1711033710,
  "chain": 421614,
  "commit": "1858226"
}