{
  "transactions": [
    {
      "hash": "0xd63e66791071c71b6b872e7bd159c5c59197281ec33686538697c4c13072ed79",
      "transactionType": "CALL",
      "contractName": null,
      "contractAddress": "0xc6ADeA8722C2DB1EFF810f429C3C09BA00E1F25C",
      "function": "approve(address,uint256)",
      "arguments": [
        "0xf8563aB450eC1D1c19F02f6026A83E1F241E9704",
        "1000000000000000000000"
      ],
      "transaction": {
        "type": "0x00",
        "from": "0x8d76db34ccca356fa805f5a277efff53aac5af88",
        "to": "0xc6adea8722c2db1eff810f429c3c09ba00e1f25c",
        "gas": "0x3c76c",
        "value": "0x0",
        "data": "0x095ea7b3000000000000000000000000f8563ab450ec1d1c19f02f6026a83e1f241e970400000000000000000000000000000000000000000000003635c9adc5dea00000",
        "nonce": "0x2d"
      },
      "additionalContracts": [],
      "isFixedGasLimit": false
    },
    {
      "hash": "0xa35db803a7742ad42c720cc42dcfc88e92bbdd23bb72146097b812c103fed793",
      "transactionType": "CALL",
      "contractName": null,
      "contractAddress": "0xf8563aB450eC1D1c19F02f6026A83E1F241E9704",
      "function": "depositFunds(uint256)",
      "arguments": [
        "1000000000000000000000"
      ],
      "transaction": {
        "type": "0x00",
        "from": "0x8d76db34ccca356fa805f5a277efff53aac5af88",
        "to": "0xf8563ab450ec1d1c19f02f6026a83e1f241e9704",
        "gas": "0x2a677",
        "value": "0x0",
        "data": "0x3b76594d00000000000000000000000000000000000000000000003635c9adc5dea00000",
        "nonce": "0x2e"
      },
      "additionalContracts": [],
      "isFixedGasLimit": false
    }
  ],
  "receipts": [
    {
      "transactionHash": "0xd63e66791071c71b6b872e7bd159c5c59197281ec33686538697c4c13072ed79",
      "transactionIndex": "0x1",
      "blockHash": "0xd15a01bdc0ce915797bff7f5032e9d7b5a07b34ff5c546cde2a0e38924cc64e2",
      "blockNumber": "0x1889bb9",
      "from": "0x8d76dB34CcCA356fA805f5A277EFFf53aaC5af88",
      "to": "0xc6ADeA8722C2DB1EFF810f429C3C09BA00E1F25C",
      "cumulativeGasUsed": "0x260a9",
      "gasUsed": "0x260a9",
      "contractAddress": null,
      "logs": [
        {
          "address": "0xc6ADeA8722C2DB1EFF810f429C3C09BA00E1F25C",
          "topics": [
            "0x8c5be1e5ebec7d5bd14f71427d1e84f3dd0314c0f7b2291e5b200ac8c7c3b925",
            "0x0000000000000000000000008d76db34ccca356fa805f5a277efff53aac5af88",
            "0x000000000000000000000000f8563ab450ec1d1c19f02f6026a83e1f241e9704"
          ],
          "data": "0x00000000000000000000000000000000000000000000003635c9adc5dea00000",
          "blockHash": "0xd15a01bdc0ce915797bff7f5032e9d7b5a07b34ff5c546cde2a0e38924cc64e2",
          "blockNumber": "0x1889bb9",
          "transactionHash": "0xd63e66791071c71b6b872e7bd159c5c59197281ec33686538697c4c13072ed79",
          "transactionIndex": "0x1",
          "logIndex": "0x0",
          "removed": false
        }
      ],
      "status": "0x1",
      "logsBloom": "0x00000000000000000000000000000000000000000000000000000000000000000000000000000000000000000000000000000000000000000000000004200000000000000000000000000000000000000000000000000000000000000000000000000000000000000000000000020000000000000000000000000000000000000000000000000000000000000000000010000000000000000000000000000000020040000000000000000000000000000000000000000000000000000000000880000000000000000000000000000000000000000000000000000000000000000010000000000000000020000000000200000000000000000000000000400000",
      "type": "0x0",
      "effectiveGasPrice": "0x5f5e100"
    },
    {
      "transactionHash": "0xa35db803a7742ad42c720cc42dcfc88e92bbdd23bb72146097b812c103fed793",
      "transactionIndex": "0x2",
      "blockHash": "0x3f5e612abf7ea3209cd20e691aeea24dbd49ebe266116b6ebafb88da47677c6d",
      "blockNumber": "0x1889bc0",
      "from": "0x8d76dB34CcCA356fA805f5A277EFFf53aaC5af88",
      "to": "0xf8563aB450eC1D1c19F02f6026A83E1F241E9704",
      "cumulativeGasUsed": "0x18bed4",
      "gasUsed": "0x32c7d",
      "contractAddress": null,
      "logs": [
        {
          "address": "0xc6ADeA8722C2DB1EFF810f429C3C09BA00E1F25C",
          "topics": [
            "0x8c5be1e5ebec7d5bd14f71427d1e84f3dd0314c0f7b2291e5b200ac8c7c3b925",
            "0x0000000000000000000000008d76db34ccca356fa805f5a277efff53aac5af88",
            "0x000000000000000000000000f8563ab450ec1d1c19f02f6026a83e1f241e9704"
          ],
          "data": "0x0000000000000000000000000000000000000000000000000000000000000000",
          "blockHash": "0x3f5e612abf7ea3209cd20e691aeea24dbd49ebe266116b6ebafb88da47677c6d",
          "blockNumber": "0x1889bc0",
          "transactionHash": "0xa35db803a7742ad42c720cc42dcfc88e92bbdd23bb72146097b812c103fed793",
          "transactionIndex": "0x2",
          "logIndex": "0x1",
          "removed": false
        },
        {
          "address": "0xc6ADeA8722C2DB1EFF810f429C3C09BA00E1F25C",
          "topics": [
            "0xddf252ad1be2c89b69c2b068fc378daa952ba7f163c4a11628f55a4df523b3ef",
            "0x0000000000000000000000008d76db34ccca356fa805f5a277efff53aac5af88",
            "0x000000000000000000000000f8563ab450ec1d1c19f02f6026a83e1f241e9704"
          ],
          "data": "0x00000000000000000000000000000000000000000000003635c9adc5dea00000",
          "blockHash": "0x3f5e612abf7ea3209cd20e691aeea24dbd49ebe266116b6ebafb88da47677c6d",
          "blockNumber": "0x1889bc0",
          "transactionHash": "0xa35db803a7742ad42c720cc42dcfc88e92bbdd23bb72146097b812c103fed793",
          "transactionIndex": "0x2",
          "logIndex": "0x2",
          "removed": false
        },
        {
          "address": "0xf8563aB450eC1D1c19F02f6026A83E1F241E9704",
          "topics": [
            "0x543ba50a5eec5e6178218e364b1d0f396157b3c8fa278522c2cb7fd99407d474"
          ],
          "data": "0x0000000000000000000000008d76db34ccca356fa805f5a277efff53aac5af8800000000000000000000000000000000000000000000003635c9adc5dea00000",
          "blockHash": "0x3f5e612abf7ea3209cd20e691aeea24dbd49ebe266116b6ebafb88da47677c6d",
          "blockNumber": "0x1889bc0",
          "transactionHash": "0xa35db803a7742ad42c720cc42dcfc88e92bbdd23bb72146097b812c103fed793",
          "transactionIndex": "0x2",
          "logIndex": "0x3",
          "removed": false
        }
      ],
      "status": "0x1",
      "logsBloom": "0x00000000000000000000000000000000004000000000020000000000000000000000000000000800000000000000000000000000000000000000000004200000000000000000000000000008000000000000000000000000000000000000000000000000000000004000000000021000000000000000000000000010000000000000000000000000000000000000000010000000000000000000000000000000020040000000000000000000000000000000000000000000001000000000000880000002000000000000000000000000000000000000000000000000000000000010000000000000000020000000000200000000000000000000000000400000",
      "type": "0x0",
      "effectiveGasPrice": "0x5f5e100"
    }
  ],
  "libraries": [],
  "pending": [],
  "returns": {},
  "timestamp": 1711101774,
  "chain": 421614,
  "commit": "c0e78ed"
}