{
  "transactions": [
    {
      "hash": "0x2c9579a1e621203be1bdc5f7ae794db4aa43726f3d07fa9965399591bfb6579d",
      "transactionType": "CALL",
      "contractName": null,
      "contractAddress": "0xd988097fb8612cc24eec14542bc03424c656005f",
      "function": "approve(address,uint256)",
      "arguments": [
        "0xeb5D5af6a0ac3B64243858094d6b3b379B8772Aa",
        "100000000"
      ],
      "transaction": {
        "from": "0x74f6c83b58a9e69502c02752056af93c2bd8fc59",
        "to": "0xd988097fb8612cc24eec14542bc03424c656005f",
        "gas": "0xf94e",
        "value": "0x0",
        "input": "0x095ea7b3000000000000000000000000eb5d5af6a0ac3b64243858094d6b3b379b8772aa0000000000000000000000000000000000000000000000000000000005f5e100",
        "nonce": "0x1a",
        "chainId": "0x868b"
      },
      "additionalContracts": [],
      "isFixedGasLimit": false
    },
    {
      "hash": "0x63525558d7436d0e13a43be371e6274adc49294e1793271520efbf0b5978641d",
      "transactionType": "CALL",
      "contractName": null,
      "contractAddress": "0xeb5d5af6a0ac3b64243858094d6b3b379b8772aa",
      "function": "depositFunds(uint256)",
      "arguments": [
        "100000000"
      ],
      "transaction": {
        "from": "0x74f6c83b58a9e69502c02752056af93c2bd8fc59",
        "to": "0xeb5d5af6a0ac3b64243858094d6b3b379b8772aa",
        "gas": "0x2e982",
        "value": "0x0",
        "input": "0x3b76594d0000000000000000000000000000000000000000000000000000000005f5e100",
        "nonce": "0x1b",
        "chainId": "0x868b"
      },
      "additionalContracts": [],
      "isFixedGasLimit": false
    }
  ],
  "receipts": [
    {
      "status": "0x1",
      "cumulativeGasUsed": "0x19221f",
      "logs": [
        {
          "address": "0xd988097fb8612cc24eec14542bc03424c656005f",
          "topics": [
            "0x8c5be1e5ebec7d5bd14f71427d1e84f3dd0314c0f7b2291e5b200ac8c7c3b925",
            "0x00000000000000000000000074f6c83b58a9e69502c02752056af93c2bd8fc59",
            "0x000000000000000000000000eb5d5af6a0ac3b64243858094d6b3b379b8772aa"
          ],
          "data": "0x0000000000000000000000000000000000000000000000000000000005f5e100",
          "blockHash": "0x59c748e7eb15308540fe9671000c4a792f734619b12a3c73c9c57adf221b39f6",
          "blockNumber": "0x7a6a80",
          "transactionHash": "0x2c9579a1e621203be1bdc5f7ae794db4aa43726f3d07fa9965399591bfb6579d",
          "transactionIndex": "0x3",
          "logIndex": "0x0",
          "removed": false
        }
      ],
      "logsBloom": "0x00000000000000000000000000000000000800000000000000000000000000000000000000000000000000001000000000000000000000000000000000200000000000000000000000000010000000000000000000000000000000000000000000000000000000000000000000000000000000000002000000000000000000000000000000000000000000000000000000000000000000000000000000080000020000000000000000000000000000000200000000000000000000000000000000000000000000000000000000000000000000100000000000400000000000000010000000000000000000000000000000000040000000000000000000000000",
      "type": "0x2",
      "transactionHash": "0x2c9579a1e621203be1bdc5f7ae794db4aa43726f3d07fa9965399591bfb6579d",
      "transactionIndex": "0x3",
      "blockHash": "0x59c748e7eb15308540fe9671000c4a792f734619b12a3c73c9c57adf221b39f6",
      "blockNumber": "0x7a6a80",
      "gasUsed": "0xb47f",
      "effectiveGasPrice": "0x4e96",
      "from": "0x74f6c83b58a9e69502c02752056af93c2bd8fc59",
      "to": "0xd988097fb8612cc24eec14542bc03424c656005f",
      "contractAddress": null,
      "l1Fee": "0x4b6a76b6f9",
      "l1GasPrice": "0x1a9a0a44f",
      "l1GasUsed": "0x8dc"
    },
    {
      "status": "0x1",
      "cumulativeGasUsed": "0x2b9191",
      "logs": [
        {
          "address": "0xd988097fb8612cc24eec14542bc03424c656005f",
          "topics": [
            "0x8c5be1e5ebec7d5bd14f71427d1e84f3dd0314c0f7b2291e5b200ac8c7c3b925",
            "0x00000000000000000000000074f6c83b58a9e69502c02752056af93c2bd8fc59",
            "0x000000000000000000000000eb5d5af6a0ac3b64243858094d6b3b379b8772aa"
          ],
          "data": "0x0000000000000000000000000000000000000000000000000000000000000000",
          "blockHash": "0x686b44d671b2e53538af386748182754e9271244ca77f7d71842cccf0c398a96",
          "blockNumber": "0x7a6a84",
          "transactionHash": "0x63525558d7436d0e13a43be371e6274adc49294e1793271520efbf0b5978641d",
          "transactionIndex": "0x7",
          "logIndex": "0xd",
          "removed": false
        },
        {
          "address": "0xd988097fb8612cc24eec14542bc03424c656005f",
          "topics": [
            "0xddf252ad1be2c89b69c2b068fc378daa952ba7f163c4a11628f55a4df523b3ef",
            "0x00000000000000000000000074f6c83b58a9e69502c02752056af93c2bd8fc59",
            "0x000000000000000000000000eb5d5af6a0ac3b64243858094d6b3b379b8772aa"
          ],
          "data": "0x0000000000000000000000000000000000000000000000000000000005f5e100",
          "blockHash": "0x686b44d671b2e53538af386748182754e9271244ca77f7d71842cccf0c398a96",
          "blockNumber": "0x7a6a84",
          "transactionHash": "0x63525558d7436d0e13a43be371e6274adc49294e1793271520efbf0b5978641d",
          "transactionIndex": "0x7",
          "logIndex": "0xe",
          "removed": false
        },
        {
          "address": "0xeb5d5af6a0ac3b64243858094d6b3b379b8772aa",
          "topics": [
            "0x543ba50a5eec5e6178218e364b1d0f396157b3c8fa278522c2cb7fd99407d474"
          ],
          "data": "0x00000000000000000000000074f6c83b58a9e69502c02752056af93c2bd8fc590000000000000000000000000000000000000000000000000000000005f5e100",
          "blockHash": "0x686b44d671b2e53538af386748182754e9271244ca77f7d71842cccf0c398a96",
          "blockNumber": "0x7a6a84",
          "transactionHash": "0x63525558d7436d0e13a43be371e6274adc49294e1793271520efbf0b5978641d",
          "transactionIndex": "0x7",
          "logIndex": "0xf",
          "removed": false
        }
      ],
      "logsBloom": "0x00000000000000000000000000000000000800000000020000000000000000000000000000000800000000001000000000000000000000000000000000200000000000000000000000000018000000000000000000000000000000000000000000000000000000000000000000000000000000000002000000000010000000000000000000000000000000000000000000000000000004000000000000080000020000000000000000000000000000000200000000000000001000000000000000000002000000000000000000000000000000100002000000400000000000000010000000000000000000000000000000000040000000000000000020000000",
      "type": "0x2",
      "transactionHash": "0x63525558d7436d0e13a43be371e6274adc49294e1793271520efbf0b5978641d",
      "transactionIndex": "0x7",
      "blockHash": "0x686b44d671b2e53538af386748182754e9271244ca77f7d71842cccf0c398a96",
      "blockNumber": "0x7a6a84",
      "gasUsed": "0x21bbd",
      "effectiveGasPrice": "0x4e5f",
      "from": "0x74f6c83b58a9e69502c02752056af93c2bd8fc59",
      "to": "0xeb5d5af6a0ac3b64243858094d6b3b379b8772aa",
      "contractAddress": null,
      "l1Fee": "0x3ffa257fae",
      "l1GasPrice": "0x1a9a0a44f",
      "l1GasUsed": "0x784"
    }
  ],
  "libraries": [],
  "pending": [],
  "returns": {},
  "timestamp": 1716212908,
  "chain": 34443,
  "commit": "a9df513"
}