{
  "transactions": [
    {
      "hash": "0x694a8d648f4f4b54ba1d9f41cd569656f950f39ac7313dc0cb8265f69b4332d9",
      "transactionType": "CALL",
      "contractName": null,
      "contractAddress": "0xa66271c90e344c6be44C3ECe3856Ed9976136fF5",
      "function": "releaseFunds(bytes)",
      "arguments": [
        "0x000000000000000000000000242f2d72f6b9f534b6182d911e719b7be7a81861000000000000000000000000312ba46064e1fe5904362bfb0c52c38f20d3ef44000000000000000000000000def28f7d7f3700e30f403b6350fb54a358469874000000000000000000000000c6adea8722c2db1eff810f429c3c09ba00e1f25c0000000000000000000000000000000000000000000000000000000065fd6774"
      ],
      "transaction": {
        "type": "0x00",
        "from": "0x8d76db34ccca356fa805f5a277efff53aac5af88",
        "to": "0xa66271c90e344c6be44c3ece3856ed9976136ff5",
        "gas": "0x1bb58",
        "value": "0x0",
        "data": "0x06ee39e6000000000000000000000000000000000000000000000000000000000000002000000000000000000000000000000000000000000000000000000000000000a0000000000000000000000000242f2d72f6b9f534b6182d911e719b7be7a81861000000000000000000000000312ba46064e1fe5904362bfb0c52c38f20d3ef44000000000000000000000000def28f7d7f3700e30f403b6350fb54a358469874000000000000000000000000c6adea8722c2db1eff810f429c3c09ba00e1f25c0000000000000000000000000000000000000000000000000000000065fd6774",
        "nonce": "0x39"
      },
      "additionalContracts": [],
      "isFixedGasLimit": false
    }
  ],
  "receipts": [
    {
      "transactionHash": "0x694a8d648f4f4b54ba1d9f41cd569656f950f39ac7313dc0cb8265f69b4332d9",
      "transactionIndex": "0x3",
      "blockHash": "0x40e1e103da7862f443c7f4fa6df587f917450c7b4491daf00bdcad2fdc1fd69f",
      "blockNumber": "0x18901b3",
      "from": "0x8d76dB34CcCA356fA805f5A277EFFf53aaC5af88",
      "to": "0xa66271c90e344c6be44C3ECe3856Ed9976136fF5",
      "cumulativeGasUsed": "0x31e4c",
      "gasUsed": "0x12a56",
      "contractAddress": null,
      "logs": [
        {
          "address": "0xc6ADeA8722C2DB1EFF810f429C3C09BA00E1F25C",
          "topics": [
            "0xddf252ad1be2c89b69c2b068fc378daa952ba7f163c4a11628f55a4df523b3ef",
            "0x000000000000000000000000a66271c90e344c6be44c3ece3856ed9976136ff5",
            "0x000000000000000000000000def28f7d7f3700e30f403b6350fb54a358469874"
          ],
          "data": "0x000000000000000000000000000000000000000000000035c6c3f828a3800000",
          "blockHash": "0x40e1e103da7862f443c7f4fa6df587f917450c7b4491daf00bdcad2fdc1fd69f",
          "blockNumber": "0x18901b3",
          "transactionHash": "0x694a8d648f4f4b54ba1d9f41cd569656f950f39ac7313dc0cb8265f69b4332d9",
          "transactionIndex": "0x3",
          "logIndex": "0x3",
          "removed": false
        },
        {
          "address": "0xa66271c90e344c6be44C3ECe3856Ed9976136fF5",
          "topics": [
            "0xda7aab55d5a43448e4e0459383b1ab14489d047e66dccafc1cbb64c1f0b87861"
          ],
          "data": "0x0000000000000000000000008d76db34ccca356fa805f5a277efff53aac5af880000000000000000000000000000000000000000000000000000000000000060000000000000000000000000000000000000000000000035c6c3f828a380000000000000000000000000000000000000000000000000000000000000000000a0000000000000000000000000242f2d72f6b9f534b6182d911e719b7be7a81861000000000000000000000000312ba46064e1fe5904362bfb0c52c38f20d3ef44000000000000000000000000def28f7d7f3700e30f403b6350fb54a358469874000000000000000000000000c6adea8722c2db1eff810f429c3c09ba00e1f25c0000000000000000000000000000000000000000000000000000000065fd6774",
          "blockHash": "0x40e1e103da7862f443c7f4fa6df587f917450c7b4491daf00bdcad2fdc1fd69f",
          "blockNumber": "0x18901b3",
          "transactionHash": "0x694a8d648f4f4b54ba1d9f41cd569656f950f39ac7313dc0cb8265f69b4332d9",
          "transactionIndex": "0x3",
          "logIndex": "0x4",
          "removed": false
        }
      ],
      "status": "0x1",
      "logsBloom": "0x00000000000001000000000000000000000020000000000000000000000000000000000000000000000200000000000000400000000000100000000000000000000000000000000000000008040000000000000000000000000000000000000000000000000000000000000080000000000000000020000000000010000000100000000000000000000000000000000000000000000000000000000000000000000040000100000000000000000001000000000000000000000000000000000080000002000000000000000000000000000000000000800000000000000000000000000000000000000000000000000200000000000000000000000000000000",
      "type": "0x0",
      "effectiveGasPrice": "0x5f5e100"
    }
  ],
  "libraries": [],
  "pending": [],
  "returns": {},
  "timestamp": 1711108433,
  "chain": 421614,
  "commit": "477c44e"
}