{
  "transactions": [
    {
      "hash": "0x3eca0fbddc94648a981a14b09062480560e3e6ec647b81c624704f819e907aee",
      "transactionType": "CALL",
      "contractName": null,
      "contractAddress": "0x34a13c722e2b6247ea431e605a145ca0dedd2977",
      "function": "deployBankroll(address,uint256,uint256,bytes32)",
      "arguments": [
        "0xd988097fb8612cc24eeC14542bC03424c656005f",
        "8000",
        "10000000000",
        "0x3078300000000000000000000000000000000000000000000000000000000000"
      ],
      "transaction": {
        "from": "0x74f6c83b58a9e69502c02752056af93c2bd8fc59",
        "to": "0x34a13c722e2b6247ea431e605a145ca0dedd2977",
        "gas": "0xab9f5",
        "value": "0x0",
        "input": "0x14dd160e000000000000000000000000d988097fb8612cc24eec14542bc03424c656005f0000000000000000000000000000000000000000000000000000000000001f4000000000000000000000000000000000000000000000000000000002540be4003078300000000000000000000000000000000000000000000000000000000000",
        "nonce": "0xc",
        "chainId": "0x868b"
      },
      "additionalContracts": [
        {
          "transactionType": "CREATE2",
          "address": "0x3c046e16494cbea2e92ab6baa95d5a5e0fd66930",
          "initCode": "0x3d602d80600a3d3981f3363d3d373d3d3d363d73953c49d2a2678eb9c52d00601ff31579daad68855af43d82803e903d91602b57fd5bf3"
        }
      ],
      "isFixedGasLimit": false
    },
    {
      "hash": "0xa9f1b431916094e320b9cda5d7781d9d33407ee5e807568161b6f7f74931918d",
      "transactionType": "CALL",
      "contractName": null,
      "contractAddress": "0xfb75f39166c006254931d314a24397979440de73",
      "function": "addOperator(address)",
      "arguments": [
        "0x4F0498083a062CeC309db349c45d88e1c62E93f2"
      ],
      "transaction": {
        "from": "0x74f6c83b58a9e69502c02752056af93c2bd8fc59",
        "to": "0xfb75f39166c006254931d314a24397979440de73",
        "gas": "0x12f38",
        "value": "0x0",
        "input": "0x9870d7fe0000000000000000000000004f0498083a062cec309db349c45d88e1c62e93f2",
        "nonce": "0xd",
        "chainId": "0x868b"
      },
      "additionalContracts": [],
      "isFixedGasLimit": false
    },
    {
      "hash": "0xcca07850b84f90cb0c5eb2f433164c82e630383cf6ba4c2466aba44582375092",
      "transactionType": "CALL",
      "contractName": null,
      "contractAddress": "0xfb75f39166c006254931d314a24397979440de73",
      "function": "approveBankroll(address,uint256)",
      "arguments": [
        "0x3C046e16494cbeA2e92ab6BaA95d5a5e0fD66930",
        "650"
      ],
      "transaction": {
        "from": "0x74f6c83b58a9e69502c02752056af93c2bd8fc59",
        "to": "0xfb75f39166c006254931d314a24397979440de73",
        "gas": "0x1a7ce",
        "value": "0x0",
        "input": "0x9756e8df0000000000000000000000003c046e16494cbea2e92ab6baa95d5a5e0fd66930000000000000000000000000000000000000000000000000000000000000028a",
        "nonce": "0xe",
        "chainId": "0x868b"
      },
      "additionalContracts": [],
      "isFixedGasLimit": false
    },
    {
      "hash": "0x0742384f066b0e2ec9089711ba875a4e3e91af92078ac03c7acd95f13ef74ddf",
      "transactionType": "CALL",
      "contractName": null,
      "contractAddress": "0xfb75f39166c006254931d314a24397979440de73",
      "function": "setOperatorToBankroll(address,address)",
      "arguments": [
        "0x3C046e16494cbeA2e92ab6BaA95d5a5e0fD66930",
        "0x4F0498083a062CeC309db349c45d88e1c62E93f2"
      ],
      "transaction": {
        "from": "0x74f6c83b58a9e69502c02752056af93c2bd8fc59",
        "to": "0xfb75f39166c006254931d314a24397979440de73",
        "gas": "0x25d08",
        "value": "0x0",
        "input": "0xcb233b0a0000000000000000000000003c046e16494cbea2e92ab6baa95d5a5e0fd669300000000000000000000000004f0498083a062cec309db349c45d88e1c62e93f2",
        "nonce": "0xf",
        "chainId": "0x868b"
      },
      "additionalContracts": [],
      "isFixedGasLimit": false
    }
  ],
  "receipts": [
    {
      "status": "0x1",
      "cumulativeGasUsed": "0x313de9",
      "logs": [
        {
          "address": "0x3c046e16494cbea2e92ab6baa95d5a5e0fd66930",
          "topics": [
            "0x2f8788117e7eff1d82e926ec794901d17c78024a50270940304540a733656f0d",
            "0x0000000000000000000000000000000000000000000000000000000000000000",
            "0x000000000000000000000000021f02bfd602f3f7b0c250ff8d707121a81bd282",
            "0x00000000000000000000000034a13c722e2b6247ea431e605a145ca0dedd2977"
          ],
          "data": "0x",
          "blockHash": "0x5eb3169c4a29f2fae4f795c5a96674decc198d8b91d2c18ca33969229d8ae2b5",
          "blockNumber": "0x77bcae",
          "transactionHash": "0x3eca0fbddc94648a981a14b09062480560e3e6ec647b81c624704f819e907aee",
          "transactionIndex": "0x5",
          "logIndex": "0x3",
          "removed": false
        },
        {
          "address": "0x3c046e16494cbea2e92ab6baa95d5a5e0fd66930",
          "topics": [
            "0x2f8788117e7eff1d82e926ec794901d17c78024a50270940304540a733656f0d",
            "0xdf8b4c520ffe197c5343c6f5aec59570151ef9a492f2c624fd45ddde6135ec42",
            "0x000000000000000000000000d245c96879e3d7115ac7d9c667b3070a531cb439",
            "0x00000000000000000000000034a13c722e2b6247ea431e605a145ca0dedd2977"
          ],
          "data": "0x",
          "blockHash": "0x5eb3169c4a29f2fae4f795c5a96674decc198d8b91d2c18ca33969229d8ae2b5",
          "blockNumber": "0x77bcae",
          "transactionHash": "0x3eca0fbddc94648a981a14b09062480560e3e6ec647b81c624704f819e907aee",
          "transactionIndex": "0x5",
          "logIndex": "0x4",
          "removed": false
        },
        {
          "address": "0x3c046e16494cbea2e92ab6baa95d5a5e0fd66930",
          "topics": [
            "0x2f8788117e7eff1d82e926ec794901d17c78024a50270940304540a733656f0d",
            "0xdf8b4c520ffe197c5343c6f5aec59570151ef9a492f2c624fd45ddde6135ec42",
            "0x0000000000000000000000002a60d6b74e4097114c2450aecdeb450b2943b3e6",
            "0x00000000000000000000000034a13c722e2b6247ea431e605a145ca0dedd2977"
          ],
          "data": "0x",
          "blockHash": "0x5eb3169c4a29f2fae4f795c5a96674decc198d8b91d2c18ca33969229d8ae2b5",
          "blockNumber": "0x77bcae",
          "transactionHash": "0x3eca0fbddc94648a981a14b09062480560e3e6ec647b81c624704f819e907aee",
          "transactionIndex": "0x5",
          "logIndex": "0x5",
          "removed": false
        },
        {
          "address": "0x3c046e16494cbea2e92ab6baa95d5a5e0fd66930",
          "topics": [
            "0x2f8788117e7eff1d82e926ec794901d17c78024a50270940304540a733656f0d",
            "0x48a7db58bc0d0016705458e918f4ea84477e4f4c43c6d240db04e4db985c2082",
            "0x000000000000000000000000fb75f39166c006254931d314a24397979440de73",
            "0x00000000000000000000000034a13c722e2b6247ea431e605a145ca0dedd2977"
          ],
          "data": "0x",
          "blockHash": "0x5eb3169c4a29f2fae4f795c5a96674decc198d8b91d2c18ca33969229d8ae2b5",
          "blockNumber": "0x77bcae",
          "transactionHash": "0x3eca0fbddc94648a981a14b09062480560e3e6ec647b81c624704f819e907aee",
          "transactionIndex": "0x5",
          "logIndex": "0x6",
          "removed": false
        },
        {
          "address": "0x3c046e16494cbea2e92ab6baa95d5a5e0fd66930",
          "topics": [
            "0x7f26b83ff96e1f2b6a682f133852f6798a09c465da95921460cefb3847402498"
          ],
          "data": "0x0000000000000000000000000000000000000000000000000000000000000001",
          "blockHash": "0x5eb3169c4a29f2fae4f795c5a96674decc198d8b91d2c18ca33969229d8ae2b5",
          "blockNumber": "0x77bcae",
          "transactionHash": "0x3eca0fbddc94648a981a14b09062480560e3e6ec647b81c624704f819e907aee",
          "transactionIndex": "0x5",
          "logIndex": "0x7",
          "removed": false
        }
      ],
      "logsBloom": "0x00000004000000000000020000000000000000000000000000000000000000210000000002000000000000000000000042000000000000000000000008000000000000000000000000100000000000000000800000000002000000000000000000000000020000000000008000000800000000000000000000000000000000000000440000000000000000000010000000000000020080000000000000000000000000000000000400000000100400000000000000000400001000000000000000000000000000000000000202040000000000020000000100000000000020002001000000001000000000000000000000000000000000000000000000000000",
      "type": "0x2",
      "transactionHash": "0x3eca0fbddc94648a981a14b09062480560e3e6ec647b81c624704f819e907aee",
      "transactionIndex": "0x5",
      "blockHash": "0x5eb3169c4a29f2fae4f795c5a96674decc198d8b91d2c18ca33969229d8ae2b5",
      "blockNumber": "0x77bcae",
      "gasUsed": "0x7c40b",
      "effectiveGasPrice": "0x4b1",
      "from": "0x74f6c83b58a9e69502c02752056af93c2bd8fc59",
      "to": "0x34a13c722e2b6247ea431e605a145ca0dedd2977",
      "contractAddress": null,
      "l1Fee": "0x406f6d2c5b",
      "l1GasPrice": "0x13a517eb1",
      "l1GasUsed": "0xa40"
    },
    {
      "status": "0x1",
      "cumulativeGasUsed": "0x2a7a81",
      "logs": [],
      "logsBloom": "0x00000000000000000000000000000000000000000000000000000000000000000000000000000000000000000000000000000000000000000000000000000000000000000000000000000000000000000000000000000000000000000000000000000000000000000000000000000000000000000000000000000000000000000000000000000000000000000000000000000000000000000000000000000000000000000000000000000000000000000000000000000000000000000000000000000000000000000000000000000000000000000000000000000000000000000000000000000000000000000000000000000000000000000000000000000000",
      "type": "0x2",
      "transactionHash": "0xa9f1b431916094e320b9cda5d7781d9d33407ee5e807568161b6f7f74931918d",
      "transactionIndex": "0x4",
      "blockHash": "0xc96b5fac0f610ced545a44ab954b4a6cf1557a7cd9461e8b117a17cd04c7f732",
      "blockNumber": "0x77bcb2",
      "gasUsed": "0xdb87",
      "effectiveGasPrice": "0x4b1",
      "from": "0x74f6c83b58a9e69502c02752056af93c2bd8fc59",
      "to": "0xfb75f39166c006254931d314a24397979440de73",
      "contractAddress": null,
      "l1Fee": "0x349cef1427",
      "l1GasPrice": "0x13c7824cc",
      "l1GasUsed": "0x850"
    },
    {
      "status": "0x1",
      "cumulativeGasUsed": "0x3efcb4",
      "logs": [],
      "logsBloom": "0x00000000000000000000000000000000000000000000000000000000000000000000000000000000000000000000000000000000000000000000000000000000000000000000000000000000000000000000000000000000000000000000000000000000000000000000000000000000000000000000000000000000000000000000000000000000000000000000000000000000000000000000000000000000000000000000000000000000000000000000000000000000000000000000000000000000000000000000000000000000000000000000000000000000000000000000000000000000000000000000000000000000000000000000000000000000",
      "type": "0x2",
      "transactionHash": "0xcca07850b84f90cb0c5eb2f433164c82e630383cf6ba4c2466aba44582375092",
      "transactionIndex": "0x5",
      "blockHash": "0xaa3dca0cee4d6021fc564d62d09fadac4efcc04557549b8e34128dc04aba6799",
      "blockNumber": "0x77bcb6",
      "gasUsed": "0x132d4",
      "effectiveGasPrice": "0x4b1",
      "from": "0x74f6c83b58a9e69502c02752056af93c2bd8fc59",
      "to": "0xfb75f39166c006254931d314a24397979440de73",
      "contractAddress": null,
      "l1Fee": "0x38c4455260",
      "l1GasPrice": "0x13c7824cc",
      "l1GasUsed": "0x8f8"
    },
    {
      "status": "0x1",
      "cumulativeGasUsed": "0x3b9a06",
      "logs": [],
      "logsBloom": "0x00000000000000000000000000000000000000000000000000000000000000000000000000000000000000000000000000000000000000000000000000000000000000000000000000000000000000000000000000000000000000000000000000000000000000000000000000000000000000000000000000000000000000000000000000000000000000000000000000000000000000000000000000000000000000000000000000000000000000000000000000000000000000000000000000000000000000000000000000000000000000000000000000000000000000000000000000000000000000000000000000000000000000000000000000000000",
      "type": "0x2",
      "transactionHash": "0x0742384f066b0e2ec9089711ba875a4e3e91af92078ac03c7acd95f13ef74ddf",
      "transactionIndex": "0x4",
      "blockHash": "0x60b77d557d3af9aa60f33179e8cc7670a94c3c2b58e1791ec314b5ccd39198f3",
      "blockNumber": "0x77bcba",
      "gasUsed": "0x19db3",
      "effectiveGasPrice": "0x4b1",
      "from": "0x74f6c83b58a9e69502c02752056af93c2bd8fc59",
      "to": "0xfb75f39166c006254931d314a24397979440de73",
      "contractAddress": null,
      "l1Fee": "0x3bb09b4394",
      "l1GasPrice": "0x13026f689",
      "l1GasUsed": "0x9d0"
    }
  ],
  "libraries": [],
  "pending": [],
  "returns": {},
  "timestamp": 1715861784,
  "chain": 34443,
  "commit": "3c39574"
}