{
  "transactions": [
    {
      "hash": "0xc9385c61f59678c4a47375bd7ed2064613902a6a8c4a18f9e00b42a8f74b50b6",
      "transactionType": "CALL",
      "contractName": null,
      "contractAddress": "0x34a13c722e2b6247ea431e605a145ca0dedd2977",
      "function": "deployBankroll(address,uint256,uint256,bytes32)",
      "arguments": [
        "0xd988097fb8612cc24eeC14542bC03424c656005f",
        "8000",
        "10000000000",
        "0x3078310000000000000000000000000000000000000000000000000000000000"
      ],
      "transaction": {
        "from": "0x74f6c83b58a9e69502c02752056af93c2bd8fc59",
        "to": "0x34a13c722e2b6247ea431e605a145ca0dedd2977",
        "gas": "0xa016e",
        "value": "0x0",
        "input": "0x14dd160e000000000000000000000000d988097fb8612cc24eec14542bc03424c656005f0000000000000000000000000000000000000000000000000000000000001f4000000000000000000000000000000000000000000000000000000002540be4003078310000000000000000000000000000000000000000000000000000000000",
        "nonce": "0x15",
        "chainId": "0x868b"
      },
      "additionalContracts": [
        {
          "transactionType": "CREATE2",
          "address": "0xeb5d5af6a0ac3b64243858094d6b3b379b8772aa",
          "initCode": "0x3d602d80600a3d3981f3363d3d373d3d3d363d73953c49d2a2678eb9c52d00601ff31579daad68855af43d82803e903d91602b57fd5bf3"
        }
      ],
      "isFixedGasLimit": false
    },
    {
      "hash": "0x720bb19c429c327b4ae4476af42729c69c440efd225b665aa807ff997240596e",
      "transactionType": "CALL",
      "contractName": null,
      "contractAddress": "0xfb75f39166c006254931d314a24397979440de73",
      "function": "addOperator(address)",
      "arguments": [
        "0x32FaBBCc31B478DCdDD76200a49a9390b684ea2b"
      ],
      "transaction": {
        "from": "0x74f6c83b58a9e69502c02752056af93c2bd8fc59",
        "to": "0xfb75f39166c006254931d314a24397979440de73",
        "gas": "0x140fd",
        "value": "0x0",
        "input": "0x9870d7fe00000000000000000000000032fabbcc31b478dcddd76200a49a9390b684ea2b",
        "nonce": "0x16",
        "chainId": "0x868b"
      },
      "additionalContracts": [],
      "isFixedGasLimit": false
    },
    {
      "hash": "0x69b3d4ba1642a94813be1d7f4d4b3ca2c665790903942986ad4bf98905b2afbe",
      "transactionType": "CALL",
      "contractName": null,
      "contractAddress": "0xfb75f39166c006254931d314a24397979440de73",
      "function": "approveBankroll(address,uint256)",
      "arguments": [
        "0xeb5D5af6a0ac3B64243858094d6b3b379B8772Aa",
        "650"
      ],
      "transaction": {
        "from": "0x74f6c83b58a9e69502c02752056af93c2bd8fc59",
        "to": "0xfb75f39166c006254931d314a24397979440de73",
        "gas": "0x1a7ce",
        "value": "0x0",
        "input": "0x9756e8df000000000000000000000000eb5d5af6a0ac3b64243858094d6b3b379b8772aa000000000000000000000000000000000000000000000000000000000000028a",
        "nonce": "0x17",
        "chainId": "0x868b"
      },
      "additionalContracts": [],
      "isFixedGasLimit": false
    },
    {
      "hash": "0x6293b183f82108d76a51af14d1b78d5986998ed3fff8fcc78834c2b281b7c9d1",
      "transactionType": "CALL",
      "contractName": null,
      "contractAddress": "0xfb75f39166c006254931d314a24397979440de73",
      "function": "setOperatorToBankroll(address,address)",
      "arguments": [
        "0xeb5D5af6a0ac3B64243858094d6b3b379B8772Aa",
        "0x32FaBBCc31B478DCdDD76200a49a9390b684ea2b"
      ],
      "transaction": {
        "from": "0x74f6c83b58a9e69502c02752056af93c2bd8fc59",
        "to": "0xfb75f39166c006254931d314a24397979440de73",
        "gas": "0x23b5a",
        "value": "0x0",
        "input": "0xcb233b0a000000000000000000000000eb5d5af6a0ac3b64243858094d6b3b379b8772aa00000000000000000000000032fabbcc31b478dcddd76200a49a9390b684ea2b",
        "nonce": "0x18",
        "chainId": "0x868b"
      },
      "additionalContracts": [],
      "isFixedGasLimit": false
    }
  ],
  "receipts": [
    {
      "status": "0x1",
      "cumulativeGasUsed": "0x26991c",
      "logs": [
        {
          "address": "0xeb5d5af6a0ac3b64243858094d6b3b379b8772aa",
          "topics": [
            "0x2f8788117e7eff1d82e926ec794901d17c78024a50270940304540a733656f0d",
            "0x0000000000000000000000000000000000000000000000000000000000000000",
            "0x000000000000000000000000021f02bfd602f3f7b0c250ff8d707121a81bd282",
            "0x00000000000000000000000034a13c722e2b6247ea431e605a145ca0dedd2977"
          ],
          "data": "0x",
          "blockHash": "0x8fbe36346dd9adcf418cffa1057aedc9fbfb6b5c4fe50832c0d2a433ee74a176",
          "blockNumber": "0x7a6662",
          "transactionHash": "0xc9385c61f59678c4a47375bd7ed2064613902a6a8c4a18f9e00b42a8f74b50b6",
          "transactionIndex": "0x3",
          "logIndex": "0x10",
          "removed": false
        },
        {
          "address": "0xeb5d5af6a0ac3b64243858094d6b3b379b8772aa",
          "topics": [
            "0x2f8788117e7eff1d82e926ec794901d17c78024a50270940304540a733656f0d",
            "0xdf8b4c520ffe197c5343c6f5aec59570151ef9a492f2c624fd45ddde6135ec42",
            "0x000000000000000000000000d245c96879e3d7115ac7d9c667b3070a531cb439",
            "0x00000000000000000000000034a13c722e2b6247ea431e605a145ca0dedd2977"
          ],
          "data": "0x",
          "blockHash": "0x8fbe36346dd9adcf418cffa1057aedc9fbfb6b5c4fe50832c0d2a433ee74a176",
          "blockNumber": "0x7a6662",
          "transactionHash": "0xc9385c61f59678c4a47375bd7ed2064613902a6a8c4a18f9e00b42a8f74b50b6",
          "transactionIndex": "0x3",
          "logIndex": "0x11",
          "removed": false
        },
        {
          "address": "0xeb5d5af6a0ac3b64243858094d6b3b379b8772aa",
          "topics": [
            "0x2f8788117e7eff1d82e926ec794901d17c78024a50270940304540a733656f0d",
            "0xdf8b4c520ffe197c5343c6f5aec59570151ef9a492f2c624fd45ddde6135ec42",
            "0x0000000000000000000000002a60d6b74e4097114c2450aecdeb450b2943b3e6",
            "0x00000000000000000000000034a13c722e2b6247ea431e605a145ca0dedd2977"
          ],
          "data": "0x",
          "blockHash": "0x8fbe36346dd9adcf418cffa1057aedc9fbfb6b5c4fe50832c0d2a433ee74a176",
          "blockNumber": "0x7a6662",
          "transactionHash": "0xc9385c61f59678c4a47375bd7ed2064613902a6a8c4a18f9e00b42a8f74b50b6",
          "transactionIndex": "0x3",
          "logIndex": "0x12",
          "removed": false
        },
        {
          "address": "0xeb5d5af6a0ac3b64243858094d6b3b379b8772aa",
          "topics": [
            "0x2f8788117e7eff1d82e926ec794901d17c78024a50270940304540a733656f0d",
            "0x48a7db58bc0d0016705458e918f4ea84477e4f4c43c6d240db04e4db985c2082",
            "0x000000000000000000000000fb75f39166c006254931d314a24397979440de73",
            "0x00000000000000000000000034a13c722e2b6247ea431e605a145ca0dedd2977"
          ],
          "data": "0x",
          "blockHash": "0x8fbe36346dd9adcf418cffa1057aedc9fbfb6b5c4fe50832c0d2a433ee74a176",
          "blockNumber": "0x7a6662",
          "transactionHash": "0xc9385c61f59678c4a47375bd7ed2064613902a6a8c4a18f9e00b42a8f74b50b6",
          "transactionIndex": "0x3",
          "logIndex": "0x13",
          "removed": false
        },
        {
          "address": "0xeb5d5af6a0ac3b64243858094d6b3b379b8772aa",
          "topics": [
            "0x7f26b83ff96e1f2b6a682f133852f6798a09c465da95921460cefb3847402498"
          ],
          "data": "0x0000000000000000000000000000000000000000000000000000000000000001",
          "blockHash": "0x8fbe36346dd9adcf418cffa1057aedc9fbfb6b5c4fe50832c0d2a433ee74a176",
          "blockNumber": "0x7a6662",
          "transactionHash": "0xc9385c61f59678c4a47375bd7ed2064613902a6a8c4a18f9e00b42a8f74b50b6",
          "transactionIndex": "0x3",
          "logIndex": "0x14",
          "removed": false
        }
      ],
      "logsBloom": "0x00000004000000000000020000000000000000000000000000000000000000210000000002000000000000000000000042000000000000000000000000000000000000000000000000100000000000000000800000000000000000000000000000000000020000000000008000000800000000000000000000000000000000000000440000000000000000000010000000000000020084000000000000000000000000000000000400000000100400000000000000000400001000000000000000000000000000000000000202040000000000000002000100000000000020002001000000001000000000000000000000000000000000000000000020000000",
      "type": "0x2",
      "transactionHash": "0xc9385c61f59678c4a47375bd7ed2064613902a6a8c4a18f9e00b42a8f74b50b6",
      "transactionIndex": "0x3",
      "blockHash": "0x8fbe36346dd9adcf418cffa1057aedc9fbfb6b5c4fe50832c0d2a433ee74a176",
      "blockNumber": "0x7a6662",
      "gasUsed": "0x73e73",
      "effectiveGasPrice": "0x32de",
      "from": "0x74f6c83b58a9e69502c02752056af93c2bd8fc59",
      "to": "0x34a13c722e2b6247ea431e605a145ca0dedd2977",
      "contractAddress": null,
      "l1Fee": "0x4be245ea95",
      "l1GasPrice": "0x173dda9ba",
      "l1GasUsed": "0xa34"
    },
    {
      "status": "0x1",
      "cumulativeGasUsed": "0x23e186",
      "logs": [],
      "logsBloom": "0x00000000000000000000000000000000000000000000000000000000000000000000000000000000000000000000000000000000000000000000000000000000000000000000000000000000000000000000000000000000000000000000000000000000000000000000000000000000000000000000000000000000000000000000000000000000000000000000000000000000000000000000000000000000000000000000000000000000000000000000000000000000000000000000000000000000000000000000000000000000000000000000000000000000000000000000000000000000000000000000000000000000000000000000000000000000",
      "type": "0x2",
      "transactionHash": "0x720bb19c429c327b4ae4476af42729c69c440efd225b665aa807ff997240596e",
      "transactionIndex": "0x6",
      "blockHash": "0xbb8761e809bc845220df70368886cdfbf2e5c51249bf59499462ade15126dd2b",
      "blockNumber": "0x7a6666",
      "gasUsed": "0xdb7b",
      "effectiveGasPrice": "0x32d9",
      "from": "0x74f6c83b58a9e69502c02752056af93c2bd8fc59",
      "to": "0xfb75f39166c006254931d314a24397979440de73",
      "contractAddress": null,
      "l1Fee": "0x3bcb106c00",
      "l1GasPrice": "0x169b2b789",
      "l1GasUsed": "0x844"
    },
    {
      "status": "0x1",
      "cumulativeGasUsed": "0x200e5b",
      "logs": [],
      "logsBloom": "0x00000000000000000000000000000000000000000000000000000000000000000000000000000000000000000000000000000000000000000000000000000000000000000000000000000000000000000000000000000000000000000000000000000000000000000000000000000000000000000000000000000000000000000000000000000000000000000000000000000000000000000000000000000000000000000000000000000000000000000000000000000000000000000000000000000000000000000000000000000000000000000000000000000000000000000000000000000000000000000000000000000000000000000000000000000000",
      "type": "0x2",
      "transactionHash": "0x69b3d4ba1642a94813be1d7f4d4b3ca2c665790903942986ad4bf98905b2afbe",
      "transactionIndex": "0x4",
      "blockHash": "0x0650597c73088bff53798fadfd854f7a6d9487cae4aa36fb069753c2068c497f",
      "blockNumber": "0x7a666b",
      "gasUsed": "0x132d4",
      "effectiveGasPrice": "0x32d7",
      "from": "0x74f6c83b58a9e69502c02752056af93c2bd8fc59",
      "to": "0xfb75f39166c006254931d314a24397979440de73",
      "contractAddress": null,
      "l1Fee": "0x41da5d1da3",
      "l1GasPrice": "0x16f1fe8c7",
      "l1GasUsed": "0x8f8"
    },
    {
      "status": "0x1",
      "cumulativeGasUsed": "0xe2e279",
      "logs": [],
      "logsBloom": "0x00000000000000000000000000000000000000000000000000000000000000000000000000000000000000000000000000000000000000000000000000000000000000000000000000000000000000000000000000000000000000000000000000000000000000000000000000000000000000000000000000000000000000000000000000000000000000000000000000000000000000000000000000000000000000000000000000000000000000000000000000000000000000000000000000000000000000000000000000000000000000000000000000000000000000000000000000000000000000000000000000000000000000000000000000000000",
      "type": "0x2",
      "transactionHash": "0x6293b183f82108d76a51af14d1b78d5986998ed3fff8fcc78834c2b281b7c9d1",
      "transactionIndex": "0x9",
      "blockHash": "0x650f70cd283ffbd66959c8d9c55c9e99c30cb5f323a7a05f889e57753f91a6b1",
      "blockNumber": "0x7a666f",
      "gasUsed": "0x19da7",
      "effectiveGasPrice": "0x32bd",
      "from": "0x74f6c83b58a9e69502c02752056af93c2bd8fc59",
      "to": "0xfb75f39166c006254931d314a24397979440de73",
      "contractAddress": null,
      "l1Fee": "0x47b43b773d",
      "l1GasPrice": "0x16f1fe8c7",
      "l1GasUsed": "0x9c4"
    }
  ],
  "libraries": [],
  "pending": [],
  "returns": {},
  "timestamp": 1716210816,
  "chain": 34443,
  "commit": "449379b"
}