{
  "transactions": [
    {
      "hash": "0x72ba3f1bc04b185e58d03f27eaea5d8c5232ab19fb7809fbae729f8ff37c46f6",
      "transactionType": "CALL",
      "contractName": null,
      "contractAddress": "0x7E87520AB349abB3368Ce3EA594303B548fa9Edb",
      "function": "changeEscrowThreshold(uint256)",
      "arguments": [
        "10000000000000000000000"
      ],
      "transaction": {
        "type": "0x00",
        "from": "0x632a7cf953c3127606aadccd832e9d480b81f7c0",
        "to": "0x7e87520ab349abb3368ce3ea594303b548fa9edb",
        "gas": "0xaae7",
        "value": "0x0",
        "data": "0x55f6002400000000000000000000000000000000000000000000021e19e0c9bab2400000",
        "nonce": "0xa"
      },
      "additionalContracts": [],
      "isFixedGasLimit": false
    }
  ],
  "receipts": [
    {
      "transactionHash": "0x72ba3f1bc04b185e58d03f27eaea5d8c5232ab19fb7809fbae729f8ff37c46f6",
      "transactionIndex": "0x1",
      "blockHash": "0x3032887981756a078f04432b42ec47c2b3dd3b50e681950da4e16d43603e51e7",
      "blockNumber": "0x3b68f1d",
      "from": "0x632A7cf953C3127606aadcCD832e9d480b81F7C0",
      "to": "0x7E87520AB349abB3368Ce3EA594303B548fa9Edb",
      "cumulativeGasUsed": "0x1dfbd",
      "gasUsed": "0x7178",
      "contractAddress": null,
      "logs": [],
      "status": "0x1",
      "logsBloom": "0x00000000000000000000000000000000000000000000000000000000000000000000000000000000000000000000000000000000000000000000000000000000000000000000000000000000000000000000000000000000000000000000000000000000000000000000000000000000000000000000000000000000000000000000000000000000000000000000000000000000000000000000000000000000000000000000000000000000000000000000000000000000000000000000000000000000000000000000000000000000000000000000000000000000000000000000000000000000000000000000000000000000000000000000000000000000"
    }
  ],
  "libraries": [],
  "pending": [],
  "returns": {},
  "timestamp": 1714034962,
  "chain": 51,
  "multi": false,
  "commit": "1f0e831"
}