{
  "transactions": [
    {
      "hash": "0x66400a5fe94ee81396af7e4816e31bcc3f3f73cd9663e58eb2eb839aa9d7e916",
      "transactionType": "CALL",
      "contractName": null,
      "contractAddress": "0xa9226D46445435a051fd54266bbD122db6195ed5",
      "function": "changeEscrowThreshold(uint256)",
      "arguments": [
        "10000000000000000000000"
      ],
      "transaction": {
        "type": "0x00",
        "from": "0x632a7cf953c3127606aadccd832e9d480b81f7c0",
        "to": "0xa9226d46445435a051fd54266bbd122db6195ed5",
        "gas": "0xaae7",
        "value": "0x0",
        "data": "0x55f6002400000000000000000000000000000000000000000000021e19e0c9bab2400000",
        "nonce": "0xb"
      },
      "additionalContracts": [],
      "isFixedGasLimit": false
    }
  ],
  "receipts": [
    {
      "transactionHash": "0x66400a5fe94ee81396af7e4816e31bcc3f3f73cd9663e58eb2eb839aa9d7e916",
      "transactionIndex": "0x0",
      "blockHash": "0xa95030d2dfd0eb2174c70367502c1f711a914718af6430e9e4f7875dd633cbae",
      "blockNumber": "0x3b68f2b",
      "from": "0x632A7cf953C3127606aadcCD832e9d480b81F7C0",
      "to": "0xa9226D46445435a051fd54266bbD122db6195ed5",
      "cumulativeGasUsed": "0x7178",
      "gasUsed": "0x7178",
      "contractAddress": null,
      "logs": [],
      "status": "0x1",
      "logsBloom": "0x00000000000000000000000000000000000000000000000000000000000000000000000000000000000000000000000000000000000000000000000000000000000000000000000000000000000000000000000000000000000000000000000000000000000000000000000000000000000000000000000000000000000000000000000000000000000000000000000000000000000000000000000000000000000000000000000000000000000000000000000000000000000000000000000000000000000000000000000000000000000000000000000000000000000000000000000000000000000000000000000000000000000000000000000000000000"
    }
  ],
  "libraries": [],
  "pending": [],
  "returns": {},
  "timestamp": 1714034993,
  "chain": 51,
  "multi": false,
  "commit": "1f0e831"
}