{
  "transactions": [
    {
      "hash": "0x8bf8d8b7d4434bedfeecfa11e08998d5ba7fb81c1fedf7af6314d7f0ac829a83",
      "transactionType": "CALL",
      "contractName": null,
      "contractAddress": "0x0Ee7f2EB56ea60c07EdE80d47b1BAc9496b4d809",
      "function": "changeEscrowThreshold(uint256)",
      "arguments": [
        "10000000000000000000000"
      ],
      "transaction": {
        "type": "0x00",
        "from": "0x632a7cf953c3127606aadccd832e9d480b81f7c0",
        "to": "0x0ee7f2eb56ea60c07ede80d47b1bac9496b4d809",
        "gas": "0xaae7",
        "value": "0x0",
        "data": "0x55f6002400000000000000000000000000000000000000000000021e19e0c9bab2400000",
        "nonce": "0x9"
      },
      "additionalContracts": [],
      "isFixedGasLimit": false
    }
  ],
  "receipts": [
    {
      "transactionHash": "0x8bf8d8b7d4434bedfeecfa11e08998d5ba7fb81c1fedf7af6314d7f0ac829a83",
      "transactionIndex": "0x0",
      "blockHash": "0x919b918a268dbaa25650fee4e96911646fb887bebb8f05459178ac95a78224e3",
      "blockNumber": "0x3b68f0b",
      "from": "0x632A7cf953C3127606aadcCD832e9d480b81F7C0",
      "to": "0x0Ee7f2EB56ea60c07EdE80d47b1BAc9496b4d809",
      "cumulativeGasUsed": "0x7178",
      "gasUsed": "0x7178",
      "contractAddress": null,
      "logs": [],
      "status": "0x1",
      "logsBloom": "0x00000000000000000000000000000000000000000000000000000000000000000000000000000000000000000000000000000000000000000000000000000000000000000000000000000000000000000000000000000000000000000000000000000000000000000000000000000000000000000000000000000000000000000000000000000000000000000000000000000000000000000000000000000000000000000000000000000000000000000000000000000000000000000000000000000000000000000000000000000000000000000000000000000000000000000000000000000000000000000000000000000000000000000000000000000000"
    }
  ],
  "libraries": [],
  "pending": [],
  "returns": {},
  "timestamp": 1714034920,
  "chain": 51,
  "multi": false,
  "commit": "1f0e831"
}