{
  "transactions": [
    {
      "hash": "0xc13d2461860c9de2362bb147f06333d67a31348e5716f140d123d63dd54de486",
      "transactionType": "CALL",
      "contractName": null,
      "contractAddress": "0xfBA6CED88170e86DA9F49902055cF80A62F1AC4a",
      "function": "approve(address,uint256)",
      "arguments": [
        "0x35cDe3a4394e4E34F6B2377Dd42408da800a3a0e",
        "115792089237316195423570985008687907853269984665640564039457584007913129639935"
      ],
      "transaction": {
        "type": "0x00",
        "from": "0x6b663247a2ec9f90e9f45a6c50a96b8b027a4be0",
        "to": "0xfba6ced88170e86da9f49902055cf80a62f1ac4a",
        "gas": "0x10ab1",
        "value": "0x0",
        "data": "0x095ea7b300000000000000000000000035cde3a4394e4e34f6b2377dd42408da800a3a0effffffffffffffffffffffffffffffffffffffffffffffffffffffffffffffff",
        "nonce": "0x22"
      },
      "additionalContracts": [],
      "isFixedGasLimit": false
    }
  ],
  "receipts": [
    {
      "transactionHash": "0xc13d2461860c9de2362bb147f06333d67a31348e5716f140d123d63dd54de486",
      "transactionIndex": "0x1",
      "blockHash": "0xdf0389fd0627f3daaed4640989fddc289853f14a3b73c623d7dd80ba786fdc67",
      "blockNumber": "0x3883366",
      "from": "0x6b663247A2ec9F90e9F45A6c50a96b8B027A4be0",
      "to": "0xfBA6CED88170e86DA9F49902055cF80A62F1AC4a",
      "cumulativeGasUsed": "0xb987",
      "gasUsed": "0xb987",
      "contractAddress": null,
      "logs": [
        {
          "address": "0xfBA6CED88170e86DA9F49902055cF80A62F1AC4a",
          "topics": [
            "0x8c5be1e5ebec7d5bd14f71427d1e84f3dd0314c0f7b2291e5b200ac8c7c3b925",
            "0x0000000000000000000000006b663247a2ec9f90e9f45a6c50a96b8b027a4be0",
            "0x00000000000000000000000035cde3a4394e4e34f6b2377dd42408da800a3a0e"
          ],
          "data": "0xffffffffffffffffffffffffffffffffffffffffffffffffffffffffffffffff",
          "blockHash": "0xdf0389fd0627f3daaed4640989fddc289853f14a3b73c623d7dd80ba786fdc67",
          "blockNumber": "0x3883366",
          "transactionHash": "0xc13d2461860c9de2362bb147f06333d67a31348e5716f140d123d63dd54de486",
          "transactionIndex": "0x1",
          "logIndex": "0x1",
          "removed": false
        }
      ],
      "status": "0x1",
      "logsBloom": "0x00000000000000000000000000000000000000000000000000800000000000000000000000000000000000000000000000000000000000000000000000200000000000000000000000000000000000000000000000800000008000000000000000000000000000000000000000000000000000004000000000000000100008000000000000000000000000000000000000000000000000800000000000000000020000000000000000000000000000000000000000000000000000000000000000000000000002000000000000000000000000000000000000000000000000000210000000000000000000000000000000000000000000000000000000000000"
    }
  ],
  "libraries": [],
  "pending": [],
  "returns": {},
  "timestamp": 1706262340,
  "chain": 51,
  "multi": false,
  "commit": "a4f1474"
}