{
  "transactions": [
    {
      "hash": "0x9ab0d650a2ee51875e53a81bb4585c0e5f4f9deabb2a5b48f99da6eecdcf1c38",
      "transactionType": "CALL",
      "contractName": null,
      "contractAddress": "0xfBA6CED88170e86DA9F49902055cF80A62F1AC4a",
      "function": "approve(address,uint256)",
      "arguments": [
        "0xF2E2ef600507Ef844C6166BFB6c0dBE7A22F6eDa",
        "115792089237316195423570985008687907853269984665640564039457584007913129639935"
      ],
      "transaction": {
        "type": "0x00",
        "from": "0x6b663247a2ec9f90e9f45a6c50a96b8b027a4be0",
        "to": "0xfba6ced88170e86da9f49902055cf80a62f1ac4a",
        "gas": "0x10ab1",
        "value": "0x0",
        "data": "0x095ea7b3000000000000000000000000f2e2ef600507ef844c6166bfb6c0dbe7a22f6edaffffffffffffffffffffffffffffffffffffffffffffffffffffffffffffffff",
        "nonce": "0x24"
      },
      "additionalContracts": [],
      "isFixedGasLimit": false
    }
  ],
  "receipts": [],
  "libraries": [],
  "pending": [
    "0x9ab0d650a2ee51875e53a81bb4585c0e5f4f9deabb2a5b48f99da6eecdcf1c38"
  ],
  "returns": {},
  "timestamp": 1706262572,
  "chain": 51,
  "multi": false,
  "commit": "a4f1474"
}