{
  "transactions": [
    {
      "hash": "0x9ab0d650a2ee51875e53a81bb4585c0e5f4f9deabb2a5b48f99da6eecdcf1c38",
      "transactionType": "CALL",
      "contractName": null,
      "contractAddress": "0xfBA6CED88170e86DA9F49902055cF80A62F1AC4a",
      "function": "approve(address,uint256)",
      "arguments": [
        "0xF2E2ef600507Ef844C6166BFB6c0dBE7A22F6eDa",
        "115792089237316195423570985008687907853269984665640564039457584007913129639935"
      ],
      "transaction": {
        "type": "0x00",
        "from": "0x6b663247a2ec9f90e9f45a6c50a96b8b027a4be0",
        "to": "0xfba6ced88170e86da9f49902055cf80a62f1ac4a",
        "gas": "0x10ab1",
        "value": "0x0",
        "data": "0x095ea7b3000000000000000000000000f2e2ef600507ef844c6166bfb6c0dbe7a22f6edaffffffffffffffffffffffffffffffffffffffffffffffffffffffffffffffff",
        "nonce": "0x24"
      },
      "additionalContracts": [],
      "isFixedGasLimit": false
    }
  ],
  "receipts": [
    {
      "transactionHash": "0x9ab0d650a2ee51875e53a81bb4585c0e5f4f9deabb2a5b48f99da6eecdcf1c38",
      "transactionIndex": "0x1",
      "blockHash": "0x73a4a4e1fa468bac409062cb8f53f1827847b24ee9bc2da1d675b8d49f11bf0c",
      "blockNumber": "0x38833d2",
      "from": "0x6b663247A2ec9F90e9F45A6c50a96b8B027A4be0",
      "to": "0xfBA6CED88170e86DA9F49902055cF80A62F1AC4a",
      "cumulativeGasUsed": "0xb987",
      "gasUsed": "0xb987",
      "contractAddress": null,
      "logs": [
        {
          "address": "0xfBA6CED88170e86DA9F49902055cF80A62F1AC4a",
          "topics": [
            "0x8c5be1e5ebec7d5bd14f71427d1e84f3dd0314c0f7b2291e5b200ac8c7c3b925",
            "0x0000000000000000000000006b663247a2ec9f90e9f45a6c50a96b8b027a4be0",
            "0x000000000000000000000000f2e2ef600507ef844c6166bfb6c0dbe7a22f6eda"
          ],
          "data": "0xffffffffffffffffffffffffffffffffffffffffffffffffffffffffffffffff",
          "blockHash": "0x73a4a4e1fa468bac409062cb8f53f1827847b24ee9bc2da1d675b8d49f11bf0c",
          "blockNumber": "0x38833d2",
          "transactionHash": "0x9ab0d650a2ee51875e53a81bb4585c0e5f4f9deabb2a5b48f99da6eecdcf1c38",
          "transactionIndex": "0x1",
          "logIndex": "0x1",
          "removed": false
        }
      ],
      "status": "0x1",
      "logsBloom": "0x00000000000000000800000000000000000000000000000000000000000000000000000000000000000000000000000000000000000000000000000000200000000000000000000000000000000000040000000000800000000000000000000000000000000000000000000000000000000000004000000000000000100008000000000000000000000000000000000000000000000000000000000000000000020000000000000000000000000000000000000000000000000000000000000000000000000002000000000000000000000000000000000000000000000000000210000000000000000000100000000000000000000000000000000000000000"
    }
  ],
  "libraries": [],
  "pending": [],
  "returns": {},
  "timestamp": 1706262578,
  "chain": 51,
  "multi": false,
  "commit": "a4f1474"
}