{
  "transactions": [
    {
      "hash": "0xd5b7d38371f1b9c0ec1deb50396cefd8318002e71acea2ada86d83280d223aa9",
      "transactionType": "CALL",
      "contractName": null,
      "contractAddress": "0x0A21e4C3011671840A52Bccc54b33C2A6EF762Ea",
      "function": "setManager(address,bool)",
      "arguments": [
        "0xdC73aE43D50764099db7Bad5EFE61039eA1C985e",
        "true"
      ],
      "transaction": {
        "type": "0x00",
        "from": "0x1d424382e8e09cc6f8425c9f32d2c695e7698db7",
        "to": "0x0a21e4c3011671840a52bccc54b33c2a6ef762ea",
        "gas": "0xfa4d",
        "value": "0x0",
        "data": "0xa5e90eee000000000000000000000000dc73ae43d50764099db7bad5efe61039ea1c985e0000000000000000000000000000000000000000000000000000000000000001",
        "nonce": "0x25e"
      },
      "additionalContracts": [],
      "isFixedGasLimit": false
    }
  ],
  "receipts": [
    {
      "transactionHash": "0xd5b7d38371f1b9c0ec1deb50396cefd8318002e71acea2ada86d83280d223aa9",
      "transactionIndex": "0x1",
      "blockHash": "0xa8b4d281860e6edde6d1c5cba453fc8d444ba302af9d862f04c0d0339c012cfa",
      "blockNumber": "0x383adab",
      "from": "0x1d424382e8e09CC6F8425c9F32D2c695E7698db7",
      "to": "0x0A21e4C3011671840A52Bccc54b33C2A6EF762Ea",
      "cumulativeGasUsed": "0xb023",
      "gasUsed": "0xb023",
      "contractAddress": null,
      "logs": [],
      "status": "0x1",
      "logsBloom": "0x00000000000000000000000000000000000000000000000000000000000000000000000000000000000000000000000000000000000000000000000000000000000000000000000000000000000000000000000000000000000000000000000000000000000000000000000000000000000000000000000000000000000000000000000000000000000000000000000000000000000000000000000000000000000000000000000000000000000000000000000000000000000000000000000000000000000000000000000000000000000000000000000000000000000000000000000000000000000000000000000000000000000000000000000000000000"
    }
  ],
  "libraries": [],
  "pending": [],
  "returns": {},
  "timestamp": 1705593376,
  "chain": 51,
  "multi": false,
  "commit": "bd7e549"
}