{
  "transactions": [
    {
      "hash": "0xc13d2461860c9de2362bb147f06333d67a31348e5716f140d123d63dd54de486",
      "transactionType": "CALL",
      "contractName": null,
      "contractAddress": "0xfBA6CED88170e86DA9F49902055cF80A62F1AC4a",
      "function": "approve(address,uint256)",
      "arguments": [
        "0x35cDe3a4394e4E34F6B2377Dd42408da800a3a0e",
        "115792089237316195423570985008687907853269984665640564039457584007913129639935"
      ],
      "transaction": {
        "type": "0x00",
        "from": "0x6b663247a2ec9f90e9f45a6c50a96b8b027a4be0",
        "to": "0xfba6ced88170e86da9f49902055cf80a62f1ac4a",
        "gas": "0x10ab1",
        "value": "0x0",
        "data": "0x095ea7b300000000000000000000000035cde3a4394e4e34f6b2377dd42408da800a3a0effffffffffffffffffffffffffffffffffffffffffffffffffffffffffffffff",
        "nonce": "0x22"
      },
      "additionalContracts": [],
      "isFixedGasLimit": false
    }
  ],
  "receipts": [],
  "libraries": [],
  "pending": [
    "0xc13d2461860c9de2362bb147f06333d67a31348e5716f140d123d63dd54de486"
  ],
  "returns": {},
  "timestamp": 1706262334,
  "chain": 51,
  "multi": false,
  "commit": "a4f1474"
}