{
  "transactions": [
    {
      "hash": "0x5e8743c92f226e89ae4e578e629a561830412b78d445dd63769301e01dff96c9",
      "transactionType": "CALL",
      "contractName": null,
      "contractAddress": "0xb0F5c667e9aB3144cF6b2E9B03805a87955bdC07",
      "function": "approve(address,uint256)",
      "arguments": [
        "0x35cDe3a4394e4E34F6B2377Dd42408da800a3a0e",
        "115792089237316195423570985008687907853269984665640564039457584007913129639935"
      ],
      "transaction": {
        "type": "0x00",
        "from": "0x6b663247a2ec9f90e9f45a6c50a96b8b027a4be0",
        "to": "0xb0f5c667e9ab3144cf6b2e9b03805a87955bdc07",
        "gas": "0xfb46",
        "value": "0x0",
        "data": "0x095ea7b300000000000000000000000035cde3a4394e4e34f6b2377dd42408da800a3a0effffffffffffffffffffffffffffffffffffffffffffffffffffffffffffffff",
        "nonce": "0x20"
      },
      "additionalContracts": [],
      "isFixedGasLimit": false
    }
  ],
  "receipts": [],
  "libraries": [],
  "pending": [
    "0x5e8743c92f226e89ae4e578e629a561830412b78d445dd63769301e01dff96c9"
  ],
  "returns": {},
  "timestamp": 1706262289,
  "chain": 51,
  "multi": false,
  "commit": "a4f1474"
}