{
  "transactions": [
    {
      "hash": "0x124ddf867fc8957142d254ee9cc84e21f9d4495f532f4c82586b8284406fb5f4",
      "transactionType": "CALL",
      "contractName": null,
      "contractAddress": "0x51d77cb2d8a76350d3bb01d01d3e2bdfe9df42cc",
      "function": "grantRole(bytes32,address)",
      "arguments": [
        "0x1effbbff9c66c5e59634f24fe842750c60d18891155c32dd155fc2d661a4c86d",
        "0x3745f639898b064B0278574267Be7D7acDcd6C44"
      ],
      "transaction": {
        "from": "0x4015b6569369af4f17cd2da9e2f5e14a5dd162b4",
        "to": "0x51d77cb2d8a76350d3bb01d01d3e2bdfe9df42cc",
        "gas": "0x14eb3",
        "value": "0x0",
        "input": "0x2f2ff15d1effbbff9c66c5e59634f24fe842750c60d18891155c32dd155fc2d661a4c86d0000000000000000000000003745f639898b064b0278574267be7d7acdcd6c44",
        "nonce": "0x2c",
        "chainId": "0x13e31"
      },
      "additionalContracts": [],
      "isFixedGasLimit": false
    },
    {
      "hash": "0xa09f7d9447adaa451ba69d63e25d1e1ec4353d9400e03ddb94c604ea84213407",
      "transactionType": "CALL",
      "contractName": null,
      "contractAddress": "0xb762da363862a319e0a4ab93c3d9dbbc1a3be401",
      "function": "grantRole(bytes32,address)",
      "arguments": [
        "0x1effbbff9c66c5e59634f24fe842750c60d18891155c32dd155fc2d661a4c86d",
        "0x3745f639898b064B0278574267Be7D7acDcd6C44"
      ],
      "transaction": {
        "from": "0x4015b6569369af4f17cd2da9e2f5e14a5dd162b4",
        "to": "0xb762da363862a319e0a4ab93c3d9dbbc1a3be401",
        "gas": "0x14eb1",
        "value": "0x0",
        "input": "0x2f2ff15d1effbbff9c66c5e59634f24fe842750c60d18891155c32dd155fc2d661a4c86d0000000000000000000000003745f639898b064b0278574267be7d7acdcd6c44",
        "nonce": "0x2d",
        "chainId": "0x13e31"
      },
      "additionalContracts": [],
      "isFixedGasLimit": false
    },
    {
      "hash": "0xfa23036a7f58fe13841a874d8d5fc1163e0cc040d68e0d9542643c253bac4923",
      "transactionType": "CALL",
      "contractName": null,
      "contractAddress": "0x5f0d8a3e8e5990cfb23795645e6849b83fc60726",
      "function": "grantRole(bytes32,address)",
      "arguments": [
        "0x1effbbff9c66c5e59634f24fe842750c60d18891155c32dd155fc2d661a4c86d",
        "0x3745f639898b064B0278574267Be7D7acDcd6C44"
      ],
      "transaction": {
        "from": "0x4015b6569369af4f17cd2da9e2f5e14a5dd162b4",
        "to": "0x5f0d8a3e8e5990cfb23795645e6849b83fc60726",
        "gas": "0x14eb1",
        "value": "0x0",
        "input": "0x2f2ff15d1effbbff9c66c5e59634f24fe842750c60d18891155c32dd155fc2d661a4c86d0000000000000000000000003745f639898b064b0278574267be7d7acdcd6c44",
        "nonce": "0x2e",
        "chainId": "0x13e31"
      },
      "additionalContracts": [],
      "isFixedGasLimit": false
    },
    {
      "hash": "0x4ecc0b3aad254bcef35d4dd18987ce8c1048929044af32346c96912675396939",
      "transactionType": "CALL",
      "contractName": null,
      "contractAddress": "0xb762da363862a319e0a4ab93c3d9dbbc1a3be401",
      "function": "grantRole(bytes32,address)",
      "arguments": [
        "0xdf8b4c520ffe197c5343c6f5aec59570151ef9a492f2c624fd45ddde6135ec42",
        "0x3745f639898b064B0278574267Be7D7acDcd6C44"
      ],
      "transaction": {
        "from": "0x4015b6569369af4f17cd2da9e2f5e14a5dd162b4",
        "to": "0xb762da363862a319e0a4ab93c3d9dbbc1a3be401",
        "gas": "0x14eb1",
        "value": "0x0",
        "input": "0x2f2ff15ddf8b4c520ffe197c5343c6f5aec59570151ef9a492f2c624fd45ddde6135ec420000000000000000000000003745f639898b064b0278574267be7d7acdcd6c44",
        "nonce": "0x2f",
        "chainId": "0x13e31"
      },
      "additionalContracts": [],
      "isFixedGasLimit": false
    },
    {
      "hash": "0x13d0f88c0c861d0bf207f072dd5a37b46534964f798b96c8b7764359a896b710",
      "transactionType": "CALL",
      "contractName": null,
      "contractAddress": "0x5f0d8a3e8e5990cfb23795645e6849b83fc60726",
      "function": "grantRole(bytes32,address)",
      "arguments": [
        "0xdf8b4c520ffe197c5343c6f5aec59570151ef9a492f2c624fd45ddde6135ec42",
        "0x3745f639898b064B0278574267Be7D7acDcd6C44"
      ],
      "transaction": {
        "from": "0x4015b6569369af4f17cd2da9e2f5e14a5dd162b4",
        "to": "0x5f0d8a3e8e5990cfb23795645e6849b83fc60726",
        "gas": "0x14eb1",
        "value": "0x0",
        "input": "0x2f2ff15ddf8b4c520ffe197c5343c6f5aec59570151ef9a492f2c624fd45ddde6135ec420000000000000000000000003745f639898b064b0278574267be7d7acdcd6c44",
        "nonce": "0x30",
        "chainId": "0x13e31"
      },
      "additionalContracts": [],
      "isFixedGasLimit": false
    }
  ],
  "receipts": [
    {
      "status": "0x1",
      "cumulativeGasUsed": "0x10673b",
      "logs": [
        {
          "address": "0x51d77cb2d8a76350d3bb01d01d3e2bdfe9df42cc",
          "topics": [
            "0x2f8788117e7eff1d82e926ec794901d17c78024a50270940304540a733656f0d",
            "0x1effbbff9c66c5e59634f24fe842750c60d18891155c32dd155fc2d661a4c86d",
            "0x0000000000000000000000003745f639898b064b0278574267be7d7acdcd6c44",
            "0x0000000000000000000000004015b6569369af4f17cd2da9e2f5e14a5dd162b4"
          ],
          "data": "0x",
          "blockHash": "0x558d234597aa5e98f0f8e86247abae675eee3661de580b316f3ce5220e107f87",
          "blockNumber": "0x2a7a0a",
          "transactionHash": "0x124ddf867fc8957142d254ee9cc84e21f9d4495f532f4c82586b8284406fb5f4",
          "transactionIndex": "0xa",
          "logIndex": "0xb",
          "removed": false
        }
      ],
      "logsBloom": "0x02000004000004000000000000000000000000000000000000000000000000000000004000000000000000000000000000000000000000000000000000000002000800000000000000000000000000000000000000000000000000000000000000000000000000000000000000000000000000000000000000000000000000000000000000000000800000100000000000000000000000000000000000000000000000000000000000000000000000000000000000200100001000000000000000000000000000000000000000000000000000000000000100000000000000000000010000200000000400000000000000000000000000000000000000000000",
      "type": "0x0",
      "transactionHash": "0x124ddf867fc8957142d254ee9cc84e21f9d4495f532f4c82586b8284406fb5f4",
      "transactionIndex": "0xa",
      "blockHash": "0x558d234597aa5e98f0f8e86247abae675eee3661de580b316f3ce5220e107f87",
      "blockNumber": "0x2a7a0a",
      "gasUsed": "0xe4db",
      "effectiveGasPrice": "0xf4365",
      "from": "0x4015b6569369af4f17cd2da9e2f5e14a5dd162b4",
      "to": "0x51d77cb2d8a76350d3bb01d01d3e2bdfe9df42cc",
      "contractAddress": null,
      "l1Fee": "0xc24a1640571",
      "l1FeeScalar": "0.684",
      "l1GasPrice": "0x19dbfe932",
      "l1GasUsed": "0xafc"
    },
    {
      "status": "0x1",
      "cumulativeGasUsed": "0xfc2d8",
      "logs": [
        {
          "address": "0xb762da363862a319e0a4ab93c3d9dbbc1a3be401",
          "topics": [
            "0x2f8788117e7eff1d82e926ec794901d17c78024a50270940304540a733656f0d",
            "0x1effbbff9c66c5e59634f24fe842750c60d18891155c32dd155fc2d661a4c86d",
            "0x0000000000000000000000003745f639898b064b0278574267be7d7acdcd6c44",
            "0x0000000000000000000000004015b6569369af4f17cd2da9e2f5e14a5dd162b4"
          ],
          "data": "0x",
          "blockHash": "0xe697c8b16e62273afb6247064c2cf6b6a4db8d7acb846ff4985e09d3ff23ed5c",
          "blockNumber": "0x2a7a0e",
          "transactionHash": "0xa09f7d9447adaa451ba69d63e25d1e1ec4353d9400e03ddb94c604ea84213407",
          "transactionIndex": "0xb",
          "logIndex": "0xe",
          "removed": false
        }
      ],
      "logsBloom": "0x02000004000004000000000000000000000000000000000000000000000000000000004000000000000000000000000000000000000000000000000000000000000800000000000000000000000800000000000000000000000000000000000000000000000000000000000000000000040000000000000000000000000000000000000000000000000000000000000000000000000000000000000000000000000000000000000000000000000000000000000000200100001000000000000000000000000000000000000000000000000000000000000100000000001000000000010000200000000400000000000000000000000000000000000000000000",
      "type": "0x0",
      "transactionHash": "0xa09f7d9447adaa451ba69d63e25d1e1ec4353d9400e03ddb94c604ea84213407",
      "transactionIndex": "0xb",
      "blockHash": "0xe697c8b16e62273afb6247064c2cf6b6a4db8d7acb846ff4985e09d3ff23ed5c",
      "blockNumber": "0x2a7a0e",
      "gasUsed": "0xe4da",
      "effectiveGasPrice": "0xf4365",
      "from": "0x4015b6569369af4f17cd2da9e2f5e14a5dd162b4",
      "to": "0xb762da363862a319e0a4ab93c3d9dbbc1a3be401",
      "contractAddress": null,
      "l1Fee": "0xc24a1640571",
      "l1FeeScalar": "0.684",
      "l1GasPrice": "0x19dbfe932",
      "l1GasUsed": "0xafc"
    },
    {
      "status": "0x1",
      "cumulativeGasUsed": "0x2165e1",
      "logs": [
        {
          "address": "0x5f0d8a3e8e5990cfb23795645e6849b83fc60726",
          "topics": [
            "0x2f8788117e7eff1d82e926ec794901d17c78024a50270940304540a733656f0d",
            "0x1effbbff9c66c5e59634f24fe842750c60d18891155c32dd155fc2d661a4c86d",
            "0x0000000000000000000000003745f639898b064b0278574267be7d7acdcd6c44",
            "0x0000000000000000000000004015b6569369af4f17cd2da9e2f5e14a5dd162b4"
          ],
          "data": "0x",
          "blockHash": "0x07adeb18d703bd8e18ffed3c9735e932c6d2a31c29bf297686e34e9959fef488",
          "blockNumber": "0x2a7a12",
          "transactionHash": "0xfa23036a7f58fe13841a874d8d5fc1163e0cc040d68e0d9542643c253bac4923",
          "transactionIndex": "0xf",
          "logIndex": "0x21",
          "removed": false
        }
      ],
      "logsBloom": "0x02000004000004000000000000000000000000000000000000000000000000000000004000000000000000000000000000000000000000000000000000000000000800000000000000000000000000000000000000000000000000000000000000000000000000000000000000000000080000000000000000000000000000001000000000000000000000000000000000000000000000000000000000000000000000000000000000000000000000000000000000200100001000000100000000000000000000000000000000000000000000000000000100000000000000000000010000200000000400000000000000000000000000000000000000000000",
      "type": "0x0",
      "transactionHash": "0xfa23036a7f58fe13841a874d8d5fc1163e0cc040d68e0d9542643c253bac4923",
      "transactionIndex": "0xf",
      "blockHash": "0x07adeb18d703bd8e18ffed3c9735e932c6d2a31c29bf297686e34e9959fef488",
      "blockNumber": "0x2a7a12",
      "gasUsed": "0xe4da",
      "effectiveGasPrice": "0xf4365",
      "from": "0x4015b6569369af4f17cd2da9e2f5e14a5dd162b4",
      "to": "0x5f0d8a3e8e5990cfb23795645e6849b83fc60726",
      "contractAddress": null,
      "l1Fee": "0xd99d702f25e",
      "l1FeeScalar": "0.684",
      "l1GasPrice": "0x1d168a9c7",
      "l1GasUsed": "0xaf0"
    },
    {
      "status": "0x1",
      "cumulativeGasUsed": "0x1463c9",
      "logs": [
        {
          "address": "0xb762da363862a319e0a4ab93c3d9dbbc1a3be401",
          "topics": [
            "0x2f8788117e7eff1d82e926ec794901d17c78024a50270940304540a733656f0d",
            "0xdf8b4c520ffe197c5343c6f5aec59570151ef9a492f2c624fd45ddde6135ec42",
            "0x0000000000000000000000003745f639898b064b0278574267be7d7acdcd6c44",
            "0x0000000000000000000000004015b6569369af4f17cd2da9e2f5e14a5dd162b4"
          ],
          "data": "0x",
          "blockHash": "0x7f5a1893f5ac93048737b8c6bc8af7771cd67c2445f954d3be37f873d6563a90",
          "blockNumber": "0x2a7a16",
          "transactionHash": "0x4ecc0b3aad254bcef35d4dd18987ce8c1048929044af32346c96912675396939",
          "transactionIndex": "0x6",
          "logIndex": "0x10",
          "removed": false
        }
      ],
      "logsBloom": "0x02000004000004000000000000000000000000000000000000000000000000200000004000000000000000000000000000000000000000000000000000000000000800000000000000000000000800000000000000000000000000000000000000000000000000000000008000000000040000000000000000000000000000000000000000000000000000000000000000000000000000000000000000000000000000000000000000000000100000000000000000000000001000000000000000000000000000000000000000000000000000000000000100000000001000000000010000000000000400000000000000000000000000000000000000000000",
      "type": "0x0",
      "transactionHash": "0x4ecc0b3aad254bcef35d4dd18987ce8c1048929044af32346c96912675396939",
      "transactionIndex": "0x6",
      "blockHash": "0x7f5a1893f5ac93048737b8c6bc8af7771cd67c2445f954d3be37f873d6563a90",
      "blockNumber": "0x2a7a16",
      "gasUsed": "0xe4da",
      "effectiveGasPrice": "0xf4365",
      "from": "0x4015b6569369af4f17cd2da9e2f5e14a5dd162b4",
      "to": "0xb762da363862a319e0a4ab93c3d9dbbc1a3be401",
      "contractAddress": null,
      "l1Fee": "0xea8c0c3c684",
      "l1FeeScalar": "0.684",
      "l1GasPrice": "0x1f37b0134",
      "l1GasUsed": "0xafc"
    },
    {
      "status": "0x1",
      "cumulativeGasUsed": "0x5ff9a",
      "logs": [
        {
          "address": "0x5f0d8a3e8e5990cfb23795645e6849b83fc60726",
          "topics": [
            "0x2f8788117e7eff1d82e926ec794901d17c78024a50270940304540a733656f0d",
            "0xdf8b4c520ffe197c5343c6f5aec59570151ef9a492f2c624fd45ddde6135ec42",
            "0x0000000000000000000000003745f639898b064b0278574267be7d7acdcd6c44",
            "0x0000000000000000000000004015b6569369af4f17cd2da9e2f5e14a5dd162b4"
          ],
          "data": "0x",
          "blockHash": "0x4d649d66f99f197398bfa105f88048bb3378f3131661997cf7b602d37ef1d62e",
          "blockNumber": "0x2a7a19",
          "transactionHash": "0x13d0f88c0c861d0bf207f072dd5a37b46534964f798b96c8b7764359a896b710",
          "transactionIndex": "0x6",
          "logIndex": "0x3",
          "removed": false
        }
      ],
      "logsBloom": "0x02000004000004000000000000000000000000000000000000000000000000200000004000000000000000000000000000000000000000000000000000000000000800000000000000000000000000000000000000000000000000000000000000000000000000000000008000000000080000000000000000000000000000001000000000000000000000000000000000000000000000000000000000000000000000000000000000000000100000000000000000000000001000000100000000000000000000000000000000000000000000000000000100000000000000000000010000000000000400000000000000000000000000000000000000000000",
      "type": "0x0",
      "transactionHash": "0x13d0f88c0c861d0bf207f072dd5a37b46534964f798b96c8b7764359a896b710",
      "transactionIndex": "0x6",
      "blockHash": "0x4d649d66f99f197398bfa105f88048bb3378f3131661997cf7b602d37ef1d62e",
      "blockNumber": "0x2a7a19",
      "gasUsed": "0xe4da",
      "effectiveGasPrice": "0xf4365",
      "from": "0x4015b6569369af4f17cd2da9e2f5e14a5dd162b4",
      "to": "0x5f0d8a3e8e5990cfb23795645e6849b83fc60726",
      "contractAddress": null,
      "l1Fee": "0xea8c0c3c684",
      "l1FeeScalar": "0.684",
      "l1GasPrice": "0x1f37b0134",
      "l1GasUsed": "0xafc"
    }
  ],
  "libraries": [],
  "pending": [],
  "returns": {},
  "timestamp": 1714377359,
  "chain": 81457,
  "commit": "63bc345"
}