{
  "transactions": [
    {
      "hash": "0x15a199085eb6a234bf211c24580b697de0d7f6539c6b6dc3c2c88f7918c4308a",
      "transactionType": "CALL",
      "contractName": null,
      "contractAddress": "0x51d77cb2d8a76350d3bb01d01d3e2bdfe9df42cc",
      "function": "grantRole(bytes32,address)",
      "arguments": [
        "0x0000000000000000000000000000000000000000000000000000000000000000",
        "0x3745f639898b064B0278574267Be7D7acDcd6C44"
      ],
      "transaction": {
        "from": "0x4015b6569369af4f17cd2da9e2f5e14a5dd162b4",
        "to": "0x51d77cb2d8a76350d3bb01d01d3e2bdfe9df42cc",
        "gas": "0x14c81",
        "value": "0x0",
        "input": "0x2f2ff15d00000000000000000000000000000000000000000000000000000000000000000000000000000000000000003745f639898b064b0278574267be7d7acdcd6c44",
        "nonce": "0x32",
        "chainId": "0x13e31"
      },
      "additionalContracts": [],
      "isFixedGasLimit": false
    },
    {
      "hash": "0xd383601eb2978ae601f995d58432cd99297db6909586d0499d4183dc0f57118e",
      "transactionType": "CALL",
      "contractName": null,
      "contractAddress": "0xb762da363862a319e0a4ab93c3d9dbbc1a3be401",
      "function": "grantRole(bytes32,address)",
      "arguments": [
        "0x0000000000000000000000000000000000000000000000000000000000000000",
        "0x3745f639898b064B0278574267Be7D7acDcd6C44"
      ],
      "transaction": {
        "from": "0x4015b6569369af4f17cd2da9e2f5e14a5dd162b4",
        "to": "0xb762da363862a319e0a4ab93c3d9dbbc1a3be401",
        "gas": "0x14c80",
        "value": "0x0",
        "input": "0x2f2ff15d00000000000000000000000000000000000000000000000000000000000000000000000000000000000000003745f639898b064b0278574267be7d7acdcd6c44",
        "nonce": "0x33",
        "chainId": "0x13e31"
      },
      "additionalContracts": [],
      "isFixedGasLimit": false
    },
    {
      "hash": "0xa61acbe99db3df956a00a4effba2b0217c508f4fc68f728fd56e92ee309d345f",
      "transactionType": "CALL",
      "contractName": null,
      "contractAddress": "0x5f0d8a3e8e5990cfb23795645e6849b83fc60726",
      "function": "grantRole(bytes32,address)",
      "arguments": [
        "0x0000000000000000000000000000000000000000000000000000000000000000",
        "0x3745f639898b064B0278574267Be7D7acDcd6C44"
      ],
      "transaction": {
        "from": "0x4015b6569369af4f17cd2da9e2f5e14a5dd162b4",
        "to": "0x5f0d8a3e8e5990cfb23795645e6849b83fc60726",
        "gas": "0x14c80",
        "value": "0x0",
        "input": "0x2f2ff15d00000000000000000000000000000000000000000000000000000000000000000000000000000000000000003745f639898b064b0278574267be7d7acdcd6c44",
        "nonce": "0x34",
        "chainId": "0x13e31"
      },
      "additionalContracts": [],
      "isFixedGasLimit": false
    },
    {
      "hash": "0x6f09ceb10b7c95ef3d7d415bc736abd8785adb02aa29580f1c69a511c12d5979",
      "transactionType": "CALL",
      "contractName": null,
      "contractAddress": "0xb762da363862a319e0a4ab93c3d9dbbc1a3be401",
      "function": "grantRole(bytes32,address)",
      "arguments": [
        "0xdf8b4c520ffe197c5343c6f5aec59570151ef9a492f2c624fd45ddde6135ec42",
        "0x3745f639898b064B0278574267Be7D7acDcd6C44"
      ],
      "transaction": {
        "from": "0x4015b6569369af4f17cd2da9e2f5e14a5dd162b4",
        "to": "0xb762da363862a319e0a4ab93c3d9dbbc1a3be401",
        "gas": "0xcfa3",
        "value": "0x0",
        "input": "0x2f2ff15ddf8b4c520ffe197c5343c6f5aec59570151ef9a492f2c624fd45ddde6135ec420000000000000000000000003745f639898b064b0278574267be7d7acdcd6c44",
        "nonce": "0x35",
        "chainId": "0x13e31"
      },
      "additionalContracts": [],
      "isFixedGasLimit": false
    },
    {
      "hash": "0x33bd211ee8aa9a7fba5a3dcb0cc73953477c6aa1165ec08392519231b0b634fa",
      "transactionType": "CALL",
      "contractName": null,
      "contractAddress": "0x5f0d8a3e8e5990cfb23795645e6849b83fc60726",
      "function": "grantRole(bytes32,address)",
      "arguments": [
        "0xdf8b4c520ffe197c5343c6f5aec59570151ef9a492f2c624fd45ddde6135ec42",
        "0x3745f639898b064B0278574267Be7D7acDcd6C44"
      ],
      "transaction": {
        "from": "0x4015b6569369af4f17cd2da9e2f5e14a5dd162b4",
        "to": "0x5f0d8a3e8e5990cfb23795645e6849b83fc60726",
        "gas": "0xcfa3",
        "value": "0x0",
        "input": "0x2f2ff15ddf8b4c520ffe197c5343c6f5aec59570151ef9a492f2c624fd45ddde6135ec420000000000000000000000003745f639898b064b0278574267be7d7acdcd6c44",
        "nonce": "0x36",
        "chainId": "0x13e31"
      },
      "additionalContracts": [],
      "isFixedGasLimit": false
    }
  ],
  "receipts": [
    {
      "status": "0x1",
      "cumulativeGasUsed": "0x15e9cf",
      "logs": [
        {
          "address": "0x51d77cb2d8a76350d3bb01d01d3e2bdfe9df42cc",
          "topics": [
            "0x2f8788117e7eff1d82e926ec794901d17c78024a50270940304540a733656f0d",
            "0x0000000000000000000000000000000000000000000000000000000000000000",
            "0x0000000000000000000000003745f639898b064b0278574267be7d7acdcd6c44",
            "0x0000000000000000000000004015b6569369af4f17cd2da9e2f5e14a5dd162b4"
          ],
          "data": "0x",
          "blockHash": "0x7e493f52a9d0a77dcd3eb499541bfb181385c621bb6db52508603cf40cc5e29a",
          "blockNumber": "0x325b6e",
          "transactionHash": "0x15a199085eb6a234bf211c24580b697de0d7f6539c6b6dc3c2c88f7918c4308a",
          "transactionIndex": "0x6",
          "logIndex": "0x20",
          "removed": false
        }
      ],
      "logsBloom": "0x02000004000004000000000000000000000000000000000000000000000000000000004000000000000000000000000000000000000000000000000000000002000800000000000000000000000000000000000000000000000000000000000000000000020000000000000000000800000000000000000000000000000000000000000000000000800000100000000000000000000000000000000000000000000000000000000000000000000000000000000000000000001000000000000000000000000000000000000000000000000000000000000100000000000020000000010000000000000400000000000000000000000000000000000000000000",
      "type": "0x0",
      "transactionHash": "0x15a199085eb6a234bf211c24580b697de0d7f6539c6b6dc3c2c88f7918c4308a",
      "transactionIndex": "0x6",
      "blockHash": "0x7e493f52a9d0a77dcd3eb499541bfb181385c621bb6db52508603cf40cc5e29a",
      "blockNumber": "0x325b6e",
      "gasUsed": "0xe35b",
      "effectiveGasPrice": "0xf44ab",
      "from": "0x4015b6569369af4f17cd2da9e2f5e14a5dd162b4",
      "to": "0x51d77cb2d8a76350d3bb01d01d3e2bdfe9df42cc",
      "contractAddress": null,
      "l1Fee": "0x73ff08aa2a4",
      "l1FeeScalar": "0.684",
      "l1GasPrice": "0x11f8230d2",
      "l1GasUsed": "0x970"
    },
    {
      "status": "0x1",
      "cumulativeGasUsed": "0x176875",
      "logs": [
        {
          "address": "0xb762da363862a319e0a4ab93c3d9dbbc1a3be401",
          "topics": [
            "0x2f8788117e7eff1d82e926ec794901d17c78024a50270940304540a733656f0d",
            "0x0000000000000000000000000000000000000000000000000000000000000000",
            "0x0000000000000000000000003745f639898b064b0278574267be7d7acdcd6c44",
            "0x0000000000000000000000004015b6569369af4f17cd2da9e2f5e14a5dd162b4"
          ],
          "data": "0x",
          "blockHash": "0xee90a841f90d11e3bd6b923a76a9ed6d03f60fe184f73635ef470e80e4b43365",
          "blockNumber": "0x325b72",
          "transactionHash": "0xd383601eb2978ae601f995d58432cd99297db6909586d0499d4183dc0f57118e",
          "transactionIndex": "0x7",
          "logIndex": "0x28",
          "removed": false
        }
      ],
      "logsBloom": "0x02000004000004000000000000000000000000000000000000000000000000000000004000000000000000000000000000000000000000000000000000000000000800000000000000000000000800000000000000000000000000000000000000000000020000000000000000000800040000000000000000000000000000000000000000000000000000000000000000000000000000000000000000000000000000000000000000000000000000000000000000000000001000000000000000000000000000000000000000000000000000000000000100000000001020000000010000000000000400000000000000000000000000000000000000000000",
      "type": "0x0",
      "transactionHash": "0xd383601eb2978ae601f995d58432cd99297db6909586d0499d4183dc0f57118e",
      "transactionIndex": "0x7",
      "blockHash": "0xee90a841f90d11e3bd6b923a76a9ed6d03f60fe184f73635ef470e80e4b43365",
      "blockNumber": "0x325b72",
      "gasUsed": "0xe35a",
      "effectiveGasPrice": "0xf44ab",
      "from": "0x4015b6569369af4f17cd2da9e2f5e14a5dd162b4",
      "to": "0xb762da363862a319e0a4ab93c3d9dbbc1a3be401",
      "contractAddress": null,
      "l1Fee": "0x74230dd0294",
      "l1FeeScalar": "0.684",
      "l1GasPrice": "0x11e6f4312",
      "l1GasUsed": "0x97c"
    },
    {
      "status": "0x1",
      "cumulativeGasUsed": "0xf9e36",
      "logs": [
        {
          "address": "0x5f0d8a3e8e5990cfb23795645e6849b83fc60726",
          "topics": [
            "0x2f8788117e7eff1d82e926ec794901d17c78024a50270940304540a733656f0d",
            "0x0000000000000000000000000000000000000000000000000000000000000000",
            "0x0000000000000000000000003745f639898b064b0278574267be7d7acdcd6c44",
            "0x0000000000000000000000004015b6569369af4f17cd2da9e2f5e14a5dd162b4"
          ],
          "data": "0x",
          "blockHash": "0xb938e6284a9f6d83942374b23c975f0a1d67c322a7235374295771253a9ee783",
          "blockNumber": "0x325b76",
          "transactionHash": "0xa61acbe99db3df956a00a4effba2b0217c508f4fc68f728fd56e92ee309d345f",
          "transactionIndex": "0x6",
          "logIndex": "0x11",
          "removed": false
        }
      ],
      "logsBloom": "0x02000004000004000000000000000000000000000000000000000000000000000000004000000000000000000000000000000000000000000000000000000000000800000000000000000000000000000000000000000000000000000000000000000000020000000000000000000800080000000000000000000000000000001000000000000000000000000000000000000000000000000000000000000000000000000000000000000000000000000000000000000000001000000100000000000000000000000000000000000000000000000000000100000000000020000000010000000000000400000000000000000000000000000000000000000000",
      "type": "0x0",
      "transactionHash": "0xa61acbe99db3df956a00a4effba2b0217c508f4fc68f728fd56e92ee309d345f",
      "transactionIndex": "0x6",
      "blockHash": "0xb938e6284a9f6d83942374b23c975f0a1d67c322a7235374295771253a9ee783",
      "blockNumber": "0x325b76",
      "gasUsed": "0xe35a",
      "effectiveGasPrice": "0xf44ab",
      "from": "0x4015b6569369af4f17cd2da9e2f5e14a5dd162b4",
      "to": "0x5f0d8a3e8e5990cfb23795645e6849b83fc60726",
      "contractAddress": null,
      "l1Fee": "0x74230dd0294",
      "l1FeeScalar": "0.684",
      "l1GasPrice": "0x11e6f4312",
      "l1GasUsed": "0x97c"
    },
    {
      "status": "0x1",
      "cumulativeGasUsed": "0x17861c",
      "logs": [],
      "logsBloom": "0x00000000000000000000000000000000000000000000000000000000000000000000000000000000000000000000000000000000000000000000000000000000000000000000000000000000000000000000000000000000000000000000000000000000000000000000000000000000000000000000000000000000000000000000000000000000000000000000000000000000000000000000000000000000000000000000000000000000000000000000000000000000000000000000000000000000000000000000000000000000000000000000000000000000000000000000000000000000000000000000000000000000000000000000000000000000",
      "type": "0x0",
      "transactionHash": "0x6f09ceb10b7c95ef3d7d415bc736abd8785adb02aa29580f1c69a511c12d5979",
      "transactionIndex": "0x9",
      "blockHash": "0xec98f23ff25698ec6b8237c505dd2bc05a0910607a15767230492c4c5d8c2dc7",
      "blockNumber": "0x325b7a",
      "gasUsed": "0x8dfa",
      "effectiveGasPrice": "0xf44ab",
      "from": "0x4015b6569369af4f17cd2da9e2f5e14a5dd162b4",
      "to": "0xb762da363862a319e0a4ab93c3d9dbbc1a3be401",
      "contractAddress": null,
      "l1Fee": "0x76127237bcd",
      "l1FeeScalar": "0.684",
      "l1GasPrice": "0xfce12db7",
      "l1GasUsed": "0xaec"
    },
    {
      "status": "0x1",
      "cumulativeGasUsed": "0x7cf8d",
      "logs": [],
      "logsBloom": "0x00000000000000000000000000000000000000000000000000000000000000000000000000000000000000000000000000000000000000000000000000000000000000000000000000000000000000000000000000000000000000000000000000000000000000000000000000000000000000000000000000000000000000000000000000000000000000000000000000000000000000000000000000000000000000000000000000000000000000000000000000000000000000000000000000000000000000000000000000000000000000000000000000000000000000000000000000000000000000000000000000000000000000000000000000000000",
      "type": "0x0",
      "transactionHash": "0x33bd211ee8aa9a7fba5a3dcb0cc73953477c6aa1165ec08392519231b0b634fa",
      "transactionIndex": "0x4",
      "blockHash": "0x0fe684696ef7f9b5690ef72208d982879f6df21de5a75f8683741093ffedb825",
      "blockNumber": "0x325b7d",
      "gasUsed": "0x8dfa",
      "effectiveGasPrice": "0xf44ab",
      "from": "0x4015b6569369af4f17cd2da9e2f5e14a5dd162b4",
      "to": "0x5f0d8a3e8e5990cfb23795645e6849b83fc60726",
      "contractAddress": null,
      "l1Fee": "0x76127237bcd",
      "l1FeeScalar": "0.684",
      "l1GasPrice": "0xfce12db7",
      "l1GasUsed": "0xaec"
    }
  ],
  "libraries": [],
  "pending": [],
  "returns": {},
  "timestamp": 1715410263,
  "chain": 81457,
  "commit": "a8ab58f"
}