{
  "transactions": [
    {
      "hash": "0x7d8c214ffeecfd7394be4578b464b47616c0958ebf43d54a2773207bb55ea268",
      "transactionType": "CALL",
      "contractName": null,
      "contractAddress": "0x54bE4777F127019B4E3Fb9E31cf8FAB19287d662",
      "function": "maxContractsApprove()",
      "arguments": [],
      "transaction": {
        "type": "0x00",
        "from": "0x8d76db34ccca356fa805f5a277efff53aac5af88",
        "to": "0x54be4777f127019b4e3fb9e31cf8fab19287d662",
        "gas": "0x87f4d",
        "value": "0x0",
        "data": "0xcbb3b225",
        "nonce": "0x2b"
      },
      "additionalContracts": [],
      "isFixedGasLimit": false
    },
    {
      "hash": "0xbc31e9adc7d22a72e1260f1b253427d761097100bfea2dc6b6814002d019ffb2",
      "transactionType": "CALL",
      "contractName": null,
      "contractAddress": "0x343f864EAf4A27706ffD29c6CCf990b2934F1E00",
      "function": "claimProfit(address)",
      "arguments": [
        "0x54bE4777F127019B4E3Fb9E31cf8FAB19287d662"
      ],
      "transaction": {
        "type": "0x00",
        "from": "0x8d76db34ccca356fa805f5a277efff53aac5af88",
        "to": "0x343f864eaf4a27706ffd29c6ccf990b2934f1e00",
        "gas": "0x24eff",
        "value": "0x0",
        "data": "0xc0ab44f600000000000000000000000054be4777f127019b4e3fb9e31cf8fab19287d662",
        "nonce": "0x2c"
      },
      "additionalContracts": [],
      "isFixedGasLimit": false
    }
  ],
  "receipts": [
    {
      "transactionHash": "0x7d8c214ffeecfd7394be4578b464b47616c0958ebf43d54a2773207bb55ea268",
      "transactionIndex": "0x1",
      "blockHash": "0xa7d8c4be4f0eb9587622cfa7d3e2eb3e0013da54070364a6483401d767bb45be",
      "blockNumber": "0x185c844",
      "from": "0x8d76dB34CcCA356fA805f5A277EFFf53aaC5af88",
      "to": "0x54bE4777F127019B4E3Fb9E31cf8FAB19287d662",
      "cumulativeGasUsed": "0x4f28b",
      "gasUsed": "0x4f28b",
      "contractAddress": null,
      "logs": [
        {
          "address": "0xc6ADeA8722C2DB1EFF810f429C3C09BA00E1F25C",
          "topics": [
            "0x8c5be1e5ebec7d5bd14f71427d1e84f3dd0314c0f7b2291e5b200ac8c7c3b925",
            "0x00000000000000000000000054be4777f127019b4e3fb9e31cf8fab19287d662",
            "0x000000000000000000000000343f864eaf4a27706ffd29c6ccf990b2934f1e00"
          ],
          "data": "0xffffffffffffffffffffffffffffffffffffffffffffffffffffffffffffffff",
          "blockHash": "0xa7d8c4be4f0eb9587622cfa7d3e2eb3e0013da54070364a6483401d767bb45be",
          "blockNumber": "0x185c844",
          "transactionHash": "0x7d8c214ffeecfd7394be4578b464b47616c0958ebf43d54a2773207bb55ea268",
          "transactionIndex": "0x1",
          "logIndex": "0x0",
          "removed": false
        },
        {
          "address": "0xc6ADeA8722C2DB1EFF810f429C3C09BA00E1F25C",
          "topics": [
            "0x8c5be1e5ebec7d5bd14f71427d1e84f3dd0314c0f7b2291e5b200ac8c7c3b925",
            "0x00000000000000000000000054be4777f127019b4e3fb9e31cf8fab19287d662",
            "0x0000000000000000000000005a44ad2bedb5f4ce6041706acacff8755d7a96d8"
          ],
          "data": "0xffffffffffffffffffffffffffffffffffffffffffffffffffffffffffffffff",
          "blockHash": "0xa7d8c4be4f0eb9587622cfa7d3e2eb3e0013da54070364a6483401d767bb45be",
          "blockNumber": "0x185c844",
          "transactionHash": "0x7d8c214ffeecfd7394be4578b464b47616c0958ebf43d54a2773207bb55ea268",
          "transactionIndex": "0x1",
          "logIndex": "0x1",
          "removed": false
        }
      ],
      "status": "0x1",
      "logsBloom": "0x00000000000000000000000000000000000000000000000000000000000000000000000000004000000000000000000000000000080000000000000000200000000000000000000000000000000000000000080000100000000000000200000000001000000000000000000000080000000000000000000000000000000000000000000000000000000000000000000000000000000000000000000000000000020040000000000000000000000200000000000000000000000000000000000080000000000000000000000000000000000000000000000000000000000000000010000000000000000000000000000200000000000000040000000000000000",
      "type": "0x0",
      "effectiveGasPrice": "0x5f5e100"
    },
    {
      "transactionHash": "0xbc31e9adc7d22a72e1260f1b253427d761097100bfea2dc6b6814002d019ffb2",
      "transactionIndex": "0x1",
      "blockHash": "0xc296cb8968ee1ba05856df0da24351c08a2b5d1c953b01592922095959e4f588",
      "blockNumber": "0x185c847",
      "from": "0x8d76dB34CcCA356fA805f5A277EFFf53aaC5af88",
      "to": "0x343f864EAf4A27706ffD29c6CCf990b2934F1E00",
      "cumulativeGasUsed": "0x63824",
      "gasUsed": "0x63824",
      "contractAddress": null,
      "logs": [
        {
          "address": "0xc6ADeA8722C2DB1EFF810f429C3C09BA00E1F25C",
          "topics": [
            "0xddf252ad1be2c89b69c2b068fc378daa952ba7f163c4a11628f55a4df523b3ef",
            "0x00000000000000000000000054be4777f127019b4e3fb9e31cf8fab19287d662",
            "0x0000000000000000000000008d76db34ccca356fa805f5a277efff53aac5af88"
          ],
          "data": "0x0000000000000000000000000000000000000000000001fadd50e593ae580000",
          "blockHash": "0xc296cb8968ee1ba05856df0da24351c08a2b5d1c953b01592922095959e4f588",
          "blockNumber": "0x185c847",
          "transactionHash": "0xbc31e9adc7d22a72e1260f1b253427d761097100bfea2dc6b6814002d019ffb2",
          "transactionIndex": "0x1",
          "logIndex": "0x0",
          "removed": false
        },
        {
          "address": "0x343f864EAf4A27706ffD29c6CCf990b2934F1E00",
          "topics": [
            "0x03106d4f159f5dcdc5321f4b5167f3a89ebecd567b9eeac51168c82a25380639"
          ],
          "data": "0x00000000000000000000000054be4777f127019b4e3fb9e31cf8fab19287d66200000000000000000000000000000000000000000000021e19e0c9bab24000000000000000000000000000000000000000000000000000000000000000000000",
          "blockHash": "0xc296cb8968ee1ba05856df0da24351c08a2b5d1c953b01592922095959e4f588",
          "blockNumber": "0x185c847",
          "transactionHash": "0xbc31e9adc7d22a72e1260f1b253427d761097100bfea2dc6b6814002d019ffb2",
          "transactionIndex": "0x1",
          "logIndex": "0x1",
          "removed": false
        }
      ],
      "status": "0x1",
      "logsBloom": "0x00000000000000000000000000001000000000000000000000000000000000000000000000004000000010004000000000000000000000000000008004000000000000000000000000000008000000000000000000100000000000000000000000001000000000000000000000020000000000000000000000000010000000000000000000000000000000000000000000000002000000000000000000000000000040000000000000000000000000000000000000000000000000000000000080000002000000000000200000000000000000000000000000000000000000000000000000000000000000000000000200000000000000000000000000400000",
      "type": "0x0",
      "effectiveGasPrice": "0x5f5e100"
    }
  ],
  "libraries": [],
  "pending": [],
  "returns": {},
  "timestamp": 1711051306,
  "chain": 421614,
  "commit": "0aea9ec"
}